{
  "contractName": "Commitments",
  "abi": [
    {
      "anonymous": false,
      "inputs": [
        {
          "indexed": true,
          "internalType": "address",
          "name": "previousOwner",
          "type": "address"
        },
        {
          "indexed": true,
          "internalType": "address",
          "name": "newOwner",
          "type": "address"
        }
      ],
      "name": "OwnershipTransferred",
      "type": "event"
    },
    {
      "anonymous": false,
      "inputs": [
        {
          "indexed": false,
          "internalType": "address",
          "name": "",
          "type": "address"
        },
        {
          "indexed": false,
          "internalType": "address",
          "name": "",
          "type": "address"
        },
        {
          "indexed": false,
          "internalType": "uint256",
          "name": "",
          "type": "uint256"
        }
      ],
      "name": "Transferral",
      "type": "event"
    },
    {
      "inputs": [],
      "name": "owner",
      "outputs": [
        {
          "internalType": "address",
          "name": "",
          "type": "address"
        }
      ],
      "stateMutability": "view",
      "type": "function",
      "constant": true
    },
    {
      "inputs": [
        {
          "internalType": "address",
          "name": "newOwner",
          "type": "address"
        }
      ],
      "name": "transferOwnership",
      "outputs": [],
      "stateMutability": "nonpayable",
      "type": "function"
    },
    {
      "inputs": [],
      "name": "getCommitableBills",
      "outputs": [
        {
          "internalType": "bytes32[]",
          "name": "",
          "type": "bytes32[]"
        }
      ],
      "stateMutability": "view",
      "type": "function",
      "constant": true
    },
    {
      "inputs": [
        {
          "internalType": "bytes32",
          "name": "_billId",
          "type": "bytes32"
        }
      ],
      "name": "getBill",
      "outputs": [
        {
          "components": [
            {
              "internalType": "bytes32",
              "name": "id",
              "type": "bytes32"
            },
            {
              "internalType": "string",
              "name": "amendsBill",
              "type": "string"
            },
            {
              "internalType": "string",
              "name": "sponsor",
              "type": "string"
            },
            {
              "internalType": "address",
              "name": "sponsorAddress",
              "type": "address"
            },
            {
              "internalType": "uint256",
              "name": "dateOfIntroduction",
              "type": "uint256"
            },
            {
              "internalType": "string",
              "name": "committees",
              "type": "string"
            },
            {
              "internalType": "string",
              "name": "latestAction",
              "type": "string"
            },
            {
              "internalType": "uint256",
              "name": "latestActionDate",
              "type": "uint256"
            },
            {
              "internalType": "string",
              "name": "title",
              "type": "string"
            },
            {
              "internalType": "string",
              "name": "legislationNumber",
              "type": "string"
            },
            {
              "internalType": "enum OracleInterface.BillOutcome",
              "name": "outcome",
              "type": "uint8"
            }
          ],
          "internalType": "struct OracleInterface.Bill",
          "name": "",
          "type": "tuple"
        }
      ],
      "stateMutability": "view",
      "type": "function",
      "constant": true
    },
    {
      "inputs": [],
      "name": "getMostRecentBill",
      "outputs": [
        {
          "components": [
            {
              "internalType": "bytes32",
              "name": "id",
              "type": "bytes32"
            },
            {
              "internalType": "string",
              "name": "amendsBill",
              "type": "string"
            },
            {
              "internalType": "string",
              "name": "sponsor",
              "type": "string"
            },
            {
              "internalType": "address",
              "name": "sponsorAddress",
              "type": "address"
            },
            {
              "internalType": "uint256",
              "name": "dateOfIntroduction",
              "type": "uint256"
            },
            {
              "internalType": "string",
              "name": "committees",
              "type": "string"
            },
            {
              "internalType": "string",
              "name": "latestAction",
              "type": "string"
            },
            {
              "internalType": "uint256",
              "name": "latestActionDate",
              "type": "uint256"
            },
            {
              "internalType": "string",
              "name": "title",
              "type": "string"
            },
            {
              "internalType": "string",
              "name": "legislationNumber",
              "type": "string"
            },
            {
              "internalType": "enum OracleInterface.BillOutcome",
              "name": "outcome",
              "type": "uint8"
            }
          ],
          "internalType": "struct OracleInterface.Bill",
          "name": "",
          "type": "tuple"
        }
      ],
      "stateMutability": "view",
      "type": "function",
      "constant": true
    },
    {
      "inputs": [],
      "name": "getUserCommitments",
      "outputs": [
        {
          "internalType": "bytes32[]",
          "name": "",
          "type": "bytes32[]"
        }
      ],
      "stateMutability": "view",
      "type": "function",
      "constant": true
    },
    {
      "inputs": [
        {
          "internalType": "bytes32",
          "name": "_billId",
          "type": "bytes32"
        }
      ],
      "name": "getBillCommitments",
      "outputs": [
        {
          "components": [
            {
              "internalType": "address",
              "name": "user",
              "type": "address"
            },
            {
              "internalType": "bytes32",
              "name": "billId",
              "type": "bytes32"
            },
            {
              "internalType": "uint256",
              "name": "amount",
              "type": "uint256"
            },
            {
              "internalType": "bool",
              "name": "inSupport",
              "type": "bool"
            }
          ],
          "internalType": "struct Commitments.Commitment[]",
          "name": "",
          "type": "tuple[]"
        }
      ],
      "stateMutability": "view",
      "type": "function",
      "constant": true
    },
    {
      "inputs": [
        {
          "internalType": "bytes32",
          "name": "_billId",
          "type": "bytes32"
        }
      ],
      "name": "getUserCommitment",
      "outputs": [
        {
          "internalType": "uint256",
          "name": "amount",
          "type": "uint256"
        },
        {
          "internalType": "bool",
          "name": "inSupport",
          "type": "bool"
        }
      ],
      "stateMutability": "view",
      "type": "function",
      "constant": true
    },
    {
      "inputs": [
        {
          "internalType": "uint256",
          "name": "_amount",
          "type": "uint256"
        },
        {
          "internalType": "bytes32",
          "name": "_billId",
          "type": "bytes32"
        },
        {
          "internalType": "bool",
          "name": "_inSupport",
          "type": "bool"
        }
      ],
      "name": "placeCommitment",
      "outputs": [],
      "stateMutability": "payable",
      "type": "function",
      "payable": true
    },
    {
      "inputs": [],
      "name": "sendPendingPayouts",
      "outputs": [],
      "stateMutability": "nonpayable",
      "type": "function"
    },
    {
      "inputs": [
        {
          "internalType": "bytes32",
          "name": "_billId",
          "type": "bytes32"
        }
      ],
      "name": "checkOutcomeAndGeneratePayouts",
      "outputs": [
        {
          "internalType": "enum OracleInterface.BillOutcome",
          "name": "",
          "type": "uint8"
        }
      ],
      "stateMutability": "nonpayable",
      "type": "function"
    },
    {
      "inputs": [
        {
          "internalType": "address",
          "name": "_oracleAddress",
          "type": "address"
        }
      ],
      "name": "setOracleAddress",
      "outputs": [
        {
          "internalType": "bool",
          "name": "",
          "type": "bool"
        }
      ],
      "stateMutability": "nonpayable",
      "type": "function"
    },
    {
      "inputs": [],
      "name": "getOracleAddress",
      "outputs": [
        {
          "internalType": "address",
          "name": "",
          "type": "address"
        }
      ],
      "stateMutability": "view",
      "type": "function",
      "constant": true
    },
    {
      "inputs": [],
      "name": "testOracleConnection",
      "outputs": [
        {
          "internalType": "bool",
          "name": "",
          "type": "bool"
        }
      ],
      "stateMutability": "view",
      "type": "function",
      "constant": true
    }
  ],
  "bytecode": "0x6080604052600580546001600160a01b031990811690915560068054909116905564e8d4a51000600755600260085534801561003a57600080fd5b50600080546001600160a01b03191633179055611b2c8061005c6000396000f3fe6080604052600436106100dd5760003560e01c806371fe7e011161007f5780638da5cb5b116100595780638da5cb5b146102495780639aeeb70914610281578063b18b78dd14610296578063f2fde38b146102b457600080fd5b806371fe7e01146101e557806379d57d30146101fa5780637bef7ce11461022757600080fd5b80634326d601116100bb5780634326d601146101505780634c69c00f1461017d578063528de27f1461019d5780635f0012fe146101d257600080fd5b80631a4bd9a6146100e25780632ce3707e146100f9578063342c196c14610123575b600080fd5b3480156100ee57600080fd5b506100f76102d4565b005b34801561010557600080fd5b5061010e61037f565b60405190151581526020015b60405180910390f35b34801561012f57600080fd5b5061014361013e3660046113ee565b6103f2565b60405161011a919061149b565b34801561015c57600080fd5b5061017061016b3660046113ee565b610471565b60405161011a91906115af565b34801561018957600080fd5b5061010e6101983660046115d2565b6104ed565b3480156101a957600080fd5b506101bd6101b83660046113ee565b61058e565b6040805192835290151560208301520161011a565b6100f76101e03660046115fd565b61065d565b3480156101f157600080fd5b5061014361094c565b34801561020657600080fd5b5061021a6102153660046113ee565b6109c5565b60405161011a9190611636565b34801561023357600080fd5b5061023c610a67565b60405161011a91906116a5565b34801561025557600080fd5b50600054610269906001600160a01b031681565b6040516001600160a01b03909116815260200161011a565b34801561028d57600080fd5b5061023c610ad9565b3480156102a257600080fd5b506005546001600160a01b0316610269565b3480156102c057600080fd5b506100f76102cf3660046115d2565b610b3a565b6000546001600160a01b031633146102eb57600080fd5b60005b600454811015610368576103566004828154811061030e5761030e6116e9565b6000918252602090912060029091020154600480546001600160a01b03909216918490811061033f5761033f6116e9565b906000526020600020906002020160010154610bbf565b8061036081611715565b9150506102ee565b50610371610c4a565b61037d6004600061132d565b565b60065460408051630d04a85760e21b815290516000926001600160a01b031691633412a15c9160048083019260209291908290030181865afa1580156103c9573d6000803e3d6000fd5b505050506040513d601f19601f820116820180604052508101906103ed919061172e565b905090565b6103fa61134e565b600654604051630d0b065b60e21b8152600481018490526001600160a01b039091169063342c196c90602401600060405180830381865afa158015610443573d6000803e3d6000fd5b505050506040513d6000823e601f3d908101601f1916820160405261046b9190810190611842565b92915050565b600080546001600160a01b0316331461048957600080fd5b6000610494836103f2565b9050600081610140015160028111156104af576104af611463565b141580156104cc575060008381526003602052604090205460ff16155b156104e0576104e083826101400151610cd7565b610140015190505b919050565b600080546001600160a01b0316331461050557600080fd5b600580546001600160a01b0384166001600160a01b03199182168117909255600680549091168217905560408051630d04a85760e21b81529051633412a15c916004808201926020929091908290030181865afa15801561056a573d6000803e3d6000fd5b505050506040513d601f19601f8201168201806040525081019061046b919061172e565b60008181526002602052604081208190815b815481101561065057336001600160a01b03168282815481106105c5576105c56116e9565b60009182526020909120600490910201546001600160a01b03160361063e578181815481106105f6576105f66116e9565b90600052602060002090600402016002015482828154811061061a5761061a6116e9565b6000918252602090912060036004909202010154909660ff90911695509350505050565b8061064881611715565b9150506105a0565b5060009485945092505050565b82341461066957600080fd5b6007543410156106d85760405162461bcd60e51b815260206004820152602f60248201527f436f6d6d69746d656e7420616d6f756e74206d757374206265203e3d206d696e60448201526e1a5b5d5b4818dbdb5b5a5d1b595b9d608a1b60648201526084015b60405180910390fd5b6006546040516001625c874f60e01b03198152600481018490526001600160a01b039091169063ffa378b190602401602060405180830381865afa158015610724573d6000803e3d6000fd5b505050506040513d601f19601f82011682018060405250810190610748919061172e565b6107945760405162461bcd60e51b815260206004820152601860248201527f5370656369666965642062696c6c206e6f7420666f756e64000000000000000060448201526064016106cf565b61079e338361111d565b6107ea5760405162461bcd60e51b815260206004820152601760248201527f436f6d6d69746d656e74206973206e6f742076616c696400000000000000000060448201526064016106cf565b600654604051631b1a69a360e21b8152600481018490526001600160a01b0390911690636c69a68c90602401602060405180830381865afa158015610833573d6000803e3d6000fd5b505050506040513d601f19601f82011682018060405250810190610857919061172e565b6108a35760405162461bcd60e51b815260206004820152601c60248201527f42696c6c206e6f74206f70656e20666f7220636f6d6d69746d656e740000000060448201526064016106cf565b60008281526002602081815260408084208151608081018352338082528185018981523483860190815298151560608401908152845460018082018755958a52878a209451600490910290940180546001600160a01b0319166001600160a01b0390951694909417845590518385015597519582019590955595516003909601805460ff1916961515969096179095559183528381529082208054938401815582529020015550565b61095461134e565b60065460405163b6f0623f60e01b8152600160048201526001600160a01b039091169063b6f0623f90602401600060405180830381865afa15801561099d573d6000803e3d6000fd5b505050506040513d6000823e601f3d908101601f191682016040526103ed9190810190611842565b606060026000838152602001908152602001600020805480602002602001604051908101604052809291908181526020016000905b82821015610a5c576000848152602090819020604080516080810182526004860290920180546001600160a01b03168352600180820154848601526002820154928401929092526003015460ff161515606083015290835290920191016109fa565b505050509050919050565b600654604080516314b45ce960e21b815290516060926001600160a01b0316916352d173a49160048083019260009291908290030181865afa158015610ab1573d6000803e3d6000fd5b505050506040513d6000823e601f3d908101601f191682016040526103ed91908101906119ad565b33600090815260016020908152604091829020805483518184028101840190945280845260609392830182828015610b3057602002820191906000526020600020905b815481526020019060010190808311610b1c575b5050505050905090565b6000546001600160a01b03163314610b5157600080fd5b6001600160a01b038116610b6457600080fd5b600080546040516001600160a01b03808516939216917f8be0079c531659141344cd1fd0a4f28419497f9722a3daafe3b4186f6b6457e091a3600080546001600160a01b0319166001600160a01b0392909216919091179055565b604080513081526001600160a01b03841660208201529081018290527f070ded6608617d161bf9727e9573e5b793a0bc0cff5c7029cf2e78afe1d471ec9060600160405180910390a18015610c46576040516001600160a01b0383169082156108fc029083906000818181858888f19350505050158015610c44573d6000803e3d6000fd5b505b5050565b600054604080513081526001600160a01b0390921660208301524782820152517f070ded6608617d161bf9727e9573e5b793a0bc0cff5c7029cf2e78afe1d471ec9181900360600190a1471561037d57600080546040516001600160a01b03909116914780156108fc02929091818181858888f19350505050158015610cd4573d6000803e3d6000fd5b50565b6000816002811115610ceb57610ceb611463565b03610cf557600080fd5b6000828152600260205260408120908080805b8454811015610da1576000858281548110610d2557610d256116e9565b9060005260206000209060040201600201549050610d6b87878481548110610d4f57610d4f6116e9565b600091825260209091206003600490920201015460ff166111e0565b15610d8157610d7a8482611244565b9350610d8e565b610d8b8582611244565b94505b5080610d9981611715565b915050610d08565b50610dac8383611244565b905060005b8454811015610fdf576000858281548110610dce57610dce6116e9565b60009182526020909120600490910201546001600160a01b031690506001876002811115610dfe57610dfe611463565b03610eea57610e1987878481548110610d4f57610d4f6116e9565b15610ee5576000610e508585898681548110610e3757610e376116e9565b9060005260206000209060040201600201546000611262565b604080518082019091526001600160a01b038481168252602082019283526004805460018101825560009190915291517f8a35acfbc15ff81a39ae7d344fd709f28e8600b4aa8c65c6b64bfe7fe36bd19b600290930292830180546001600160a01b0319169190921617905590517f8a35acfbc15ff81a39ae7d344fd709f28e8600b4aa8c65c6b64bfe7fe36bd19c90910155505b610fcc565b610f0087878481548110610d4f57610d4f6116e9565b15610fcc576000610f378585898681548110610f1e57610f1e6116e9565b9060005260206000209060040201600201546001611262565b604080518082019091526001600160a01b038481168252602082019283526004805460018101825560009190915291517f8a35acfbc15ff81a39ae7d344fd709f28e8600b4aa8c65c6b64bfe7fe36bd19b600290930292830180546001600160a01b0319169190921617905590517f8a35acfbc15ff81a39ae7d344fd709f28e8600b4aa8c65c6b64bfe7fe36bd19c90910155505b5080610fd781611715565b915050610db1565b506001856002811115610ff457610ff4611463565b036110fd57600654604051634f2e6cd960e01b8152600481018890526000916001600160a01b031690634f2e6cd990602401602060405180830381865afa158015611043573d6000803e3d6000fd5b505050506040513d601f19601f820116820180604052508101906110679190611a53565b604080518082019091526001600160a01b039182168152602081018581526004805460018101825560009190915291517f8a35acfbc15ff81a39ae7d344fd709f28e8600b4aa8c65c6b64bfe7fe36bd19b600290930292830180546001600160a01b031916919094161790925590517f8a35acfbc15ff81a39ae7d344fd709f28e8600b4aa8c65c6b64bfe7fe36bd19c90910155505b50505060009283525050600360205260409020805460ff19166001179055565b6001600160a01b03821660009081526001602090815260408083208054825181850281018501909352808352849383018282801561117a57602002820191906000526020600020905b815481526020019060010190808311611166575b505050505090506000815111156111d65760005b81518110156111d457838282815181106111aa576111aa6116e9565b6020026020010151036111c25760009250505061046b565b806111cc81611715565b91505061118e565b505b5060019392505050565b6000808360028111156111f5576111f5611463565b036111ff57600080fd5b600183600281111561121357611213611463565b0361122e5781156112265750600161046b565b50600061046b565b811561123c5750600061046b565b50600161046b565b60006112508284611a70565b90508281101561046b5761046b611a88565b60008061126f84876112e4565b905060008315611295578461128487846112f7565b61128e9190611a70565b90506112a2565b61129f86836112f7565b90505b806000036112af57506007545b6112cf60646112c9600854846112f790919063ffffffff16565b906112e4565b6112d99082611a9e565b979650505050505050565b60006112f08284611ab5565b9392505050565b6000826000036113095750600061046b565b6113138284611ad7565b9050816113208483611ab5565b1461046b5761046b611a88565b5080546000825560020290600052602060002090810190610cd491906113c4565b60405180610160016040528060008019168152602001606081526020016060815260200160006001600160a01b03168152602001600081526020016060815260200160608152602001600081526020016060815260200160608152602001600060028111156113bf576113bf611463565b905290565b5b808211156113ea5780546001600160a01b0319168155600060018201556002016113c5565b5090565b60006020828403121561140057600080fd5b5035919050565b60005b8381101561142257818101518382015260200161140a565b83811115611431576000848401525b50505050565b6000815180845261144f816020860160208601611407565b601f01601f19169290920160200192915050565b634e487b7160e01b600052602160045260246000fd5b6003811061149757634e487b7160e01b600052602160045260246000fd5b9052565b6020815281516020820152600060208301516101608060408501526114c4610180850183611437565b91506040850151601f19808685030160608701526114e28483611437565b93506060870151915061150060808701836001600160a01b03169052565b608087015160a087015260a08701519150808685030160c08701526115258483611437565b935060c08701519150808685030160e08701526115428483611437565b935060e087015191506101008281880152808801519250506101208187860301818801526115708584611437565b94508088015192505061014081878603018188015261158f8584611437565b945080880151925050506115a582860182611479565b5090949350505050565b6020810161046b8284611479565b6001600160a01b0381168114610cd457600080fd5b6000602082840312156115e457600080fd5b81356112f0816115bd565b8015158114610cd457600080fd5b60008060006060848603121561161257600080fd5b8335925060208401359150604084013561162b816115ef565b809150509250925092565b602080825282518282018190526000919060409081850190868401855b8281101561169857815180516001600160a01b031685528681015187860152858101518686015260609081015115159085015260809093019290850190600101611653565b5091979650505050505050565b6020808252825182820181905260009190848201906040850190845b818110156116dd578351835292840192918401916001016116c1565b50909695505050505050565b634e487b7160e01b600052603260045260246000fd5b634e487b7160e01b600052601160045260246000fd5b600060018201611727576117276116ff565b5060010190565b60006020828403121561174057600080fd5b81516112f0816115ef565b634e487b7160e01b600052604160045260246000fd5b604051610160810167ffffffffffffffff811182821017156117855761178561174b565b60405290565b604051601f8201601f1916810167ffffffffffffffff811182821017156117b4576117b461174b565b604052919050565b600082601f8301126117cd57600080fd5b815167ffffffffffffffff8111156117e7576117e761174b565b6117fa601f8201601f191660200161178b565b81815284602083860101111561180f57600080fd5b611820826020830160208701611407565b949350505050565b80516104e8816115bd565b8051600381106104e857600080fd5b60006020828403121561185457600080fd5b815167ffffffffffffffff8082111561186c57600080fd5b90830190610160828603121561188157600080fd5b611889611761565b8251815260208301518281111561189f57600080fd5b6118ab878286016117bc565b6020830152506040830151828111156118c357600080fd5b6118cf878286016117bc565b6040830152506118e160608401611828565b60608201526080830151608082015260a08301518281111561190257600080fd5b61190e878286016117bc565b60a08301525060c08301518281111561192657600080fd5b611932878286016117bc565b60c08301525060e083015160e0820152610100808401518381111561195657600080fd5b611962888287016117bc565b828401525050610120808401518381111561197c57600080fd5b611988888287016117bc565b828401525050610140915061199e828401611833565b91810191909152949350505050565b600060208083850312156119c057600080fd5b825167ffffffffffffffff808211156119d857600080fd5b818501915085601f8301126119ec57600080fd5b8151818111156119fe576119fe61174b565b8060051b9150611a0f84830161178b565b8181529183018401918481019088841115611a2957600080fd5b938501935b83851015611a4757845182529385019390850190611a2e565b98975050505050505050565b600060208284031215611a6557600080fd5b81516112f0816115bd565b60008219821115611a8357611a836116ff565b500190565b634e487b7160e01b600052600160045260246000fd5b600082821015611ab057611ab06116ff565b500390565b600082611ad257634e487b7160e01b600052601260045260246000fd5b500490565b6000816000190483118215151615611af157611af16116ff565b50029056fea26469706673582212206ac6ce2816c5b7c4ccd2f4fd69c5900d55812ba3bfa4194e0b935114b2e4295464736f6c634300080e0033",
  "immutableReferences": {},
  "source": "// SPDX-License-Identifier: MIT\npragma solidity >=0.4.22 <0.9.0;\n\nimport \"./OracleInterface.sol\";\nimport \"./Ownable.sol\";\nimport \"./SafeMath.sol\";\n\n/// @title Commitments\n/// @author Oliver Song\n/// @notice Takes commitments and handles payouts for bill outcomes\ncontract Commitments is Ownable {\n    // mappings\n    mapping(address => bytes32[]) private userToCommitments;\n    mapping(bytes32 => Commitment[]) private billToCommitments;\n    mapping(bytes32 => bool) internal billPaidOut;\n    Payout[] payouts;\n\n    // bill outcomes oracle\n    address internal billOracleAddr = address(0);\n    OracleInterface internal billOracle = OracleInterface(billOracleAddr);\n\n    //constants\n    uint internal minimumCommitment = 1000000000000;  // 1000 gwei\n    uint internal housePercentage = 2;\n\n    event Transferral(address, address, uint);\n\n    using SafeMath for uint;\n\n    struct Commitment {\n        address user;\n        bytes32 billId;\n        uint amount;\n        bool inSupport;\n    }\n\n    struct Payout{\n        address user;\n        uint amount;\n    }\n\n    /// @notice determines whether or not the user has already committed to the given bill\n    /// @param _user address of a user\n    /// @param _billId id of a bill\n    /// @return true if the given user has already placed a commitment on the given bill\n    function _commitmentIsValid(address _user, bytes32 _billId) private view returns (bool) {\n        bytes32[] memory userCommitments = userToCommitments[_user];\n        if (userCommitments.length > 0) {\n            for (uint n = 0; n < userCommitments.length; n++) {\n                if (userCommitments[n] == _billId) {\n                    return false;\n                }\n            }\n        }\n        return true;\n    }\n\n    /// @notice gets a list ids of all currently commitable bill\n    /// @return array of bill ids\n    function getCommitableBills() public view returns (bytes32[] memory) {\n        return billOracle.getPendingBills();\n    }\n\n    /// @notice returns the full data of the specified bill\n    /// @param _billId the id of the desired bill\n    function getBill(bytes32 _billId) public view returns (OracleInterface.Bill memory) {\n        return billOracle.getBill(_billId);\n    }\n\n    /// @notice returns the full data of the most recent commitable bill\n    function getMostRecentBill() public view returns (OracleInterface.Bill memory) {\n        return billOracle.getMostRecentBill(true);\n    }\n\n    /// @notice gets the current bills on which the user has commitments\n    /// @return array of bill ids\n    function getUserCommitments() public view returns (bytes32[] memory) {\n        return userToCommitments[msg.sender];\n    }\n\n    /// @notice gets the current commitments for the bill\n    /// @param _billId the id of the desired bill\n    /// @return array of Commitments\n    function getBillCommitments(bytes32 _billId) public view returns (Commitment[] memory) {\n        return billToCommitments[_billId];\n    }\n\n    /// @notice gets a user's commitment\n    /// @param _billId the id of the desired bill\n    /// @return amount commitment amount, or 0 if no commitment found\n    /// @return inSupport in support of bill or not, or 0 if no commitment found\n    function getUserCommitment(bytes32 _billId) public view returns (uint amount, bool inSupport) {\n        // FIXME: perhaps should iterate through usercommitments instead\n        // actually, probably shouldn't be iterating at all if possible\n        Commitment[] storage commitments = billToCommitments[_billId];\n        for (uint n = 0; n < commitments.length; n++) {\n            if (commitments[n].user == msg.sender) {\n                return (commitments[n].amount, commitments[n].inSupport);\n            }\n        }\n        // FIXME could gate this with a require and instead\n        // add a method \"userHasCommitment\".\n        // Could also gate billid on existing bill\n        return (0, false);\n    }\n\n    /// @notice places a non-rescindable commitment on the given bill\n    /// @param _amount the id of the bill on which to commitment\n    /// @param _billId the id of the bill on which to commitment\n    /// @param _inSupport commitment in favor of bill passing (vs against)\n    function placeCommitment(uint _amount, bytes32 _billId, bool _inSupport) public payable {\n        require(msg.value == _amount);\n\n        // commitment must be above a certain minimum\n        require(msg.value >= minimumCommitment, \"Commitment amount must be >= minimum commitment\");\n\n        // make sure that bill exists\n        require(billOracle.billExists(_billId), \"Specified bill not found\");\n\n        // validate\n        require(_commitmentIsValid(msg.sender, _billId), \"Commitment is not valid\");\n\n        // bill must still be open for commitment\n        require(billOracle.billIsPending(_billId), \"Bill not open for commitment\");\n\n        // add the new commitment\n        Commitment[] storage commitments = billToCommitments[_billId];\n        commitments.push(Commitment(msg.sender, _billId, msg.value, _inSupport));\n\n        // add the mapping\n        bytes32[] storage userCommitments = userToCommitments[msg.sender];\n        userCommitments.push(_billId);\n    }\n\n    function _payOutWinnings(address _user, uint _amount) private {\n        emit Transferral(address(this), _user, _amount);\n        if (_amount != 0) {\n            payable(_user).transfer(_amount);\n        }\n    }\n\n    function _transferToHouse() private {\n        emit Transferral(address(this), owner, address(this).balance);\n        if (address(this).balance != 0) {\n            payable(owner).transfer(address(this).balance);\n        }\n    }\n\n    function _isWinningCommitment(OracleInterface.BillOutcome _outcome, bool inSupport) private pure returns (bool) {\n        require(_outcome != OracleInterface.BillOutcome.Pending);\n\n        if (_outcome == OracleInterface.BillOutcome.BecameLaw) {\n            if (inSupport) {\n                return true;\n            } else {\n                return false;\n            }\n        } else {\n            if (inSupport) {\n                return false;\n            } else {\n                return true;\n            }\n        }\n    }\n\n    /// @notice calculates the amount to be paid out for a commitment\n    /// @param _winningTotal the total monetary amount of winning commitments\n    /// @param _losingTotal the total monetary amount of losing commitments\n    /// @param _committedAmount the amount of this particular commitment\n    /// @return an amount in wei\n    function _calculatePayout(uint _winningTotal, uint _losingTotal, uint _committedAmount, bool _keepCommitment) private view returns (uint) {\n        uint percentWinningTotal = _committedAmount.div(_winningTotal);\n\n        // calculate raw share\n        uint winningAmount = 0;\n        if (_keepCommitment) {\n            winningAmount = _losingTotal.mul(percentWinningTotal) + _committedAmount;\n        } else {\n            winningAmount = _losingTotal.mul(percentWinningTotal);\n        }\n\n        // if share has been rounded down to zero, fix that\n        if (winningAmount == 0) {\n            winningAmount = minimumCommitment;\n        }\n\n        // take out house cut\n        return winningAmount - winningAmount.mul(housePercentage).div(100);\n    }\n\n    /// @notice calculates how much to pay out to each winner, then pays each winner the appropriate amount\n    /// @param _billId the unique id of the bill\n    /// @param _outcome the bill's outcome\n    function _generatePayouts(bytes32 _billId, OracleInterface.BillOutcome _outcome) private {\n        require(_outcome != OracleInterface.BillOutcome.Pending);\n\n        Commitment[] storage commitments = billToCommitments[_billId];\n        uint losingTotal = 0;\n        uint winningTotal = 0;\n        uint totalPot = 0;\n\n        // count winning commitments & get total\n        for (uint n = 0; n < commitments.length; n++) {\n            uint amount = commitments[n].amount;\n            if (_isWinningCommitment(_outcome, commitments[n].inSupport)) {\n                winningTotal = winningTotal.add(amount);\n            } else {\n                losingTotal = losingTotal.add(amount);\n            }\n        }\n        totalPot = losingTotal.add(winningTotal);\n\n        // calculate user payouts\n        for (uint n = 0; n < commitments.length; n++) {\n            address targetUserAddress = commitments[n].user;\n            if (_outcome == OracleInterface.BillOutcome.BecameLaw) {\n                // in the passing case, supporters get detractors' commitments\n                // minus their own commitment, which goes to legislator\n                if (_isWinningCommitment(_outcome, commitments[n].inSupport)) {\n                    uint payoutAmount = _calculatePayout(winningTotal, totalPot, commitments[n].amount, false);\n                    payouts.push(Payout(targetUserAddress, payoutAmount));\n                }\n            } else {\n                // in the rejected case, detractors get supporters' commitments\n                // plus their own back. Legislators get nothing.\n                if (_isWinningCommitment(_outcome, commitments[n].inSupport)) {\n                    uint payoutAmount = _calculatePayout(winningTotal, totalPot, commitments[n].amount, true);\n                    payouts.push(Payout(targetUserAddress, payoutAmount));\n                }\n            }\n        }\n\n        // calculate legislator payout\n        if (_outcome == OracleInterface.BillOutcome.BecameLaw) {\n            // legislator gets support total\n            address sponsor = billOracle.getBillSponsorAddress(_billId);\n            payouts.push(Payout(sponsor, winningTotal));\n        }\n\n        // mark bill as paid out. Not actually paid out yet, but awaiting\n        // second function call. Here to prevent double sends.\n        billPaidOut[_billId] = true;\n    }\n\n\n    /// @notice pays users\n    function sendPendingPayouts() external onlyOwner {\n        // pay out to users\n        for (uint n = 0; n < payouts.length; n++) {\n            _payOutWinnings(payouts[n].user, payouts[n].amount);\n        }\n\n        // transfer the remainder to the house\n        _transferToHouse();\n\n        // empty the payouts array\n        delete payouts;\n    }\n\n\n    /// @notice check the outcome of the given bill; if ready, will trigger calculation of payout, and actual payout to winners\n    /// @param _billId the id of the bill to check\n    /// @return the outcome of the given bill\n    function checkOutcomeAndGeneratePayouts(bytes32 _billId) external onlyOwner returns (OracleInterface.BillOutcome)  {\n        OracleInterface.Bill memory b = getBill(_billId);\n\n        if (b.outcome != OracleInterface.BillOutcome.Pending && !billPaidOut[_billId]) {\n            _generatePayouts(_billId, b.outcome);\n        }\n\n        return b.outcome;\n    }\n\n\n    /// @notice sets the address of the oracle contract to use\n    /// @dev setting a wrong address may result in false return value, or error\n    /// @param _oracleAddress the address of the oracle\n    /// @return true if connection to the new oracle address was successful\n    function setOracleAddress(address _oracleAddress) external onlyOwner returns (bool) {\n        billOracleAddr = _oracleAddress;\n        billOracle = OracleInterface(billOracleAddr);\n        return billOracle.testConnection();\n    }\n\n    /// @notice gets the address of the oracle being used\n    /// @return the address of the currently set oracle\n    function getOracleAddress() external view returns (address) {\n        return billOracleAddr;\n    }\n\n    /// @notice for testing; tests that the oracle is callable\n    /// @return true if connection successful\n    function testOracleConnection() public view returns (bool) {\n        return billOracle.testConnection();\n    }\n}\n",
  "sourcePath": "/Users/oliversong/Development/open-lobby/client/contracts/Commitments.sol",
  "compiler": {
    "name": "solc",
    "version": "0.8.14+commit.80d49f37.Emscripten.clang"
  },
  "schemaVersion": "3.4.7",
  "updatedAt": "2022-07-17T23:29:19.398Z",
  "networkType": "ethereum",
  "devdoc": {
    "author": "Oliver Song",
    "kind": "dev",
    "methods": {
      "checkOutcomeAndGeneratePayouts(bytes32)": {
        "params": {
          "_billId": "the id of the bill to check"
        },
        "returns": {
          "_0": "the outcome of the given bill"
        }
      },
      "getBill(bytes32)": {
        "params": {
          "_billId": "the id of the desired bill"
        }
      },
      "getBillCommitments(bytes32)": {
        "params": {
          "_billId": "the id of the desired bill"
        },
        "returns": {
          "_0": "array of Commitments"
        }
      },
      "getCommitableBills()": {
        "returns": {
          "_0": "array of bill ids"
        }
      },
      "getOracleAddress()": {
        "returns": {
          "_0": "the address of the currently set oracle"
        }
      },
      "getUserCommitment(bytes32)": {
        "params": {
          "_billId": "the id of the desired bill"
        },
        "returns": {
          "amount": "commitment amount, or 0 if no commitment found",
          "inSupport": "in support of bill or not, or 0 if no commitment found"
        }
      },
      "getUserCommitments()": {
        "returns": {
          "_0": "array of bill ids"
        }
      },
      "placeCommitment(uint256,bytes32,bool)": {
        "params": {
          "_amount": "the id of the bill on which to commitment",
          "_billId": "the id of the bill on which to commitment",
          "_inSupport": "commitment in favor of bill passing (vs against)"
        }
      },
      "setOracleAddress(address)": {
        "details": "setting a wrong address may result in false return value, or error",
        "params": {
          "_oracleAddress": "the address of the oracle"
        },
        "returns": {
          "_0": "true if connection to the new oracle address was successful"
        }
      },
      "testOracleConnection()": {
        "returns": {
          "_0": "true if connection successful"
        }
      },
      "transferOwnership(address)": {
        "details": "Allows the current owner to transfer control of the contract to a newOwner.",
        "params": {
          "newOwner": "The address to transfer ownership to."
        }
      }
    },
    "title": "Commitments",
    "version": 1
  },
  "userdoc": {
    "kind": "user",
    "methods": {
      "checkOutcomeAndGeneratePayouts(bytes32)": {
        "notice": "check the outcome of the given bill; if ready, will trigger calculation of payout, and actual payout to winners"
      },
      "getBill(bytes32)": {
        "notice": "returns the full data of the specified bill"
      },
      "getBillCommitments(bytes32)": {
        "notice": "gets the current commitments for the bill"
      },
      "getCommitableBills()": {
        "notice": "gets a list ids of all currently commitable bill"
      },
      "getMostRecentBill()": {
        "notice": "returns the full data of the most recent commitable bill"
      },
      "getOracleAddress()": {
        "notice": "gets the address of the oracle being used"
      },
      "getUserCommitment(bytes32)": {
        "notice": "gets a user's commitment"
      },
      "getUserCommitments()": {
        "notice": "gets the current bills on which the user has commitments"
      },
      "placeCommitment(uint256,bytes32,bool)": {
        "notice": "places a non-rescindable commitment on the given bill"
      },
      "sendPendingPayouts()": {
        "notice": "pays users"
      },
      "setOracleAddress(address)": {
        "notice": "sets the address of the oracle contract to use"
      },
      "testOracleConnection()": {
        "notice": "for testing; tests that the oracle is callable"
      }
    },
    "notice": "Takes commitments and handles payouts for bill outcomes",
    "version": 1
  }
}