{
  "contractName": "Commitments",
  "abi": [
    {
      "anonymous": false,
      "inputs": [
        {
          "indexed": true,
          "internalType": "address",
          "name": "previousOwner",
          "type": "address"
        },
        {
          "indexed": true,
          "internalType": "address",
          "name": "newOwner",
          "type": "address"
        }
      ],
      "name": "OwnershipTransferred",
      "type": "event"
    },
    {
      "inputs": [],
      "name": "owner",
      "outputs": [
        {
          "internalType": "address",
          "name": "",
          "type": "address"
        }
      ],
      "stateMutability": "view",
      "type": "function"
    },
    {
      "inputs": [
        {
          "internalType": "address",
          "name": "newOwner",
          "type": "address"
        }
      ],
      "name": "transferOwnership",
      "outputs": [],
      "stateMutability": "nonpayable",
      "type": "function"
    },
    {
      "inputs": [],
      "name": "getCommitableBills",
      "outputs": [
        {
          "internalType": "bytes32[]",
          "name": "",
          "type": "bytes32[]"
        }
      ],
      "stateMutability": "view",
      "type": "function"
    },
    {
      "inputs": [
        {
          "internalType": "bytes32",
          "name": "_billId",
          "type": "bytes32"
        }
      ],
      "name": "getBill",
      "outputs": [
        {
          "components": [
            {
              "internalType": "bytes32",
              "name": "id",
              "type": "bytes32"
            },
            {
              "internalType": "string",
              "name": "amendsBill",
              "type": "string"
            },
            {
              "internalType": "string",
              "name": "sponsor",
              "type": "string"
            },
            {
              "internalType": "uint256",
              "name": "dateOfIntroduction",
              "type": "uint256"
            },
            {
              "internalType": "string",
              "name": "committees",
              "type": "string"
            },
            {
              "internalType": "string",
              "name": "latestAction",
              "type": "string"
            },
            {
              "internalType": "uint256",
              "name": "latestActionDate",
              "type": "uint256"
            },
            {
              "internalType": "string",
              "name": "title",
              "type": "string"
            },
            {
              "internalType": "string",
              "name": "legislationNumber",
              "type": "string"
            },
            {
              "internalType": "enum OracleInterface.BillOutcome",
              "name": "outcome",
              "type": "uint8"
            }
          ],
          "internalType": "struct OracleInterface.Bill",
          "name": "",
          "type": "tuple"
        }
      ],
      "stateMutability": "view",
      "type": "function"
    },
    {
      "inputs": [],
      "name": "getMostRecentBill",
      "outputs": [
        {
          "components": [
            {
              "internalType": "bytes32",
              "name": "id",
              "type": "bytes32"
            },
            {
              "internalType": "string",
              "name": "amendsBill",
              "type": "string"
            },
            {
              "internalType": "string",
              "name": "sponsor",
              "type": "string"
            },
            {
              "internalType": "uint256",
              "name": "dateOfIntroduction",
              "type": "uint256"
            },
            {
              "internalType": "string",
              "name": "committees",
              "type": "string"
            },
            {
              "internalType": "string",
              "name": "latestAction",
              "type": "string"
            },
            {
              "internalType": "uint256",
              "name": "latestActionDate",
              "type": "uint256"
            },
            {
              "internalType": "string",
              "name": "title",
              "type": "string"
            },
            {
              "internalType": "string",
              "name": "legislationNumber",
              "type": "string"
            },
            {
              "internalType": "enum OracleInterface.BillOutcome",
              "name": "outcome",
              "type": "uint8"
            }
          ],
          "internalType": "struct OracleInterface.Bill",
          "name": "",
          "type": "tuple"
        }
      ],
      "stateMutability": "view",
      "type": "function"
    },
    {
      "inputs": [
        {
          "internalType": "bytes32",
          "name": "_billId",
          "type": "bytes32"
        },
        {
          "internalType": "bool",
          "name": "_inSupport",
          "type": "bool"
        }
      ],
      "name": "placeCommitment",
      "outputs": [],
      "stateMutability": "payable",
      "type": "function"
    },
    {
      "inputs": [
        {
          "internalType": "address",
          "name": "_oracleAddress",
          "type": "address"
        }
      ],
      "name": "setOracleAddress",
      "outputs": [
        {
          "internalType": "bool",
          "name": "",
          "type": "bool"
        }
      ],
      "stateMutability": "nonpayable",
      "type": "function"
    },
    {
      "inputs": [],
      "name": "getOracleAddress",
      "outputs": [
        {
          "internalType": "address",
          "name": "",
          "type": "address"
        }
      ],
      "stateMutability": "view",
      "type": "function"
    },
    {
      "inputs": [],
      "name": "testOracleConnection",
      "outputs": [
        {
          "internalType": "bool",
          "name": "",
          "type": "bool"
        }
      ],
      "stateMutability": "view",
      "type": "function"
    }
  ],
  "bytecode": "0x60806040526000600360006101000a81548173ffffffffffffffffffffffffffffffffffffffff021916908373ffffffffffffffffffffffffffffffffffffffff160217905550600360009054906101000a900473ffffffffffffffffffffffffffffffffffffffff16600460006101000a81548173ffffffffffffffffffffffffffffffffffffffff021916908373ffffffffffffffffffffffffffffffffffffffff16021790555064e8d4a510006005553480156100be57600080fd5b50336000806101000a81548173ffffffffffffffffffffffffffffffffffffffff021916908373ffffffffffffffffffffffffffffffffffffffff16021790555061178f8061010e6000396000f3fe6080604052600436106100865760003560e01c806371fe7e011161005957806371fe7e011461014c5780637bef7ce1146101775780638da5cb5b146101a2578063b18b78dd146101cd578063f2fde38b146101f857610086565b80632ce3707e1461008b578063342c196c146100b65780633962c22b146100f35780634c69c00f1461010f575b600080fd5b34801561009757600080fd5b506100a0610221565b6040516100ad9190610b9d565b60405180910390f35b3480156100c257600080fd5b506100dd60048036038101906100d89190610c02565b6102b9565b6040516100ea9190610e64565b60405180910390f35b61010d60048036038101906101089190610eb2565b610369565b005b34801561011b57600080fd5b5061013660048036038101906101319190610f50565b610683565b6040516101439190610b9d565b60405180910390f35b34801561015857600080fd5b5061016161081a565b60405161016e9190610e64565b60405180910390f35b34801561018357600080fd5b5061018c6108c9565b604051610199919061102c565b60405180910390f35b3480156101ae57600080fd5b506101b7610966565b6040516101c4919061105d565b60405180910390f35b3480156101d957600080fd5b506101e261098a565b6040516101ef919061105d565b60405180910390f35b34801561020457600080fd5b5061021f600480360381019061021a9190610f50565b6109b4565b005b6000600460009054906101000a900473ffffffffffffffffffffffffffffffffffffffff1673ffffffffffffffffffffffffffffffffffffffff16633412a15c6040518163ffffffff1660e01b8152600401602060405180830381865afa158015610290573d6000803e3d6000fd5b505050506040513d601f19601f820116820180604052508101906102b4919061108d565b905090565b6102c1610b1a565b600460009054906101000a900473ffffffffffffffffffffffffffffffffffffffff1673ffffffffffffffffffffffffffffffffffffffff1663342c196c836040518263ffffffff1660e01b815260040161031c91906110c9565b600060405180830381865afa158015610339573d6000803e3d6000fd5b505050506040513d6000823e3d601f19601f820116820180604052508101906103629190611418565b9050919050565b6005543410156103ae576040517f08c379a00000000000000000000000000000000000000000000000000000000081526004016103a5906114e4565b60405180910390fd5b600460009054906101000a900473ffffffffffffffffffffffffffffffffffffffff1673ffffffffffffffffffffffffffffffffffffffff1663ffa378b1836040518263ffffffff1660e01b815260040161040991906110c9565b602060405180830381865afa158015610426573d6000803e3d6000fd5b505050506040513d601f19601f8201168201806040525081019061044a919061108d565b610489576040517f08c379a000000000000000000000000000000000000000000000000000000000815260040161048090611550565b60405180910390fd5b610494338383610b02565b6104d3576040517f08c379a00000000000000000000000000000000000000000000000000000000081526004016104ca906115bc565b60405180910390fd5b6104dc82610b0f565b61051b576040517f08c379a000000000000000000000000000000000000000000000000000000000815260040161051290611628565b60405180910390fd5b60006002600084815260200190815260200160002090508060405180608001604052803373ffffffffffffffffffffffffffffffffffffffff168152602001858152602001348152602001841515815250908060018154018082558091505060019003906000526020600020906004020160009091909190915060008201518160000160006101000a81548173ffffffffffffffffffffffffffffffffffffffff021916908373ffffffffffffffffffffffffffffffffffffffff160217905550602082015181600101556040820151816002015560608201518160030160006101000a81548160ff02191690831515021790555050506000600160003373ffffffffffffffffffffffffffffffffffffffff1673ffffffffffffffffffffffffffffffffffffffff16815260200190815260200160002090508084908060018154018082558091505060019003906000526020600020016000909190919091505550505050565b60008060009054906101000a900473ffffffffffffffffffffffffffffffffffffffff1673ffffffffffffffffffffffffffffffffffffffff163373ffffffffffffffffffffffffffffffffffffffff16146106de57600080fd5b81600360006101000a81548173ffffffffffffffffffffffffffffffffffffffff021916908373ffffffffffffffffffffffffffffffffffffffff160217905550600360009054906101000a900473ffffffffffffffffffffffffffffffffffffffff16600460006101000a81548173ffffffffffffffffffffffffffffffffffffffff021916908373ffffffffffffffffffffffffffffffffffffffff160217905550600460009054906101000a900473ffffffffffffffffffffffffffffffffffffffff1673ffffffffffffffffffffffffffffffffffffffff16633412a15c6040518163ffffffff1660e01b8152600401602060405180830381865afa1580156107ef573d6000803e3d6000fd5b505050506040513d601f19601f82011682018060405250810190610813919061108d565b9050919050565b610822610b1a565b600460009054906101000a900473ffffffffffffffffffffffffffffffffffffffff1673ffffffffffffffffffffffffffffffffffffffff1663b6f0623f60016040518263ffffffff1660e01b815260040161087e9190610b9d565b600060405180830381865afa15801561089b573d6000803e3d6000fd5b505050506040513d6000823e3d601f19601f820116820180604052508101906108c49190611418565b905090565b6060600460009054906101000a900473ffffffffffffffffffffffffffffffffffffffff1673ffffffffffffffffffffffffffffffffffffffff166352d173a46040518163ffffffff1660e01b8152600401600060405180830381865afa158015610938573d6000803e3d6000fd5b505050506040513d6000823e3d601f19601f820116820180604052508101906109619190611710565b905090565b60008054906101000a900473ffffffffffffffffffffffffffffffffffffffff1681565b6000600360009054906101000a900473ffffffffffffffffffffffffffffffffffffffff16905090565b60008054906101000a900473ffffffffffffffffffffffffffffffffffffffff1673ffffffffffffffffffffffffffffffffffffffff163373ffffffffffffffffffffffffffffffffffffffff1614610a0c57600080fd5b600073ffffffffffffffffffffffffffffffffffffffff168173ffffffffffffffffffffffffffffffffffffffff1603610a4557600080fd5b8073ffffffffffffffffffffffffffffffffffffffff1660008054906101000a900473ffffffffffffffffffffffffffffffffffffffff1673ffffffffffffffffffffffffffffffffffffffff167f8be0079c531659141344cd1fd0a4f28419497f9722a3daafe3b4186f6b6457e060405160405180910390a3806000806101000a81548173ffffffffffffffffffffffffffffffffffffffff021916908373ffffffffffffffffffffffffffffffffffffffff16021790555050565b6000600190509392505050565b600060019050919050565b60405180610140016040528060008019168152602001606081526020016060815260200160008152602001606081526020016060815260200160008152602001606081526020016060815260200160006002811115610b7c57610b7b610cf0565b5b81525090565b60008115159050919050565b610b9781610b82565b82525050565b6000602082019050610bb26000830184610b8e565b92915050565b6000604051905090565b600080fd5b600080fd5b6000819050919050565b610bdf81610bcc565b8114610bea57600080fd5b50565b600081359050610bfc81610bd6565b92915050565b600060208284031215610c1857610c17610bc2565b5b6000610c2684828501610bed565b91505092915050565b610c3881610bcc565b82525050565b600081519050919050565b600082825260208201905092915050565b60005b83811015610c78578082015181840152602081019050610c5d565b83811115610c87576000848401525b50505050565b6000601f19601f8301169050919050565b6000610ca982610c3e565b610cb38185610c49565b9350610cc3818560208601610c5a565b610ccc81610c8d565b840191505092915050565b6000819050919050565b610cea81610cd7565b82525050565b7f4e487b7100000000000000000000000000000000000000000000000000000000600052602160045260246000fd5b60038110610d3057610d2f610cf0565b5b50565b6000819050610d4182610d1f565b919050565b6000610d5182610d33565b9050919050565b610d6181610d46565b82525050565b600061014083016000830151610d806000860182610c2f565b5060208301518482036020860152610d988282610c9e565b91505060408301518482036040860152610db28282610c9e565b9150506060830151610dc76060860182610ce1565b5060808301518482036080860152610ddf8282610c9e565b91505060a083015184820360a0860152610df98282610c9e565b91505060c0830151610e0e60c0860182610ce1565b5060e083015184820360e0860152610e268282610c9e565b915050610100830151848203610100860152610e428282610c9e565b915050610120830151610e59610120860182610d58565b508091505092915050565b60006020820190508181036000830152610e7e8184610d67565b905092915050565b610e8f81610b82565b8114610e9a57600080fd5b50565b600081359050610eac81610e86565b92915050565b60008060408385031215610ec957610ec8610bc2565b5b6000610ed785828601610bed565b9250506020610ee885828601610e9d565b9150509250929050565b600073ffffffffffffffffffffffffffffffffffffffff82169050919050565b6000610f1d82610ef2565b9050919050565b610f2d81610f12565b8114610f3857600080fd5b50565b600081359050610f4a81610f24565b92915050565b600060208284031215610f6657610f65610bc2565b5b6000610f7484828501610f3b565b91505092915050565b600081519050919050565b600082825260208201905092915050565b6000819050602082019050919050565b6000610fb58383610c2f565b60208301905092915050565b6000602082019050919050565b6000610fd982610f7d565b610fe38185610f88565b9350610fee83610f99565b8060005b8381101561101f5781516110068882610fa9565b975061101183610fc1565b925050600181019050610ff2565b5085935050505092915050565b600060208201905081810360008301526110468184610fce565b905092915050565b61105781610f12565b82525050565b6000602082019050611072600083018461104e565b92915050565b60008151905061108781610e86565b92915050565b6000602082840312156110a3576110a2610bc2565b5b60006110b184828501611078565b91505092915050565b6110c381610bcc565b82525050565b60006020820190506110de60008301846110ba565b92915050565b600080fd5b7f4e487b7100000000000000000000000000000000000000000000000000000000600052604160045260246000fd5b61112182610c8d565b810181811067ffffffffffffffff821117156111405761113f6110e9565b5b80604052505050565b6000611153610bb8565b905061115f8282611118565b919050565b600080fd5b60008151905061117881610bd6565b92915050565b600080fd5b600080fd5b600067ffffffffffffffff8211156111a3576111a26110e9565b5b6111ac82610c8d565b9050602081019050919050565b60006111cc6111c784611188565b611149565b9050828152602081018484840111156111e8576111e7611183565b5b6111f3848285610c5a565b509392505050565b600082601f8301126112105761120f61117e565b5b81516112208482602086016111b9565b91505092915050565b61123281610cd7565b811461123d57600080fd5b50565b60008151905061124f81611229565b92915050565b6003811061126257600080fd5b50565b60008151905061127481611255565b92915050565b60006101408284031215611291576112906110e4565b5b61129c610140611149565b905060006112ac84828501611169565b600083015250602082015167ffffffffffffffff8111156112d0576112cf611164565b5b6112dc848285016111fb565b602083015250604082015167ffffffffffffffff811115611300576112ff611164565b5b61130c848285016111fb565b604083015250606061132084828501611240565b606083015250608082015167ffffffffffffffff81111561134457611343611164565b5b611350848285016111fb565b60808301525060a082015167ffffffffffffffff81111561137457611373611164565b5b611380848285016111fb565b60a08301525060c061139484828501611240565b60c08301525060e082015167ffffffffffffffff8111156113b8576113b7611164565b5b6113c4848285016111fb565b60e08301525061010082015167ffffffffffffffff8111156113e9576113e8611164565b5b6113f5848285016111fb565b6101008301525061012061140b84828501611265565b6101208301525092915050565b60006020828403121561142e5761142d610bc2565b5b600082015167ffffffffffffffff81111561144c5761144b610bc7565b5b6114588482850161127a565b91505092915050565b600082825260208201905092915050565b7f436f6d6d69746d656e7420616d6f756e74206d757374206265203e3d206d696e60008201527f696d756d20636f6d6d69746d656e740000000000000000000000000000000000602082015250565b60006114ce602f83611461565b91506114d982611472565b604082019050919050565b600060208201905081810360008301526114fd816114c1565b9050919050565b7f5370656369666965642062696c6c206e6f7420666f756e640000000000000000600082015250565b600061153a601883611461565b915061154582611504565b602082019050919050565b600060208201905081810360008301526115698161152d565b9050919050565b7f436f6d6d69746d656e74206973206e6f742076616c6964000000000000000000600082015250565b60006115a6601783611461565b91506115b182611570565b602082019050919050565b600060208201905081810360008301526115d581611599565b9050919050565b7f42696c6c206e6f74206f70656e20666f7220636f6d6d69746d656e7400000000600082015250565b6000611612601c83611461565b915061161d826115dc565b602082019050919050565b6000602082019050818103600083015261164181611605565b9050919050565b600067ffffffffffffffff821115611663576116626110e9565b5b602082029050602081019050919050565b600080fd5b600061168c61168784611648565b611149565b905080838252602082019050602084028301858111156116af576116ae611674565b5b835b818110156116d857806116c48882611169565b8452602084019350506020810190506116b1565b5050509392505050565b600082601f8301126116f7576116f661117e565b5b8151611707848260208601611679565b91505092915050565b60006020828403121561172657611725610bc2565b5b600082015167ffffffffffffffff81111561174457611743610bc7565b5b611750848285016116e2565b9150509291505056fea2646970667358221220862b7dead38bcb775cc8cdbab2f3ab5925c54edcd1ef23f252663cdb4e69f50c64736f6c634300080e0033",
  "immutableReferences": {},
  "source": "// SPDX-License-Identifier: MIT\npragma solidity >=0.4.22 <0.9.0;\n\nimport \"./OracleInterface.sol\";\nimport \"./Ownable.sol\";\n\n/// @title Commitments\n/// @author Oliver Song\n/// @notice Takes commitments and handles payouts for bill outcomes\ncontract Commitments is Ownable {\n    // mappings\n    mapping(address => bytes32[]) private userToCommitments;\n    mapping(bytes32 => Commitment[]) private billToCommitments;\n\n    // bill outcomes oracle\n    address internal billOracleAddr = address(0);\n    OracleInterface internal billOracle = OracleInterface(billOracleAddr);\n\n    //constants\n    uint internal minimumCommitment = 1000000000000;\n\n    struct Commitment {\n        address user;\n        bytes32 billId;\n        uint amount;\n        bool inSupport;\n    }\n\n    /// @notice determines whether or not the user has already committed to the given bill\n    /// @param _user address of a user\n    /// @param _billId id of a bill\n    /// @param _inSupport commitment in favor of bill passing (vs against)\n    /// @return true if the given user has already placed a commitment on the given bill\n    function _commitmentIsValid(address _user, bytes32 _billId, bool _inSupport) private view returns (bool) {\n        return true;\n    }\n\n    /// @notice determines whether or not commitments may still be accepted for the given bill\n    /// @param _billId id of a bill\n    /// @return true if the bill is commitable\n    function _billOpenForCommitment(bytes32 _billId) private view returns (bool) {\n        return true;\n    }\n\n    /// @notice gets a list ids of all currently commitable bill\n    /// @return array of bill ids\n    function getCommitableBills() public view returns (bytes32[] memory) {\n        return billOracle.getPendingBills();\n    }\n\n    /// @notice returns the full data of the specified bill\n    /// @param _billId the id of the desired bill\n    function getBill(bytes32 _billId) public view returns (OracleInterface.Bill memory) {\n        return billOracle.getBill(_billId);\n    }\n\n    /// @notice returns the full data of the most recent commitable bill\n    function getMostRecentBill() public view returns (OracleInterface.Bill memory) {\n        return billOracle.getMostRecentBill(true);\n    }\n\n    /// @notice places a non-rescindable commitment on the given bill\n    /// @param _billId the id of the bill on which to commitment\n    /// @param _inSupport commitment in favor of bill passing (vs against)\n    function placeCommitment(bytes32 _billId, bool _inSupport) public payable {\n\n        // commitment must be above a certain minimum\n        require(msg.value >= minimumCommitment, \"Commitment amount must be >= minimum commitment\");\n\n        // make sure that bill exists\n        require(billOracle.billExists(_billId), \"Specified bill not found\");\n\n        // validate\n        require(_commitmentIsValid(msg.sender, _billId, _inSupport), \"Commitment is not valid\");\n\n        // bill must still be open for commitment\n        require(_billOpenForCommitment(_billId), \"Bill not open for commitment\");\n\n        // transfer the money into the account\n        // address(this).transfer(msg.value);\n\n        // add the new commitment\n        Commitment[] storage commitments = billToCommitments[_billId];\n        commitments.push(Commitment(msg.sender, _billId, msg.value, _inSupport));\n\n        // add the mapping\n        bytes32[] storage userCommitments = userToCommitments[msg.sender];\n        userCommitments.push(_billId);\n    }\n\n    /// @notice sets the address of the oracle contract to use\n    /// @dev setting a wrong address may result in false return value, or error\n    /// @param _oracleAddress the address of the oracle\n    /// @return true if connection to the new oracle address was successful\n    function setOracleAddress(address _oracleAddress) external onlyOwner returns (bool) {\n        billOracleAddr = _oracleAddress;\n        billOracle = OracleInterface(billOracleAddr);\n        return billOracle.testConnection();\n    }\n\n    /// @notice gets the address of the oracle being used\n    /// @return the address of the currently set oracle\n    function getOracleAddress() external view returns (address) {\n        return billOracleAddr;\n    }\n\n    /// @notice for testing; tests that the oracle is callable\n    /// @return true if connection successful\n    function testOracleConnection() public view returns (bool) {\n        return billOracle.testConnection();\n    }\n}\n",
  "sourcePath": "/Users/oliversong/Development/open-lobby/client/contracts/Commitments.sol",
  "compiler": {
    "name": "solc",
    "version": "0.8.14+commit.80d49f37.Emscripten.clang"
  },
  "schemaVersion": "3.4.7",
  "updatedAt": "2022-06-14T00:24:11.351Z",
  "devdoc": {
    "author": "Oliver Song",
    "kind": "dev",
    "methods": {
      "getBill(bytes32)": {
        "params": {
          "_billId": "the id of the desired bill"
        }
      },
      "getCommitableBills()": {
        "returns": {
          "_0": "array of bill ids"
        }
      },
      "getOracleAddress()": {
        "returns": {
          "_0": "the address of the currently set oracle"
        }
      },
      "placeCommitment(bytes32,bool)": {
        "params": {
          "_billId": "the id of the bill on which to commitment",
          "_inSupport": "commitment in favor of bill passing (vs against)"
        }
      },
      "setOracleAddress(address)": {
        "details": "setting a wrong address may result in false return value, or error",
        "params": {
          "_oracleAddress": "the address of the oracle"
        },
        "returns": {
          "_0": "true if connection to the new oracle address was successful"
        }
      },
      "testOracleConnection()": {
        "returns": {
          "_0": "true if connection successful"
        }
      },
      "transferOwnership(address)": {
        "details": "Allows the current owner to transfer control of the contract to a newOwner.",
        "params": {
          "newOwner": "The address to transfer ownership to."
        }
      }
    },
    "title": "Commitments",
    "version": 1
  },
  "userdoc": {
    "kind": "user",
    "methods": {
      "getBill(bytes32)": {
        "notice": "returns the full data of the specified bill"
      },
      "getCommitableBills()": {
        "notice": "gets a list ids of all currently commitable bill"
      },
      "getMostRecentBill()": {
        "notice": "returns the full data of the most recent commitable bill"
      },
      "getOracleAddress()": {
        "notice": "gets the address of the oracle being used"
      },
      "placeCommitment(bytes32,bool)": {
        "notice": "places a non-rescindable commitment on the given bill"
      },
      "setOracleAddress(address)": {
        "notice": "sets the address of the oracle contract to use"
      },
      "testOracleConnection()": {
        "notice": "for testing; tests that the oracle is callable"
      }
    },
    "notice": "Takes commitments and handles payouts for bill outcomes",
    "version": 1
  }
}