{
  "contractName": "Commitments",
  "abi": [
    {
      "anonymous": false,
      "inputs": [
        {
          "indexed": true,
          "internalType": "address",
          "name": "previousOwner",
          "type": "address"
        },
        {
          "indexed": true,
          "internalType": "address",
          "name": "newOwner",
          "type": "address"
        }
      ],
      "name": "OwnershipTransferred",
      "type": "event"
    },
    {
      "inputs": [],
      "name": "owner",
      "outputs": [
        {
          "internalType": "address",
          "name": "",
          "type": "address"
        }
      ],
      "stateMutability": "view",
      "type": "function"
    },
    {
      "inputs": [
        {
          "internalType": "address",
          "name": "newOwner",
          "type": "address"
        }
      ],
      "name": "transferOwnership",
      "outputs": [],
      "stateMutability": "nonpayable",
      "type": "function"
    },
    {
      "inputs": [],
      "name": "getCommitableBills",
      "outputs": [
        {
          "internalType": "bytes32[]",
          "name": "",
          "type": "bytes32[]"
        }
      ],
      "stateMutability": "view",
      "type": "function"
    },
    {
      "inputs": [
        {
          "internalType": "bytes32",
          "name": "_billId",
          "type": "bytes32"
        }
      ],
      "name": "getBill",
      "outputs": [
        {
          "components": [
            {
              "internalType": "bytes32",
              "name": "id",
              "type": "bytes32"
            },
            {
              "internalType": "string",
              "name": "amendsBill",
              "type": "string"
            },
            {
              "internalType": "string",
              "name": "sponsor",
              "type": "string"
            },
            {
              "internalType": "address",
              "name": "sponsorAddress",
              "type": "address"
            },
            {
              "internalType": "uint256",
              "name": "dateOfIntroduction",
              "type": "uint256"
            },
            {
              "internalType": "string",
              "name": "committees",
              "type": "string"
            },
            {
              "internalType": "string",
              "name": "latestAction",
              "type": "string"
            },
            {
              "internalType": "uint256",
              "name": "latestActionDate",
              "type": "uint256"
            },
            {
              "internalType": "string",
              "name": "title",
              "type": "string"
            },
            {
              "internalType": "string",
              "name": "legislationNumber",
              "type": "string"
            },
            {
              "internalType": "enum OracleInterface.BillOutcome",
              "name": "outcome",
              "type": "uint8"
            }
          ],
          "internalType": "struct OracleInterface.Bill",
          "name": "",
          "type": "tuple"
        }
      ],
      "stateMutability": "view",
      "type": "function"
    },
    {
      "inputs": [],
      "name": "getMostRecentBill",
      "outputs": [
        {
          "components": [
            {
              "internalType": "bytes32",
              "name": "id",
              "type": "bytes32"
            },
            {
              "internalType": "string",
              "name": "amendsBill",
              "type": "string"
            },
            {
              "internalType": "string",
              "name": "sponsor",
              "type": "string"
            },
            {
              "internalType": "address",
              "name": "sponsorAddress",
              "type": "address"
            },
            {
              "internalType": "uint256",
              "name": "dateOfIntroduction",
              "type": "uint256"
            },
            {
              "internalType": "string",
              "name": "committees",
              "type": "string"
            },
            {
              "internalType": "string",
              "name": "latestAction",
              "type": "string"
            },
            {
              "internalType": "uint256",
              "name": "latestActionDate",
              "type": "uint256"
            },
            {
              "internalType": "string",
              "name": "title",
              "type": "string"
            },
            {
              "internalType": "string",
              "name": "legislationNumber",
              "type": "string"
            },
            {
              "internalType": "enum OracleInterface.BillOutcome",
              "name": "outcome",
              "type": "uint8"
            }
          ],
          "internalType": "struct OracleInterface.Bill",
          "name": "",
          "type": "tuple"
        }
      ],
      "stateMutability": "view",
      "type": "function"
    },
    {
      "inputs": [],
      "name": "getUserCommitments",
      "outputs": [
        {
          "internalType": "bytes32[]",
          "name": "",
          "type": "bytes32[]"
        }
      ],
      "stateMutability": "view",
      "type": "function"
    },
    {
      "inputs": [
        {
          "internalType": "bytes32",
          "name": "_billId",
          "type": "bytes32"
        }
      ],
      "name": "getUserCommitment",
      "outputs": [
        {
          "internalType": "uint256",
          "name": "amount",
          "type": "uint256"
        },
        {
          "internalType": "bool",
          "name": "inSupport",
          "type": "bool"
        }
      ],
      "stateMutability": "view",
      "type": "function"
    },
    {
      "inputs": [
        {
          "internalType": "uint32",
          "name": "_amount",
          "type": "uint32"
        },
        {
          "internalType": "bytes32",
          "name": "_billId",
          "type": "bytes32"
        },
        {
          "internalType": "bool",
          "name": "_inSupport",
          "type": "bool"
        }
      ],
      "name": "placeCommitment",
      "outputs": [],
      "stateMutability": "payable",
      "type": "function"
    },
    {
      "inputs": [
        {
          "internalType": "bytes32",
          "name": "_billId",
          "type": "bytes32"
        }
      ],
      "name": "checkOutcome",
      "outputs": [
        {
          "internalType": "enum OracleInterface.BillOutcome",
          "name": "",
          "type": "uint8"
        }
      ],
      "stateMutability": "nonpayable",
      "type": "function"
    },
    {
      "inputs": [
        {
          "internalType": "address",
          "name": "_oracleAddress",
          "type": "address"
        }
      ],
      "name": "setOracleAddress",
      "outputs": [
        {
          "internalType": "bool",
          "name": "",
          "type": "bool"
        }
      ],
      "stateMutability": "nonpayable",
      "type": "function"
    },
    {
      "inputs": [],
      "name": "getOracleAddress",
      "outputs": [
        {
          "internalType": "address",
          "name": "",
          "type": "address"
        }
      ],
      "stateMutability": "view",
      "type": "function"
    },
    {
      "inputs": [],
      "name": "testOracleConnection",
      "outputs": [
        {
          "internalType": "bool",
          "name": "",
          "type": "bool"
        }
      ],
      "stateMutability": "view",
      "type": "function"
    }
  ],
  "bytecode": "0x60806040526000600460006101000a81548173ffffffffffffffffffffffffffffffffffffffff021916908373ffffffffffffffffffffffffffffffffffffffff160217905550600460009054906101000a900473ffffffffffffffffffffffffffffffffffffffff16600560006101000a81548173ffffffffffffffffffffffffffffffffffffffff021916908373ffffffffffffffffffffffffffffffffffffffff16021790555064e8d4a510006006556001600755620f42406008553480156100ca57600080fd5b50336000806101000a81548173ffffffffffffffffffffffffffffffffffffffff021916908373ffffffffffffffffffffffffffffffffffffffff1602179055506126d58061011a6000396000f3fe6080604052600436106100a75760003560e01c806371fe7e011161006457806371fe7e01146101e85780637bef7ce1146102135780638da5cb5b1461023e5780639aeeb70914610269578063b18b78dd14610294578063f2fde38b146102bf576100a7565b80632ce3707e146100ac578063342c196c146100d7578063440d31c0146101145780634c69c00f1461013057806352311c141461016d578063528de27f146101aa575b600080fd5b3480156100b857600080fd5b506100c16102e8565b6040516100ce91906117ca565b60405180910390f35b3480156100e357600080fd5b506100fe60048036038101906100f9919061182f565b610380565b60405161010b9190611ae7565b60405180910390f35b61012e60048036038101906101299190611b71565b610430565b005b34801561013c57600080fd5b5061015760048036038101906101529190611bf0565b6107ef565b60405161016491906117ca565b60405180910390f35b34801561017957600080fd5b50610194600480360381019061018f919061182f565b610986565b6040516101a19190611c2c565b60405180910390f35b3480156101b657600080fd5b506101d160048036038101906101cc919061182f565b610af3565b6040516101df929190611c56565b60405180910390f35b3480156101f457600080fd5b506101fd610c17565b60405161020a9190611ae7565b60405180910390f35b34801561021f57600080fd5b50610228610cc6565b6040516102359190611d2e565b60405180910390f35b34801561024a57600080fd5b50610253610d63565b6040516102609190611d5f565b60405180910390f35b34801561027557600080fd5b5061027e610d87565b60405161028b9190611d2e565b60405180910390f35b3480156102a057600080fd5b506102a9610e1c565b6040516102b69190611d5f565b60405180910390f35b3480156102cb57600080fd5b506102e660048036038101906102e19190611bf0565b610e46565b005b6000600560009054906101000a900473ffffffffffffffffffffffffffffffffffffffff1673ffffffffffffffffffffffffffffffffffffffff16633412a15c6040518163ffffffff1660e01b8152600401602060405180830381865afa158015610357573d6000803e3d6000fd5b505050506040513d601f19601f8201168201806040525081019061037b9190611d8f565b905090565b61038861172a565b600560009054906101000a900473ffffffffffffffffffffffffffffffffffffffff1673ffffffffffffffffffffffffffffffffffffffff1663342c196c836040518263ffffffff1660e01b81526004016103e39190611dcb565b600060405180830381865afa158015610400573d6000803e3d6000fd5b505050506040513d6000823e3d601f19601f820116820180604052508101906104299190612145565b9050919050565b8263ffffffff16341461044257600080fd5b600654341015610487576040517f08c379a000000000000000000000000000000000000000000000000000000000815260040161047e90612211565b60405180910390fd5b600560009054906101000a900473ffffffffffffffffffffffffffffffffffffffff1673ffffffffffffffffffffffffffffffffffffffff1663ffa378b1836040518263ffffffff1660e01b81526004016104e29190611dcb565b602060405180830381865afa1580156104ff573d6000803e3d6000fd5b505050506040513d601f19601f820116820180604052508101906105239190611d8f565b610562576040517f08c379a00000000000000000000000000000000000000000000000000000000081526004016105599061227d565b60405180910390fd5b61056c3383610f94565b6105ab576040517f08c379a00000000000000000000000000000000000000000000000000000000081526004016105a2906122e9565b60405180910390fd5b600560009054906101000a900473ffffffffffffffffffffffffffffffffffffffff1673ffffffffffffffffffffffffffffffffffffffff16636c69a68c836040518263ffffffff1660e01b81526004016106069190611dcb565b602060405180830381865afa158015610623573d6000803e3d6000fd5b505050506040513d601f19601f820116820180604052508101906106479190611d8f565b610686576040517f08c379a000000000000000000000000000000000000000000000000000000000815260040161067d90612355565b60405180910390fd5b60006002600084815260200190815260200160002090508060405180608001604052803373ffffffffffffffffffffffffffffffffffffffff168152602001858152602001348152602001841515815250908060018154018082558091505060019003906000526020600020906004020160009091909190915060008201518160000160006101000a81548173ffffffffffffffffffffffffffffffffffffffff021916908373ffffffffffffffffffffffffffffffffffffffff160217905550602082015181600101556040820151816002015560608201518160030160006101000a81548160ff02191690831515021790555050506000600160003373ffffffffffffffffffffffffffffffffffffffff1673ffffffffffffffffffffffffffffffffffffffff1681526020019081526020016000209050808490806001815401808255809150506001900390600052602060002001600090919091909150555050505050565b60008060009054906101000a900473ffffffffffffffffffffffffffffffffffffffff1673ffffffffffffffffffffffffffffffffffffffff163373ffffffffffffffffffffffffffffffffffffffff161461084a57600080fd5b81600460006101000a81548173ffffffffffffffffffffffffffffffffffffffff021916908373ffffffffffffffffffffffffffffffffffffffff160217905550600460009054906101000a900473ffffffffffffffffffffffffffffffffffffffff16600560006101000a81548173ffffffffffffffffffffffffffffffffffffffff021916908373ffffffffffffffffffffffffffffffffffffffff160217905550600560009054906101000a900473ffffffffffffffffffffffffffffffffffffffff1673ffffffffffffffffffffffffffffffffffffffff16633412a15c6040518163ffffffff1660e01b8152600401602060405180830381865afa15801561095b573d6000803e3d6000fd5b505050506040513d601f19601f8201168201806040525081019061097f9190611d8f565b9050919050565b60008060009054906101000a900473ffffffffffffffffffffffffffffffffffffffff1673ffffffffffffffffffffffffffffffffffffffff163373ffffffffffffffffffffffffffffffffffffffff16146109e157600080fd5b600080600560009054906101000a900473ffffffffffffffffffffffffffffffffffffffff1673ffffffffffffffffffffffffffffffffffffffff1663342c196c856040518263ffffffff1660e01b8152600401610a3f9190611dcb565b600060405180830381865afa158015610a5c573d6000803e3d6000fd5b505050506040513d6000823e3d601f19601f82011682018060405250810190610a859190612145565b905060006002811115610a9b57610a9a61195e565b5b8161014001516002811115610ab357610ab261195e565b5b14610ae9576003600085815260200190815260200160002060009054906101000a900460ff16610ae857610ae78483611044565b5b5b8192505050919050565b600080600060026000858152602001908152602001600020905060005b8180549050811015610c08573373ffffffffffffffffffffffffffffffffffffffff16828281548110610b4657610b45612375565b5b906000526020600020906004020160000160009054906101000a900473ffffffffffffffffffffffffffffffffffffffff1673ffffffffffffffffffffffffffffffffffffffff1603610bf557818181548110610ba657610ba5612375565b5b906000526020600020906004020160020154828281548110610bcb57610bca612375565b5b906000526020600020906004020160030160009054906101000a900460ff16935093505050610c12565b8080610c00906123d3565b915050610b10565b5060008092509250505b915091565b610c1f61172a565b600560009054906101000a900473ffffffffffffffffffffffffffffffffffffffff1673ffffffffffffffffffffffffffffffffffffffff1663b6f0623f60016040518263ffffffff1660e01b8152600401610c7b91906117ca565b600060405180830381865afa158015610c98573d6000803e3d6000fd5b505050506040513d6000823e3d601f19601f82011682018060405250810190610cc19190612145565b905090565b6060600560009054906101000a900473ffffffffffffffffffffffffffffffffffffffff1673ffffffffffffffffffffffffffffffffffffffff166352d173a46040518163ffffffff1660e01b8152600401600060405180830381865afa158015610d35573d6000803e3d6000fd5b505050506040513d6000823e3d601f19601f82011682018060405250810190610d5e91906124e3565b905090565b60008054906101000a900473ffffffffffffffffffffffffffffffffffffffff1681565b6060600160003373ffffffffffffffffffffffffffffffffffffffff1673ffffffffffffffffffffffffffffffffffffffff168152602001908152602001600020805480602002602001604051908101604052809291908181526020018280548015610e1257602002820191906000526020600020905b815481526020019060010190808311610dfe575b5050505050905090565b6000600460009054906101000a900473ffffffffffffffffffffffffffffffffffffffff16905090565b60008054906101000a900473ffffffffffffffffffffffffffffffffffffffff1673ffffffffffffffffffffffffffffffffffffffff163373ffffffffffffffffffffffffffffffffffffffff1614610e9e57600080fd5b600073ffffffffffffffffffffffffffffffffffffffff168173ffffffffffffffffffffffffffffffffffffffff1603610ed757600080fd5b8073ffffffffffffffffffffffffffffffffffffffff1660008054906101000a900473ffffffffffffffffffffffffffffffffffffffff1673ffffffffffffffffffffffffffffffffffffffff167f8be0079c531659141344cd1fd0a4f28419497f9722a3daafe3b4186f6b6457e060405160405180910390a3806000806101000a81548173ffffffffffffffffffffffffffffffffffffffff021916908373ffffffffffffffffffffffffffffffffffffffff16021790555050565b600080600160008573ffffffffffffffffffffffffffffffffffffffff1673ffffffffffffffffffffffffffffffffffffffff16815260200190815260200160002090506000818054905011156110385760005b8180549050811015611036578382828154811061100857611007612375565b5b9060005260206000200154036110235760009250505061103e565b808061102e906123d3565b915050610fe8565b505b60019150505b92915050565b600060028111156110585761105761195e565b5b81600281111561106b5761106a61195e565b5b0361107557600080fd5b6000600260008481526020019081526020016000209050600080600080848054905067ffffffffffffffff8111156110b0576110af611deb565b5b6040519080825280602002602001820160405280156110de5781602001602082028036833780820191505090505b50905060005b858054905081101561119d57600086828154811061110557611104612375565b5b9060005260206000209060040201600201549050611154888884815481106111305761112f612375565b5b906000526020600020906004020160030160009054906101000a900460ff1661148a565b156111735761116c818661151a90919063ffffffff16565b9450611189565b611186818761151a90919063ffffffff16565b95505b508080611195906123d3565b9150506110e4565b506111b1838561151a90919063ffffffff16565b915060005b858054905081101561137557600160028111156111d6576111d561195e565b5b8760028111156111e9576111e861195e565b5b036112aa576112298787838154811061120557611204612375565b5b906000526020600020906004020160030160009054906101000a900460ff1661148a565b156112835761125f848488848154811061124657611245612375565b5b9060005260206000209060040201600201546000611541565b82828151811061127257611271612375565b5b6020026020010181815250506112a5565b600082828151811061129857611297612375565b5b6020026020010181815250505b611362565b6112e5878783815481106112c1576112c0612375565b5b906000526020600020906004020160030160009054906101000a900460ff1661148a565b1561133f5761131b848488848154811061130257611301612375565b5b9060005260206000209060040201600201546001611541565b82828151811061132e5761132d612375565b5b602002602001018181525050611361565b600082828151811061135457611353612375565b5b6020026020010181815250505b5b808061136d906123d3565b9150506111b6565b5060006001600281111561138c5761138b61195e565b5b87600281111561139f5761139e61195e565b5b036113a8578390505b60005b825181101561142f5761141c8782815481106113ca576113c9612375565b5b906000526020600020906004020160000160009054906101000a900473ffffffffffffffffffffffffffffffffffffffff1684838151811061140f5761140e612375565b5b602002602001015161161e565b8080611427906123d3565b9150506113ab565b50600061143b89610380565b905061144b81606001518361161e565b611453611669565b6001600360008b815260200190815260200160002060006101000a81548160ff021916908315150217905550505050505050505050565b600080600281111561149f5761149e61195e565b5b8360028111156114b2576114b161195e565b5b036114bc57600080fd5b600160028111156114d0576114cf61195e565b5b8360028111156114e3576114e261195e565b5b036115005781156114f75760019050611514565b60009050611514565b811561150f5760009050611514565b600190505b92915050565b60008183611528919061252c565b90508281101561153b5761153a612582565b5b92915050565b60008061156b8661155d600854876116d290919063ffffffff16565b61171490919063ffffffff16565b9050600083156115ae578461159d60085461158f858a6116d290919063ffffffff16565b61171490919063ffffffff16565b6115a7919061252c565b90506115d8565b6115d56008546115c784896116d290919063ffffffff16565b61171490919063ffffffff16565b90505b600081036115e65760065490505b6000606460075460646115f991906125b1565b8361160491906125e5565b61160e919061266e565b9050809350505050949350505050565b8173ffffffffffffffffffffffffffffffffffffffff166108fc829081150290604051600060405180830381858888f19350505050158015611664573d6000803e3d6000fd5b505050565b60008054906101000a900473ffffffffffffffffffffffffffffffffffffffff1673ffffffffffffffffffffffffffffffffffffffff166108fc479081150290604051600060405180830381858888f193505050501580156116cf573d6000803e3d6000fd5b50565b60008083036116e4576000905061170e565b81836116f091906125e5565b90508183826116ff919061266e565b1461170d5761170c612582565b5b5b92915050565b60008183611722919061266e565b905092915050565b604051806101600160405280600080191681526020016060815260200160608152602001600073ffffffffffffffffffffffffffffffffffffffff168152602001600081526020016060815260200160608152602001600081526020016060815260200160608152602001600060028111156117a9576117a861195e565b5b81525090565b60008115159050919050565b6117c4816117af565b82525050565b60006020820190506117df60008301846117bb565b92915050565b6000604051905090565b600080fd5b600080fd5b6000819050919050565b61180c816117f9565b811461181757600080fd5b50565b60008135905061182981611803565b92915050565b600060208284031215611845576118446117ef565b5b60006118538482850161181a565b91505092915050565b611865816117f9565b82525050565b600081519050919050565b600082825260208201905092915050565b60005b838110156118a557808201518184015260208101905061188a565b838111156118b4576000848401525b50505050565b6000601f19601f8301169050919050565b60006118d68261186b565b6118e08185611876565b93506118f0818560208601611887565b6118f9816118ba565b840191505092915050565b600073ffffffffffffffffffffffffffffffffffffffff82169050919050565b600061192f82611904565b9050919050565b61193f81611924565b82525050565b6000819050919050565b61195881611945565b82525050565b7f4e487b7100000000000000000000000000000000000000000000000000000000600052602160045260246000fd5b6003811061199e5761199d61195e565b5b50565b60008190506119af8261198d565b919050565b60006119bf826119a1565b9050919050565b6119cf816119b4565b82525050565b6000610160830160008301516119ee600086018261185c565b5060208301518482036020860152611a0682826118cb565b91505060408301518482036040860152611a2082826118cb565b9150506060830151611a356060860182611936565b506080830151611a48608086018261194f565b5060a083015184820360a0860152611a6082826118cb565b91505060c083015184820360c0860152611a7a82826118cb565b91505060e0830151611a8f60e086018261194f565b50610100830151848203610100860152611aa982826118cb565b915050610120830151848203610120860152611ac582826118cb565b915050610140830151611adc6101408601826119c6565b508091505092915050565b60006020820190508181036000830152611b0181846119d5565b905092915050565b600063ffffffff82169050919050565b611b2281611b09565b8114611b2d57600080fd5b50565b600081359050611b3f81611b19565b92915050565b611b4e816117af565b8114611b5957600080fd5b50565b600081359050611b6b81611b45565b92915050565b600080600060608486031215611b8a57611b896117ef565b5b6000611b9886828701611b30565b9350506020611ba98682870161181a565b9250506040611bba86828701611b5c565b9150509250925092565b611bcd81611924565b8114611bd857600080fd5b50565b600081359050611bea81611bc4565b92915050565b600060208284031215611c0657611c056117ef565b5b6000611c1484828501611bdb565b91505092915050565b611c26816119b4565b82525050565b6000602082019050611c416000830184611c1d565b92915050565b611c5081611945565b82525050565b6000604082019050611c6b6000830185611c47565b611c7860208301846117bb565b9392505050565b600081519050919050565b600082825260208201905092915050565b6000819050602082019050919050565b6000611cb7838361185c565b60208301905092915050565b6000602082019050919050565b6000611cdb82611c7f565b611ce58185611c8a565b9350611cf083611c9b565b8060005b83811015611d21578151611d088882611cab565b9750611d1383611cc3565b925050600181019050611cf4565b5085935050505092915050565b60006020820190508181036000830152611d488184611cd0565b905092915050565b611d5981611924565b82525050565b6000602082019050611d746000830184611d50565b92915050565b600081519050611d8981611b45565b92915050565b600060208284031215611da557611da46117ef565b5b6000611db384828501611d7a565b91505092915050565b611dc5816117f9565b82525050565b6000602082019050611de06000830184611dbc565b92915050565b600080fd5b7f4e487b7100000000000000000000000000000000000000000000000000000000600052604160045260246000fd5b611e23826118ba565b810181811067ffffffffffffffff82111715611e4257611e41611deb565b5b80604052505050565b6000611e556117e5565b9050611e618282611e1a565b919050565b600080fd5b600081519050611e7a81611803565b92915050565b600080fd5b600080fd5b600067ffffffffffffffff821115611ea557611ea4611deb565b5b611eae826118ba565b9050602081019050919050565b6000611ece611ec984611e8a565b611e4b565b905082815260208101848484011115611eea57611ee9611e85565b5b611ef5848285611887565b509392505050565b600082601f830112611f1257611f11611e80565b5b8151611f22848260208601611ebb565b91505092915050565b600081519050611f3a81611bc4565b92915050565b611f4981611945565b8114611f5457600080fd5b50565b600081519050611f6681611f40565b92915050565b60038110611f7957600080fd5b50565b600081519050611f8b81611f6c565b92915050565b60006101608284031215611fa857611fa7611de6565b5b611fb3610160611e4b565b90506000611fc384828501611e6b565b600083015250602082015167ffffffffffffffff811115611fe757611fe6611e66565b5b611ff384828501611efd565b602083015250604082015167ffffffffffffffff81111561201757612016611e66565b5b61202384828501611efd565b604083015250606061203784828501611f2b565b606083015250608061204b84828501611f57565b60808301525060a082015167ffffffffffffffff81111561206f5761206e611e66565b5b61207b84828501611efd565b60a08301525060c082015167ffffffffffffffff81111561209f5761209e611e66565b5b6120ab84828501611efd565b60c08301525060e06120bf84828501611f57565b60e08301525061010082015167ffffffffffffffff8111156120e4576120e3611e66565b5b6120f084828501611efd565b6101008301525061012082015167ffffffffffffffff81111561211657612115611e66565b5b61212284828501611efd565b6101208301525061014061213884828501611f7c565b6101408301525092915050565b60006020828403121561215b5761215a6117ef565b5b600082015167ffffffffffffffff811115612179576121786117f4565b5b61218584828501611f91565b91505092915050565b600082825260208201905092915050565b7f436f6d6d69746d656e7420616d6f756e74206d757374206265203e3d206d696e60008201527f696d756d20636f6d6d69746d656e740000000000000000000000000000000000602082015250565b60006121fb602f8361218e565b91506122068261219f565b604082019050919050565b6000602082019050818103600083015261222a816121ee565b9050919050565b7f5370656369666965642062696c6c206e6f7420666f756e640000000000000000600082015250565b600061226760188361218e565b915061227282612231565b602082019050919050565b600060208201905081810360008301526122968161225a565b9050919050565b7f436f6d6d69746d656e74206973206e6f742076616c6964000000000000000000600082015250565b60006122d360178361218e565b91506122de8261229d565b602082019050919050565b60006020820190508181036000830152612302816122c6565b9050919050565b7f42696c6c206e6f74206f70656e20666f7220636f6d6d69746d656e7400000000600082015250565b600061233f601c8361218e565b915061234a82612309565b602082019050919050565b6000602082019050818103600083015261236e81612332565b9050919050565b7f4e487b7100000000000000000000000000000000000000000000000000000000600052603260045260246000fd5b7f4e487b7100000000000000000000000000000000000000000000000000000000600052601160045260246000fd5b60006123de82611945565b91507fffffffffffffffffffffffffffffffffffffffffffffffffffffffffffffffff82036124105761240f6123a4565b5b600182019050919050565b600067ffffffffffffffff82111561243657612435611deb565b5b602082029050602081019050919050565b600080fd5b600061245f61245a8461241b565b611e4b565b9050808382526020820190506020840283018581111561248257612481612447565b5b835b818110156124ab57806124978882611e6b565b845260208401935050602081019050612484565b5050509392505050565b600082601f8301126124ca576124c9611e80565b5b81516124da84826020860161244c565b91505092915050565b6000602082840312156124f9576124f86117ef565b5b600082015167ffffffffffffffff811115612517576125166117f4565b5b612523848285016124b5565b91505092915050565b600061253782611945565b915061254283611945565b9250827fffffffffffffffffffffffffffffffffffffffffffffffffffffffffffffffff03821115612577576125766123a4565b5b828201905092915050565b7f4e487b7100000000000000000000000000000000000000000000000000000000600052600160045260246000fd5b60006125bc82611945565b91506125c783611945565b9250828210156125da576125d96123a4565b5b828203905092915050565b60006125f082611945565b91506125fb83611945565b9250817fffffffffffffffffffffffffffffffffffffffffffffffffffffffffffffffff0483118215151615612634576126336123a4565b5b828202905092915050565b7f4e487b7100000000000000000000000000000000000000000000000000000000600052601260045260246000fd5b600061267982611945565b915061268483611945565b9250826126945761269361263f565b5b82820490509291505056fea2646970667358221220a7d10e30df87ba6edcb868371f4d717f7ef6d5d090ae6d15ae3d880dd40f494a64736f6c634300080e0033",
  "immutableReferences": {},
  "source": "// SPDX-License-Identifier: MIT\npragma solidity >=0.4.22 <0.9.0;\n\nimport \"./OracleInterface.sol\";\nimport \"./Ownable.sol\";\nimport \"./SafeMath.sol\";\n\n/// @title Commitments\n/// @author Oliver Song\n/// @notice Takes commitments and handles payouts for bill outcomes\ncontract Commitments is Ownable {\n    // mappings\n    mapping(address => bytes32[]) private userToCommitments;\n    mapping(bytes32 => Commitment[]) private billToCommitments;\n    mapping(bytes32 => bool) internal billPaidOut;\n\n    // bill outcomes oracle\n    address internal billOracleAddr = address(0);\n    OracleInterface internal billOracle = OracleInterface(billOracleAddr);\n\n    //constants\n    uint internal minimumCommitment = 1000000000000;\n    uint internal housePercentage = 1;\n    uint internal multFactor = 1000000; // shortcut for doing floating point math\n\n    using SafeMath for uint;\n\n    struct Commitment {\n        address user;\n        bytes32 billId;\n        uint amount;\n        bool inSupport;\n    }\n\n    /// @notice determines whether or not the user has already committed to the given bill\n    /// @param _user address of a user\n    /// @param _billId id of a bill\n    /// @return true if the given user has already placed a commitment on the given bill\n    function _commitmentIsValid(address _user, bytes32 _billId) private view returns (bool) {\n        bytes32[] storage userCommitments = userToCommitments[_user];\n        if (userCommitments.length > 0) {\n            for (uint n = 0; n < userCommitments.length; n++) {\n                if (userCommitments[n] == _billId) {\n                    return false;\n                }\n            }\n        }\n        return true;\n    }\n\n    /// @notice gets a list ids of all currently commitable bill\n    /// @return array of bill ids\n    function getCommitableBills() public view returns (bytes32[] memory) {\n        return billOracle.getPendingBills();\n    }\n\n    /// @notice returns the full data of the specified bill\n    /// @param _billId the id of the desired bill\n    function getBill(bytes32 _billId) public view returns (OracleInterface.Bill memory) {\n        return billOracle.getBill(_billId);\n    }\n\n    /// @notice returns the full data of the most recent commitable bill\n    function getMostRecentBill() public view returns (OracleInterface.Bill memory) {\n        return billOracle.getMostRecentBill(true);\n    }\n\n    /// @notice gets the current bills on which the user has commitments\n    /// @return array of bill ids\n    function getUserCommitments() public view returns (bytes32[] memory) {\n        return userToCommitments[msg.sender];\n    }\n\n    /// @notice gets a user's commitment\n    /// @param _billId the id of the desired bill\n    /// @return amount commitment amount, or 0 if no commitment found\n    /// @return inSupport in support of bill or not, or 0 if no commitment found\n    function getUserCommitment(bytes32 _billId) public view returns (uint amount, bool inSupport) {\n        Commitment[] storage commitments = billToCommitments[_billId];\n        for (uint n = 0; n < commitments.length; n++) {\n            if (commitments[n].user == msg.sender) {\n                return (commitments[n].amount, commitments[n].inSupport);\n            }\n        }\n        return (0, false);\n    }\n\n    /// @notice places a non-rescindable commitment on the given bill\n    /// @param _amount the id of the bill on which to commitment\n    /// @param _billId the id of the bill on which to commitment\n    /// @param _inSupport commitment in favor of bill passing (vs against)\n    function placeCommitment(uint32 _amount, bytes32 _billId, bool _inSupport) public payable {\n        require(msg.value == _amount);\n\n        // commitment must be above a certain minimum\n        require(msg.value >= minimumCommitment, \"Commitment amount must be >= minimum commitment\");\n\n        // make sure that bill exists\n        require(billOracle.billExists(_billId), \"Specified bill not found\");\n\n        // validate\n        require(_commitmentIsValid(msg.sender, _billId), \"Commitment is not valid\");\n\n        // bill must still be open for commitment\n        require(billOracle.billIsPending(_billId), \"Bill not open for commitment\");\n\n        // add the new commitment\n        Commitment[] storage commitments = billToCommitments[_billId];\n        commitments.push(Commitment(msg.sender, _billId, msg.value, _inSupport));\n\n        // add the mapping\n        bytes32[] storage userCommitments = userToCommitments[msg.sender];\n        userCommitments.push(_billId);\n    }\n\n    function _payOutWinnings(address _user, uint _amount) private {\n        payable(_user).transfer(_amount);\n    }\n\n    function _transferToHouse() private {\n        payable(owner).transfer(address(this).balance);\n    }\n\n    function _isWinningCommitment(OracleInterface.BillOutcome _outcome, bool inSupport) private pure returns (bool) {\n        require(_outcome != OracleInterface.BillOutcome.Pending);\n\n        if (_outcome == OracleInterface.BillOutcome.BecameLaw) {\n            if (inSupport) {\n                return true;\n            } else {\n                return false;\n            }\n        } else {\n            if (inSupport) {\n                return false;\n            } else {\n                return true;\n            }\n        }\n    }\n\n    /// @notice calculates the amount to be paid out for a commitment\n    /// @param _winningTotal the total monetary amount of winning commitments\n    /// @param _losingTotal the total monetary amount of losing commitments\n    /// @param _committedAmount the amount of this particular commitment\n    /// @return an amount in wei\n    function _calculatePayout(uint _winningTotal, uint _losingTotal, uint _committedAmount, bool _keepCommitment) private view returns (uint) {\n        uint percentWinningTotal = (_committedAmount.mul(multFactor)).div(_winningTotal);\n\n        // calculate raw share\n        uint winningAmount = 0;\n        if (_keepCommitment) {\n            winningAmount = _losingTotal.mul(percentWinningTotal).div(multFactor) + _committedAmount;\n        } else {\n            winningAmount = _losingTotal.mul(percentWinningTotal).div(multFactor);\n        }\n\n        // if share has been rounded down to zero, fix that\n        if (winningAmount == 0) {\n            winningAmount = minimumCommitment;\n        }\n\n        // take out house cut\n        uint winningsMinusHouseCut = winningAmount * (100 - housePercentage) / 100;\n        return winningsMinusHouseCut;\n    }\n\n    /// @notice calculates how much to pay out to each winner, then pays each winner the appropriate amount\n    /// @param _billId the unique id of the bill\n    /// @param _outcome the bill's outcome\n    function _payOutForBill(bytes32 _billId, OracleInterface.BillOutcome _outcome) private {\n        require(_outcome != OracleInterface.BillOutcome.Pending);\n\n        Commitment[] storage commitments = billToCommitments[_billId];\n        uint losingTotal = 0;\n        uint winningTotal = 0;\n        uint totalPot = 0;\n        uint[] memory payouts = new uint[](commitments.length);\n\n        //count winning commitments & get total\n        for (uint n = 0; n < commitments.length; n++) {\n            uint amount = commitments[n].amount;\n            if (_isWinningCommitment(_outcome, commitments[n].inSupport)) {\n                winningTotal = winningTotal.add(amount);\n            } else {\n                losingTotal = losingTotal.add(amount);\n            }\n        }\n        totalPot = losingTotal.add(winningTotal);\n\n        //calculate payouts\n        for (uint n = 0; n < commitments.length; n++) {\n            if (_outcome == OracleInterface.BillOutcome.BecameLaw) {\n                // in the passing case, supporters get detractors' commitments\n                // minus their own commitment, which goes to legislator\n                if (_isWinningCommitment(_outcome, commitments[n].inSupport)) {\n                    payouts[n] = _calculatePayout(winningTotal, totalPot, commitments[n].amount, false);\n                } else {\n                    payouts[n] = 0;\n                }\n            } else {\n                // in the rejected case, detractors get supporters' commitments\n                // plus their own back. Legislators get nothing.\n                if (_isWinningCommitment(_outcome, commitments[n].inSupport)) {\n                    payouts[n] = _calculatePayout(winningTotal, totalPot, commitments[n].amount, true);\n                } else {\n                    payouts[n] = 0;\n                }\n            }\n        }\n\n        // calculate legislator payout\n        uint legislaterPayout = 0;\n        if (_outcome == OracleInterface.BillOutcome.BecameLaw) {\n            // legislator gets support total\n            legislaterPayout = winningTotal;\n        }\n\n\n        // pay out to users\n        for (uint n = 0; n < payouts.length; n++) {\n            _payOutWinnings(commitments[n].user, payouts[n]);\n        }\n\n        // pay out to legislators\n        OracleInterface.Bill memory b = getBill(_billId);\n        _payOutWinnings(b.sponsorAddress, legislaterPayout);\n\n        // transfer the remainder to the house\n        _transferToHouse();\n\n        // mark bill as paid out\n        billPaidOut[_billId] = true;\n    }\n\n\n    /// @notice check the outcome of the given bill; if ready, will trigger calculation of payout, and actual payout to winners\n    /// @param _billId the id of the bill to check\n    /// @return the outcome of the given bill\n    function checkOutcome(bytes32 _billId) external onlyOwner returns (OracleInterface.BillOutcome)  {\n        OracleInterface.BillOutcome outcome;\n\n        OracleInterface.Bill memory b = billOracle.getBill(_billId);\n\n        if (b.outcome != OracleInterface.BillOutcome.Pending) {\n            if (!billPaidOut[_billId]) {\n                _payOutForBill(_billId, outcome);\n            }\n        }\n\n        return outcome;\n    }\n\n\n    /// @notice sets the address of the oracle contract to use\n    /// @dev setting a wrong address may result in false return value, or error\n    /// @param _oracleAddress the address of the oracle\n    /// @return true if connection to the new oracle address was successful\n    function setOracleAddress(address _oracleAddress) external onlyOwner returns (bool) {\n        billOracleAddr = _oracleAddress;\n        billOracle = OracleInterface(billOracleAddr);\n        return billOracle.testConnection();\n    }\n\n    /// @notice gets the address of the oracle being used\n    /// @return the address of the currently set oracle\n    function getOracleAddress() external view returns (address) {\n        return billOracleAddr;\n    }\n\n    /// @notice for testing; tests that the oracle is callable\n    /// @return true if connection successful\n    function testOracleConnection() public view returns (bool) {\n        return billOracle.testConnection();\n    }\n}\n",
  "sourcePath": "/Users/oliversong/Development/open-lobby/client/contracts/Commitments.sol",
  "compiler": {
    "name": "solc",
    "version": "0.8.14+commit.80d49f37.Emscripten.clang"
  },
  "schemaVersion": "3.4.7",
  "updatedAt": "2022-07-07T02:02:29.968Z",
  "devdoc": {
    "author": "Oliver Song",
    "kind": "dev",
    "methods": {
      "checkOutcome(bytes32)": {
        "params": {
          "_billId": "the id of the bill to check"
        },
        "returns": {
          "_0": "the outcome of the given bill"
        }
      },
      "getBill(bytes32)": {
        "params": {
          "_billId": "the id of the desired bill"
        }
      },
      "getCommitableBills()": {
        "returns": {
          "_0": "array of bill ids"
        }
      },
      "getOracleAddress()": {
        "returns": {
          "_0": "the address of the currently set oracle"
        }
      },
      "getUserCommitment(bytes32)": {
        "params": {
          "_billId": "the id of the desired bill"
        },
        "returns": {
          "amount": "commitment amount, or 0 if no commitment found",
          "inSupport": "in support of bill or not, or 0 if no commitment found"
        }
      },
      "getUserCommitments()": {
        "returns": {
          "_0": "array of bill ids"
        }
      },
      "placeCommitment(uint32,bytes32,bool)": {
        "params": {
          "_amount": "the id of the bill on which to commitment",
          "_billId": "the id of the bill on which to commitment",
          "_inSupport": "commitment in favor of bill passing (vs against)"
        }
      },
      "setOracleAddress(address)": {
        "details": "setting a wrong address may result in false return value, or error",
        "params": {
          "_oracleAddress": "the address of the oracle"
        },
        "returns": {
          "_0": "true if connection to the new oracle address was successful"
        }
      },
      "testOracleConnection()": {
        "returns": {
          "_0": "true if connection successful"
        }
      },
      "transferOwnership(address)": {
        "details": "Allows the current owner to transfer control of the contract to a newOwner.",
        "params": {
          "newOwner": "The address to transfer ownership to."
        }
      }
    },
    "title": "Commitments",
    "version": 1
  },
  "userdoc": {
    "kind": "user",
    "methods": {
      "checkOutcome(bytes32)": {
        "notice": "check the outcome of the given bill; if ready, will trigger calculation of payout, and actual payout to winners"
      },
      "getBill(bytes32)": {
        "notice": "returns the full data of the specified bill"
      },
      "getCommitableBills()": {
        "notice": "gets a list ids of all currently commitable bill"
      },
      "getMostRecentBill()": {
        "notice": "returns the full data of the most recent commitable bill"
      },
      "getOracleAddress()": {
        "notice": "gets the address of the oracle being used"
      },
      "getUserCommitment(bytes32)": {
        "notice": "gets a user's commitment"
      },
      "getUserCommitments()": {
        "notice": "gets the current bills on which the user has commitments"
      },
      "placeCommitment(uint32,bytes32,bool)": {
        "notice": "places a non-rescindable commitment on the given bill"
      },
      "setOracleAddress(address)": {
        "notice": "sets the address of the oracle contract to use"
      },
      "testOracleConnection()": {
        "notice": "for testing; tests that the oracle is callable"
      }
    },
    "notice": "Takes commitments and handles payouts for bill outcomes",
    "version": 1
  }
}