{
  "contractName": "Commitments",
  "abi": [
    {
      "inputs": [],
      "name": "getCommitableBills",
      "outputs": [
        {
          "internalType": "bytes32[]",
          "name": "",
          "type": "bytes32[]"
        }
      ],
      "stateMutability": "view",
      "type": "function",
      "constant": true
    },
    {
      "inputs": [
        {
          "internalType": "bytes32",
          "name": "_billId",
          "type": "bytes32"
        }
      ],
      "name": "getBill",
      "outputs": [
        {
          "internalType": "bytes32",
          "name": "id",
          "type": "bytes32"
        },
        {
          "internalType": "bytes32",
          "name": "amendsBill",
          "type": "bytes32"
        },
        {
          "internalType": "string",
          "name": "sponsor",
          "type": "string"
        },
        {
          "internalType": "uint256",
          "name": "dateOfIntroduction",
          "type": "uint256"
        },
        {
          "internalType": "string",
          "name": "committees",
          "type": "string"
        },
        {
          "internalType": "string",
          "name": "latestAction",
          "type": "string"
        },
        {
          "internalType": "uint256",
          "name": "latestActionDate",
          "type": "uint256"
        },
        {
          "internalType": "string",
          "name": "title",
          "type": "string"
        },
        {
          "internalType": "string",
          "name": "legislationNumber",
          "type": "string"
        },
        {
          "internalType": "enum OracleInterface.BillOutcome",
          "name": "outcome",
          "type": "uint8"
        }
      ],
      "stateMutability": "view",
      "type": "function",
      "constant": true
    },
    {
      "inputs": [],
      "name": "getMostRecentBill",
      "outputs": [
        {
          "internalType": "bytes32",
          "name": "id",
          "type": "bytes32"
        },
        {
          "internalType": "bytes32",
          "name": "amendsBill",
          "type": "bytes32"
        },
        {
          "internalType": "string",
          "name": "sponsor",
          "type": "string"
        },
        {
          "internalType": "uint256",
          "name": "dateOfIntroduction",
          "type": "uint256"
        },
        {
          "internalType": "string",
          "name": "committees",
          "type": "string"
        },
        {
          "internalType": "string",
          "name": "latestAction",
          "type": "string"
        },
        {
          "internalType": "uint256",
          "name": "latestActionDate",
          "type": "uint256"
        },
        {
          "internalType": "string",
          "name": "title",
          "type": "string"
        },
        {
          "internalType": "string",
          "name": "legislationNumber",
          "type": "string"
        },
        {
          "internalType": "enum OracleInterface.BillOutcome",
          "name": "outcome",
          "type": "uint8"
        }
      ],
      "stateMutability": "view",
      "type": "function",
      "constant": true
    },
    {
      "inputs": [
        {
          "internalType": "bytes32",
          "name": "_billId",
          "type": "bytes32"
        },
        {
          "internalType": "bool",
          "name": "_inSupport",
          "type": "bool"
        }
      ],
      "name": "placeCommitment",
      "outputs": [],
      "stateMutability": "payable",
      "type": "function",
      "payable": true
    },
    {
      "inputs": [
        {
          "internalType": "uint256",
          "name": "a",
          "type": "uint256"
        },
        {
          "internalType": "uint256",
          "name": "b",
          "type": "uint256"
        }
      ],
      "name": "test",
      "outputs": [
        {
          "internalType": "uint256",
          "name": "",
          "type": "uint256"
        }
      ],
      "stateMutability": "pure",
      "type": "function",
      "constant": true
    }
  ],
  "bytecode": "0x608060405260405161001090610088565b604051809103906000f08015801561002c573d6000803e3d6000fd5b50600260006101000a81548173ffffffffffffffffffffffffffffffffffffffff021916908373ffffffffffffffffffffffffffffffffffffffff16021790555064e8d4a5100060035534801561008257600080fd5b50610095565b610ead806112d183390190565b61122d806100a46000396000f3fe60806040526004361061004a5760003560e01c8063342c196c1461004f5780633962c22b1461009557806371fe7e01146100b15780637bef7ce1146100e5578063eb8ac92114610110575b600080fd5b34801561005b57600080fd5b5061007660048036038101906100719190610721565b61014d565b60405161008c9a99989796959493929190610886565b60405180910390f35b6100af60048036038101906100aa919061097d565b610220565b005b3480156100bd57600080fd5b506100c6610539565b6040516100dc9a99989796959493929190610886565b60405180910390f35b3480156100f157600080fd5b506100fa61060c565b6040516101079190610a7b565b60405180910390f35b34801561011c57600080fd5b5061013760048036038101906101329190610ac9565b6106a9565b6040516101449190610b09565b60405180910390f35b6000806060600060608060006060806000600260009054906101000a900473ffffffffffffffffffffffffffffffffffffffff1673ffffffffffffffffffffffffffffffffffffffff1663342c196c8c6040518263ffffffff1660e01b81526004016101b99190610b24565b600060405180830381865afa1580156101d6573d6000803e3d6000fd5b505050506040513d6000823e3d601f19601f820116820180604052508101906101ff9190610cb4565b99509950995099509950995099509950995099509193959799509193959799565b600354341015610265576040517f08c379a000000000000000000000000000000000000000000000000000000000815260040161025c90610e91565b60405180910390fd5b600260009054906101000a900473ffffffffffffffffffffffffffffffffffffffff1673ffffffffffffffffffffffffffffffffffffffff1663ffa378b1836040518263ffffffff1660e01b81526004016102c09190610b24565b602060405180830381865afa1580156102dd573d6000803e3d6000fd5b505050506040513d601f19601f820116820180604052508101906103019190610ec6565b610340576040517f08c379a000000000000000000000000000000000000000000000000000000000815260040161033790610f3f565b60405180910390fd5b61034b3383836106bf565b61038a576040517f08c379a000000000000000000000000000000000000000000000000000000000815260040161038190610fab565b60405180910390fd5b610393826106cc565b6103d2576040517f08c379a00000000000000000000000000000000000000000000000000000000081526004016103c990611017565b60405180910390fd5b60006001600084815260200190815260200160002090508060405180608001604052803373ffffffffffffffffffffffffffffffffffffffff168152602001858152602001348152602001841515815250908060018154018082558091505060019003906000526020600020906004020160009091909190915060008201518160000160006101000a81548173ffffffffffffffffffffffffffffffffffffffff021916908373ffffffffffffffffffffffffffffffffffffffff160217905550602082015181600101556040820151816002015560608201518160030160006101000a81548160ff021916908315150217905550505060008060003373ffffffffffffffffffffffffffffffffffffffff1673ffffffffffffffffffffffffffffffffffffffff16815260200190815260200160002090508084908060018154018082558091505060019003906000526020600020016000909190919091505550505050565b6000806060600060608060006060806000600260009054906101000a900473ffffffffffffffffffffffffffffffffffffffff1673ffffffffffffffffffffffffffffffffffffffff1663b6f0623f60016040518263ffffffff1660e01b81526004016105a69190611046565b600060405180830381865afa1580156105c3573d6000803e3d6000fd5b505050506040513d6000823e3d601f19601f820116820180604052508101906105ec9190610cb4565b995099509950995099509950995099509950995090919293949596979899565b6060600260009054906101000a900473ffffffffffffffffffffffffffffffffffffffff1673ffffffffffffffffffffffffffffffffffffffff166352d173a46040518163ffffffff1660e01b8152600401600060405180830381865afa15801561067b573d6000803e3d6000fd5b505050506040513d6000823e3d601f19601f820116820180604052508101906106a49190611129565b905090565b600081836106b791906111a1565b905092915050565b6000600190509392505050565b600060019050919050565b6000604051905090565b600080fd5b600080fd5b6000819050919050565b6106fe816106eb565b811461070957600080fd5b50565b60008135905061071b816106f5565b92915050565b600060208284031215610737576107366106e1565b5b60006107458482850161070c565b91505092915050565b610757816106eb565b82525050565b600081519050919050565b600082825260208201905092915050565b60005b8381101561079757808201518184015260208101905061077c565b838111156107a6576000848401525b50505050565b6000601f19601f8301169050919050565b60006107c88261075d565b6107d28185610768565b93506107e2818560208601610779565b6107eb816107ac565b840191505092915050565b6000819050919050565b610809816107f6565b82525050565b7f4e487b7100000000000000000000000000000000000000000000000000000000600052602160045260246000fd5b6003811061084f5761084e61080f565b5b50565b60008190506108608261083e565b919050565b600061087082610852565b9050919050565b61088081610865565b82525050565b60006101408201905061089c600083018d61074e565b6108a9602083018c61074e565b81810360408301526108bb818b6107bd565b90506108ca606083018a610800565b81810360808301526108dc81896107bd565b905081810360a08301526108f081886107bd565b90506108ff60c0830187610800565b81810360e083015261091181866107bd565b905081810361010083015261092681856107bd565b9050610936610120830184610877565b9b9a5050505050505050505050565b60008115159050919050565b61095a81610945565b811461096557600080fd5b50565b60008135905061097781610951565b92915050565b60008060408385031215610994576109936106e1565b5b60006109a28582860161070c565b92505060206109b385828601610968565b9150509250929050565b600081519050919050565b600082825260208201905092915050565b6000819050602082019050919050565b6109f2816106eb565b82525050565b6000610a0483836109e9565b60208301905092915050565b6000602082019050919050565b6000610a28826109bd565b610a3281856109c8565b9350610a3d836109d9565b8060005b83811015610a6e578151610a5588826109f8565b9750610a6083610a10565b925050600181019050610a41565b5085935050505092915050565b60006020820190508181036000830152610a958184610a1d565b905092915050565b610aa6816107f6565b8114610ab157600080fd5b50565b600081359050610ac381610a9d565b92915050565b60008060408385031215610ae057610adf6106e1565b5b6000610aee85828601610ab4565b9250506020610aff85828601610ab4565b9150509250929050565b6000602082019050610b1e6000830184610800565b92915050565b6000602082019050610b39600083018461074e565b92915050565b600081519050610b4e816106f5565b92915050565b600080fd5b600080fd5b7f4e487b7100000000000000000000000000000000000000000000000000000000600052604160045260246000fd5b610b96826107ac565b810181811067ffffffffffffffff82111715610bb557610bb4610b5e565b5b80604052505050565b6000610bc86106d7565b9050610bd48282610b8d565b919050565b600067ffffffffffffffff821115610bf457610bf3610b5e565b5b610bfd826107ac565b9050602081019050919050565b6000610c1d610c1884610bd9565b610bbe565b905082815260208101848484011115610c3957610c38610b59565b5b610c44848285610779565b509392505050565b600082601f830112610c6157610c60610b54565b5b8151610c71848260208601610c0a565b91505092915050565b600081519050610c8981610a9d565b92915050565b60038110610c9c57600080fd5b50565b600081519050610cae81610c8f565b92915050565b6000806000806000806000806000806101408b8d031215610cd857610cd76106e1565b5b6000610ce68d828e01610b3f565b9a50506020610cf78d828e01610b3f565b99505060408b015167ffffffffffffffff811115610d1857610d176106e6565b5b610d248d828e01610c4c565b9850506060610d358d828e01610c7a565b97505060808b015167ffffffffffffffff811115610d5657610d556106e6565b5b610d628d828e01610c4c565b96505060a08b015167ffffffffffffffff811115610d8357610d826106e6565b5b610d8f8d828e01610c4c565b95505060c0610da08d828e01610c7a565b94505060e08b015167ffffffffffffffff811115610dc157610dc06106e6565b5b610dcd8d828e01610c4c565b9350506101008b015167ffffffffffffffff811115610def57610dee6106e6565b5b610dfb8d828e01610c4c565b925050610120610e0d8d828e01610c9f565b9150509295989b9194979a5092959850565b7f436f6d6d69746d656e7420616d6f756e74206d757374206265203e3d206d696e60008201527f696d756d20636f6d6d69746d656e740000000000000000000000000000000000602082015250565b6000610e7b602f83610768565b9150610e8682610e1f565b604082019050919050565b60006020820190508181036000830152610eaa81610e6e565b9050919050565b600081519050610ec081610951565b92915050565b600060208284031215610edc57610edb6106e1565b5b6000610eea84828501610eb1565b91505092915050565b7f5370656369666965642062696c6c206e6f7420666f756e640000000000000000600082015250565b6000610f29601883610768565b9150610f3482610ef3565b602082019050919050565b60006020820190508181036000830152610f5881610f1c565b9050919050565b7f436f6d6d69746d656e74206973206e6f742076616c6964000000000000000000600082015250565b6000610f95601783610768565b9150610fa082610f5f565b602082019050919050565b60006020820190508181036000830152610fc481610f88565b9050919050565b7f42696c6c206e6f74206f70656e20666f7220636f6d6d69746d656e7400000000600082015250565b6000611001601c83610768565b915061100c82610fcb565b602082019050919050565b6000602082019050818103600083015261103081610ff4565b9050919050565b61104081610945565b82525050565b600060208201905061105b6000830184611037565b92915050565b600067ffffffffffffffff82111561107c5761107b610b5e565b5b602082029050602081019050919050565b600080fd5b60006110a56110a084611061565b610bbe565b905080838252602082019050602084028301858111156110c8576110c761108d565b5b835b818110156110f157806110dd8882610b3f565b8452602084019350506020810190506110ca565b5050509392505050565b600082601f8301126111105761110f610b54565b5b8151611120848260208601611092565b91505092915050565b60006020828403121561113f5761113e6106e1565b5b600082015167ffffffffffffffff81111561115d5761115c6106e6565b5b611169848285016110fb565b91505092915050565b7f4e487b7100000000000000000000000000000000000000000000000000000000600052601160045260246000fd5b60006111ac826107f6565b91506111b7836107f6565b9250827fffffffffffffffffffffffffffffffffffffffffffffffffffffffffffffffff038211156111ec576111eb611172565b5b82820190509291505056fea2646970667358221220713cb5fd6679902b31a14ddc76d27d8852baa33642b145daca8783c82b4f6d3d64736f6c634300080e0033608060405234801561001057600080fd5b50610e8d806100206000396000f3fe608060405234801561001057600080fd5b50600436106100575760003560e01c8063342c196c1461005c57806352d173a414610095578063818e1f1a146100b3578063b6f0623f146100d1578063ffa378b11461010a575b600080fd5b61007660048036038101906100719190610932565b61013a565b60405161008c9a99989796959493929190610a97565b60405180910390f35b61009d61051f565b6040516100aa9190610c14565b60405180910390f35b6100bb610702565b6040516100c89190610c14565b60405180910390f35b6100eb60048036038101906100e69190610c6e565b6107f4565b6040516101019a99989796959493929190610a97565b60405180910390f35b610124600480360381019061011f9190610932565b610883565b6040516101319190610caa565b60405180910390f35b60008060606000606080600060608060006101548b610883565b1561049757600060016101668d6108cf565b8154811061017757610176610cc5565b5b90600052602060002090600a02019050806000015481600101548260020183600301548460040185600501866006015487600701886008018960090160009054906101000a900460ff168780546101cd90610d23565b80601f01602080910402602001604051908101604052809291908181526020018280546101f990610d23565b80156102465780601f1061021b57610100808354040283529160200191610246565b820191906000526020600020905b81548152906001019060200180831161022957829003601f168201915b5050505050975085805461025990610d23565b80601f016020809104026020016040519081016040528092919081815260200182805461028590610d23565b80156102d25780601f106102a7576101008083540402835291602001916102d2565b820191906000526020600020905b8154815290600101906020018083116102b557829003601f168201915b505050505095508480546102e590610d23565b80601f016020809104026020016040519081016040528092919081815260200182805461031190610d23565b801561035e5780601f106103335761010080835404028352916020019161035e565b820191906000526020600020905b81548152906001019060200180831161034157829003601f168201915b5050505050945082805461037190610d23565b80601f016020809104026020016040519081016040528092919081815260200182805461039d90610d23565b80156103ea5780601f106103bf576101008083540402835291602001916103ea565b820191906000526020600020905b8154815290600101906020018083116103cd57829003601f168201915b505050505092508180546103fd90610d23565b80601f016020809104026020016040519081016040528092919081815260200182805461042990610d23565b80156104765780601f1061044b57610100808354040283529160200191610476565b820191906000526020600020905b81548152906001019060200180831161045957829003601f168201915b505050505091509a509a509a509a509a509a509a509a509a509a5050610512565b8a6000806000808360001b9350604051806020016040528060008152509291906040518060200160405280600081525091906040518060200160405280600081525091906040518060200160405280600081525090604051806020016040528060008152509099509950995099509950995099509950995099505b9193959799509193959799565b60606000805b6001805490508110156105b2576000600281111561054657610545610a20565b5b6001828154811061055a57610559610cc5565b5b90600052602060002090600a020160090160009054906101000a900460ff16600281111561058b5761058a610a20565b5b0361059f57818061059b90610d83565b9250505b80806105aa90610d83565b915050610525565b5060008167ffffffffffffffff8111156105cf576105ce610dcb565b5b6040519080825280602002602001820160405280156105fd5781602001602082028036833780820191505090505b50905060008211156106fa5760008060018054905090505b60008111156106f7576000600281111561063257610631610a20565b5b600180836106409190610dfa565b8154811061065157610650610cc5565b5b90600052602060002090600a020160090160009054906101000a900460ff16600281111561068257610681610a20565b5b036106e457600180826106959190610dfa565b815481106106a6576106a5610cc5565b5b90600052602060002090600a0201600001548383806106c490610d83565b9450815181106106d7576106d6610cc5565b5b6020026020010181815250505b80806106ef90610e2e565b915050610615565b50505b809250505090565b6060600060018054905067ffffffffffffffff81111561072557610724610dcb565b5b6040519080825280602002602001820160405280156107535781602001602082028036833780820191505090505b509050600060018054905011156107ed5760008060018054905090505b60008111156107ea57600180826107879190610dfa565b8154811061079857610797610cc5565b5b90600052602060002090600a0201600001548383815181106107bd576107bc610cc5565b5b60200260200101818152505081806107d490610d83565b92505080806107e290610e2e565b915050610770565b50505b8091505090565b6000806060600060608060006060806000806000801b905060608c156108235761081c61051f565b905061082e565b61082b610702565b90505b600081511115610857578060008151811061084c5761084b610cc5565b5b602002602001015191505b6108608261013a565b9b509b509b509b509b509b509b509b509b509b5050509193959799509193959799565b6000806001805490500361089a57600090506108ca565b600080600084815260200190815260200160002054905060008111156108c45760019150506108ca565b60009150505b919050565b60006001600080848152602001908152602001600020546108f09190610dfa565b9050919050565b600080fd5b6000819050919050565b61090f816108fc565b811461091a57600080fd5b50565b60008135905061092c81610906565b92915050565b600060208284031215610948576109476108f7565b5b60006109568482850161091d565b91505092915050565b610968816108fc565b82525050565b600081519050919050565b600082825260208201905092915050565b60005b838110156109a857808201518184015260208101905061098d565b838111156109b7576000848401525b50505050565b6000601f19601f8301169050919050565b60006109d98261096e565b6109e38185610979565b93506109f381856020860161098a565b6109fc816109bd565b840191505092915050565b6000819050919050565b610a1a81610a07565b82525050565b7f4e487b7100000000000000000000000000000000000000000000000000000000600052602160045260246000fd5b60038110610a6057610a5f610a20565b5b50565b6000819050610a7182610a4f565b919050565b6000610a8182610a63565b9050919050565b610a9181610a76565b82525050565b600061014082019050610aad600083018d61095f565b610aba602083018c61095f565b8181036040830152610acc818b6109ce565b9050610adb606083018a610a11565b8181036080830152610aed81896109ce565b905081810360a0830152610b0181886109ce565b9050610b1060c0830187610a11565b81810360e0830152610b2281866109ce565b9050818103610100830152610b3781856109ce565b9050610b47610120830184610a88565b9b9a5050505050505050505050565b600081519050919050565b600082825260208201905092915050565b6000819050602082019050919050565b610b8b816108fc565b82525050565b6000610b9d8383610b82565b60208301905092915050565b6000602082019050919050565b6000610bc182610b56565b610bcb8185610b61565b9350610bd683610b72565b8060005b83811015610c07578151610bee8882610b91565b9750610bf983610ba9565b925050600181019050610bda565b5085935050505092915050565b60006020820190508181036000830152610c2e8184610bb6565b905092915050565b60008115159050919050565b610c4b81610c36565b8114610c5657600080fd5b50565b600081359050610c6881610c42565b92915050565b600060208284031215610c8457610c836108f7565b5b6000610c9284828501610c59565b91505092915050565b610ca481610c36565b82525050565b6000602082019050610cbf6000830184610c9b565b92915050565b7f4e487b7100000000000000000000000000000000000000000000000000000000600052603260045260246000fd5b7f4e487b7100000000000000000000000000000000000000000000000000000000600052602260045260246000fd5b60006002820490506001821680610d3b57607f821691505b602082108103610d4e57610d4d610cf4565b5b50919050565b7f4e487b7100000000000000000000000000000000000000000000000000000000600052601160045260246000fd5b6000610d8e82610a07565b91507fffffffffffffffffffffffffffffffffffffffffffffffffffffffffffffffff8203610dc057610dbf610d54565b5b600182019050919050565b7f4e487b7100000000000000000000000000000000000000000000000000000000600052604160045260246000fd5b6000610e0582610a07565b9150610e1083610a07565b925082821015610e2357610e22610d54565b5b828203905092915050565b6000610e3982610a07565b915060008203610e4c57610e4b610d54565b5b60018203905091905056fea26469706673582212201481834f6f94ec7f490753dd8c23a107ed011a0f846c77e2790d1328bbf279b264736f6c634300080e0033",
  "immutableReferences": {},
  "source": "pragma solidity >=0.4.22 <0.9.0;\n\nimport \"./OracleInterface.sol\";\n\n\n/// @title Commitments\n/// @author Oliver Song\n/// @notice Takes commitments and handles payouts for bill outcomes\ncontract Commitments {\n\n    // mappings\n    mapping(address => bytes32[]) private userToCommitments;\n    mapping(bytes32 => Commitment[]) private billToCommitments;\n\n    // bill outcomes oracle\n    OracleInterface internal billOracle = new OracleInterface();\n\n    //constants\n    uint internal minimumCommitment = 1000000000000;\n\n    struct Commitment {\n        address user;\n        bytes32 billId;\n        uint amount;\n        bool inSupport;\n    }\n\n    /// @notice determines whether or not the user has already committed to the given bill\n    /// @param _user address of a user\n    /// @param _billId id of a bill\n    /// @param _inSupport commitment in favor of bill passing (vs against)\n    /// @return true if the given user has already placed a commitment on the given bill\n    function _commitmentIsValid(address _user, bytes32 _billId, bool _inSupport) private view returns (bool) {\n\n        return true;\n    }\n\n    /// @notice determines whether or not commitments may still be accepted for the given bill\n    /// @param _billId id of a bill\n    /// @return true if the bill is commitable\n    function _billOpenForCommitment(bytes32 _billId) private view returns (bool) {\n\n        return true;\n    }\n\n\n    /// @notice gets a list ids of all currently commitable bill\n    /// @return array of bill ids\n    function getCommitableBills() public view returns (bytes32[] memory) {\n        return billOracle.getPendingBills();\n    }\n\n    /// @notice returns the full data of the specified bill\n    /// @param _billId the id of the desired bill\n    function getBill(bytes32 _billId) public view returns (\n        bytes32 id,\n        bytes32 amendsBill,\n        string memory sponsor,\n        uint dateOfIntroduction,\n        string memory committees,\n        string memory latestAction,\n        uint latestActionDate,\n        string memory title,\n        string memory legislationNumber,\n        OracleInterface.BillOutcome outcome) {\n\n        return billOracle.getBill(_billId);\n    }\n\n    /// @notice returns the full data of the most recent commitable bill\n    function getMostRecentBill() public view returns (\n        bytes32 id,\n        bytes32 amendsBill,\n        string memory sponsor,\n        uint dateOfIntroduction,\n        string memory committees,\n        string memory latestAction,\n        uint latestActionDate,\n        string memory title,\n        string memory legislationNumber,\n        OracleInterface.BillOutcome outcome) {\n\n        return billOracle.getMostRecentBill(true);\n    }\n\n    /// @notice places a non-rescindable commitment on the given bill\n    /// @param _billId the id of the bill on which to commitment\n    /// @param _inSupport commitment in favor of bill passing (vs against)\n    function placeCommitment(bytes32 _billId, bool _inSupport) public payable {\n\n        // commitment must be above a certain minimum\n        require(msg.value >= minimumCommitment, \"Commitment amount must be >= minimum commitment\");\n\n        // make sure that bill exists\n        require(billOracle.billExists(_billId), \"Specified bill not found\");\n\n        // validate\n        require(_commitmentIsValid(msg.sender, _billId, _inSupport), \"Commitment is not valid\");\n\n        // bill must still be open for commitment\n        require(_billOpenForCommitment(_billId), \"Bill not open for commitment\");\n\n        // transfer the money into the account\n        // address(this).transfer(msg.value);\n\n        // add the new commitment\n        Commitment[] storage commitments = billToCommitments[_billId];\n        commitments.push(Commitment(msg.sender, _billId, msg.value, _inSupport));\n\n        // add the mapping\n        bytes32[] storage userCommitments = userToCommitments[msg.sender];\n        userCommitments.push(_billId);\n    }\n\n    /// @notice for testing only; adds two numbers and returns result\n    /// @return uint sum of two uints\n    function test(uint a, uint b) public pure returns (uint) {\n        return (a + b);\n    }\n}\n",
  "sourcePath": "/Users/oliversong/Development/open-lobby/client/contracts/Commitments.sol",
  "compiler": {
    "name": "solc",
    "version": "0.8.14+commit.80d49f37.Emscripten.clang"
  },
  "schemaVersion": "3.4.7",
  "updatedAt": "2022-06-06T06:16:02.197Z",
  "networkType": "ethereum",
  "devdoc": {
    "author": "Oliver Song",
    "kind": "dev",
    "methods": {
      "getBill(bytes32)": {
        "params": {
          "_billId": "the id of the desired bill"
        }
      },
      "getCommitableBills()": {
        "returns": {
          "_0": "array of bill ids"
        }
      },
      "placeCommitment(bytes32,bool)": {
        "params": {
          "_billId": "the id of the bill on which to commitment",
          "_inSupport": "commitment in favor of bill passing (vs against)"
        }
      },
      "test(uint256,uint256)": {
        "returns": {
          "_0": "uint sum of two uints"
        }
      }
    },
    "title": "Commitments",
    "version": 1
  },
  "userdoc": {
    "kind": "user",
    "methods": {
      "getBill(bytes32)": {
        "notice": "returns the full data of the specified bill"
      },
      "getCommitableBills()": {
        "notice": "gets a list ids of all currently commitable bill"
      },
      "getMostRecentBill()": {
        "notice": "returns the full data of the most recent commitable bill"
      },
      "placeCommitment(bytes32,bool)": {
        "notice": "places a non-rescindable commitment on the given bill"
      },
      "test(uint256,uint256)": {
        "notice": "for testing only; adds two numbers and returns result"
      }
    },
    "notice": "Takes commitments and handles payouts for bill outcomes",
    "version": 1
  }
}