{
  "contractName": "Commitments",
  "abi": [
    {
      "anonymous": false,
      "inputs": [
        {
          "indexed": true,
          "internalType": "address",
          "name": "previousOwner",
          "type": "address"
        },
        {
          "indexed": true,
          "internalType": "address",
          "name": "newOwner",
          "type": "address"
        }
      ],
      "name": "OwnershipTransferred",
      "type": "event"
    },
    {
      "inputs": [],
      "name": "owner",
      "outputs": [
        {
          "internalType": "address",
          "name": "",
          "type": "address"
        }
      ],
      "stateMutability": "view",
      "type": "function"
    },
    {
      "inputs": [
        {
          "internalType": "address",
          "name": "newOwner",
          "type": "address"
        }
      ],
      "name": "transferOwnership",
      "outputs": [],
      "stateMutability": "nonpayable",
      "type": "function"
    },
    {
      "inputs": [],
      "name": "getCommitableBills",
      "outputs": [
        {
          "internalType": "bytes32[]",
          "name": "",
          "type": "bytes32[]"
        }
      ],
      "stateMutability": "view",
      "type": "function"
    },
    {
      "inputs": [
        {
          "internalType": "bytes32",
          "name": "_billId",
          "type": "bytes32"
        }
      ],
      "name": "getBill",
      "outputs": [
        {
          "components": [
            {
              "internalType": "bytes32",
              "name": "id",
              "type": "bytes32"
            },
            {
              "internalType": "string",
              "name": "amendsBill",
              "type": "string"
            },
            {
              "internalType": "string",
              "name": "sponsor",
              "type": "string"
            },
            {
              "internalType": "address",
              "name": "sponsorAddress",
              "type": "address"
            },
            {
              "internalType": "uint256",
              "name": "dateOfIntroduction",
              "type": "uint256"
            },
            {
              "internalType": "string",
              "name": "committees",
              "type": "string"
            },
            {
              "internalType": "string",
              "name": "latestAction",
              "type": "string"
            },
            {
              "internalType": "uint256",
              "name": "latestActionDate",
              "type": "uint256"
            },
            {
              "internalType": "string",
              "name": "title",
              "type": "string"
            },
            {
              "internalType": "string",
              "name": "legislationNumber",
              "type": "string"
            },
            {
              "internalType": "enum OracleInterface.BillOutcome",
              "name": "outcome",
              "type": "uint8"
            }
          ],
          "internalType": "struct OracleInterface.Bill",
          "name": "",
          "type": "tuple"
        }
      ],
      "stateMutability": "view",
      "type": "function"
    },
    {
      "inputs": [],
      "name": "getMostRecentBill",
      "outputs": [
        {
          "components": [
            {
              "internalType": "bytes32",
              "name": "id",
              "type": "bytes32"
            },
            {
              "internalType": "string",
              "name": "amendsBill",
              "type": "string"
            },
            {
              "internalType": "string",
              "name": "sponsor",
              "type": "string"
            },
            {
              "internalType": "address",
              "name": "sponsorAddress",
              "type": "address"
            },
            {
              "internalType": "uint256",
              "name": "dateOfIntroduction",
              "type": "uint256"
            },
            {
              "internalType": "string",
              "name": "committees",
              "type": "string"
            },
            {
              "internalType": "string",
              "name": "latestAction",
              "type": "string"
            },
            {
              "internalType": "uint256",
              "name": "latestActionDate",
              "type": "uint256"
            },
            {
              "internalType": "string",
              "name": "title",
              "type": "string"
            },
            {
              "internalType": "string",
              "name": "legislationNumber",
              "type": "string"
            },
            {
              "internalType": "enum OracleInterface.BillOutcome",
              "name": "outcome",
              "type": "uint8"
            }
          ],
          "internalType": "struct OracleInterface.Bill",
          "name": "",
          "type": "tuple"
        }
      ],
      "stateMutability": "view",
      "type": "function"
    },
    {
      "inputs": [],
      "name": "getUserCommitments",
      "outputs": [
        {
          "internalType": "bytes32[]",
          "name": "",
          "type": "bytes32[]"
        }
      ],
      "stateMutability": "view",
      "type": "function"
    },
    {
      "inputs": [
        {
          "internalType": "bytes32",
          "name": "_billId",
          "type": "bytes32"
        }
      ],
      "name": "getUserCommitment",
      "outputs": [
        {
          "internalType": "uint256",
          "name": "amount",
          "type": "uint256"
        },
        {
          "internalType": "bool",
          "name": "inSupport",
          "type": "bool"
        }
      ],
      "stateMutability": "view",
      "type": "function"
    },
    {
      "inputs": [
        {
          "internalType": "uint256",
          "name": "_amount",
          "type": "uint256"
        },
        {
          "internalType": "bytes32",
          "name": "_billId",
          "type": "bytes32"
        },
        {
          "internalType": "bool",
          "name": "_inSupport",
          "type": "bool"
        }
      ],
      "name": "placeCommitment",
      "outputs": [],
      "stateMutability": "payable",
      "type": "function"
    },
    {
      "inputs": [
        {
          "internalType": "bytes32",
          "name": "_billId",
          "type": "bytes32"
        }
      ],
      "name": "checkOutcome",
      "outputs": [
        {
          "internalType": "enum OracleInterface.BillOutcome",
          "name": "",
          "type": "uint8"
        }
      ],
      "stateMutability": "nonpayable",
      "type": "function"
    },
    {
      "inputs": [
        {
          "internalType": "address",
          "name": "_oracleAddress",
          "type": "address"
        }
      ],
      "name": "setOracleAddress",
      "outputs": [
        {
          "internalType": "bool",
          "name": "",
          "type": "bool"
        }
      ],
      "stateMutability": "nonpayable",
      "type": "function"
    },
    {
      "inputs": [],
      "name": "getOracleAddress",
      "outputs": [
        {
          "internalType": "address",
          "name": "",
          "type": "address"
        }
      ],
      "stateMutability": "view",
      "type": "function"
    },
    {
      "inputs": [],
      "name": "testOracleConnection",
      "outputs": [
        {
          "internalType": "bool",
          "name": "",
          "type": "bool"
        }
      ],
      "stateMutability": "view",
      "type": "function"
    }
  ],
  "bytecode": "0x60806040526000600460006101000a81548173ffffffffffffffffffffffffffffffffffffffff021916908373ffffffffffffffffffffffffffffffffffffffff160217905550600460009054906101000a900473ffffffffffffffffffffffffffffffffffffffff16600560006101000a81548173ffffffffffffffffffffffffffffffffffffffff021916908373ffffffffffffffffffffffffffffffffffffffff16021790555064e8d4a510006006556001600755620f42406008553480156100ca57600080fd5b50336000806101000a81548173ffffffffffffffffffffffffffffffffffffffff021916908373ffffffffffffffffffffffffffffffffffffffff1602179055506126da8061011a6000396000f3fe6080604052600436106100a75760003560e01c806371fe7e011161006457806371fe7e01146101e85780637bef7ce1146102135780638da5cb5b1461023e5780639aeeb70914610269578063b18b78dd14610294578063f2fde38b146102bf576100a7565b80632ce3707e146100ac578063342c196c146100d75780634c69c00f1461011457806352311c1414610151578063528de27f1461018e5780635f0012fe146101cc575b600080fd5b3480156100b857600080fd5b506100c16102e8565b6040516100ce91906117c9565b60405180910390f35b3480156100e357600080fd5b506100fe60048036038101906100f9919061182e565b610380565b60405161010b9190611ae6565b60405180910390f35b34801561012057600080fd5b5061013b60048036038101906101369190611b34565b610430565b60405161014891906117c9565b60405180910390f35b34801561015d57600080fd5b506101786004803603810190610173919061182e565b6105c7565b6040516101859190611b70565b60405180910390f35b34801561019a57600080fd5b506101b560048036038101906101b0919061182e565b6106aa565b6040516101c3929190611b9a565b60405180910390f35b6101e660048036038101906101e19190611c1b565b6107ce565b005b3480156101f457600080fd5b506101fd610b87565b60405161020a9190611ae6565b60405180910390f35b34801561021f57600080fd5b50610228610c36565b6040516102359190611d1d565b60405180910390f35b34801561024a57600080fd5b50610253610cd3565b6040516102609190611d4e565b60405180910390f35b34801561027557600080fd5b5061027e610cf7565b60405161028b9190611d1d565b60405180910390f35b3480156102a057600080fd5b506102a9610d8c565b6040516102b69190611d4e565b60405180910390f35b3480156102cb57600080fd5b506102e660048036038101906102e19190611b34565b610db6565b005b6000600560009054906101000a900473ffffffffffffffffffffffffffffffffffffffff1673ffffffffffffffffffffffffffffffffffffffff16633412a15c6040518163ffffffff1660e01b8152600401602060405180830381865afa158015610357573d6000803e3d6000fd5b505050506040513d601f19601f8201168201806040525081019061037b9190611d7e565b905090565b610388611729565b600560009054906101000a900473ffffffffffffffffffffffffffffffffffffffff1673ffffffffffffffffffffffffffffffffffffffff1663342c196c836040518263ffffffff1660e01b81526004016103e39190611dba565b600060405180830381865afa158015610400573d6000803e3d6000fd5b505050506040513d6000823e3d601f19601f82011682018060405250810190610429919061211d565b9050919050565b60008060009054906101000a900473ffffffffffffffffffffffffffffffffffffffff1673ffffffffffffffffffffffffffffffffffffffff163373ffffffffffffffffffffffffffffffffffffffff161461048b57600080fd5b81600460006101000a81548173ffffffffffffffffffffffffffffffffffffffff021916908373ffffffffffffffffffffffffffffffffffffffff160217905550600460009054906101000a900473ffffffffffffffffffffffffffffffffffffffff16600560006101000a81548173ffffffffffffffffffffffffffffffffffffffff021916908373ffffffffffffffffffffffffffffffffffffffff160217905550600560009054906101000a900473ffffffffffffffffffffffffffffffffffffffff1673ffffffffffffffffffffffffffffffffffffffff16633412a15c6040518163ffffffff1660e01b8152600401602060405180830381865afa15801561059c573d6000803e3d6000fd5b505050506040513d601f19601f820116820180604052508101906105c09190611d7e565b9050919050565b60008060009054906101000a900473ffffffffffffffffffffffffffffffffffffffff1673ffffffffffffffffffffffffffffffffffffffff163373ffffffffffffffffffffffffffffffffffffffff161461062257600080fd5b600061062d83610380565b9050600060028111156106435761064261195d565b5b816101400151600281111561065b5761065a61195d565b5b1415801561068757506003600084815260200190815260200160002060009054906101000a900460ff16155b1561069c5761069b83826101400151610f04565b5b806101400151915050919050565b600080600060026000858152602001908152602001600020905060005b81805490508110156107bf573373ffffffffffffffffffffffffffffffffffffffff168282815481106106fd576106fc612166565b5b906000526020600020906004020160000160009054906101000a900473ffffffffffffffffffffffffffffffffffffffff1673ffffffffffffffffffffffffffffffffffffffff16036107ac5781818154811061075d5761075c612166565b5b90600052602060002090600402016002015482828154811061078257610781612166565b5b906000526020600020906004020160030160009054906101000a900460ff169350935050506107c9565b80806107b7906121c4565b9150506106c7565b5060008092509250505b915091565b8234146107da57600080fd5b60065434101561081f576040517f08c379a00000000000000000000000000000000000000000000000000000000081526004016108169061228f565b60405180910390fd5b600560009054906101000a900473ffffffffffffffffffffffffffffffffffffffff1673ffffffffffffffffffffffffffffffffffffffff1663ffa378b1836040518263ffffffff1660e01b815260040161087a9190611dba565b602060405180830381865afa158015610897573d6000803e3d6000fd5b505050506040513d601f19601f820116820180604052508101906108bb9190611d7e565b6108fa576040517f08c379a00000000000000000000000000000000000000000000000000000000081526004016108f1906122fb565b60405180910390fd5b61090433836113d9565b610943576040517f08c379a000000000000000000000000000000000000000000000000000000000815260040161093a90612367565b60405180910390fd5b600560009054906101000a900473ffffffffffffffffffffffffffffffffffffffff1673ffffffffffffffffffffffffffffffffffffffff16636c69a68c836040518263ffffffff1660e01b815260040161099e9190611dba565b602060405180830381865afa1580156109bb573d6000803e3d6000fd5b505050506040513d601f19601f820116820180604052508101906109df9190611d7e565b610a1e576040517f08c379a0000000000000000000000000000000000000000000000000000000008152600401610a15906123d3565b60405180910390fd5b60006002600084815260200190815260200160002090508060405180608001604052803373ffffffffffffffffffffffffffffffffffffffff168152602001858152602001348152602001841515815250908060018154018082558091505060019003906000526020600020906004020160009091909190915060008201518160000160006101000a81548173ffffffffffffffffffffffffffffffffffffffff021916908373ffffffffffffffffffffffffffffffffffffffff160217905550602082015181600101556040820151816002015560608201518160030160006101000a81548160ff02191690831515021790555050506000600160003373ffffffffffffffffffffffffffffffffffffffff1673ffffffffffffffffffffffffffffffffffffffff1681526020019081526020016000209050808490806001815401808255809150506001900390600052602060002001600090919091909150555050505050565b610b8f611729565b600560009054906101000a900473ffffffffffffffffffffffffffffffffffffffff1673ffffffffffffffffffffffffffffffffffffffff1663b6f0623f60016040518263ffffffff1660e01b8152600401610beb91906117c9565b600060405180830381865afa158015610c08573d6000803e3d6000fd5b505050506040513d6000823e3d601f19601f82011682018060405250810190610c31919061211d565b905090565b6060600560009054906101000a900473ffffffffffffffffffffffffffffffffffffffff1673ffffffffffffffffffffffffffffffffffffffff166352d173a46040518163ffffffff1660e01b8152600401600060405180830381865afa158015610ca5573d6000803e3d6000fd5b505050506040513d6000823e3d601f19601f82011682018060405250810190610cce91906124bb565b905090565b60008054906101000a900473ffffffffffffffffffffffffffffffffffffffff1681565b6060600160003373ffffffffffffffffffffffffffffffffffffffff1673ffffffffffffffffffffffffffffffffffffffff168152602001908152602001600020805480602002602001604051908101604052809291908181526020018280548015610d8257602002820191906000526020600020905b815481526020019060010190808311610d6e575b5050505050905090565b6000600460009054906101000a900473ffffffffffffffffffffffffffffffffffffffff16905090565b60008054906101000a900473ffffffffffffffffffffffffffffffffffffffff1673ffffffffffffffffffffffffffffffffffffffff163373ffffffffffffffffffffffffffffffffffffffff1614610e0e57600080fd5b600073ffffffffffffffffffffffffffffffffffffffff168173ffffffffffffffffffffffffffffffffffffffff1603610e4757600080fd5b8073ffffffffffffffffffffffffffffffffffffffff1660008054906101000a900473ffffffffffffffffffffffffffffffffffffffff1673ffffffffffffffffffffffffffffffffffffffff167f8be0079c531659141344cd1fd0a4f28419497f9722a3daafe3b4186f6b6457e060405160405180910390a3806000806101000a81548173ffffffffffffffffffffffffffffffffffffffff021916908373ffffffffffffffffffffffffffffffffffffffff16021790555050565b60006002811115610f1857610f1761195d565b5b816002811115610f2b57610f2a61195d565b5b03610f3557600080fd5b6000600260008481526020019081526020016000209050600080600080848054905067ffffffffffffffff811115610f7057610f6f611dda565b5b604051908082528060200260200182016040528015610f9e5781602001602082028036833780820191505090505b50905060005b858054905081101561105d576000868281548110610fc557610fc4612166565b5b906000526020600020906004020160020154905061101488888481548110610ff057610fef612166565b5b906000526020600020906004020160030160009054906101000a900460ff16611489565b156110335761102c818661151990919063ffffffff16565b9450611049565b611046818761151990919063ffffffff16565b95505b508080611055906121c4565b915050610fa4565b50611071838561151990919063ffffffff16565b915060005b858054905081101561123557600160028111156110965761109561195d565b5b8760028111156110a9576110a861195d565b5b0361116a576110e9878783815481106110c5576110c4612166565b5b906000526020600020906004020160030160009054906101000a900460ff16611489565b156111435761111f848488848154811061110657611105612166565b5b9060005260206000209060040201600201546000611540565b82828151811061113257611131612166565b5b602002602001018181525050611165565b600082828151811061115857611157612166565b5b6020026020010181815250505b611222565b6111a58787838154811061118157611180612166565b5b906000526020600020906004020160030160009054906101000a900460ff16611489565b156111ff576111db84848884815481106111c2576111c1612166565b5b9060005260206000209060040201600201546001611540565b8282815181106111ee576111ed612166565b5b602002602001018181525050611221565b600082828151811061121457611213612166565b5b6020026020010181815250505b5b808061122d906121c4565b915050611076565b5060006001600281111561124c5761124b61195d565b5b87600281111561125f5761125e61195d565b5b03611268578390505b60005b82518110156112ef576112dc87828154811061128a57611289612166565b5b906000526020600020906004020160000160009054906101000a900473ffffffffffffffffffffffffffffffffffffffff168483815181106112cf576112ce612166565b5b602002602001015161161d565b80806112e7906121c4565b91505061126b565b506000600560009054906101000a900473ffffffffffffffffffffffffffffffffffffffff1673ffffffffffffffffffffffffffffffffffffffff16634f2e6cd98a6040518263ffffffff1660e01b815260040161134d9190611dba565b602060405180830381865afa15801561136a573d6000803e3d6000fd5b505050506040513d601f19601f8201168201806040525081019061138e9190612504565b905061139a818361161d565b6113a2611668565b6001600360008b815260200190815260200160002060006101000a81548160ff021916908315150217905550505050505050505050565b600080600160008573ffffffffffffffffffffffffffffffffffffffff1673ffffffffffffffffffffffffffffffffffffffff168152602001908152602001600020905060008180549050111561147d5760005b818054905081101561147b578382828154811061144d5761144c612166565b5b90600052602060002001540361146857600092505050611483565b8080611473906121c4565b91505061142d565b505b60019150505b92915050565b600080600281111561149e5761149d61195d565b5b8360028111156114b1576114b061195d565b5b036114bb57600080fd5b600160028111156114cf576114ce61195d565b5b8360028111156114e2576114e161195d565b5b036114ff5781156114f65760019050611513565b60009050611513565b811561150e5760009050611513565b600190505b92915050565b600081836115279190612531565b90508281101561153a57611539612587565b5b92915050565b60008061156a8661155c600854876116d190919063ffffffff16565b61171390919063ffffffff16565b9050600083156115ad578461159c60085461158e858a6116d190919063ffffffff16565b61171390919063ffffffff16565b6115a69190612531565b90506115d7565b6115d46008546115c684896116d190919063ffffffff16565b61171390919063ffffffff16565b90505b600081036115e55760065490505b6000606460075460646115f891906125b6565b8361160391906125ea565b61160d9190612673565b9050809350505050949350505050565b8173ffffffffffffffffffffffffffffffffffffffff166108fc829081150290604051600060405180830381858888f19350505050158015611663573d6000803e3d6000fd5b505050565b60008054906101000a900473ffffffffffffffffffffffffffffffffffffffff1673ffffffffffffffffffffffffffffffffffffffff166108fc479081150290604051600060405180830381858888f193505050501580156116ce573d6000803e3d6000fd5b50565b60008083036116e3576000905061170d565b81836116ef91906125ea565b90508183826116fe9190612673565b1461170c5761170b612587565b5b5b92915050565b600081836117219190612673565b905092915050565b604051806101600160405280600080191681526020016060815260200160608152602001600073ffffffffffffffffffffffffffffffffffffffff168152602001600081526020016060815260200160608152602001600081526020016060815260200160608152602001600060028111156117a8576117a761195d565b5b81525090565b60008115159050919050565b6117c3816117ae565b82525050565b60006020820190506117de60008301846117ba565b92915050565b6000604051905090565b600080fd5b600080fd5b6000819050919050565b61180b816117f8565b811461181657600080fd5b50565b60008135905061182881611802565b92915050565b600060208284031215611844576118436117ee565b5b600061185284828501611819565b91505092915050565b611864816117f8565b82525050565b600081519050919050565b600082825260208201905092915050565b60005b838110156118a4578082015181840152602081019050611889565b838111156118b3576000848401525b50505050565b6000601f19601f8301169050919050565b60006118d58261186a565b6118df8185611875565b93506118ef818560208601611886565b6118f8816118b9565b840191505092915050565b600073ffffffffffffffffffffffffffffffffffffffff82169050919050565b600061192e82611903565b9050919050565b61193e81611923565b82525050565b6000819050919050565b61195781611944565b82525050565b7f4e487b7100000000000000000000000000000000000000000000000000000000600052602160045260246000fd5b6003811061199d5761199c61195d565b5b50565b60008190506119ae8261198c565b919050565b60006119be826119a0565b9050919050565b6119ce816119b3565b82525050565b6000610160830160008301516119ed600086018261185b565b5060208301518482036020860152611a0582826118ca565b91505060408301518482036040860152611a1f82826118ca565b9150506060830151611a346060860182611935565b506080830151611a47608086018261194e565b5060a083015184820360a0860152611a5f82826118ca565b91505060c083015184820360c0860152611a7982826118ca565b91505060e0830151611a8e60e086018261194e565b50610100830151848203610100860152611aa882826118ca565b915050610120830151848203610120860152611ac482826118ca565b915050610140830151611adb6101408601826119c5565b508091505092915050565b60006020820190508181036000830152611b0081846119d4565b905092915050565b611b1181611923565b8114611b1c57600080fd5b50565b600081359050611b2e81611b08565b92915050565b600060208284031215611b4a57611b496117ee565b5b6000611b5884828501611b1f565b91505092915050565b611b6a816119b3565b82525050565b6000602082019050611b856000830184611b61565b92915050565b611b9481611944565b82525050565b6000604082019050611baf6000830185611b8b565b611bbc60208301846117ba565b9392505050565b611bcc81611944565b8114611bd757600080fd5b50565b600081359050611be981611bc3565b92915050565b611bf8816117ae565b8114611c0357600080fd5b50565b600081359050611c1581611bef565b92915050565b600080600060608486031215611c3457611c336117ee565b5b6000611c4286828701611bda565b9350506020611c5386828701611819565b9250506040611c6486828701611c06565b9150509250925092565b600081519050919050565b600082825260208201905092915050565b6000819050602082019050919050565b6000611ca6838361185b565b60208301905092915050565b6000602082019050919050565b6000611cca82611c6e565b611cd48185611c79565b9350611cdf83611c8a565b8060005b83811015611d10578151611cf78882611c9a565b9750611d0283611cb2565b925050600181019050611ce3565b5085935050505092915050565b60006020820190508181036000830152611d378184611cbf565b905092915050565b611d4881611923565b82525050565b6000602082019050611d636000830184611d3f565b92915050565b600081519050611d7881611bef565b92915050565b600060208284031215611d9457611d936117ee565b5b6000611da284828501611d69565b91505092915050565b611db4816117f8565b82525050565b6000602082019050611dcf6000830184611dab565b92915050565b600080fd5b7f4e487b7100000000000000000000000000000000000000000000000000000000600052604160045260246000fd5b611e12826118b9565b810181811067ffffffffffffffff82111715611e3157611e30611dda565b5b80604052505050565b6000611e446117e4565b9050611e508282611e09565b919050565b600080fd5b600081519050611e6981611802565b92915050565b600080fd5b600080fd5b600067ffffffffffffffff821115611e9457611e93611dda565b5b611e9d826118b9565b9050602081019050919050565b6000611ebd611eb884611e79565b611e3a565b905082815260208101848484011115611ed957611ed8611e74565b5b611ee4848285611886565b509392505050565b600082601f830112611f0157611f00611e6f565b5b8151611f11848260208601611eaa565b91505092915050565b600081519050611f2981611b08565b92915050565b600081519050611f3e81611bc3565b92915050565b60038110611f5157600080fd5b50565b600081519050611f6381611f44565b92915050565b60006101608284031215611f8057611f7f611dd5565b5b611f8b610160611e3a565b90506000611f9b84828501611e5a565b600083015250602082015167ffffffffffffffff811115611fbf57611fbe611e55565b5b611fcb84828501611eec565b602083015250604082015167ffffffffffffffff811115611fef57611fee611e55565b5b611ffb84828501611eec565b604083015250606061200f84828501611f1a565b606083015250608061202384828501611f2f565b60808301525060a082015167ffffffffffffffff81111561204757612046611e55565b5b61205384828501611eec565b60a08301525060c082015167ffffffffffffffff81111561207757612076611e55565b5b61208384828501611eec565b60c08301525060e061209784828501611f2f565b60e08301525061010082015167ffffffffffffffff8111156120bc576120bb611e55565b5b6120c884828501611eec565b6101008301525061012082015167ffffffffffffffff8111156120ee576120ed611e55565b5b6120fa84828501611eec565b6101208301525061014061211084828501611f54565b6101408301525092915050565b600060208284031215612133576121326117ee565b5b600082015167ffffffffffffffff811115612151576121506117f3565b5b61215d84828501611f69565b91505092915050565b7f4e487b7100000000000000000000000000000000000000000000000000000000600052603260045260246000fd5b7f4e487b7100000000000000000000000000000000000000000000000000000000600052601160045260246000fd5b60006121cf82611944565b91507fffffffffffffffffffffffffffffffffffffffffffffffffffffffffffffffff820361220157612200612195565b5b600182019050919050565b600082825260208201905092915050565b7f436f6d6d69746d656e7420616d6f756e74206d757374206265203e3d206d696e60008201527f696d756d20636f6d6d69746d656e740000000000000000000000000000000000602082015250565b6000612279602f8361220c565b91506122848261221d565b604082019050919050565b600060208201905081810360008301526122a88161226c565b9050919050565b7f5370656369666965642062696c6c206e6f7420666f756e640000000000000000600082015250565b60006122e560188361220c565b91506122f0826122af565b602082019050919050565b60006020820190508181036000830152612314816122d8565b9050919050565b7f436f6d6d69746d656e74206973206e6f742076616c6964000000000000000000600082015250565b600061235160178361220c565b915061235c8261231b565b602082019050919050565b6000602082019050818103600083015261238081612344565b9050919050565b7f42696c6c206e6f74206f70656e20666f7220636f6d6d69746d656e7400000000600082015250565b60006123bd601c8361220c565b91506123c882612387565b602082019050919050565b600060208201905081810360008301526123ec816123b0565b9050919050565b600067ffffffffffffffff82111561240e5761240d611dda565b5b602082029050602081019050919050565b600080fd5b6000612437612432846123f3565b611e3a565b9050808382526020820190506020840283018581111561245a5761245961241f565b5b835b81811015612483578061246f8882611e5a565b84526020840193505060208101905061245c565b5050509392505050565b600082601f8301126124a2576124a1611e6f565b5b81516124b2848260208601612424565b91505092915050565b6000602082840312156124d1576124d06117ee565b5b600082015167ffffffffffffffff8111156124ef576124ee6117f3565b5b6124fb8482850161248d565b91505092915050565b60006020828403121561251a576125196117ee565b5b600061252884828501611f1a565b91505092915050565b600061253c82611944565b915061254783611944565b9250827fffffffffffffffffffffffffffffffffffffffffffffffffffffffffffffffff0382111561257c5761257b612195565b5b828201905092915050565b7f4e487b7100000000000000000000000000000000000000000000000000000000600052600160045260246000fd5b60006125c182611944565b91506125cc83611944565b9250828210156125df576125de612195565b5b828203905092915050565b60006125f582611944565b915061260083611944565b9250817fffffffffffffffffffffffffffffffffffffffffffffffffffffffffffffffff048311821515161561263957612638612195565b5b828202905092915050565b7f4e487b7100000000000000000000000000000000000000000000000000000000600052601260045260246000fd5b600061267e82611944565b915061268983611944565b92508261269957612698612644565b5b82820490509291505056fea2646970667358221220d4f318ca61c8ce63d5cdb61f702c2951c6177d962552dd471a34dc4d7a6d41cc64736f6c634300080e0033",
  "immutableReferences": {},
  "source": "// SPDX-License-Identifier: MIT\npragma solidity >=0.4.22 <0.9.0;\n\nimport \"./OracleInterface.sol\";\nimport \"./Ownable.sol\";\nimport \"./SafeMath.sol\";\n\n/// @title Commitments\n/// @author Oliver Song\n/// @notice Takes commitments and handles payouts for bill outcomes\ncontract Commitments is Ownable {\n    // mappings\n    mapping(address => bytes32[]) private userToCommitments;\n    mapping(bytes32 => Commitment[]) private billToCommitments;\n    mapping(bytes32 => bool) internal billPaidOut;\n\n    // bill outcomes oracle\n    address internal billOracleAddr = address(0);\n    OracleInterface internal billOracle = OracleInterface(billOracleAddr);\n\n    //constants\n    uint internal minimumCommitment = 1000000000000;  // 1000 gwei\n    uint internal housePercentage = 1;\n    uint internal multFactor = 1000000; // shortcut for doing floating point math\n\n    using SafeMath for uint;\n\n    struct Commitment {\n        address user;\n        bytes32 billId;\n        uint amount;\n        bool inSupport;\n    }\n\n    /// @notice determines whether or not the user has already committed to the given bill\n    /// @param _user address of a user\n    /// @param _billId id of a bill\n    /// @return true if the given user has already placed a commitment on the given bill\n    function _commitmentIsValid(address _user, bytes32 _billId) private view returns (bool) {\n        bytes32[] storage userCommitments = userToCommitments[_user];\n        if (userCommitments.length > 0) {\n            for (uint n = 0; n < userCommitments.length; n++) {\n                if (userCommitments[n] == _billId) {\n                    return false;\n                }\n            }\n        }\n        return true;\n    }\n\n    /// @notice gets a list ids of all currently commitable bill\n    /// @return array of bill ids\n    function getCommitableBills() public view returns (bytes32[] memory) {\n        return billOracle.getPendingBills();\n    }\n\n    /// @notice returns the full data of the specified bill\n    /// @param _billId the id of the desired bill\n    function getBill(bytes32 _billId) public view returns (OracleInterface.Bill memory) {\n        return billOracle.getBill(_billId);\n    }\n\n    /// @notice returns the full data of the most recent commitable bill\n    function getMostRecentBill() public view returns (OracleInterface.Bill memory) {\n        return billOracle.getMostRecentBill(true);\n    }\n\n    /// @notice gets the current bills on which the user has commitments\n    /// @return array of bill ids\n    function getUserCommitments() public view returns (bytes32[] memory) {\n        return userToCommitments[msg.sender];\n    }\n\n    /// @notice gets a user's commitment\n    /// @param _billId the id of the desired bill\n    /// @return amount commitment amount, or 0 if no commitment found\n    /// @return inSupport in support of bill or not, or 0 if no commitment found\n    function getUserCommitment(bytes32 _billId) public view returns (uint amount, bool inSupport) {\n        // FIXME: perhaps should iterate through usercommitments instead\n        // actually, probably shouldn't be iterating at all if possible\n        Commitment[] storage commitments = billToCommitments[_billId];\n        for (uint n = 0; n < commitments.length; n++) {\n            if (commitments[n].user == msg.sender) {\n                return (commitments[n].amount, commitments[n].inSupport);\n            }\n        }\n        // FIXME could gate this with a require and instead\n        // add a method \"userHasCommitment\".\n        // Could also gate billid on existing bill\n        return (0, false);\n    }\n\n    /// @notice places a non-rescindable commitment on the given bill\n    /// @param _amount the id of the bill on which to commitment\n    /// @param _billId the id of the bill on which to commitment\n    /// @param _inSupport commitment in favor of bill passing (vs against)\n    function placeCommitment(uint _amount, bytes32 _billId, bool _inSupport) public payable {\n        require(msg.value == _amount);\n\n        // commitment must be above a certain minimum\n        require(msg.value >= minimumCommitment, \"Commitment amount must be >= minimum commitment\");\n\n        // make sure that bill exists\n        require(billOracle.billExists(_billId), \"Specified bill not found\");\n\n        // validate\n        require(_commitmentIsValid(msg.sender, _billId), \"Commitment is not valid\");\n\n        // bill must still be open for commitment\n        require(billOracle.billIsPending(_billId), \"Bill not open for commitment\");\n\n        // add the new commitment\n        Commitment[] storage commitments = billToCommitments[_billId];\n        commitments.push(Commitment(msg.sender, _billId, msg.value, _inSupport));\n\n        // add the mapping\n        bytes32[] storage userCommitments = userToCommitments[msg.sender];\n        userCommitments.push(_billId);\n    }\n\n    function _payOutWinnings(address _user, uint _amount) private {\n        payable(_user).transfer(_amount);\n    }\n\n    function _transferToHouse() private {\n        payable(owner).transfer(address(this).balance);\n    }\n\n    function _isWinningCommitment(OracleInterface.BillOutcome _outcome, bool inSupport) private pure returns (bool) {\n        require(_outcome != OracleInterface.BillOutcome.Pending);\n\n        if (_outcome == OracleInterface.BillOutcome.BecameLaw) {\n            if (inSupport) {\n                return true;\n            } else {\n                return false;\n            }\n        } else {\n            if (inSupport) {\n                return false;\n            } else {\n                return true;\n            }\n        }\n    }\n\n    /// @notice calculates the amount to be paid out for a commitment\n    /// @param _winningTotal the total monetary amount of winning commitments\n    /// @param _losingTotal the total monetary amount of losing commitments\n    /// @param _committedAmount the amount of this particular commitment\n    /// @return an amount in wei\n    function _calculatePayout(uint _winningTotal, uint _losingTotal, uint _committedAmount, bool _keepCommitment) private view returns (uint) {\n        uint percentWinningTotal = (_committedAmount.mul(multFactor)).div(_winningTotal);\n\n        // calculate raw share\n        uint winningAmount = 0;\n        if (_keepCommitment) {\n            winningAmount = _losingTotal.mul(percentWinningTotal).div(multFactor) + _committedAmount;\n        } else {\n            winningAmount = _losingTotal.mul(percentWinningTotal).div(multFactor);\n        }\n\n        // if share has been rounded down to zero, fix that\n        if (winningAmount == 0) {\n            winningAmount = minimumCommitment;\n        }\n\n        // take out house cut\n        uint winningsMinusHouseCut = winningAmount * (100 - housePercentage) / 100;\n        return winningsMinusHouseCut;\n    }\n\n    /// @notice calculates how much to pay out to each winner, then pays each winner the appropriate amount\n    /// @param _billId the unique id of the bill\n    /// @param _outcome the bill's outcome\n    function _payOutForBill(bytes32 _billId, OracleInterface.BillOutcome _outcome) private {\n        require(_outcome != OracleInterface.BillOutcome.Pending);\n\n        Commitment[] storage commitments = billToCommitments[_billId];\n        uint losingTotal = 0;\n        uint winningTotal = 0;\n        uint totalPot = 0;\n        uint[] memory payouts = new uint[](commitments.length);\n\n        //count winning commitments & get total\n        for (uint n = 0; n < commitments.length; n++) {\n            uint amount = commitments[n].amount;\n            if (_isWinningCommitment(_outcome, commitments[n].inSupport)) {\n                winningTotal = winningTotal.add(amount);\n            } else {\n                losingTotal = losingTotal.add(amount);\n            }\n        }\n        totalPot = losingTotal.add(winningTotal);\n\n        //calculate payouts\n        for (uint n = 0; n < commitments.length; n++) {\n            if (_outcome == OracleInterface.BillOutcome.BecameLaw) {\n                // in the passing case, supporters get detractors' commitments\n                // minus their own commitment, which goes to legislator\n                if (_isWinningCommitment(_outcome, commitments[n].inSupport)) {\n                    payouts[n] = _calculatePayout(winningTotal, totalPot, commitments[n].amount, false);\n                } else {\n                    payouts[n] = 0;\n                }\n            } else {\n                // in the rejected case, detractors get supporters' commitments\n                // plus their own back. Legislators get nothing.\n                if (_isWinningCommitment(_outcome, commitments[n].inSupport)) {\n                    payouts[n] = _calculatePayout(winningTotal, totalPot, commitments[n].amount, true);\n                } else {\n                    payouts[n] = 0;\n                }\n            }\n        }\n\n        // calculate legislator payout\n        uint legislaterPayout = 0;\n        if (_outcome == OracleInterface.BillOutcome.BecameLaw) {\n            // legislator gets support total\n            legislaterPayout = winningTotal;\n        }\n\n\n        // pay out to users\n        for (uint n = 0; n < payouts.length; n++) {\n            _payOutWinnings(commitments[n].user, payouts[n]);\n        }\n\n        // pay out to legislators\n        address sponsor = billOracle.getBillSponsorAddress(_billId);\n        _payOutWinnings(sponsor, legislaterPayout);\n\n        // transfer the remainder to the house\n        _transferToHouse();\n\n        // mark bill as paid out\n        billPaidOut[_billId] = true;\n    }\n\n\n    /// @notice check the outcome of the given bill; if ready, will trigger calculation of payout, and actual payout to winners\n    /// @param _billId the id of the bill to check\n    /// @return the outcome of the given bill\n    function checkOutcome(bytes32 _billId) external onlyOwner returns (OracleInterface.BillOutcome)  {\n        OracleInterface.Bill memory b = getBill(_billId);\n\n        if (b.outcome != OracleInterface.BillOutcome.Pending && !billPaidOut[_billId]) {\n            _payOutForBill(_billId, b.outcome);\n        }\n\n        return b.outcome;\n    }\n\n\n    /// @notice sets the address of the oracle contract to use\n    /// @dev setting a wrong address may result in false return value, or error\n    /// @param _oracleAddress the address of the oracle\n    /// @return true if connection to the new oracle address was successful\n    function setOracleAddress(address _oracleAddress) external onlyOwner returns (bool) {\n        billOracleAddr = _oracleAddress;\n        billOracle = OracleInterface(billOracleAddr);\n        return billOracle.testConnection();\n    }\n\n    /// @notice gets the address of the oracle being used\n    /// @return the address of the currently set oracle\n    function getOracleAddress() external view returns (address) {\n        return billOracleAddr;\n    }\n\n    /// @notice for testing; tests that the oracle is callable\n    /// @return true if connection successful\n    function testOracleConnection() public view returns (bool) {\n        return billOracle.testConnection();\n    }\n}\n",
  "sourcePath": "/Users/oliversong/Development/open-lobby/client/contracts/Commitments.sol",
  "compiler": {
    "name": "solc",
    "version": "0.8.14+commit.80d49f37.Emscripten.clang"
  },
  "schemaVersion": "3.4.7",
  "updatedAt": "2022-07-08T05:32:13.259Z",
  "devdoc": {
    "author": "Oliver Song",
    "kind": "dev",
    "methods": {
      "checkOutcome(bytes32)": {
        "params": {
          "_billId": "the id of the bill to check"
        },
        "returns": {
          "_0": "the outcome of the given bill"
        }
      },
      "getBill(bytes32)": {
        "params": {
          "_billId": "the id of the desired bill"
        }
      },
      "getCommitableBills()": {
        "returns": {
          "_0": "array of bill ids"
        }
      },
      "getOracleAddress()": {
        "returns": {
          "_0": "the address of the currently set oracle"
        }
      },
      "getUserCommitment(bytes32)": {
        "params": {
          "_billId": "the id of the desired bill"
        },
        "returns": {
          "amount": "commitment amount, or 0 if no commitment found",
          "inSupport": "in support of bill or not, or 0 if no commitment found"
        }
      },
      "getUserCommitments()": {
        "returns": {
          "_0": "array of bill ids"
        }
      },
      "placeCommitment(uint256,bytes32,bool)": {
        "params": {
          "_amount": "the id of the bill on which to commitment",
          "_billId": "the id of the bill on which to commitment",
          "_inSupport": "commitment in favor of bill passing (vs against)"
        }
      },
      "setOracleAddress(address)": {
        "details": "setting a wrong address may result in false return value, or error",
        "params": {
          "_oracleAddress": "the address of the oracle"
        },
        "returns": {
          "_0": "true if connection to the new oracle address was successful"
        }
      },
      "testOracleConnection()": {
        "returns": {
          "_0": "true if connection successful"
        }
      },
      "transferOwnership(address)": {
        "details": "Allows the current owner to transfer control of the contract to a newOwner.",
        "params": {
          "newOwner": "The address to transfer ownership to."
        }
      }
    },
    "title": "Commitments",
    "version": 1
  },
  "userdoc": {
    "kind": "user",
    "methods": {
      "checkOutcome(bytes32)": {
        "notice": "check the outcome of the given bill; if ready, will trigger calculation of payout, and actual payout to winners"
      },
      "getBill(bytes32)": {
        "notice": "returns the full data of the specified bill"
      },
      "getCommitableBills()": {
        "notice": "gets a list ids of all currently commitable bill"
      },
      "getMostRecentBill()": {
        "notice": "returns the full data of the most recent commitable bill"
      },
      "getOracleAddress()": {
        "notice": "gets the address of the oracle being used"
      },
      "getUserCommitment(bytes32)": {
        "notice": "gets a user's commitment"
      },
      "getUserCommitments()": {
        "notice": "gets the current bills on which the user has commitments"
      },
      "placeCommitment(uint256,bytes32,bool)": {
        "notice": "places a non-rescindable commitment on the given bill"
      },
      "setOracleAddress(address)": {
        "notice": "sets the address of the oracle contract to use"
      },
      "testOracleConnection()": {
        "notice": "for testing; tests that the oracle is callable"
      }
    },
    "notice": "Takes commitments and handles payouts for bill outcomes",
    "version": 1
  }
}