{
  "contractName": "Commitments",
  "abi": [
    {
      "anonymous": false,
      "inputs": [
        {
          "indexed": true,
          "internalType": "address",
          "name": "previousOwner",
          "type": "address"
        },
        {
          "indexed": true,
          "internalType": "address",
          "name": "newOwner",
          "type": "address"
        }
      ],
      "name": "OwnershipTransferred",
      "type": "event"
    },
    {
      "inputs": [],
      "name": "owner",
      "outputs": [
        {
          "internalType": "address",
          "name": "",
          "type": "address"
        }
      ],
      "stateMutability": "view",
      "type": "function"
    },
    {
      "inputs": [
        {
          "internalType": "address",
          "name": "newOwner",
          "type": "address"
        }
      ],
      "name": "transferOwnership",
      "outputs": [],
      "stateMutability": "nonpayable",
      "type": "function"
    },
    {
      "inputs": [],
      "name": "getCommitableBills",
      "outputs": [
        {
          "internalType": "bytes32[]",
          "name": "",
          "type": "bytes32[]"
        }
      ],
      "stateMutability": "view",
      "type": "function"
    },
    {
      "inputs": [
        {
          "internalType": "bytes32",
          "name": "_billId",
          "type": "bytes32"
        }
      ],
      "name": "getBill",
      "outputs": [
        {
          "components": [
            {
              "internalType": "bytes32",
              "name": "id",
              "type": "bytes32"
            },
            {
              "internalType": "string",
              "name": "amendsBill",
              "type": "string"
            },
            {
              "internalType": "string",
              "name": "sponsor",
              "type": "string"
            },
            {
              "internalType": "address",
              "name": "sponsorAddress",
              "type": "address"
            },
            {
              "internalType": "uint256",
              "name": "dateOfIntroduction",
              "type": "uint256"
            },
            {
              "internalType": "string",
              "name": "committees",
              "type": "string"
            },
            {
              "internalType": "string",
              "name": "latestAction",
              "type": "string"
            },
            {
              "internalType": "uint256",
              "name": "latestActionDate",
              "type": "uint256"
            },
            {
              "internalType": "string",
              "name": "title",
              "type": "string"
            },
            {
              "internalType": "string",
              "name": "legislationNumber",
              "type": "string"
            },
            {
              "internalType": "enum OracleInterface.BillOutcome",
              "name": "outcome",
              "type": "uint8"
            }
          ],
          "internalType": "struct OracleInterface.Bill",
          "name": "",
          "type": "tuple"
        }
      ],
      "stateMutability": "view",
      "type": "function"
    },
    {
      "inputs": [],
      "name": "getMostRecentBill",
      "outputs": [
        {
          "components": [
            {
              "internalType": "bytes32",
              "name": "id",
              "type": "bytes32"
            },
            {
              "internalType": "string",
              "name": "amendsBill",
              "type": "string"
            },
            {
              "internalType": "string",
              "name": "sponsor",
              "type": "string"
            },
            {
              "internalType": "address",
              "name": "sponsorAddress",
              "type": "address"
            },
            {
              "internalType": "uint256",
              "name": "dateOfIntroduction",
              "type": "uint256"
            },
            {
              "internalType": "string",
              "name": "committees",
              "type": "string"
            },
            {
              "internalType": "string",
              "name": "latestAction",
              "type": "string"
            },
            {
              "internalType": "uint256",
              "name": "latestActionDate",
              "type": "uint256"
            },
            {
              "internalType": "string",
              "name": "title",
              "type": "string"
            },
            {
              "internalType": "string",
              "name": "legislationNumber",
              "type": "string"
            },
            {
              "internalType": "enum OracleInterface.BillOutcome",
              "name": "outcome",
              "type": "uint8"
            }
          ],
          "internalType": "struct OracleInterface.Bill",
          "name": "",
          "type": "tuple"
        }
      ],
      "stateMutability": "view",
      "type": "function"
    },
    {
      "inputs": [],
      "name": "getUserCommitments",
      "outputs": [
        {
          "internalType": "bytes32[]",
          "name": "",
          "type": "bytes32[]"
        }
      ],
      "stateMutability": "view",
      "type": "function"
    },
    {
      "inputs": [
        {
          "internalType": "bytes32",
          "name": "_billId",
          "type": "bytes32"
        }
      ],
      "name": "getBillCommitments",
      "outputs": [
        {
          "components": [
            {
              "internalType": "address",
              "name": "user",
              "type": "address"
            },
            {
              "internalType": "bytes32",
              "name": "billId",
              "type": "bytes32"
            },
            {
              "internalType": "uint256",
              "name": "amount",
              "type": "uint256"
            },
            {
              "internalType": "bool",
              "name": "inSupport",
              "type": "bool"
            }
          ],
          "internalType": "struct Commitments.Commitment[]",
          "name": "",
          "type": "tuple[]"
        }
      ],
      "stateMutability": "view",
      "type": "function"
    },
    {
      "inputs": [
        {
          "internalType": "bytes32",
          "name": "_billId",
          "type": "bytes32"
        }
      ],
      "name": "getUserCommitment",
      "outputs": [
        {
          "internalType": "uint256",
          "name": "amount",
          "type": "uint256"
        },
        {
          "internalType": "bool",
          "name": "inSupport",
          "type": "bool"
        }
      ],
      "stateMutability": "view",
      "type": "function"
    },
    {
      "inputs": [
        {
          "internalType": "uint256",
          "name": "_amount",
          "type": "uint256"
        },
        {
          "internalType": "bytes32",
          "name": "_billId",
          "type": "bytes32"
        },
        {
          "internalType": "bool",
          "name": "_inSupport",
          "type": "bool"
        }
      ],
      "name": "placeCommitment",
      "outputs": [],
      "stateMutability": "payable",
      "type": "function"
    },
    {
      "inputs": [
        {
          "internalType": "bytes32",
          "name": "_billId",
          "type": "bytes32"
        }
      ],
      "name": "checkOutcome",
      "outputs": [
        {
          "internalType": "enum OracleInterface.BillOutcome",
          "name": "",
          "type": "uint8"
        }
      ],
      "stateMutability": "nonpayable",
      "type": "function"
    },
    {
      "inputs": [
        {
          "internalType": "address",
          "name": "_oracleAddress",
          "type": "address"
        }
      ],
      "name": "setOracleAddress",
      "outputs": [
        {
          "internalType": "bool",
          "name": "",
          "type": "bool"
        }
      ],
      "stateMutability": "nonpayable",
      "type": "function"
    },
    {
      "inputs": [],
      "name": "getOracleAddress",
      "outputs": [
        {
          "internalType": "address",
          "name": "",
          "type": "address"
        }
      ],
      "stateMutability": "view",
      "type": "function"
    },
    {
      "inputs": [],
      "name": "testOracleConnection",
      "outputs": [
        {
          "internalType": "bool",
          "name": "",
          "type": "bool"
        }
      ],
      "stateMutability": "view",
      "type": "function"
    }
  ],
  "bytecode": "0x60806040526000600460006101000a81548173ffffffffffffffffffffffffffffffffffffffff021916908373ffffffffffffffffffffffffffffffffffffffff160217905550600460009054906101000a900473ffffffffffffffffffffffffffffffffffffffff16600560006101000a81548173ffffffffffffffffffffffffffffffffffffffff021916908373ffffffffffffffffffffffffffffffffffffffff16021790555064e8d4a5100060065560026007553480156100c357600080fd5b50336000806101000a81548173ffffffffffffffffffffffffffffffffffffffff021916908373ffffffffffffffffffffffffffffffffffffffff16021790555061291b806101136000396000f3fe6080604052600436106100c25760003560e01c806371fe7e011161007f5780638da5cb5b116100595780638da5cb5b146102965780639aeeb709146102c1578063b18b78dd146102ec578063f2fde38b14610317576100c2565b806371fe7e011461020357806379d57d301461022e5780637bef7ce11461026b576100c2565b80632ce3707e146100c7578063342c196c146100f25780634c69c00f1461012f57806352311c141461016c578063528de27f146101a95780635f0012fe146101e7575b600080fd5b3480156100d357600080fd5b506100dc610340565b6040516100e991906118d5565b60405180910390f35b3480156100fe57600080fd5b506101196004803603810190610114919061193a565b6103d8565b6040516101269190611bf2565b60405180910390f35b34801561013b57600080fd5b5061015660048036038101906101519190611c40565b610488565b60405161016391906118d5565b60405180910390f35b34801561017857600080fd5b50610193600480360381019061018e919061193a565b61061f565b6040516101a09190611c7c565b60405180910390f35b3480156101b557600080fd5b506101d060048036038101906101cb919061193a565b610702565b6040516101de929190611ca6565b60405180910390f35b61020160048036038101906101fc9190611d27565b610826565b005b34801561020f57600080fd5b50610218610bdf565b6040516102259190611bf2565b60405180910390f35b34801561023a57600080fd5b506102556004803603810190610250919061193a565b610c8e565b6040516102629190611e8d565b60405180910390f35b34801561027757600080fd5b50610280610d85565b60405161028d9190611f5e565b60405180910390f35b3480156102a257600080fd5b506102ab610e22565b6040516102b89190611f8f565b60405180910390f35b3480156102cd57600080fd5b506102d6610e46565b6040516102e39190611f5e565b60405180910390f35b3480156102f857600080fd5b50610301610edb565b60405161030e9190611f8f565b60405180910390f35b34801561032357600080fd5b5061033e60048036038101906103399190611c40565b610f05565b005b6000600560009054906101000a900473ffffffffffffffffffffffffffffffffffffffff1673ffffffffffffffffffffffffffffffffffffffff16633412a15c6040518163ffffffff1660e01b8152600401602060405180830381865afa1580156103af573d6000803e3d6000fd5b505050506040513d601f19601f820116820180604052508101906103d39190611fbf565b905090565b6103e0611835565b600560009054906101000a900473ffffffffffffffffffffffffffffffffffffffff1673ffffffffffffffffffffffffffffffffffffffff1663342c196c836040518263ffffffff1660e01b815260040161043b9190611ffb565b600060405180830381865afa158015610458573d6000803e3d6000fd5b505050506040513d6000823e3d601f19601f82011682018060405250810190610481919061235e565b9050919050565b60008060009054906101000a900473ffffffffffffffffffffffffffffffffffffffff1673ffffffffffffffffffffffffffffffffffffffff163373ffffffffffffffffffffffffffffffffffffffff16146104e357600080fd5b81600460006101000a81548173ffffffffffffffffffffffffffffffffffffffff021916908373ffffffffffffffffffffffffffffffffffffffff160217905550600460009054906101000a900473ffffffffffffffffffffffffffffffffffffffff16600560006101000a81548173ffffffffffffffffffffffffffffffffffffffff021916908373ffffffffffffffffffffffffffffffffffffffff160217905550600560009054906101000a900473ffffffffffffffffffffffffffffffffffffffff1673ffffffffffffffffffffffffffffffffffffffff16633412a15c6040518163ffffffff1660e01b8152600401602060405180830381865afa1580156105f4573d6000803e3d6000fd5b505050506040513d601f19601f820116820180604052508101906106189190611fbf565b9050919050565b60008060009054906101000a900473ffffffffffffffffffffffffffffffffffffffff1673ffffffffffffffffffffffffffffffffffffffff163373ffffffffffffffffffffffffffffffffffffffff161461067a57600080fd5b6000610685836103d8565b90506000600281111561069b5761069a611a69565b5b81610140015160028111156106b3576106b2611a69565b5b141580156106df57506003600084815260200190815260200160002060009054906101000a900460ff16155b156106f4576106f383826101400151611053565b5b806101400151915050919050565b600080600060026000858152602001908152602001600020905060005b8180549050811015610817573373ffffffffffffffffffffffffffffffffffffffff16828281548110610755576107546123a7565b5b906000526020600020906004020160000160009054906101000a900473ffffffffffffffffffffffffffffffffffffffff1673ffffffffffffffffffffffffffffffffffffffff1603610804578181815481106107b5576107b46123a7565b5b9060005260206000209060040201600201548282815481106107da576107d96123a7565b5b906000526020600020906004020160030160009054906101000a900460ff16935093505050610821565b808061080f90612405565b91505061071f565b5060008092509250505b915091565b82341461083257600080fd5b600654341015610877576040517f08c379a000000000000000000000000000000000000000000000000000000000815260040161086e906124d0565b60405180910390fd5b600560009054906101000a900473ffffffffffffffffffffffffffffffffffffffff1673ffffffffffffffffffffffffffffffffffffffff1663ffa378b1836040518263ffffffff1660e01b81526004016108d29190611ffb565b602060405180830381865afa1580156108ef573d6000803e3d6000fd5b505050506040513d601f19601f820116820180604052508101906109139190611fbf565b610952576040517f08c379a00000000000000000000000000000000000000000000000000000000081526004016109499061253c565b60405180910390fd5b61095c3383611528565b61099b576040517f08c379a0000000000000000000000000000000000000000000000000000000008152600401610992906125a8565b60405180910390fd5b600560009054906101000a900473ffffffffffffffffffffffffffffffffffffffff1673ffffffffffffffffffffffffffffffffffffffff16636c69a68c836040518263ffffffff1660e01b81526004016109f69190611ffb565b602060405180830381865afa158015610a13573d6000803e3d6000fd5b505050506040513d601f19601f82011682018060405250810190610a379190611fbf565b610a76576040517f08c379a0000000000000000000000000000000000000000000000000000000008152600401610a6d90612614565b60405180910390fd5b60006002600084815260200190815260200160002090508060405180608001604052803373ffffffffffffffffffffffffffffffffffffffff168152602001858152602001348152602001841515815250908060018154018082558091505060019003906000526020600020906004020160009091909190915060008201518160000160006101000a81548173ffffffffffffffffffffffffffffffffffffffff021916908373ffffffffffffffffffffffffffffffffffffffff160217905550602082015181600101556040820151816002015560608201518160030160006101000a81548160ff02191690831515021790555050506000600160003373ffffffffffffffffffffffffffffffffffffffff1673ffffffffffffffffffffffffffffffffffffffff1681526020019081526020016000209050808490806001815401808255809150506001900390600052602060002001600090919091909150555050505050565b610be7611835565b600560009054906101000a900473ffffffffffffffffffffffffffffffffffffffff1673ffffffffffffffffffffffffffffffffffffffff1663b6f0623f60016040518263ffffffff1660e01b8152600401610c4391906118d5565b600060405180830381865afa158015610c60573d6000803e3d6000fd5b505050506040513d6000823e3d601f19601f82011682018060405250810190610c89919061235e565b905090565b606060026000838152602001908152602001600020805480602002602001604051908101604052809291908181526020016000905b82821015610d7a57838290600052602060002090600402016040518060800160405290816000820160009054906101000a900473ffffffffffffffffffffffffffffffffffffffff1673ffffffffffffffffffffffffffffffffffffffff1673ffffffffffffffffffffffffffffffffffffffff16815260200160018201548152602001600282015481526020016003820160009054906101000a900460ff16151515158152505081526020019060010190610cc3565b505050509050919050565b6060600560009054906101000a900473ffffffffffffffffffffffffffffffffffffffff1673ffffffffffffffffffffffffffffffffffffffff166352d173a46040518163ffffffff1660e01b8152600401600060405180830381865afa158015610df4573d6000803e3d6000fd5b505050506040513d6000823e3d601f19601f82011682018060405250810190610e1d91906126fc565b905090565b60008054906101000a900473ffffffffffffffffffffffffffffffffffffffff1681565b6060600160003373ffffffffffffffffffffffffffffffffffffffff1673ffffffffffffffffffffffffffffffffffffffff168152602001908152602001600020805480602002602001604051908101604052809291908181526020018280548015610ed157602002820191906000526020600020905b815481526020019060010190808311610ebd575b5050505050905090565b6000600460009054906101000a900473ffffffffffffffffffffffffffffffffffffffff16905090565b60008054906101000a900473ffffffffffffffffffffffffffffffffffffffff1673ffffffffffffffffffffffffffffffffffffffff163373ffffffffffffffffffffffffffffffffffffffff1614610f5d57600080fd5b600073ffffffffffffffffffffffffffffffffffffffff168173ffffffffffffffffffffffffffffffffffffffff1603610f9657600080fd5b8073ffffffffffffffffffffffffffffffffffffffff1660008054906101000a900473ffffffffffffffffffffffffffffffffffffffff1673ffffffffffffffffffffffffffffffffffffffff167f8be0079c531659141344cd1fd0a4f28419497f9722a3daafe3b4186f6b6457e060405160405180910390a3806000806101000a81548173ffffffffffffffffffffffffffffffffffffffff021916908373ffffffffffffffffffffffffffffffffffffffff16021790555050565b6000600281111561106757611066611a69565b5b81600281111561107a57611079611a69565b5b0361108457600080fd5b6000600260008481526020019081526020016000209050600080600080848054905067ffffffffffffffff8111156110bf576110be61201b565b5b6040519080825280602002602001820160405280156110ed5781602001602082028036833780820191505090505b50905060005b85805490508110156111ac576000868281548110611114576111136123a7565b5b90600052602060002090600402016002015490506111638888848154811061113f5761113e6123a7565b5b906000526020600020906004020160030160009054906101000a900460ff166115d8565b156111825761117b818661166890919063ffffffff16565b9450611198565b611195818761166890919063ffffffff16565b95505b5080806111a490612405565b9150506110f3565b506111c0838561166890919063ffffffff16565b915060005b858054905081101561138457600160028111156111e5576111e4611a69565b5b8760028111156111f8576111f7611a69565b5b036112b95761123887878381548110611214576112136123a7565b5b906000526020600020906004020160030160009054906101000a900460ff166115d8565b156112925761126e8484888481548110611255576112546123a7565b5b906000526020600020906004020160020154600061168f565b828281518110611281576112806123a7565b5b6020026020010181815250506112b4565b60008282815181106112a7576112a66123a7565b5b6020026020010181815250505b611371565b6112f4878783815481106112d0576112cf6123a7565b5b906000526020600020906004020160030160009054906101000a900460ff166115d8565b1561134e5761132a8484888481548110611311576113106123a7565b5b906000526020600020906004020160020154600161168f565b82828151811061133d5761133c6123a7565b5b602002602001018181525050611370565b6000828281518110611363576113626123a7565b5b6020026020010181815250505b5b808061137c90612405565b9150506111c5565b5060006001600281111561139b5761139a611a69565b5b8760028111156113ae576113ad611a69565b5b036113b7578390505b60005b825181101561143e5761142b8782815481106113d9576113d86123a7565b5b906000526020600020906004020160000160009054906101000a900473ffffffffffffffffffffffffffffffffffffffff1684838151811061141e5761141d6123a7565b5b6020026020010151611729565b808061143690612405565b9150506113ba565b506000600560009054906101000a900473ffffffffffffffffffffffffffffffffffffffff1673ffffffffffffffffffffffffffffffffffffffff16634f2e6cd98a6040518263ffffffff1660e01b815260040161149c9190611ffb565b602060405180830381865afa1580156114b9573d6000803e3d6000fd5b505050506040513d601f19601f820116820180604052508101906114dd9190612745565b90506114e98183611729565b6114f1611774565b6001600360008b815260200190815260200160002060006101000a81548160ff021916908315150217905550505050505050505050565b600080600160008573ffffffffffffffffffffffffffffffffffffffff1673ffffffffffffffffffffffffffffffffffffffff16815260200190815260200160002090506000818054905011156115cc5760005b81805490508110156115ca578382828154811061159c5761159b6123a7565b5b9060005260206000200154036115b7576000925050506115d2565b80806115c290612405565b91505061157c565b505b60019150505b92915050565b60008060028111156115ed576115ec611a69565b5b836002811115611600576115ff611a69565b5b0361160a57600080fd5b6001600281111561161e5761161d611a69565b5b83600281111561163157611630611a69565b5b0361164e5781156116455760019050611662565b60009050611662565b811561165d5760009050611662565b600190505b92915050565b600081836116769190612772565b905082811015611689576116886127c8565b5b92915050565b6000806116a586856117dd90919063ffffffff16565b9050600083156116d457846116c383886117f390919063ffffffff16565b6116cd9190612772565b90506116ea565b6116e782876117f390919063ffffffff16565b90505b600081036116f85760065490505b60646007548261170891906127f7565b6117129190612880565b8161171d91906128b1565b92505050949350505050565b8173ffffffffffffffffffffffffffffffffffffffff166108fc829081150290604051600060405180830381858888f1935050505015801561176f573d6000803e3d6000fd5b505050565b60008054906101000a900473ffffffffffffffffffffffffffffffffffffffff1673ffffffffffffffffffffffffffffffffffffffff166108fc479081150290604051600060405180830381858888f193505050501580156117da573d6000803e3d6000fd5b50565b600081836117eb9190612880565b905092915050565b6000808303611805576000905061182f565b818361181191906127f7565b90508183826118209190612880565b1461182e5761182d6127c8565b5b5b92915050565b604051806101600160405280600080191681526020016060815260200160608152602001600073ffffffffffffffffffffffffffffffffffffffff168152602001600081526020016060815260200160608152602001600081526020016060815260200160608152602001600060028111156118b4576118b3611a69565b5b81525090565b60008115159050919050565b6118cf816118ba565b82525050565b60006020820190506118ea60008301846118c6565b92915050565b6000604051905090565b600080fd5b600080fd5b6000819050919050565b61191781611904565b811461192257600080fd5b50565b6000813590506119348161190e565b92915050565b6000602082840312156119505761194f6118fa565b5b600061195e84828501611925565b91505092915050565b61197081611904565b82525050565b600081519050919050565b600082825260208201905092915050565b60005b838110156119b0578082015181840152602081019050611995565b838111156119bf576000848401525b50505050565b6000601f19601f8301169050919050565b60006119e182611976565b6119eb8185611981565b93506119fb818560208601611992565b611a04816119c5565b840191505092915050565b600073ffffffffffffffffffffffffffffffffffffffff82169050919050565b6000611a3a82611a0f565b9050919050565b611a4a81611a2f565b82525050565b6000819050919050565b611a6381611a50565b82525050565b7f4e487b7100000000000000000000000000000000000000000000000000000000600052602160045260246000fd5b60038110611aa957611aa8611a69565b5b50565b6000819050611aba82611a98565b919050565b6000611aca82611aac565b9050919050565b611ada81611abf565b82525050565b600061016083016000830151611af96000860182611967565b5060208301518482036020860152611b1182826119d6565b91505060408301518482036040860152611b2b82826119d6565b9150506060830151611b406060860182611a41565b506080830151611b536080860182611a5a565b5060a083015184820360a0860152611b6b82826119d6565b91505060c083015184820360c0860152611b8582826119d6565b91505060e0830151611b9a60e0860182611a5a565b50610100830151848203610100860152611bb482826119d6565b915050610120830151848203610120860152611bd082826119d6565b915050610140830151611be7610140860182611ad1565b508091505092915050565b60006020820190508181036000830152611c0c8184611ae0565b905092915050565b611c1d81611a2f565b8114611c2857600080fd5b50565b600081359050611c3a81611c14565b92915050565b600060208284031215611c5657611c556118fa565b5b6000611c6484828501611c2b565b91505092915050565b611c7681611abf565b82525050565b6000602082019050611c916000830184611c6d565b92915050565b611ca081611a50565b82525050565b6000604082019050611cbb6000830185611c97565b611cc860208301846118c6565b9392505050565b611cd881611a50565b8114611ce357600080fd5b50565b600081359050611cf581611ccf565b92915050565b611d04816118ba565b8114611d0f57600080fd5b50565b600081359050611d2181611cfb565b92915050565b600080600060608486031215611d4057611d3f6118fa565b5b6000611d4e86828701611ce6565b9350506020611d5f86828701611925565b9250506040611d7086828701611d12565b9150509250925092565b600081519050919050565b600082825260208201905092915050565b6000819050602082019050919050565b611daf816118ba565b82525050565b608082016000820151611dcb6000850182611a41565b506020820151611dde6020850182611967565b506040820151611df16040850182611a5a565b506060820151611e046060850182611da6565b50505050565b6000611e168383611db5565b60808301905092915050565b6000602082019050919050565b6000611e3a82611d7a565b611e448185611d85565b9350611e4f83611d96565b8060005b83811015611e80578151611e678882611e0a565b9750611e7283611e22565b925050600181019050611e53565b5085935050505092915050565b60006020820190508181036000830152611ea78184611e2f565b905092915050565b600081519050919050565b600082825260208201905092915050565b6000819050602082019050919050565b6000611ee78383611967565b60208301905092915050565b6000602082019050919050565b6000611f0b82611eaf565b611f158185611eba565b9350611f2083611ecb565b8060005b83811015611f51578151611f388882611edb565b9750611f4383611ef3565b925050600181019050611f24565b5085935050505092915050565b60006020820190508181036000830152611f788184611f00565b905092915050565b611f8981611a2f565b82525050565b6000602082019050611fa46000830184611f80565b92915050565b600081519050611fb981611cfb565b92915050565b600060208284031215611fd557611fd46118fa565b5b6000611fe384828501611faa565b91505092915050565b611ff581611904565b82525050565b60006020820190506120106000830184611fec565b92915050565b600080fd5b7f4e487b7100000000000000000000000000000000000000000000000000000000600052604160045260246000fd5b612053826119c5565b810181811067ffffffffffffffff821117156120725761207161201b565b5b80604052505050565b60006120856118f0565b9050612091828261204a565b919050565b600080fd5b6000815190506120aa8161190e565b92915050565b600080fd5b600080fd5b600067ffffffffffffffff8211156120d5576120d461201b565b5b6120de826119c5565b9050602081019050919050565b60006120fe6120f9846120ba565b61207b565b90508281526020810184848401111561211a576121196120b5565b5b612125848285611992565b509392505050565b600082601f830112612142576121416120b0565b5b81516121528482602086016120eb565b91505092915050565b60008151905061216a81611c14565b92915050565b60008151905061217f81611ccf565b92915050565b6003811061219257600080fd5b50565b6000815190506121a481612185565b92915050565b600061016082840312156121c1576121c0612016565b5b6121cc61016061207b565b905060006121dc8482850161209b565b600083015250602082015167ffffffffffffffff811115612200576121ff612096565b5b61220c8482850161212d565b602083015250604082015167ffffffffffffffff8111156122305761222f612096565b5b61223c8482850161212d565b60408301525060606122508482850161215b565b606083015250608061226484828501612170565b60808301525060a082015167ffffffffffffffff81111561228857612287612096565b5b6122948482850161212d565b60a08301525060c082015167ffffffffffffffff8111156122b8576122b7612096565b5b6122c48482850161212d565b60c08301525060e06122d884828501612170565b60e08301525061010082015167ffffffffffffffff8111156122fd576122fc612096565b5b6123098482850161212d565b6101008301525061012082015167ffffffffffffffff81111561232f5761232e612096565b5b61233b8482850161212d565b6101208301525061014061235184828501612195565b6101408301525092915050565b600060208284031215612374576123736118fa565b5b600082015167ffffffffffffffff811115612392576123916118ff565b5b61239e848285016121aa565b91505092915050565b7f4e487b7100000000000000000000000000000000000000000000000000000000600052603260045260246000fd5b7f4e487b7100000000000000000000000000000000000000000000000000000000600052601160045260246000fd5b600061241082611a50565b91507fffffffffffffffffffffffffffffffffffffffffffffffffffffffffffffffff8203612442576124416123d6565b5b600182019050919050565b600082825260208201905092915050565b7f436f6d6d69746d656e7420616d6f756e74206d757374206265203e3d206d696e60008201527f696d756d20636f6d6d69746d656e740000000000000000000000000000000000602082015250565b60006124ba602f8361244d565b91506124c58261245e565b604082019050919050565b600060208201905081810360008301526124e9816124ad565b9050919050565b7f5370656369666965642062696c6c206e6f7420666f756e640000000000000000600082015250565b600061252660188361244d565b9150612531826124f0565b602082019050919050565b6000602082019050818103600083015261255581612519565b9050919050565b7f436f6d6d69746d656e74206973206e6f742076616c6964000000000000000000600082015250565b600061259260178361244d565b915061259d8261255c565b602082019050919050565b600060208201905081810360008301526125c181612585565b9050919050565b7f42696c6c206e6f74206f70656e20666f7220636f6d6d69746d656e7400000000600082015250565b60006125fe601c8361244d565b9150612609826125c8565b602082019050919050565b6000602082019050818103600083015261262d816125f1565b9050919050565b600067ffffffffffffffff82111561264f5761264e61201b565b5b602082029050602081019050919050565b600080fd5b600061267861267384612634565b61207b565b9050808382526020820190506020840283018581111561269b5761269a612660565b5b835b818110156126c457806126b0888261209b565b84526020840193505060208101905061269d565b5050509392505050565b600082601f8301126126e3576126e26120b0565b5b81516126f3848260208601612665565b91505092915050565b600060208284031215612712576127116118fa565b5b600082015167ffffffffffffffff8111156127305761272f6118ff565b5b61273c848285016126ce565b91505092915050565b60006020828403121561275b5761275a6118fa565b5b60006127698482850161215b565b91505092915050565b600061277d82611a50565b915061278883611a50565b9250827fffffffffffffffffffffffffffffffffffffffffffffffffffffffffffffffff038211156127bd576127bc6123d6565b5b828201905092915050565b7f4e487b7100000000000000000000000000000000000000000000000000000000600052600160045260246000fd5b600061280282611a50565b915061280d83611a50565b9250817fffffffffffffffffffffffffffffffffffffffffffffffffffffffffffffffff0483118215151615612846576128456123d6565b5b828202905092915050565b7f4e487b7100000000000000000000000000000000000000000000000000000000600052601260045260246000fd5b600061288b82611a50565b915061289683611a50565b9250826128a6576128a5612851565b5b828204905092915050565b60006128bc82611a50565b91506128c783611a50565b9250828210156128da576128d96123d6565b5b82820390509291505056fea264697066735822122021a8fcc3b9d964feb09a6e473799c6d58d18bbb333bd3d9dcd491afd8edc139664736f6c634300080e0033",
  "immutableReferences": {},
  "source": "// SPDX-License-Identifier: MIT\npragma solidity >=0.4.22 <0.9.0;\n\nimport \"./OracleInterface.sol\";\nimport \"./Ownable.sol\";\nimport \"./SafeMath.sol\";\n\n/// @title Commitments\n/// @author Oliver Song\n/// @notice Takes commitments and handles payouts for bill outcomes\ncontract Commitments is Ownable {\n    // mappings\n    mapping(address => bytes32[]) private userToCommitments;\n    mapping(bytes32 => Commitment[]) private billToCommitments;\n    mapping(bytes32 => bool) internal billPaidOut;\n\n    // bill outcomes oracle\n    address internal billOracleAddr = address(0);\n    OracleInterface internal billOracle = OracleInterface(billOracleAddr);\n\n    //constants\n    uint internal minimumCommitment = 1000000000000;  // 1000 gwei\n    uint internal housePercentage = 2;\n\n    using SafeMath for uint;\n\n    struct Commitment {\n        address user;\n        bytes32 billId;\n        uint amount;\n        bool inSupport;\n    }\n\n    /// @notice determines whether or not the user has already committed to the given bill\n    /// @param _user address of a user\n    /// @param _billId id of a bill\n    /// @return true if the given user has already placed a commitment on the given bill\n    function _commitmentIsValid(address _user, bytes32 _billId) private view returns (bool) {\n        bytes32[] storage userCommitments = userToCommitments[_user];\n        if (userCommitments.length > 0) {\n            for (uint n = 0; n < userCommitments.length; n++) {\n                if (userCommitments[n] == _billId) {\n                    return false;\n                }\n            }\n        }\n        return true;\n    }\n\n    /// @notice gets a list ids of all currently commitable bill\n    /// @return array of bill ids\n    function getCommitableBills() public view returns (bytes32[] memory) {\n        return billOracle.getPendingBills();\n    }\n\n    /// @notice returns the full data of the specified bill\n    /// @param _billId the id of the desired bill\n    function getBill(bytes32 _billId) public view returns (OracleInterface.Bill memory) {\n        return billOracle.getBill(_billId);\n    }\n\n    /// @notice returns the full data of the most recent commitable bill\n    function getMostRecentBill() public view returns (OracleInterface.Bill memory) {\n        return billOracle.getMostRecentBill(true);\n    }\n\n    /// @notice gets the current bills on which the user has commitments\n    /// @return array of bill ids\n    function getUserCommitments() public view returns (bytes32[] memory) {\n        return userToCommitments[msg.sender];\n    }\n\n    /// @notice gets the current commitments for the bill\n    /// @param _billId the id of the desired bill\n    /// @return array of Commitments\n    function getBillCommitments(bytes32 _billId) public view returns (Commitment[] memory) {\n        return billToCommitments[_billId];\n    }\n\n    /// @notice gets a user's commitment\n    /// @param _billId the id of the desired bill\n    /// @return amount commitment amount, or 0 if no commitment found\n    /// @return inSupport in support of bill or not, or 0 if no commitment found\n    function getUserCommitment(bytes32 _billId) public view returns (uint amount, bool inSupport) {\n        // FIXME: perhaps should iterate through usercommitments instead\n        // actually, probably shouldn't be iterating at all if possible\n        Commitment[] storage commitments = billToCommitments[_billId];\n        for (uint n = 0; n < commitments.length; n++) {\n            if (commitments[n].user == msg.sender) {\n                return (commitments[n].amount, commitments[n].inSupport);\n            }\n        }\n        // FIXME could gate this with a require and instead\n        // add a method \"userHasCommitment\".\n        // Could also gate billid on existing bill\n        return (0, false);\n    }\n\n    /// @notice places a non-rescindable commitment on the given bill\n    /// @param _amount the id of the bill on which to commitment\n    /// @param _billId the id of the bill on which to commitment\n    /// @param _inSupport commitment in favor of bill passing (vs against)\n    function placeCommitment(uint _amount, bytes32 _billId, bool _inSupport) public payable {\n        require(msg.value == _amount);\n\n        // commitment must be above a certain minimum\n        require(msg.value >= minimumCommitment, \"Commitment amount must be >= minimum commitment\");\n\n        // make sure that bill exists\n        require(billOracle.billExists(_billId), \"Specified bill not found\");\n\n        // validate\n        require(_commitmentIsValid(msg.sender, _billId), \"Commitment is not valid\");\n\n        // bill must still be open for commitment\n        require(billOracle.billIsPending(_billId), \"Bill not open for commitment\");\n\n        // add the new commitment\n        Commitment[] storage commitments = billToCommitments[_billId];\n        commitments.push(Commitment(msg.sender, _billId, msg.value, _inSupport));\n\n        // add the mapping\n        bytes32[] storage userCommitments = userToCommitments[msg.sender];\n        userCommitments.push(_billId);\n    }\n\n    function _payOutWinnings(address _user, uint _amount) private {\n        payable(_user).transfer(_amount);\n    }\n\n    function _transferToHouse() private {\n        payable(owner).transfer(address(this).balance);\n    }\n\n    function _isWinningCommitment(OracleInterface.BillOutcome _outcome, bool inSupport) private pure returns (bool) {\n        require(_outcome != OracleInterface.BillOutcome.Pending);\n\n        if (_outcome == OracleInterface.BillOutcome.BecameLaw) {\n            if (inSupport) {\n                return true;\n            } else {\n                return false;\n            }\n        } else {\n            if (inSupport) {\n                return false;\n            } else {\n                return true;\n            }\n        }\n    }\n\n    /// @notice calculates the amount to be paid out for a commitment\n    /// @param _winningTotal the total monetary amount of winning commitments\n    /// @param _losingTotal the total monetary amount of losing commitments\n    /// @param _committedAmount the amount of this particular commitment\n    /// @return an amount in wei\n    function _calculatePayout(uint _winningTotal, uint _losingTotal, uint _committedAmount, bool _keepCommitment) private view returns (uint) {\n        uint percentWinningTotal = _committedAmount.div(_winningTotal);\n\n        // calculate raw share\n        uint winningAmount = 0;\n        if (_keepCommitment) {\n            winningAmount = _losingTotal.mul(percentWinningTotal) + _committedAmount;\n        } else {\n            winningAmount = _losingTotal.mul(percentWinningTotal);\n        }\n\n        // if share has been rounded down to zero, fix that\n        if (winningAmount == 0) {\n            winningAmount = minimumCommitment;\n        }\n\n        // take out house cut\n        return winningAmount - winningAmount * housePercentage / 100;\n    }\n\n    /// @notice calculates how much to pay out to each winner, then pays each winner the appropriate amount\n    /// @param _billId the unique id of the bill\n    /// @param _outcome the bill's outcome\n    function _payOutForBill(bytes32 _billId, OracleInterface.BillOutcome _outcome) private {\n        require(_outcome != OracleInterface.BillOutcome.Pending);\n\n        Commitment[] storage commitments = billToCommitments[_billId];\n        uint losingTotal = 0;\n        uint winningTotal = 0;\n        uint totalPot = 0;\n        uint[] memory payouts = new uint[](commitments.length);\n\n        //count winning commitments & get total\n        for (uint n = 0; n < commitments.length; n++) {\n            uint amount = commitments[n].amount;\n            if (_isWinningCommitment(_outcome, commitments[n].inSupport)) {\n                winningTotal = winningTotal.add(amount);\n            } else {\n                losingTotal = losingTotal.add(amount);\n            }\n        }\n        totalPot = losingTotal.add(winningTotal);\n\n        //calculate payouts\n        for (uint n = 0; n < commitments.length; n++) {\n            if (_outcome == OracleInterface.BillOutcome.BecameLaw) {\n                // in the passing case, supporters get detractors' commitments\n                // minus their own commitment, which goes to legislator\n                if (_isWinningCommitment(_outcome, commitments[n].inSupport)) {\n                    payouts[n] = _calculatePayout(winningTotal, totalPot, commitments[n].amount, false);\n                } else {\n                    payouts[n] = 0;\n                }\n            } else {\n                // in the rejected case, detractors get supporters' commitments\n                // plus their own back. Legislators get nothing.\n                if (_isWinningCommitment(_outcome, commitments[n].inSupport)) {\n                    payouts[n] = _calculatePayout(winningTotal, totalPot, commitments[n].amount, true);\n                } else {\n                    payouts[n] = 0;\n                }\n            }\n        }\n\n        // calculate legislator payout\n        uint legislaterPayout = 0;\n        if (_outcome == OracleInterface.BillOutcome.BecameLaw) {\n            // legislator gets support total\n            legislaterPayout = winningTotal;\n        }\n\n\n        // pay out to users\n        for (uint n = 0; n < payouts.length; n++) {\n            _payOutWinnings(commitments[n].user, payouts[n]);\n        }\n\n        // pay out to legislators\n        address sponsor = billOracle.getBillSponsorAddress(_billId);\n        _payOutWinnings(sponsor, legislaterPayout);\n\n        // transfer the remainder to the house\n        _transferToHouse();\n\n        // mark bill as paid out\n        billPaidOut[_billId] = true;\n    }\n\n\n    /// @notice check the outcome of the given bill; if ready, will trigger calculation of payout, and actual payout to winners\n    /// @param _billId the id of the bill to check\n    /// @return the outcome of the given bill\n    function checkOutcome(bytes32 _billId) external onlyOwner returns (OracleInterface.BillOutcome)  {\n        OracleInterface.Bill memory b = getBill(_billId);\n\n        if (b.outcome != OracleInterface.BillOutcome.Pending && !billPaidOut[_billId]) {\n            _payOutForBill(_billId, b.outcome);\n        }\n\n        return b.outcome;\n    }\n\n\n    /// @notice sets the address of the oracle contract to use\n    /// @dev setting a wrong address may result in false return value, or error\n    /// @param _oracleAddress the address of the oracle\n    /// @return true if connection to the new oracle address was successful\n    function setOracleAddress(address _oracleAddress) external onlyOwner returns (bool) {\n        billOracleAddr = _oracleAddress;\n        billOracle = OracleInterface(billOracleAddr);\n        return billOracle.testConnection();\n    }\n\n    /// @notice gets the address of the oracle being used\n    /// @return the address of the currently set oracle\n    function getOracleAddress() external view returns (address) {\n        return billOracleAddr;\n    }\n\n    /// @notice for testing; tests that the oracle is callable\n    /// @return true if connection successful\n    function testOracleConnection() public view returns (bool) {\n        return billOracle.testConnection();\n    }\n}\n",
  "sourcePath": "/Users/oliversong/Development/open-lobby/client/contracts/Commitments.sol",
  "compiler": {
    "name": "solc",
    "version": "0.8.14+commit.80d49f37.Emscripten.clang"
  },
  "schemaVersion": "3.4.7",
  "updatedAt": "2022-07-08T06:07:27.305Z",
  "devdoc": {
    "author": "Oliver Song",
    "kind": "dev",
    "methods": {
      "checkOutcome(bytes32)": {
        "params": {
          "_billId": "the id of the bill to check"
        },
        "returns": {
          "_0": "the outcome of the given bill"
        }
      },
      "getBill(bytes32)": {
        "params": {
          "_billId": "the id of the desired bill"
        }
      },
      "getBillCommitments(bytes32)": {
        "params": {
          "_billId": "the id of the desired bill"
        },
        "returns": {
          "_0": "array of Commitments"
        }
      },
      "getCommitableBills()": {
        "returns": {
          "_0": "array of bill ids"
        }
      },
      "getOracleAddress()": {
        "returns": {
          "_0": "the address of the currently set oracle"
        }
      },
      "getUserCommitment(bytes32)": {
        "params": {
          "_billId": "the id of the desired bill"
        },
        "returns": {
          "amount": "commitment amount, or 0 if no commitment found",
          "inSupport": "in support of bill or not, or 0 if no commitment found"
        }
      },
      "getUserCommitments()": {
        "returns": {
          "_0": "array of bill ids"
        }
      },
      "placeCommitment(uint256,bytes32,bool)": {
        "params": {
          "_amount": "the id of the bill on which to commitment",
          "_billId": "the id of the bill on which to commitment",
          "_inSupport": "commitment in favor of bill passing (vs against)"
        }
      },
      "setOracleAddress(address)": {
        "details": "setting a wrong address may result in false return value, or error",
        "params": {
          "_oracleAddress": "the address of the oracle"
        },
        "returns": {
          "_0": "true if connection to the new oracle address was successful"
        }
      },
      "testOracleConnection()": {
        "returns": {
          "_0": "true if connection successful"
        }
      },
      "transferOwnership(address)": {
        "details": "Allows the current owner to transfer control of the contract to a newOwner.",
        "params": {
          "newOwner": "The address to transfer ownership to."
        }
      }
    },
    "title": "Commitments",
    "version": 1
  },
  "userdoc": {
    "kind": "user",
    "methods": {
      "checkOutcome(bytes32)": {
        "notice": "check the outcome of the given bill; if ready, will trigger calculation of payout, and actual payout to winners"
      },
      "getBill(bytes32)": {
        "notice": "returns the full data of the specified bill"
      },
      "getBillCommitments(bytes32)": {
        "notice": "gets the current commitments for the bill"
      },
      "getCommitableBills()": {
        "notice": "gets a list ids of all currently commitable bill"
      },
      "getMostRecentBill()": {
        "notice": "returns the full data of the most recent commitable bill"
      },
      "getOracleAddress()": {
        "notice": "gets the address of the oracle being used"
      },
      "getUserCommitment(bytes32)": {
        "notice": "gets a user's commitment"
      },
      "getUserCommitments()": {
        "notice": "gets the current bills on which the user has commitments"
      },
      "placeCommitment(uint256,bytes32,bool)": {
        "notice": "places a non-rescindable commitment on the given bill"
      },
      "setOracleAddress(address)": {
        "notice": "sets the address of the oracle contract to use"
      },
      "testOracleConnection()": {
        "notice": "for testing; tests that the oracle is callable"
      }
    },
    "notice": "Takes commitments and handles payouts for bill outcomes",
    "version": 1
  }
}