{
  "contractName": "Commitments",
  "abi": [
    {
      "anonymous": false,
      "inputs": [
        {
          "indexed": true,
          "internalType": "address",
          "name": "previousOwner",
          "type": "address"
        },
        {
          "indexed": true,
          "internalType": "address",
          "name": "newOwner",
          "type": "address"
        }
      ],
      "name": "OwnershipTransferred",
      "type": "event"
    },
    {
      "inputs": [],
      "name": "owner",
      "outputs": [
        {
          "internalType": "address",
          "name": "",
          "type": "address"
        }
      ],
      "stateMutability": "view",
      "type": "function",
      "constant": true
    },
    {
      "inputs": [
        {
          "internalType": "address",
          "name": "newOwner",
          "type": "address"
        }
      ],
      "name": "transferOwnership",
      "outputs": [],
      "stateMutability": "nonpayable",
      "type": "function"
    },
    {
      "inputs": [],
      "name": "getCommitableBills",
      "outputs": [
        {
          "internalType": "bytes32[]",
          "name": "",
          "type": "bytes32[]"
        }
      ],
      "stateMutability": "view",
      "type": "function",
      "constant": true
    },
    {
      "inputs": [
        {
          "internalType": "bytes32",
          "name": "_billId",
          "type": "bytes32"
        }
      ],
      "name": "getBill",
      "outputs": [
        {
          "components": [
            {
              "internalType": "bytes32",
              "name": "id",
              "type": "bytes32"
            },
            {
              "internalType": "string",
              "name": "amendsBill",
              "type": "string"
            },
            {
              "internalType": "string",
              "name": "sponsor",
              "type": "string"
            },
            {
              "internalType": "address",
              "name": "sponsorAddress",
              "type": "address"
            },
            {
              "internalType": "uint256",
              "name": "dateOfIntroduction",
              "type": "uint256"
            },
            {
              "internalType": "string",
              "name": "committees",
              "type": "string"
            },
            {
              "internalType": "string",
              "name": "latestAction",
              "type": "string"
            },
            {
              "internalType": "uint256",
              "name": "latestActionDate",
              "type": "uint256"
            },
            {
              "internalType": "string",
              "name": "title",
              "type": "string"
            },
            {
              "internalType": "string",
              "name": "legislationNumber",
              "type": "string"
            },
            {
              "internalType": "enum OracleInterface.BillOutcome",
              "name": "outcome",
              "type": "uint8"
            }
          ],
          "internalType": "struct OracleInterface.Bill",
          "name": "",
          "type": "tuple"
        }
      ],
      "stateMutability": "view",
      "type": "function",
      "constant": true
    },
    {
      "inputs": [],
      "name": "getMostRecentBill",
      "outputs": [
        {
          "components": [
            {
              "internalType": "bytes32",
              "name": "id",
              "type": "bytes32"
            },
            {
              "internalType": "string",
              "name": "amendsBill",
              "type": "string"
            },
            {
              "internalType": "string",
              "name": "sponsor",
              "type": "string"
            },
            {
              "internalType": "address",
              "name": "sponsorAddress",
              "type": "address"
            },
            {
              "internalType": "uint256",
              "name": "dateOfIntroduction",
              "type": "uint256"
            },
            {
              "internalType": "string",
              "name": "committees",
              "type": "string"
            },
            {
              "internalType": "string",
              "name": "latestAction",
              "type": "string"
            },
            {
              "internalType": "uint256",
              "name": "latestActionDate",
              "type": "uint256"
            },
            {
              "internalType": "string",
              "name": "title",
              "type": "string"
            },
            {
              "internalType": "string",
              "name": "legislationNumber",
              "type": "string"
            },
            {
              "internalType": "enum OracleInterface.BillOutcome",
              "name": "outcome",
              "type": "uint8"
            }
          ],
          "internalType": "struct OracleInterface.Bill",
          "name": "",
          "type": "tuple"
        }
      ],
      "stateMutability": "view",
      "type": "function",
      "constant": true
    },
    {
      "inputs": [],
      "name": "getUserCommitments",
      "outputs": [
        {
          "internalType": "bytes32[]",
          "name": "",
          "type": "bytes32[]"
        }
      ],
      "stateMutability": "view",
      "type": "function",
      "constant": true
    },
    {
      "inputs": [
        {
          "internalType": "bytes32",
          "name": "_billId",
          "type": "bytes32"
        }
      ],
      "name": "getBillCommitments",
      "outputs": [
        {
          "components": [
            {
              "internalType": "address",
              "name": "user",
              "type": "address"
            },
            {
              "internalType": "bytes32",
              "name": "billId",
              "type": "bytes32"
            },
            {
              "internalType": "uint256",
              "name": "amount",
              "type": "uint256"
            },
            {
              "internalType": "bool",
              "name": "inSupport",
              "type": "bool"
            }
          ],
          "internalType": "struct Commitments.Commitment[]",
          "name": "",
          "type": "tuple[]"
        }
      ],
      "stateMutability": "view",
      "type": "function",
      "constant": true
    },
    {
      "inputs": [
        {
          "internalType": "bytes32",
          "name": "_billId",
          "type": "bytes32"
        }
      ],
      "name": "getUserCommitment",
      "outputs": [
        {
          "internalType": "uint256",
          "name": "amount",
          "type": "uint256"
        },
        {
          "internalType": "bool",
          "name": "inSupport",
          "type": "bool"
        }
      ],
      "stateMutability": "view",
      "type": "function",
      "constant": true
    },
    {
      "inputs": [
        {
          "internalType": "uint256",
          "name": "_amount",
          "type": "uint256"
        },
        {
          "internalType": "bytes32",
          "name": "_billId",
          "type": "bytes32"
        },
        {
          "internalType": "bool",
          "name": "_inSupport",
          "type": "bool"
        }
      ],
      "name": "placeCommitment",
      "outputs": [],
      "stateMutability": "payable",
      "type": "function",
      "payable": true
    },
    {
      "inputs": [
        {
          "internalType": "bytes32",
          "name": "_billId",
          "type": "bytes32"
        }
      ],
      "name": "checkOutcome",
      "outputs": [
        {
          "internalType": "enum OracleInterface.BillOutcome",
          "name": "",
          "type": "uint8"
        }
      ],
      "stateMutability": "nonpayable",
      "type": "function"
    },
    {
      "inputs": [
        {
          "internalType": "address",
          "name": "_oracleAddress",
          "type": "address"
        }
      ],
      "name": "setOracleAddress",
      "outputs": [
        {
          "internalType": "bool",
          "name": "",
          "type": "bool"
        }
      ],
      "stateMutability": "nonpayable",
      "type": "function"
    },
    {
      "inputs": [],
      "name": "getOracleAddress",
      "outputs": [
        {
          "internalType": "address",
          "name": "",
          "type": "address"
        }
      ],
      "stateMutability": "view",
      "type": "function",
      "constant": true
    },
    {
      "inputs": [],
      "name": "testOracleConnection",
      "outputs": [
        {
          "internalType": "bool",
          "name": "",
          "type": "bool"
        }
      ],
      "stateMutability": "view",
      "type": "function",
      "constant": true
    }
  ],
  "bytecode": "0x60806040526000600460006101000a81548173ffffffffffffffffffffffffffffffffffffffff021916908373ffffffffffffffffffffffffffffffffffffffff160217905550600460009054906101000a900473ffffffffffffffffffffffffffffffffffffffff16600560006101000a81548173ffffffffffffffffffffffffffffffffffffffff021916908373ffffffffffffffffffffffffffffffffffffffff16021790555064e8d4a5100060065560026007553480156100c357600080fd5b50336000806101000a81548173ffffffffffffffffffffffffffffffffffffffff021916908373ffffffffffffffffffffffffffffffffffffffff160217905550612929806101136000396000f3fe6080604052600436106100c25760003560e01c806371fe7e011161007f5780638da5cb5b116100595780638da5cb5b146102965780639aeeb709146102c1578063b18b78dd146102ec578063f2fde38b14610317576100c2565b806371fe7e011461020357806379d57d301461022e5780637bef7ce11461026b576100c2565b80632ce3707e146100c7578063342c196c146100f25780634c69c00f1461012f57806352311c141461016c578063528de27f146101a95780635f0012fe146101e7575b600080fd5b3480156100d357600080fd5b506100dc610340565b6040516100e991906118e3565b60405180910390f35b3480156100fe57600080fd5b5061011960048036038101906101149190611948565b6103d8565b6040516101269190611c00565b60405180910390f35b34801561013b57600080fd5b5061015660048036038101906101519190611c4e565b610488565b60405161016391906118e3565b60405180910390f35b34801561017857600080fd5b50610193600480360381019061018e9190611948565b61061f565b6040516101a09190611c8a565b60405180910390f35b3480156101b557600080fd5b506101d060048036038101906101cb9190611948565b610702565b6040516101de929190611cb4565b60405180910390f35b61020160048036038101906101fc9190611d35565b610826565b005b34801561020f57600080fd5b50610218610bdf565b6040516102259190611c00565b60405180910390f35b34801561023a57600080fd5b5061025560048036038101906102509190611948565b610c8e565b6040516102629190611e9b565b60405180910390f35b34801561027757600080fd5b50610280610d85565b60405161028d9190611f6c565b60405180910390f35b3480156102a257600080fd5b506102ab610e22565b6040516102b89190611f9d565b60405180910390f35b3480156102cd57600080fd5b506102d6610e46565b6040516102e39190611f6c565b60405180910390f35b3480156102f857600080fd5b50610301610edb565b60405161030e9190611f9d565b60405180910390f35b34801561032357600080fd5b5061033e60048036038101906103399190611c4e565b610f05565b005b6000600560009054906101000a900473ffffffffffffffffffffffffffffffffffffffff1673ffffffffffffffffffffffffffffffffffffffff16633412a15c6040518163ffffffff1660e01b8152600401602060405180830381865afa1580156103af573d6000803e3d6000fd5b505050506040513d601f19601f820116820180604052508101906103d39190611fcd565b905090565b6103e0611843565b600560009054906101000a900473ffffffffffffffffffffffffffffffffffffffff1673ffffffffffffffffffffffffffffffffffffffff1663342c196c836040518263ffffffff1660e01b815260040161043b9190612009565b600060405180830381865afa158015610458573d6000803e3d6000fd5b505050506040513d6000823e3d601f19601f82011682018060405250810190610481919061236c565b9050919050565b60008060009054906101000a900473ffffffffffffffffffffffffffffffffffffffff1673ffffffffffffffffffffffffffffffffffffffff163373ffffffffffffffffffffffffffffffffffffffff16146104e357600080fd5b81600460006101000a81548173ffffffffffffffffffffffffffffffffffffffff021916908373ffffffffffffffffffffffffffffffffffffffff160217905550600460009054906101000a900473ffffffffffffffffffffffffffffffffffffffff16600560006101000a81548173ffffffffffffffffffffffffffffffffffffffff021916908373ffffffffffffffffffffffffffffffffffffffff160217905550600560009054906101000a900473ffffffffffffffffffffffffffffffffffffffff1673ffffffffffffffffffffffffffffffffffffffff16633412a15c6040518163ffffffff1660e01b8152600401602060405180830381865afa1580156105f4573d6000803e3d6000fd5b505050506040513d601f19601f820116820180604052508101906106189190611fcd565b9050919050565b60008060009054906101000a900473ffffffffffffffffffffffffffffffffffffffff1673ffffffffffffffffffffffffffffffffffffffff163373ffffffffffffffffffffffffffffffffffffffff161461067a57600080fd5b6000610685836103d8565b90506000600281111561069b5761069a611a77565b5b81610140015160028111156106b3576106b2611a77565b5b141580156106df57506003600084815260200190815260200160002060009054906101000a900460ff16155b156106f4576106f383826101400151611053565b5b806101400151915050919050565b600080600060026000858152602001908152602001600020905060005b8180549050811015610817573373ffffffffffffffffffffffffffffffffffffffff16828281548110610755576107546123b5565b5b906000526020600020906004020160000160009054906101000a900473ffffffffffffffffffffffffffffffffffffffff1673ffffffffffffffffffffffffffffffffffffffff1603610804578181815481106107b5576107b46123b5565b5b9060005260206000209060040201600201548282815481106107da576107d96123b5565b5b906000526020600020906004020160030160009054906101000a900460ff16935093505050610821565b808061080f90612413565b91505061071f565b5060008092509250505b915091565b82341461083257600080fd5b600654341015610877576040517f08c379a000000000000000000000000000000000000000000000000000000000815260040161086e906124de565b60405180910390fd5b600560009054906101000a900473ffffffffffffffffffffffffffffffffffffffff1673ffffffffffffffffffffffffffffffffffffffff1663ffa378b1836040518263ffffffff1660e01b81526004016108d29190612009565b602060405180830381865afa1580156108ef573d6000803e3d6000fd5b505050506040513d601f19601f820116820180604052508101906109139190611fcd565b610952576040517f08c379a00000000000000000000000000000000000000000000000000000000081526004016109499061254a565b60405180910390fd5b61095c3383611528565b61099b576040517f08c379a0000000000000000000000000000000000000000000000000000000008152600401610992906125b6565b60405180910390fd5b600560009054906101000a900473ffffffffffffffffffffffffffffffffffffffff1673ffffffffffffffffffffffffffffffffffffffff16636c69a68c836040518263ffffffff1660e01b81526004016109f69190612009565b602060405180830381865afa158015610a13573d6000803e3d6000fd5b505050506040513d601f19601f82011682018060405250810190610a379190611fcd565b610a76576040517f08c379a0000000000000000000000000000000000000000000000000000000008152600401610a6d90612622565b60405180910390fd5b60006002600084815260200190815260200160002090508060405180608001604052803373ffffffffffffffffffffffffffffffffffffffff168152602001858152602001348152602001841515815250908060018154018082558091505060019003906000526020600020906004020160009091909190915060008201518160000160006101000a81548173ffffffffffffffffffffffffffffffffffffffff021916908373ffffffffffffffffffffffffffffffffffffffff160217905550602082015181600101556040820151816002015560608201518160030160006101000a81548160ff02191690831515021790555050506000600160003373ffffffffffffffffffffffffffffffffffffffff1673ffffffffffffffffffffffffffffffffffffffff1681526020019081526020016000209050808490806001815401808255809150506001900390600052602060002001600090919091909150555050505050565b610be7611843565b600560009054906101000a900473ffffffffffffffffffffffffffffffffffffffff1673ffffffffffffffffffffffffffffffffffffffff1663b6f0623f60016040518263ffffffff1660e01b8152600401610c4391906118e3565b600060405180830381865afa158015610c60573d6000803e3d6000fd5b505050506040513d6000823e3d601f19601f82011682018060405250810190610c89919061236c565b905090565b606060026000838152602001908152602001600020805480602002602001604051908101604052809291908181526020016000905b82821015610d7a57838290600052602060002090600402016040518060800160405290816000820160009054906101000a900473ffffffffffffffffffffffffffffffffffffffff1673ffffffffffffffffffffffffffffffffffffffff1673ffffffffffffffffffffffffffffffffffffffff16815260200160018201548152602001600282015481526020016003820160009054906101000a900460ff16151515158152505081526020019060010190610cc3565b505050509050919050565b6060600560009054906101000a900473ffffffffffffffffffffffffffffffffffffffff1673ffffffffffffffffffffffffffffffffffffffff166352d173a46040518163ffffffff1660e01b8152600401600060405180830381865afa158015610df4573d6000803e3d6000fd5b505050506040513d6000823e3d601f19601f82011682018060405250810190610e1d919061270a565b905090565b60008054906101000a900473ffffffffffffffffffffffffffffffffffffffff1681565b6060600160003373ffffffffffffffffffffffffffffffffffffffff1673ffffffffffffffffffffffffffffffffffffffff168152602001908152602001600020805480602002602001604051908101604052809291908181526020018280548015610ed157602002820191906000526020600020905b815481526020019060010190808311610ebd575b5050505050905090565b6000600460009054906101000a900473ffffffffffffffffffffffffffffffffffffffff16905090565b60008054906101000a900473ffffffffffffffffffffffffffffffffffffffff1673ffffffffffffffffffffffffffffffffffffffff163373ffffffffffffffffffffffffffffffffffffffff1614610f5d57600080fd5b600073ffffffffffffffffffffffffffffffffffffffff168173ffffffffffffffffffffffffffffffffffffffff1603610f9657600080fd5b8073ffffffffffffffffffffffffffffffffffffffff1660008054906101000a900473ffffffffffffffffffffffffffffffffffffffff1673ffffffffffffffffffffffffffffffffffffffff167f8be0079c531659141344cd1fd0a4f28419497f9722a3daafe3b4186f6b6457e060405160405180910390a3806000806101000a81548173ffffffffffffffffffffffffffffffffffffffff021916908373ffffffffffffffffffffffffffffffffffffffff16021790555050565b6000600281111561106757611066611a77565b5b81600281111561107a57611079611a77565b5b0361108457600080fd5b6000600260008481526020019081526020016000209050600080600080848054905067ffffffffffffffff8111156110bf576110be612029565b5b6040519080825280602002602001820160405280156110ed5781602001602082028036833780820191505090505b50905060005b85805490508110156111ac576000868281548110611114576111136123b5565b5b90600052602060002090600402016002015490506111638888848154811061113f5761113e6123b5565b5b906000526020600020906004020160030160009054906101000a900460ff166115d8565b156111825761117b818661166890919063ffffffff16565b9450611198565b611195818761166890919063ffffffff16565b95505b5080806111a490612413565b9150506110f3565b506111c0838561166890919063ffffffff16565b915060005b858054905081101561138457600160028111156111e5576111e4611a77565b5b8760028111156111f8576111f7611a77565b5b036112b95761123887878381548110611214576112136123b5565b5b906000526020600020906004020160030160009054906101000a900460ff166115d8565b156112925761126e8484888481548110611255576112546123b5565b5b906000526020600020906004020160020154600061168f565b828281518110611281576112806123b5565b5b6020026020010181815250506112b4565b60008282815181106112a7576112a66123b5565b5b6020026020010181815250505b611371565b6112f4878783815481106112d0576112cf6123b5565b5b906000526020600020906004020160030160009054906101000a900460ff166115d8565b1561134e5761132a8484888481548110611311576113106123b5565b5b906000526020600020906004020160020154600161168f565b82828151811061133d5761133c6123b5565b5b602002602001018181525050611370565b6000828281518110611363576113626123b5565b5b6020026020010181815250505b5b808061137c90612413565b9150506111c5565b5060006001600281111561139b5761139a611a77565b5b8760028111156113ae576113ad611a77565b5b036113b7578390505b60005b825181101561143e5761142b8782815481106113d9576113d86123b5565b5b906000526020600020906004020160000160009054906101000a900473ffffffffffffffffffffffffffffffffffffffff1684838151811061141e5761141d6123b5565b5b6020026020010151611737565b808061143690612413565b9150506113ba565b506000600560009054906101000a900473ffffffffffffffffffffffffffffffffffffffff1673ffffffffffffffffffffffffffffffffffffffff16634f2e6cd98a6040518263ffffffff1660e01b815260040161149c9190612009565b602060405180830381865afa1580156114b9573d6000803e3d6000fd5b505050506040513d601f19601f820116820180604052508101906114dd9190612753565b90506114e98183611737565b6114f1611782565b6001600360008b815260200190815260200160002060006101000a81548160ff021916908315150217905550505050505050505050565b600080600160008573ffffffffffffffffffffffffffffffffffffffff1673ffffffffffffffffffffffffffffffffffffffff16815260200190815260200160002090506000818054905011156115cc5760005b81805490508110156115ca578382828154811061159c5761159b6123b5565b5b9060005260206000200154036115b7576000925050506115d2565b80806115c290612413565b91505061157c565b505b60019150505b92915050565b60008060028111156115ed576115ec611a77565b5b836002811115611600576115ff611a77565b5b0361160a57600080fd5b6001600281111561161e5761161d611a77565b5b83600281111561163157611630611a77565b5b0361164e5781156116455760019050611662565b60009050611662565b811561165d5760009050611662565b600190505b92915050565b600081836116769190612780565b905082811015611689576116886127d6565b5b92915050565b6000806116a586856117eb90919063ffffffff16565b9050600083156116d457846116c3838861180190919063ffffffff16565b6116cd9190612780565b90506116ea565b6116e7828761180190919063ffffffff16565b90505b600081036116f85760065490505b61172060646117126007548461180190919063ffffffff16565b6117eb90919063ffffffff16565b8161172b9190612805565b92505050949350505050565b8173ffffffffffffffffffffffffffffffffffffffff166108fc829081150290604051600060405180830381858888f1935050505015801561177d573d6000803e3d6000fd5b505050565b60008054906101000a900473ffffffffffffffffffffffffffffffffffffffff1673ffffffffffffffffffffffffffffffffffffffff166108fc479081150290604051600060405180830381858888f193505050501580156117e8573d6000803e3d6000fd5b50565b600081836117f99190612868565b905092915050565b6000808303611813576000905061183d565b818361181f9190612899565b905081838261182e9190612868565b1461183c5761183b6127d6565b5b5b92915050565b604051806101600160405280600080191681526020016060815260200160608152602001600073ffffffffffffffffffffffffffffffffffffffff168152602001600081526020016060815260200160608152602001600081526020016060815260200160608152602001600060028111156118c2576118c1611a77565b5b81525090565b60008115159050919050565b6118dd816118c8565b82525050565b60006020820190506118f860008301846118d4565b92915050565b6000604051905090565b600080fd5b600080fd5b6000819050919050565b61192581611912565b811461193057600080fd5b50565b6000813590506119428161191c565b92915050565b60006020828403121561195e5761195d611908565b5b600061196c84828501611933565b91505092915050565b61197e81611912565b82525050565b600081519050919050565b600082825260208201905092915050565b60005b838110156119be5780820151818401526020810190506119a3565b838111156119cd576000848401525b50505050565b6000601f19601f8301169050919050565b60006119ef82611984565b6119f9818561198f565b9350611a098185602086016119a0565b611a12816119d3565b840191505092915050565b600073ffffffffffffffffffffffffffffffffffffffff82169050919050565b6000611a4882611a1d565b9050919050565b611a5881611a3d565b82525050565b6000819050919050565b611a7181611a5e565b82525050565b7f4e487b7100000000000000000000000000000000000000000000000000000000600052602160045260246000fd5b60038110611ab757611ab6611a77565b5b50565b6000819050611ac882611aa6565b919050565b6000611ad882611aba565b9050919050565b611ae881611acd565b82525050565b600061016083016000830151611b076000860182611975565b5060208301518482036020860152611b1f82826119e4565b91505060408301518482036040860152611b3982826119e4565b9150506060830151611b4e6060860182611a4f565b506080830151611b616080860182611a68565b5060a083015184820360a0860152611b7982826119e4565b91505060c083015184820360c0860152611b9382826119e4565b91505060e0830151611ba860e0860182611a68565b50610100830151848203610100860152611bc282826119e4565b915050610120830151848203610120860152611bde82826119e4565b915050610140830151611bf5610140860182611adf565b508091505092915050565b60006020820190508181036000830152611c1a8184611aee565b905092915050565b611c2b81611a3d565b8114611c3657600080fd5b50565b600081359050611c4881611c22565b92915050565b600060208284031215611c6457611c63611908565b5b6000611c7284828501611c39565b91505092915050565b611c8481611acd565b82525050565b6000602082019050611c9f6000830184611c7b565b92915050565b611cae81611a5e565b82525050565b6000604082019050611cc96000830185611ca5565b611cd660208301846118d4565b9392505050565b611ce681611a5e565b8114611cf157600080fd5b50565b600081359050611d0381611cdd565b92915050565b611d12816118c8565b8114611d1d57600080fd5b50565b600081359050611d2f81611d09565b92915050565b600080600060608486031215611d4e57611d4d611908565b5b6000611d5c86828701611cf4565b9350506020611d6d86828701611933565b9250506040611d7e86828701611d20565b9150509250925092565b600081519050919050565b600082825260208201905092915050565b6000819050602082019050919050565b611dbd816118c8565b82525050565b608082016000820151611dd96000850182611a4f565b506020820151611dec6020850182611975565b506040820151611dff6040850182611a68565b506060820151611e126060850182611db4565b50505050565b6000611e248383611dc3565b60808301905092915050565b6000602082019050919050565b6000611e4882611d88565b611e528185611d93565b9350611e5d83611da4565b8060005b83811015611e8e578151611e758882611e18565b9750611e8083611e30565b925050600181019050611e61565b5085935050505092915050565b60006020820190508181036000830152611eb58184611e3d565b905092915050565b600081519050919050565b600082825260208201905092915050565b6000819050602082019050919050565b6000611ef58383611975565b60208301905092915050565b6000602082019050919050565b6000611f1982611ebd565b611f238185611ec8565b9350611f2e83611ed9565b8060005b83811015611f5f578151611f468882611ee9565b9750611f5183611f01565b925050600181019050611f32565b5085935050505092915050565b60006020820190508181036000830152611f868184611f0e565b905092915050565b611f9781611a3d565b82525050565b6000602082019050611fb26000830184611f8e565b92915050565b600081519050611fc781611d09565b92915050565b600060208284031215611fe357611fe2611908565b5b6000611ff184828501611fb8565b91505092915050565b61200381611912565b82525050565b600060208201905061201e6000830184611ffa565b92915050565b600080fd5b7f4e487b7100000000000000000000000000000000000000000000000000000000600052604160045260246000fd5b612061826119d3565b810181811067ffffffffffffffff821117156120805761207f612029565b5b80604052505050565b60006120936118fe565b905061209f8282612058565b919050565b600080fd5b6000815190506120b88161191c565b92915050565b600080fd5b600080fd5b600067ffffffffffffffff8211156120e3576120e2612029565b5b6120ec826119d3565b9050602081019050919050565b600061210c612107846120c8565b612089565b905082815260208101848484011115612128576121276120c3565b5b6121338482856119a0565b509392505050565b600082601f8301126121505761214f6120be565b5b81516121608482602086016120f9565b91505092915050565b60008151905061217881611c22565b92915050565b60008151905061218d81611cdd565b92915050565b600381106121a057600080fd5b50565b6000815190506121b281612193565b92915050565b600061016082840312156121cf576121ce612024565b5b6121da610160612089565b905060006121ea848285016120a9565b600083015250602082015167ffffffffffffffff81111561220e5761220d6120a4565b5b61221a8482850161213b565b602083015250604082015167ffffffffffffffff81111561223e5761223d6120a4565b5b61224a8482850161213b565b604083015250606061225e84828501612169565b60608301525060806122728482850161217e565b60808301525060a082015167ffffffffffffffff811115612296576122956120a4565b5b6122a28482850161213b565b60a08301525060c082015167ffffffffffffffff8111156122c6576122c56120a4565b5b6122d28482850161213b565b60c08301525060e06122e68482850161217e565b60e08301525061010082015167ffffffffffffffff81111561230b5761230a6120a4565b5b6123178482850161213b565b6101008301525061012082015167ffffffffffffffff81111561233d5761233c6120a4565b5b6123498482850161213b565b6101208301525061014061235f848285016121a3565b6101408301525092915050565b60006020828403121561238257612381611908565b5b600082015167ffffffffffffffff8111156123a05761239f61190d565b5b6123ac848285016121b8565b91505092915050565b7f4e487b7100000000000000000000000000000000000000000000000000000000600052603260045260246000fd5b7f4e487b7100000000000000000000000000000000000000000000000000000000600052601160045260246000fd5b600061241e82611a5e565b91507fffffffffffffffffffffffffffffffffffffffffffffffffffffffffffffffff82036124505761244f6123e4565b5b600182019050919050565b600082825260208201905092915050565b7f436f6d6d69746d656e7420616d6f756e74206d757374206265203e3d206d696e60008201527f696d756d20636f6d6d69746d656e740000000000000000000000000000000000602082015250565b60006124c8602f8361245b565b91506124d38261246c565b604082019050919050565b600060208201905081810360008301526124f7816124bb565b9050919050565b7f5370656369666965642062696c6c206e6f7420666f756e640000000000000000600082015250565b600061253460188361245b565b915061253f826124fe565b602082019050919050565b6000602082019050818103600083015261256381612527565b9050919050565b7f436f6d6d69746d656e74206973206e6f742076616c6964000000000000000000600082015250565b60006125a060178361245b565b91506125ab8261256a565b602082019050919050565b600060208201905081810360008301526125cf81612593565b9050919050565b7f42696c6c206e6f74206f70656e20666f7220636f6d6d69746d656e7400000000600082015250565b600061260c601c8361245b565b9150612617826125d6565b602082019050919050565b6000602082019050818103600083015261263b816125ff565b9050919050565b600067ffffffffffffffff82111561265d5761265c612029565b5b602082029050602081019050919050565b600080fd5b600061268661268184612642565b612089565b905080838252602082019050602084028301858111156126a9576126a861266e565b5b835b818110156126d257806126be88826120a9565b8452602084019350506020810190506126ab565b5050509392505050565b600082601f8301126126f1576126f06120be565b5b8151612701848260208601612673565b91505092915050565b6000602082840312156127205761271f611908565b5b600082015167ffffffffffffffff81111561273e5761273d61190d565b5b61274a848285016126dc565b91505092915050565b60006020828403121561276957612768611908565b5b600061277784828501612169565b91505092915050565b600061278b82611a5e565b915061279683611a5e565b9250827fffffffffffffffffffffffffffffffffffffffffffffffffffffffffffffffff038211156127cb576127ca6123e4565b5b828201905092915050565b7f4e487b7100000000000000000000000000000000000000000000000000000000600052600160045260246000fd5b600061281082611a5e565b915061281b83611a5e565b92508282101561282e5761282d6123e4565b5b828203905092915050565b7f4e487b7100000000000000000000000000000000000000000000000000000000600052601260045260246000fd5b600061287382611a5e565b915061287e83611a5e565b92508261288e5761288d612839565b5b828204905092915050565b60006128a482611a5e565b91506128af83611a5e565b9250817fffffffffffffffffffffffffffffffffffffffffffffffffffffffffffffffff04831182151516156128e8576128e76123e4565b5b82820290509291505056fea2646970667358221220ee2be42e7801bfd185b38e52f85ea2112ddfbe173d88c307e325b1f291d1e53464736f6c634300080e0033",
  "immutableReferences": {},
  "source": "// SPDX-License-Identifier: MIT\npragma solidity >=0.4.22 <0.9.0;\n\nimport \"./OracleInterface.sol\";\nimport \"./Ownable.sol\";\nimport \"./SafeMath.sol\";\n\n/// @title Commitments\n/// @author Oliver Song\n/// @notice Takes commitments and handles payouts for bill outcomes\ncontract Commitments is Ownable {\n    // mappings\n    mapping(address => bytes32[]) private userToCommitments;\n    mapping(bytes32 => Commitment[]) private billToCommitments;\n    mapping(bytes32 => bool) internal billPaidOut;\n\n    // bill outcomes oracle\n    address internal billOracleAddr = address(0);\n    OracleInterface internal billOracle = OracleInterface(billOracleAddr);\n\n    //constants\n    uint internal minimumCommitment = 1000000000000;  // 1000 gwei\n    uint internal housePercentage = 2;\n\n    using SafeMath for uint;\n\n    struct Commitment {\n        address user;\n        bytes32 billId;\n        uint amount;\n        bool inSupport;\n    }\n\n    /// @notice determines whether or not the user has already committed to the given bill\n    /// @param _user address of a user\n    /// @param _billId id of a bill\n    /// @return true if the given user has already placed a commitment on the given bill\n    function _commitmentIsValid(address _user, bytes32 _billId) private view returns (bool) {\n        bytes32[] storage userCommitments = userToCommitments[_user];\n        if (userCommitments.length > 0) {\n            for (uint n = 0; n < userCommitments.length; n++) {\n                if (userCommitments[n] == _billId) {\n                    return false;\n                }\n            }\n        }\n        return true;\n    }\n\n    /// @notice gets a list ids of all currently commitable bill\n    /// @return array of bill ids\n    function getCommitableBills() public view returns (bytes32[] memory) {\n        return billOracle.getPendingBills();\n    }\n\n    /// @notice returns the full data of the specified bill\n    /// @param _billId the id of the desired bill\n    function getBill(bytes32 _billId) public view returns (OracleInterface.Bill memory) {\n        return billOracle.getBill(_billId);\n    }\n\n    /// @notice returns the full data of the most recent commitable bill\n    function getMostRecentBill() public view returns (OracleInterface.Bill memory) {\n        return billOracle.getMostRecentBill(true);\n    }\n\n    /// @notice gets the current bills on which the user has commitments\n    /// @return array of bill ids\n    function getUserCommitments() public view returns (bytes32[] memory) {\n        return userToCommitments[msg.sender];\n    }\n\n    /// @notice gets the current commitments for the bill\n    /// @param _billId the id of the desired bill\n    /// @return array of Commitments\n    function getBillCommitments(bytes32 _billId) public view returns (Commitment[] memory) {\n        return billToCommitments[_billId];\n    }\n\n    /// @notice gets a user's commitment\n    /// @param _billId the id of the desired bill\n    /// @return amount commitment amount, or 0 if no commitment found\n    /// @return inSupport in support of bill or not, or 0 if no commitment found\n    function getUserCommitment(bytes32 _billId) public view returns (uint amount, bool inSupport) {\n        // FIXME: perhaps should iterate through usercommitments instead\n        // actually, probably shouldn't be iterating at all if possible\n        Commitment[] storage commitments = billToCommitments[_billId];\n        for (uint n = 0; n < commitments.length; n++) {\n            if (commitments[n].user == msg.sender) {\n                return (commitments[n].amount, commitments[n].inSupport);\n            }\n        }\n        // FIXME could gate this with a require and instead\n        // add a method \"userHasCommitment\".\n        // Could also gate billid on existing bill\n        return (0, false);\n    }\n\n    /// @notice places a non-rescindable commitment on the given bill\n    /// @param _amount the id of the bill on which to commitment\n    /// @param _billId the id of the bill on which to commitment\n    /// @param _inSupport commitment in favor of bill passing (vs against)\n    function placeCommitment(uint _amount, bytes32 _billId, bool _inSupport) public payable {\n        require(msg.value == _amount);\n\n        // commitment must be above a certain minimum\n        require(msg.value >= minimumCommitment, \"Commitment amount must be >= minimum commitment\");\n\n        // make sure that bill exists\n        require(billOracle.billExists(_billId), \"Specified bill not found\");\n\n        // validate\n        require(_commitmentIsValid(msg.sender, _billId), \"Commitment is not valid\");\n\n        // bill must still be open for commitment\n        require(billOracle.billIsPending(_billId), \"Bill not open for commitment\");\n\n        // add the new commitment\n        Commitment[] storage commitments = billToCommitments[_billId];\n        commitments.push(Commitment(msg.sender, _billId, msg.value, _inSupport));\n\n        // add the mapping\n        bytes32[] storage userCommitments = userToCommitments[msg.sender];\n        userCommitments.push(_billId);\n    }\n\n    function _payOutWinnings(address _user, uint _amount) private {\n        payable(_user).transfer(_amount);\n    }\n\n    function _transferToHouse() private {\n        payable(owner).transfer(address(this).balance);\n    }\n\n    function _isWinningCommitment(OracleInterface.BillOutcome _outcome, bool inSupport) private pure returns (bool) {\n        require(_outcome != OracleInterface.BillOutcome.Pending);\n\n        if (_outcome == OracleInterface.BillOutcome.BecameLaw) {\n            if (inSupport) {\n                return true;\n            } else {\n                return false;\n            }\n        } else {\n            if (inSupport) {\n                return false;\n            } else {\n                return true;\n            }\n        }\n    }\n\n    /// @notice calculates the amount to be paid out for a commitment\n    /// @param _winningTotal the total monetary amount of winning commitments\n    /// @param _losingTotal the total monetary amount of losing commitments\n    /// @param _committedAmount the amount of this particular commitment\n    /// @return an amount in wei\n    function _calculatePayout(uint _winningTotal, uint _losingTotal, uint _committedAmount, bool _keepCommitment) private view returns (uint) {\n        uint percentWinningTotal = _committedAmount.div(_winningTotal);\n\n        // calculate raw share\n        uint winningAmount = 0;\n        if (_keepCommitment) {\n            winningAmount = _losingTotal.mul(percentWinningTotal) + _committedAmount;\n        } else {\n            winningAmount = _losingTotal.mul(percentWinningTotal);\n        }\n\n        // if share has been rounded down to zero, fix that\n        if (winningAmount == 0) {\n            winningAmount = minimumCommitment;\n        }\n\n        // take out house cut\n        return winningAmount - winningAmount.mul(housePercentage).div(100);\n    }\n\n    /// @notice calculates how much to pay out to each winner, then pays each winner the appropriate amount\n    /// @param _billId the unique id of the bill\n    /// @param _outcome the bill's outcome\n    function _payOutForBill(bytes32 _billId, OracleInterface.BillOutcome _outcome) private {\n        require(_outcome != OracleInterface.BillOutcome.Pending);\n\n        Commitment[] storage commitments = billToCommitments[_billId];\n        uint losingTotal = 0;\n        uint winningTotal = 0;\n        uint totalPot = 0;\n        uint[] memory payouts = new uint[](commitments.length);\n\n        //count winning commitments & get total\n        for (uint n = 0; n < commitments.length; n++) {\n            uint amount = commitments[n].amount;\n            if (_isWinningCommitment(_outcome, commitments[n].inSupport)) {\n                winningTotal = winningTotal.add(amount);\n            } else {\n                losingTotal = losingTotal.add(amount);\n            }\n        }\n        totalPot = losingTotal.add(winningTotal);\n\n        //calculate payouts\n        for (uint n = 0; n < commitments.length; n++) {\n            if (_outcome == OracleInterface.BillOutcome.BecameLaw) {\n                // in the passing case, supporters get detractors' commitments\n                // minus their own commitment, which goes to legislator\n                if (_isWinningCommitment(_outcome, commitments[n].inSupport)) {\n                    payouts[n] = _calculatePayout(winningTotal, totalPot, commitments[n].amount, false);\n                } else {\n                    payouts[n] = 0;\n                }\n            } else {\n                // in the rejected case, detractors get supporters' commitments\n                // plus their own back. Legislators get nothing.\n                if (_isWinningCommitment(_outcome, commitments[n].inSupport)) {\n                    payouts[n] = _calculatePayout(winningTotal, totalPot, commitments[n].amount, true);\n                } else {\n                    payouts[n] = 0;\n                }\n            }\n        }\n\n        // calculate legislator payout\n        uint legislaterPayout = 0;\n        if (_outcome == OracleInterface.BillOutcome.BecameLaw) {\n            // legislator gets support total\n            legislaterPayout = winningTotal;\n        }\n\n\n        // pay out to users\n        for (uint n = 0; n < payouts.length; n++) {\n            _payOutWinnings(commitments[n].user, payouts[n]);\n        }\n\n        // pay out to legislators\n        address sponsor = billOracle.getBillSponsorAddress(_billId);\n        _payOutWinnings(sponsor, legislaterPayout);\n\n        // transfer the remainder to the house\n        _transferToHouse();\n\n        // mark bill as paid out\n        billPaidOut[_billId] = true;\n    }\n\n\n    /// @notice check the outcome of the given bill; if ready, will trigger calculation of payout, and actual payout to winners\n    /// @param _billId the id of the bill to check\n    /// @return the outcome of the given bill\n    function checkOutcome(bytes32 _billId) external onlyOwner returns (OracleInterface.BillOutcome)  {\n        OracleInterface.Bill memory b = getBill(_billId);\n\n        if (b.outcome != OracleInterface.BillOutcome.Pending && !billPaidOut[_billId]) {\n            _payOutForBill(_billId, b.outcome);\n        }\n\n        return b.outcome;\n    }\n\n\n    /// @notice sets the address of the oracle contract to use\n    /// @dev setting a wrong address may result in false return value, or error\n    /// @param _oracleAddress the address of the oracle\n    /// @return true if connection to the new oracle address was successful\n    function setOracleAddress(address _oracleAddress) external onlyOwner returns (bool) {\n        billOracleAddr = _oracleAddress;\n        billOracle = OracleInterface(billOracleAddr);\n        return billOracle.testConnection();\n    }\n\n    /// @notice gets the address of the oracle being used\n    /// @return the address of the currently set oracle\n    function getOracleAddress() external view returns (address) {\n        return billOracleAddr;\n    }\n\n    /// @notice for testing; tests that the oracle is callable\n    /// @return true if connection successful\n    function testOracleConnection() public view returns (bool) {\n        return billOracle.testConnection();\n    }\n}\n",
  "sourcePath": "/Users/oliversong/Development/open-lobby/client/contracts/Commitments.sol",
  "compiler": {
    "name": "solc",
    "version": "0.8.14+commit.80d49f37.Emscripten.clang"
  },
  "schemaVersion": "3.4.7",
  "updatedAt": "2022-07-08T06:44:24.409Z",
  "networkType": "ethereum",
  "devdoc": {
    "author": "Oliver Song",
    "kind": "dev",
    "methods": {
      "checkOutcome(bytes32)": {
        "params": {
          "_billId": "the id of the bill to check"
        },
        "returns": {
          "_0": "the outcome of the given bill"
        }
      },
      "getBill(bytes32)": {
        "params": {
          "_billId": "the id of the desired bill"
        }
      },
      "getBillCommitments(bytes32)": {
        "params": {
          "_billId": "the id of the desired bill"
        },
        "returns": {
          "_0": "array of Commitments"
        }
      },
      "getCommitableBills()": {
        "returns": {
          "_0": "array of bill ids"
        }
      },
      "getOracleAddress()": {
        "returns": {
          "_0": "the address of the currently set oracle"
        }
      },
      "getUserCommitment(bytes32)": {
        "params": {
          "_billId": "the id of the desired bill"
        },
        "returns": {
          "amount": "commitment amount, or 0 if no commitment found",
          "inSupport": "in support of bill or not, or 0 if no commitment found"
        }
      },
      "getUserCommitments()": {
        "returns": {
          "_0": "array of bill ids"
        }
      },
      "placeCommitment(uint256,bytes32,bool)": {
        "params": {
          "_amount": "the id of the bill on which to commitment",
          "_billId": "the id of the bill on which to commitment",
          "_inSupport": "commitment in favor of bill passing (vs against)"
        }
      },
      "setOracleAddress(address)": {
        "details": "setting a wrong address may result in false return value, or error",
        "params": {
          "_oracleAddress": "the address of the oracle"
        },
        "returns": {
          "_0": "true if connection to the new oracle address was successful"
        }
      },
      "testOracleConnection()": {
        "returns": {
          "_0": "true if connection successful"
        }
      },
      "transferOwnership(address)": {
        "details": "Allows the current owner to transfer control of the contract to a newOwner.",
        "params": {
          "newOwner": "The address to transfer ownership to."
        }
      }
    },
    "title": "Commitments",
    "version": 1
  },
  "userdoc": {
    "kind": "user",
    "methods": {
      "checkOutcome(bytes32)": {
        "notice": "check the outcome of the given bill; if ready, will trigger calculation of payout, and actual payout to winners"
      },
      "getBill(bytes32)": {
        "notice": "returns the full data of the specified bill"
      },
      "getBillCommitments(bytes32)": {
        "notice": "gets the current commitments for the bill"
      },
      "getCommitableBills()": {
        "notice": "gets a list ids of all currently commitable bill"
      },
      "getMostRecentBill()": {
        "notice": "returns the full data of the most recent commitable bill"
      },
      "getOracleAddress()": {
        "notice": "gets the address of the oracle being used"
      },
      "getUserCommitment(bytes32)": {
        "notice": "gets a user's commitment"
      },
      "getUserCommitments()": {
        "notice": "gets the current bills on which the user has commitments"
      },
      "placeCommitment(uint256,bytes32,bool)": {
        "notice": "places a non-rescindable commitment on the given bill"
      },
      "setOracleAddress(address)": {
        "notice": "sets the address of the oracle contract to use"
      },
      "testOracleConnection()": {
        "notice": "for testing; tests that the oracle is callable"
      }
    },
    "notice": "Takes commitments and handles payouts for bill outcomes",
    "version": 1
  }
}