{
  "contractName": "Commitments",
  "abi": [
    {
      "anonymous": false,
      "inputs": [
        {
          "indexed": true,
          "internalType": "address",
          "name": "previousOwner",
          "type": "address"
        },
        {
          "indexed": true,
          "internalType": "address",
          "name": "newOwner",
          "type": "address"
        }
      ],
      "name": "OwnershipTransferred",
      "type": "event"
    },
    {
      "inputs": [],
      "name": "owner",
      "outputs": [
        {
          "internalType": "address",
          "name": "",
          "type": "address"
        }
      ],
      "stateMutability": "view",
      "type": "function",
      "constant": true
    },
    {
      "inputs": [
        {
          "internalType": "address",
          "name": "newOwner",
          "type": "address"
        }
      ],
      "name": "transferOwnership",
      "outputs": [],
      "stateMutability": "nonpayable",
      "type": "function"
    },
    {
      "inputs": [],
      "name": "getCommitableBills",
      "outputs": [
        {
          "internalType": "bytes32[]",
          "name": "",
          "type": "bytes32[]"
        }
      ],
      "stateMutability": "view",
      "type": "function",
      "constant": true
    },
    {
      "inputs": [
        {
          "internalType": "bytes32",
          "name": "_billId",
          "type": "bytes32"
        }
      ],
      "name": "getBill",
      "outputs": [
        {
          "internalType": "bytes32",
          "name": "id",
          "type": "bytes32"
        },
        {
          "internalType": "string",
          "name": "sponsor",
          "type": "string"
        },
        {
          "internalType": "uint256",
          "name": "dateOfIntroduction",
          "type": "uint256"
        },
        {
          "internalType": "string",
          "name": "title",
          "type": "string"
        },
        {
          "internalType": "string",
          "name": "legislationNumber",
          "type": "string"
        },
        {
          "internalType": "enum OracleInterface.BillOutcome",
          "name": "outcome",
          "type": "uint8"
        }
      ],
      "stateMutability": "view",
      "type": "function",
      "constant": true
    },
    {
      "inputs": [],
      "name": "getMostRecentBill",
      "outputs": [
        {
          "internalType": "bytes32",
          "name": "id",
          "type": "bytes32"
        },
        {
          "internalType": "string",
          "name": "sponsor",
          "type": "string"
        },
        {
          "internalType": "uint256",
          "name": "dateOfIntroduction",
          "type": "uint256"
        },
        {
          "internalType": "string",
          "name": "title",
          "type": "string"
        },
        {
          "internalType": "string",
          "name": "legislationNumber",
          "type": "string"
        },
        {
          "internalType": "enum OracleInterface.BillOutcome",
          "name": "outcome",
          "type": "uint8"
        }
      ],
      "stateMutability": "view",
      "type": "function",
      "constant": true
    },
    {
      "inputs": [
        {
          "internalType": "bytes32",
          "name": "_billId",
          "type": "bytes32"
        },
        {
          "internalType": "bool",
          "name": "_inSupport",
          "type": "bool"
        }
      ],
      "name": "placeCommitment",
      "outputs": [],
      "stateMutability": "payable",
      "type": "function",
      "payable": true
    },
    {
      "inputs": [
        {
          "internalType": "address",
          "name": "_oracleAddress",
          "type": "address"
        }
      ],
      "name": "setOracleAddress",
      "outputs": [
        {
          "internalType": "bool",
          "name": "",
          "type": "bool"
        }
      ],
      "stateMutability": "nonpayable",
      "type": "function"
    },
    {
      "inputs": [],
      "name": "getOracleAddress",
      "outputs": [
        {
          "internalType": "address",
          "name": "",
          "type": "address"
        }
      ],
      "stateMutability": "view",
      "type": "function",
      "constant": true
    },
    {
      "inputs": [],
      "name": "testOracleConnection",
      "outputs": [
        {
          "internalType": "bool",
          "name": "",
          "type": "bool"
        }
      ],
      "stateMutability": "view",
      "type": "function",
      "constant": true
    }
  ],
  "bytecode": "0x60806040526000600360006101000a81548173ffffffffffffffffffffffffffffffffffffffff021916908373ffffffffffffffffffffffffffffffffffffffff160217905550600360009054906101000a900473ffffffffffffffffffffffffffffffffffffffff16600460006101000a81548173ffffffffffffffffffffffffffffffffffffffff021916908373ffffffffffffffffffffffffffffffffffffffff16021790555064e8d4a510006005553480156100be57600080fd5b50336000806101000a81548173ffffffffffffffffffffffffffffffffffffffff021916908373ffffffffffffffffffffffffffffffffffffffff16021790555061158a8061010e6000396000f3fe6080604052600436106100865760003560e01c806371fe7e011161005957806371fe7e01146101515780637bef7ce1146101815780638da5cb5b146101ac578063b18b78dd146101d7578063f2fde38b1461020257610086565b80632ce3707e1461008b578063342c196c146100b65780633962c22b146100f85780634c69c00f14610114575b600080fd5b34801561009757600080fd5b506100a061022b565b6040516100ad9190610b62565b60405180910390f35b3480156100c257600080fd5b506100dd60048036038101906100d89190610bc7565b6102c3565b6040516100ef96959493929190610d2c565b60405180910390f35b610112600480360381019061010d9190610dce565b610384565b005b34801561012057600080fd5b5061013b60048036038101906101369190610e6c565b61069e565b6040516101489190610b62565b60405180910390f35b34801561015d57600080fd5b50610166610835565b60405161017896959493929190610d2c565b60405180910390f35b34801561018d57600080fd5b506101966108f6565b6040516101a39190610f57565b60405180910390f35b3480156101b857600080fd5b506101c1610993565b6040516101ce9190610f88565b60405180910390f35b3480156101e357600080fd5b506101ec6109b7565b6040516101f99190610f88565b60405180910390f35b34801561020e57600080fd5b5061022960048036038101906102249190610e6c565b6109e1565b005b6000600460009054906101000a900473ffffffffffffffffffffffffffffffffffffffff1673ffffffffffffffffffffffffffffffffffffffff16633412a15c6040518163ffffffff1660e01b8152600401602060405180830381865afa15801561029a573d6000803e3d6000fd5b505050506040513d601f19601f820116820180604052508101906102be9190610fb8565b905090565b6000606060006060806000600460009054906101000a900473ffffffffffffffffffffffffffffffffffffffff1673ffffffffffffffffffffffffffffffffffffffff1663342c196c886040518263ffffffff1660e01b81526004016103299190610fe5565b600060405180830381865afa158015610346573d6000803e3d6000fd5b505050506040513d6000823e3d601f19601f8201168201806040525081019061036f919061118c565b95509550955095509550955091939550919395565b6005543410156103c9576040517f08c379a00000000000000000000000000000000000000000000000000000000081526004016103c0906112df565b60405180910390fd5b600460009054906101000a900473ffffffffffffffffffffffffffffffffffffffff1673ffffffffffffffffffffffffffffffffffffffff1663ffa378b1836040518263ffffffff1660e01b81526004016104249190610fe5565b602060405180830381865afa158015610441573d6000803e3d6000fd5b505050506040513d601f19601f820116820180604052508101906104659190610fb8565b6104a4576040517f08c379a000000000000000000000000000000000000000000000000000000000815260040161049b9061134b565b60405180910390fd5b6104af338383610b2f565b6104ee576040517f08c379a00000000000000000000000000000000000000000000000000000000081526004016104e5906113b7565b60405180910390fd5b6104f782610b3c565b610536576040517f08c379a000000000000000000000000000000000000000000000000000000000815260040161052d90611423565b60405180910390fd5b60006002600084815260200190815260200160002090508060405180608001604052803373ffffffffffffffffffffffffffffffffffffffff168152602001858152602001348152602001841515815250908060018154018082558091505060019003906000526020600020906004020160009091909190915060008201518160000160006101000a81548173ffffffffffffffffffffffffffffffffffffffff021916908373ffffffffffffffffffffffffffffffffffffffff160217905550602082015181600101556040820151816002015560608201518160030160006101000a81548160ff02191690831515021790555050506000600160003373ffffffffffffffffffffffffffffffffffffffff1673ffffffffffffffffffffffffffffffffffffffff16815260200190815260200160002090508084908060018154018082558091505060019003906000526020600020016000909190919091505550505050565b60008060009054906101000a900473ffffffffffffffffffffffffffffffffffffffff1673ffffffffffffffffffffffffffffffffffffffff163373ffffffffffffffffffffffffffffffffffffffff16146106f957600080fd5b81600360006101000a81548173ffffffffffffffffffffffffffffffffffffffff021916908373ffffffffffffffffffffffffffffffffffffffff160217905550600360009054906101000a900473ffffffffffffffffffffffffffffffffffffffff16600460006101000a81548173ffffffffffffffffffffffffffffffffffffffff021916908373ffffffffffffffffffffffffffffffffffffffff160217905550600460009054906101000a900473ffffffffffffffffffffffffffffffffffffffff1673ffffffffffffffffffffffffffffffffffffffff16633412a15c6040518163ffffffff1660e01b8152600401602060405180830381865afa15801561080a573d6000803e3d6000fd5b505050506040513d601f19601f8201168201806040525081019061082e9190610fb8565b9050919050565b6000606060006060806000600460009054906101000a900473ffffffffffffffffffffffffffffffffffffffff1673ffffffffffffffffffffffffffffffffffffffff1663b6f0623f60016040518263ffffffff1660e01b815260040161089c9190610b62565b600060405180830381865afa1580156108b9573d6000803e3d6000fd5b505050506040513d6000823e3d601f19601f820116820180604052508101906108e2919061118c565b955095509550955095509550909192939495565b6060600460009054906101000a900473ffffffffffffffffffffffffffffffffffffffff1673ffffffffffffffffffffffffffffffffffffffff166352d173a46040518163ffffffff1660e01b8152600401600060405180830381865afa158015610965573d6000803e3d6000fd5b505050506040513d6000823e3d601f19601f8201168201806040525081019061098e919061150b565b905090565b60008054906101000a900473ffffffffffffffffffffffffffffffffffffffff1681565b6000600360009054906101000a900473ffffffffffffffffffffffffffffffffffffffff16905090565b60008054906101000a900473ffffffffffffffffffffffffffffffffffffffff1673ffffffffffffffffffffffffffffffffffffffff163373ffffffffffffffffffffffffffffffffffffffff1614610a3957600080fd5b600073ffffffffffffffffffffffffffffffffffffffff168173ffffffffffffffffffffffffffffffffffffffff1603610a7257600080fd5b8073ffffffffffffffffffffffffffffffffffffffff1660008054906101000a900473ffffffffffffffffffffffffffffffffffffffff1673ffffffffffffffffffffffffffffffffffffffff167f8be0079c531659141344cd1fd0a4f28419497f9722a3daafe3b4186f6b6457e060405160405180910390a3806000806101000a81548173ffffffffffffffffffffffffffffffffffffffff021916908373ffffffffffffffffffffffffffffffffffffffff16021790555050565b6000600190509392505050565b600060019050919050565b60008115159050919050565b610b5c81610b47565b82525050565b6000602082019050610b776000830184610b53565b92915050565b6000604051905090565b600080fd5b600080fd5b6000819050919050565b610ba481610b91565b8114610baf57600080fd5b50565b600081359050610bc181610b9b565b92915050565b600060208284031215610bdd57610bdc610b87565b5b6000610beb84828501610bb2565b91505092915050565b610bfd81610b91565b82525050565b600081519050919050565b600082825260208201905092915050565b60005b83811015610c3d578082015181840152602081019050610c22565b83811115610c4c576000848401525b50505050565b6000601f19601f8301169050919050565b6000610c6e82610c03565b610c788185610c0e565b9350610c88818560208601610c1f565b610c9181610c52565b840191505092915050565b6000819050919050565b610caf81610c9c565b82525050565b7f4e487b7100000000000000000000000000000000000000000000000000000000600052602160045260246000fd5b60038110610cf557610cf4610cb5565b5b50565b6000819050610d0682610ce4565b919050565b6000610d1682610cf8565b9050919050565b610d2681610d0b565b82525050565b600060c082019050610d416000830189610bf4565b8181036020830152610d538188610c63565b9050610d626040830187610ca6565b8181036060830152610d748186610c63565b90508181036080830152610d888185610c63565b9050610d9760a0830184610d1d565b979650505050505050565b610dab81610b47565b8114610db657600080fd5b50565b600081359050610dc881610da2565b92915050565b60008060408385031215610de557610de4610b87565b5b6000610df385828601610bb2565b9250506020610e0485828601610db9565b9150509250929050565b600073ffffffffffffffffffffffffffffffffffffffff82169050919050565b6000610e3982610e0e565b9050919050565b610e4981610e2e565b8114610e5457600080fd5b50565b600081359050610e6681610e40565b92915050565b600060208284031215610e8257610e81610b87565b5b6000610e9084828501610e57565b91505092915050565b600081519050919050565b600082825260208201905092915050565b6000819050602082019050919050565b610ece81610b91565b82525050565b6000610ee08383610ec5565b60208301905092915050565b6000602082019050919050565b6000610f0482610e99565b610f0e8185610ea4565b9350610f1983610eb5565b8060005b83811015610f4a578151610f318882610ed4565b9750610f3c83610eec565b925050600181019050610f1d565b5085935050505092915050565b60006020820190508181036000830152610f718184610ef9565b905092915050565b610f8281610e2e565b82525050565b6000602082019050610f9d6000830184610f79565b92915050565b600081519050610fb281610da2565b92915050565b600060208284031215610fce57610fcd610b87565b5b6000610fdc84828501610fa3565b91505092915050565b6000602082019050610ffa6000830184610bf4565b92915050565b60008151905061100f81610b9b565b92915050565b600080fd5b600080fd5b7f4e487b7100000000000000000000000000000000000000000000000000000000600052604160045260246000fd5b61105782610c52565b810181811067ffffffffffffffff821117156110765761107561101f565b5b80604052505050565b6000611089610b7d565b9050611095828261104e565b919050565b600067ffffffffffffffff8211156110b5576110b461101f565b5b6110be82610c52565b9050602081019050919050565b60006110de6110d98461109a565b61107f565b9050828152602081018484840111156110fa576110f961101a565b5b611105848285610c1f565b509392505050565b600082601f83011261112257611121611015565b5b81516111328482602086016110cb565b91505092915050565b61114481610c9c565b811461114f57600080fd5b50565b6000815190506111618161113b565b92915050565b6003811061117457600080fd5b50565b60008151905061118681611167565b92915050565b60008060008060008060c087890312156111a9576111a8610b87565b5b60006111b789828a01611000565b965050602087015167ffffffffffffffff8111156111d8576111d7610b8c565b5b6111e489828a0161110d565b95505060406111f589828a01611152565b945050606087015167ffffffffffffffff81111561121657611215610b8c565b5b61122289828a0161110d565b935050608087015167ffffffffffffffff81111561124357611242610b8c565b5b61124f89828a0161110d565b92505060a061126089828a01611177565b9150509295509295509295565b7f436f6d6d69746d656e7420616d6f756e74206d757374206265203e3d206d696e60008201527f696d756d20636f6d6d69746d656e740000000000000000000000000000000000602082015250565b60006112c9602f83610c0e565b91506112d48261126d565b604082019050919050565b600060208201905081810360008301526112f8816112bc565b9050919050565b7f5370656369666965642062696c6c206e6f7420666f756e640000000000000000600082015250565b6000611335601883610c0e565b9150611340826112ff565b602082019050919050565b6000602082019050818103600083015261136481611328565b9050919050565b7f436f6d6d69746d656e74206973206e6f742076616c6964000000000000000000600082015250565b60006113a1601783610c0e565b91506113ac8261136b565b602082019050919050565b600060208201905081810360008301526113d081611394565b9050919050565b7f42696c6c206e6f74206f70656e20666f7220636f6d6d69746d656e7400000000600082015250565b600061140d601c83610c0e565b9150611418826113d7565b602082019050919050565b6000602082019050818103600083015261143c81611400565b9050919050565b600067ffffffffffffffff82111561145e5761145d61101f565b5b602082029050602081019050919050565b600080fd5b600061148761148284611443565b61107f565b905080838252602082019050602084028301858111156114aa576114a961146f565b5b835b818110156114d357806114bf8882611000565b8452602084019350506020810190506114ac565b5050509392505050565b600082601f8301126114f2576114f1611015565b5b8151611502848260208601611474565b91505092915050565b60006020828403121561152157611520610b87565b5b600082015167ffffffffffffffff81111561153f5761153e610b8c565b5b61154b848285016114dd565b9150509291505056fea2646970667358221220a0bf00391d8a791f0c7c41b41c848321070b5787bb820220d89568efee3ab7f964736f6c634300080e0033",
  "immutableReferences": {},
  "source": "// SPDX-License-Identifier: MIT\npragma solidity >=0.4.22 <0.9.0;\n\nimport \"./OracleInterface.sol\";\nimport \"./Ownable.sol\";\n\n/// @title Commitments\n/// @author Oliver Song\n/// @notice Takes commitments and handles payouts for bill outcomes\ncontract Commitments is Ownable {\n    // mappings\n    mapping(address => bytes32[]) private userToCommitments;\n    mapping(bytes32 => Commitment[]) private billToCommitments;\n\n    // bill outcomes oracle\n    address internal billOracleAddr = address(0);\n    OracleInterface internal billOracle = OracleInterface(billOracleAddr);\n\n    //constants\n    uint internal minimumCommitment = 1000000000000;\n\n    struct Commitment {\n        address user;\n        bytes32 billId;\n        uint amount;\n        bool inSupport;\n    }\n\n    /// @notice determines whether or not the user has already committed to the given bill\n    /// @param _user address of a user\n    /// @param _billId id of a bill\n    /// @param _inSupport commitment in favor of bill passing (vs against)\n    /// @return true if the given user has already placed a commitment on the given bill\n    function _commitmentIsValid(address _user, bytes32 _billId, bool _inSupport) private view returns (bool) {\n\n        return true;\n    }\n\n    /// @notice determines whether or not commitments may still be accepted for the given bill\n    /// @param _billId id of a bill\n    /// @return true if the bill is commitable\n    function _billOpenForCommitment(bytes32 _billId) private view returns (bool) {\n\n        return true;\n    }\n\n    /// @notice gets a list ids of all currently commitable bill\n    /// @return array of bill ids\n    function getCommitableBills() public view returns (bytes32[] memory) {\n        return billOracle.getPendingBills();\n    }\n\n    /// @notice returns the full data of the specified bill\n    /// @param _billId the id of the desired bill\n    function getBill(bytes32 _billId) public view returns (\n        bytes32 id,\n        string memory sponsor,\n        uint dateOfIntroduction,\n        string memory title,\n        string memory legislationNumber,\n        OracleInterface.BillOutcome outcome) {\n\n        return billOracle.getBill(_billId);\n    }\n\n    /// @notice returns the full data of the most recent commitable bill\n    function getMostRecentBill() public view returns (\n        bytes32 id,\n        string memory sponsor,\n        uint dateOfIntroduction,\n        string memory title,\n        string memory legislationNumber,\n        OracleInterface.BillOutcome outcome) {\n\n        return billOracle.getMostRecentBill(true);\n    }\n\n    /// @notice places a non-rescindable commitment on the given bill\n    /// @param _billId the id of the bill on which to commitment\n    /// @param _inSupport commitment in favor of bill passing (vs against)\n    function placeCommitment(bytes32 _billId, bool _inSupport) public payable {\n\n        // commitment must be above a certain minimum\n        require(msg.value >= minimumCommitment, \"Commitment amount must be >= minimum commitment\");\n\n        // make sure that bill exists\n        require(billOracle.billExists(_billId), \"Specified bill not found\");\n\n        // validate\n        require(_commitmentIsValid(msg.sender, _billId, _inSupport), \"Commitment is not valid\");\n\n        // bill must still be open for commitment\n        require(_billOpenForCommitment(_billId), \"Bill not open for commitment\");\n\n        // transfer the money into the account\n        // address(this).transfer(msg.value);\n\n        // add the new commitment\n        Commitment[] storage commitments = billToCommitments[_billId];\n        commitments.push(Commitment(msg.sender, _billId, msg.value, _inSupport));\n\n        // add the mapping\n        bytes32[] storage userCommitments = userToCommitments[msg.sender];\n        userCommitments.push(_billId);\n    }\n\n    /// @notice sets the address of the oracle contract to use\n    /// @dev setting a wrong address may result in false return value, or error\n    /// @param _oracleAddress the address of the oracle\n    /// @return true if connection to the new oracle address was successful\n    function setOracleAddress(address _oracleAddress) external onlyOwner returns (bool) {\n        billOracleAddr = _oracleAddress;\n        billOracle = OracleInterface(billOracleAddr);\n        return billOracle.testConnection();\n    }\n\n    /// @notice gets the address of the oracle being used\n    /// @return the address of the currently set oracle\n    function getOracleAddress() external view returns (address) {\n        return billOracleAddr;\n    }\n\n    /// @notice for testing; tests that the oracle is callable\n    /// @return true if connection successful\n    function testOracleConnection() public view returns (bool) {\n        return billOracle.testConnection();\n    }\n}\n",
  "sourcePath": "/Users/oliversong/Development/open-lobby/client/contracts/Commitments.sol",
  "compiler": {
    "name": "solc",
    "version": "0.8.14+commit.80d49f37.Emscripten.clang"
  },
  "schemaVersion": "3.4.7",
  "updatedAt": "2022-06-13T22:45:55.869Z",
  "networkType": "ethereum",
  "devdoc": {
    "author": "Oliver Song",
    "kind": "dev",
    "methods": {
      "getBill(bytes32)": {
        "params": {
          "_billId": "the id of the desired bill"
        }
      },
      "getCommitableBills()": {
        "returns": {
          "_0": "array of bill ids"
        }
      },
      "getOracleAddress()": {
        "returns": {
          "_0": "the address of the currently set oracle"
        }
      },
      "placeCommitment(bytes32,bool)": {
        "params": {
          "_billId": "the id of the bill on which to commitment",
          "_inSupport": "commitment in favor of bill passing (vs against)"
        }
      },
      "setOracleAddress(address)": {
        "details": "setting a wrong address may result in false return value, or error",
        "params": {
          "_oracleAddress": "the address of the oracle"
        },
        "returns": {
          "_0": "true if connection to the new oracle address was successful"
        }
      },
      "testOracleConnection()": {
        "returns": {
          "_0": "true if connection successful"
        }
      },
      "transferOwnership(address)": {
        "details": "Allows the current owner to transfer control of the contract to a newOwner.",
        "params": {
          "newOwner": "The address to transfer ownership to."
        }
      }
    },
    "title": "Commitments",
    "version": 1
  },
  "userdoc": {
    "kind": "user",
    "methods": {
      "getBill(bytes32)": {
        "notice": "returns the full data of the specified bill"
      },
      "getCommitableBills()": {
        "notice": "gets a list ids of all currently commitable bill"
      },
      "getMostRecentBill()": {
        "notice": "returns the full data of the most recent commitable bill"
      },
      "getOracleAddress()": {
        "notice": "gets the address of the oracle being used"
      },
      "placeCommitment(bytes32,bool)": {
        "notice": "places a non-rescindable commitment on the given bill"
      },
      "setOracleAddress(address)": {
        "notice": "sets the address of the oracle contract to use"
      },
      "testOracleConnection()": {
        "notice": "for testing; tests that the oracle is callable"
      }
    },
    "notice": "Takes commitments and handles payouts for bill outcomes",
    "version": 1
  }
}