{
  "contractName": "OracleInterface",
  "abi": [
    {
      "inputs": [],
      "name": "getPendingBills",
      "outputs": [
        {
          "internalType": "bytes32[]",
          "name": "",
          "type": "bytes32[]"
        }
      ],
      "stateMutability": "view",
      "type": "function"
    },
    {
      "inputs": [],
      "name": "getAllBills",
      "outputs": [
        {
          "internalType": "bytes32[]",
          "name": "",
          "type": "bytes32[]"
        }
      ],
      "stateMutability": "view",
      "type": "function"
    },
    {
      "inputs": [
        {
          "internalType": "bytes32",
          "name": "_billId",
          "type": "bytes32"
        }
      ],
      "name": "billExists",
      "outputs": [
        {
          "internalType": "bool",
          "name": "",
          "type": "bool"
        }
      ],
      "stateMutability": "view",
      "type": "function"
    },
    {
      "inputs": [
        {
          "internalType": "bytes32",
          "name": "_billId",
          "type": "bytes32"
        }
      ],
      "name": "getBill",
      "outputs": [
        {
          "internalType": "bytes32",
          "name": "id",
          "type": "bytes32"
        },
        {
          "internalType": "bytes32",
          "name": "amendsBill",
          "type": "bytes32"
        },
        {
          "internalType": "string",
          "name": "sponsor",
          "type": "string"
        },
        {
          "internalType": "uint256",
          "name": "dateOfIntroduction",
          "type": "uint256"
        },
        {
          "internalType": "string",
          "name": "committees",
          "type": "string"
        },
        {
          "internalType": "string",
          "name": "latestAction",
          "type": "string"
        },
        {
          "internalType": "uint256",
          "name": "latestActionDate",
          "type": "uint256"
        },
        {
          "internalType": "string",
          "name": "title",
          "type": "string"
        },
        {
          "internalType": "string",
          "name": "legislationNumber",
          "type": "string"
        },
        {
          "internalType": "enum OracleInterface.BillOutcome",
          "name": "outcome",
          "type": "uint8"
        }
      ],
      "stateMutability": "view",
      "type": "function"
    },
    {
      "inputs": [
        {
          "internalType": "bool",
          "name": "_pending",
          "type": "bool"
        }
      ],
      "name": "getMostRecentBill",
      "outputs": [
        {
          "internalType": "bytes32",
          "name": "id",
          "type": "bytes32"
        },
        {
          "internalType": "bytes32",
          "name": "amendsBill",
          "type": "bytes32"
        },
        {
          "internalType": "string",
          "name": "sponsor",
          "type": "string"
        },
        {
          "internalType": "uint256",
          "name": "dateOfIntroduction",
          "type": "uint256"
        },
        {
          "internalType": "string",
          "name": "committees",
          "type": "string"
        },
        {
          "internalType": "string",
          "name": "latestAction",
          "type": "string"
        },
        {
          "internalType": "uint256",
          "name": "latestActionDate",
          "type": "uint256"
        },
        {
          "internalType": "string",
          "name": "title",
          "type": "string"
        },
        {
          "internalType": "string",
          "name": "legislationNumber",
          "type": "string"
        },
        {
          "internalType": "enum OracleInterface.BillOutcome",
          "name": "outcome",
          "type": "uint8"
        }
      ],
      "stateMutability": "view",
      "type": "function"
    }
  ],
  "bytecode": "0x608060405234801561001057600080fd5b50610e8d806100206000396000f3fe608060405234801561001057600080fd5b50600436106100575760003560e01c8063342c196c1461005c57806352d173a414610095578063818e1f1a146100b3578063b6f0623f146100d1578063ffa378b11461010a575b600080fd5b61007660048036038101906100719190610932565b61013a565b60405161008c9a99989796959493929190610a97565b60405180910390f35b61009d61051f565b6040516100aa9190610c14565b60405180910390f35b6100bb610702565b6040516100c89190610c14565b60405180910390f35b6100eb60048036038101906100e69190610c6e565b6107f4565b6040516101019a99989796959493929190610a97565b60405180910390f35b610124600480360381019061011f9190610932565b610883565b6040516101319190610caa565b60405180910390f35b60008060606000606080600060608060006101548b610883565b1561049757600060016101668d6108cf565b8154811061017757610176610cc5565b5b90600052602060002090600a02019050806000015481600101548260020183600301548460040185600501866006015487600701886008018960090160009054906101000a900460ff168780546101cd90610d23565b80601f01602080910402602001604051908101604052809291908181526020018280546101f990610d23565b80156102465780601f1061021b57610100808354040283529160200191610246565b820191906000526020600020905b81548152906001019060200180831161022957829003601f168201915b5050505050975085805461025990610d23565b80601f016020809104026020016040519081016040528092919081815260200182805461028590610d23565b80156102d25780601f106102a7576101008083540402835291602001916102d2565b820191906000526020600020905b8154815290600101906020018083116102b557829003601f168201915b505050505095508480546102e590610d23565b80601f016020809104026020016040519081016040528092919081815260200182805461031190610d23565b801561035e5780601f106103335761010080835404028352916020019161035e565b820191906000526020600020905b81548152906001019060200180831161034157829003601f168201915b5050505050945082805461037190610d23565b80601f016020809104026020016040519081016040528092919081815260200182805461039d90610d23565b80156103ea5780601f106103bf576101008083540402835291602001916103ea565b820191906000526020600020905b8154815290600101906020018083116103cd57829003601f168201915b505050505092508180546103fd90610d23565b80601f016020809104026020016040519081016040528092919081815260200182805461042990610d23565b80156104765780601f1061044b57610100808354040283529160200191610476565b820191906000526020600020905b81548152906001019060200180831161045957829003601f168201915b505050505091509a509a509a509a509a509a509a509a509a509a5050610512565b8a6000806000808360001b9350604051806020016040528060008152509291906040518060200160405280600081525091906040518060200160405280600081525091906040518060200160405280600081525090604051806020016040528060008152509099509950995099509950995099509950995099505b9193959799509193959799565b60606000805b6001805490508110156105b2576000600281111561054657610545610a20565b5b6001828154811061055a57610559610cc5565b5b90600052602060002090600a020160090160009054906101000a900460ff16600281111561058b5761058a610a20565b5b0361059f57818061059b90610d83565b9250505b80806105aa90610d83565b915050610525565b5060008167ffffffffffffffff8111156105cf576105ce610dcb565b5b6040519080825280602002602001820160405280156105fd5781602001602082028036833780820191505090505b50905060008211156106fa5760008060018054905090505b60008111156106f7576000600281111561063257610631610a20565b5b600180836106409190610dfa565b8154811061065157610650610cc5565b5b90600052602060002090600a020160090160009054906101000a900460ff16600281111561068257610681610a20565b5b036106e457600180826106959190610dfa565b815481106106a6576106a5610cc5565b5b90600052602060002090600a0201600001548383806106c490610d83565b9450815181106106d7576106d6610cc5565b5b6020026020010181815250505b80806106ef90610e2e565b915050610615565b50505b809250505090565b6060600060018054905067ffffffffffffffff81111561072557610724610dcb565b5b6040519080825280602002602001820160405280156107535781602001602082028036833780820191505090505b509050600060018054905011156107ed5760008060018054905090505b60008111156107ea57600180826107879190610dfa565b8154811061079857610797610cc5565b5b90600052602060002090600a0201600001548383815181106107bd576107bc610cc5565b5b60200260200101818152505081806107d490610d83565b92505080806107e290610e2e565b915050610770565b50505b8091505090565b6000806060600060608060006060806000806000801b905060608c156108235761081c61051f565b905061082e565b61082b610702565b90505b600081511115610857578060008151811061084c5761084b610cc5565b5b602002602001015191505b6108608261013a565b9b509b509b509b509b509b509b509b509b509b5050509193959799509193959799565b6000806001805490500361089a57600090506108ca565b600080600084815260200190815260200160002054905060008111156108c45760019150506108ca565b60009150505b919050565b60006001600080848152602001908152602001600020546108f09190610dfa565b9050919050565b600080fd5b6000819050919050565b61090f816108fc565b811461091a57600080fd5b50565b60008135905061092c81610906565b92915050565b600060208284031215610948576109476108f7565b5b60006109568482850161091d565b91505092915050565b610968816108fc565b82525050565b600081519050919050565b600082825260208201905092915050565b60005b838110156109a857808201518184015260208101905061098d565b838111156109b7576000848401525b50505050565b6000601f19601f8301169050919050565b60006109d98261096e565b6109e38185610979565b93506109f381856020860161098a565b6109fc816109bd565b840191505092915050565b6000819050919050565b610a1a81610a07565b82525050565b7f4e487b7100000000000000000000000000000000000000000000000000000000600052602160045260246000fd5b60038110610a6057610a5f610a20565b5b50565b6000819050610a7182610a4f565b919050565b6000610a8182610a63565b9050919050565b610a9181610a76565b82525050565b600061014082019050610aad600083018d61095f565b610aba602083018c61095f565b8181036040830152610acc818b6109ce565b9050610adb606083018a610a11565b8181036080830152610aed81896109ce565b905081810360a0830152610b0181886109ce565b9050610b1060c0830187610a11565b81810360e0830152610b2281866109ce565b9050818103610100830152610b3781856109ce565b9050610b47610120830184610a88565b9b9a5050505050505050505050565b600081519050919050565b600082825260208201905092915050565b6000819050602082019050919050565b610b8b816108fc565b82525050565b6000610b9d8383610b82565b60208301905092915050565b6000602082019050919050565b6000610bc182610b56565b610bcb8185610b61565b9350610bd683610b72565b8060005b83811015610c07578151610bee8882610b91565b9750610bf983610ba9565b925050600181019050610bda565b5085935050505092915050565b60006020820190508181036000830152610c2e8184610bb6565b905092915050565b60008115159050919050565b610c4b81610c36565b8114610c5657600080fd5b50565b600081359050610c6881610c42565b92915050565b600060208284031215610c8457610c836108f7565b5b6000610c9284828501610c59565b91505092915050565b610ca481610c36565b82525050565b6000602082019050610cbf6000830184610c9b565b92915050565b7f4e487b7100000000000000000000000000000000000000000000000000000000600052603260045260246000fd5b7f4e487b7100000000000000000000000000000000000000000000000000000000600052602260045260246000fd5b60006002820490506001821680610d3b57607f821691505b602082108103610d4e57610d4d610cf4565b5b50919050565b7f4e487b7100000000000000000000000000000000000000000000000000000000600052601160045260246000fd5b6000610d8e82610a07565b91507fffffffffffffffffffffffffffffffffffffffffffffffffffffffffffffffff8203610dc057610dbf610d54565b5b600182019050919050565b7f4e487b7100000000000000000000000000000000000000000000000000000000600052604160045260246000fd5b6000610e0582610a07565b9150610e1083610a07565b925082821015610e2357610e22610d54565b5b828203905092915050565b6000610e3982610a07565b915060008203610e4c57610e4b610d54565b5b60018203905091905056fea26469706673582212201481834f6f94ec7f490753dd8c23a107ed011a0f846c77e2790d1328bbf279b264736f6c634300080e0033",
  "immutableReferences": {},
  "source": "pragma solidity >=0.4.22 <0.9.0;\n\ncontract OracleInterface {\n    mapping(bytes32 => uint) billIdToIndex;\n    Bill[] bills;\n\n    // defines a bill along with its outcome\n    struct Bill {\n        bytes32 id;\n        bytes32 amendsBill;\n        string sponsor;\n        uint dateOfIntroduction;\n        string committees;\n        string latestAction;\n        uint latestActionDate;\n        string title;\n        string legislationNumber;\n        BillOutcome outcome;\n    }\n\n    enum BillOutcome {\n        Pending,\n        BecameLaw,\n        TimedOut\n    }\n\n    /// @notice returns the array index of the bill with the given id\n    /// @dev if the bill id is invalid, then the return value will be incorrect and may cause error; you must call billExists(_billId) first!\n    /// @param _billId the bill id to get\n    /// @return an array index\n    function _getBillIndex(bytes32 _billId) private view returns (uint) {\n        return billIdToIndex[_billId]-1;\n    }\n\n\n    /// @notice gets the unique ids of all pending bills, in reverse chronological order\n    /// @return an array of unique bill ids\n    function getPendingBills() public view returns (bytes32[] memory) {\n        uint count = 0;\n\n        // get count of pending bills\n        for (uint i = 0; i < bills.length; i++) {\n            if (bills[i].outcome == BillOutcome.Pending)\n                count++;\n        }\n\n        //collect up all the pending bills\n        bytes32[] memory output = new bytes32[](count);\n\n        if (count > 0) {\n            uint index = 0;\n            for (uint n = bills.length; n > 0; n--) {\n                if (bills[n-1].outcome == BillOutcome.Pending)\n                    output[index++] = bills[n-1].id;\n            }\n        }\n\n        return output;\n    }\n\n    /// @notice gets the unique ids of bills, pending and decided, in reverse chronological order\n    /// @return an array of unique bill ids\n    function getAllBills() public view returns (bytes32[] memory) {\n        bytes32[] memory output = new bytes32[](bills.length);\n\n        //get all ids\n        if (bills.length > 0) {\n            uint index = 0;\n            for (uint n = bills.length; n > 0; n--) {\n                output[index] = bills[n-1].id;\n                index++;\n            }\n        }\n\n        return output;\n    }\n\n    /// @notice determines whether a bill exists with the given id\n    /// @param _billId the bill id to test\n    /// @return true if bill exists and id is valid\n    function billExists(bytes32 _billId) public view returns (bool) {\n        if (bills.length == 0)\n            return false;\n        uint index = billIdToIndex[_billId];\n        if (index > 0) {\n          return true;\n        } else {\n          return false;\n        }\n    }\n\n    /// @notice gets the specified bill\n    /// @param _billId the unique id of the desired bill\n    function getBill(bytes32 _billId) public view returns (\n        bytes32 id,\n        bytes32 amendsBill,\n        string memory sponsor,\n        uint dateOfIntroduction,\n        string memory committees,\n        string memory latestAction,\n        uint latestActionDate,\n        string memory title,\n        string memory legislationNumber,\n        BillOutcome outcome) {\n\n        //get the bill\n        if (billExists(_billId)) {\n            Bill storage theBill = bills[_getBillIndex(_billId)];\n            return (theBill.id, theBill.amendsBill, theBill.sponsor, theBill.dateOfIntroduction, theBill.committees, theBill.latestAction, theBill.latestActionDate, theBill.title, theBill.legislationNumber, theBill.outcome);\n        }\n        else {\n            return (_billId, 0, \"\", 0, \"\", \"\", 0, \"\", \"\", BillOutcome.Pending);\n        }\n    }\n\n    /// @notice gets the most recent bill or pending bill\n    /// @param _pending if true, will return only the most recent pending bill; otherwise, returns the most recent bill either pending or completed\n    function getMostRecentBill(bool _pending) public view returns (\n        bytes32 id,\n        bytes32 amendsBill,\n        string memory sponsor,\n        uint dateOfIntroduction,\n        string memory committees,\n        string memory latestAction,\n        uint latestActionDate,\n        string memory title,\n        string memory legislationNumber,\n        BillOutcome outcome) {\n\n        bytes32 billId = 0;\n        bytes32[] memory ids;\n\n        if (_pending) {\n            ids = getPendingBills();\n        } else {\n            ids = getAllBills();\n        }\n        if (ids.length > 0) {\n            billId = ids[0];\n        }\n\n        //by default, return a null bill\n        return getBill(billId);\n    }\n}\n",
  "sourcePath": "/Users/oliversong/Development/open-lobby/client/contracts/OracleInterface.sol",
  "compiler": {
    "name": "solc",
    "version": "0.8.14+commit.80d49f37.Emscripten.clang"
  },
  "schemaVersion": "3.4.7",
  "updatedAt": "2022-06-06T06:15:00.807Z",
  "devdoc": {
    "kind": "dev",
    "methods": {
      "billExists(bytes32)": {
        "params": {
          "_billId": "the bill id to test"
        },
        "returns": {
          "_0": "true if bill exists and id is valid"
        }
      },
      "getAllBills()": {
        "returns": {
          "_0": "an array of unique bill ids"
        }
      },
      "getBill(bytes32)": {
        "params": {
          "_billId": "the unique id of the desired bill"
        }
      },
      "getMostRecentBill(bool)": {
        "params": {
          "_pending": "if true, will return only the most recent pending bill; otherwise, returns the most recent bill either pending or completed"
        }
      },
      "getPendingBills()": {
        "returns": {
          "_0": "an array of unique bill ids"
        }
      }
    },
    "version": 1
  },
  "userdoc": {
    "kind": "user",
    "methods": {
      "billExists(bytes32)": {
        "notice": "determines whether a bill exists with the given id"
      },
      "getAllBills()": {
        "notice": "gets the unique ids of bills, pending and decided, in reverse chronological order"
      },
      "getBill(bytes32)": {
        "notice": "gets the specified bill"
      },
      "getMostRecentBill(bool)": {
        "notice": "gets the most recent bill or pending bill"
      },
      "getPendingBills()": {
        "notice": "gets the unique ids of all pending bills, in reverse chronological order"
      }
    },
    "version": 1
  }
}