{
  "contractName": "BillOracle",
  "abi": [
    {
      "anonymous": false,
      "inputs": [
        {
          "indexed": true,
          "internalType": "address",
          "name": "previousOwner",
          "type": "address"
        },
        {
          "indexed": true,
          "internalType": "address",
          "name": "newOwner",
          "type": "address"
        }
      ],
      "name": "OwnershipTransferred",
      "type": "event"
    },
    {
      "constant": true,
      "inputs": [],
      "name": "owner",
      "outputs": [
        {
          "internalType": "address",
          "name": "",
          "type": "address"
        }
      ],
      "payable": false,
      "stateMutability": "view",
      "type": "function"
    },
    {
      "constant": false,
      "inputs": [
        {
          "internalType": "address",
          "name": "newOwner",
          "type": "address"
        }
      ],
      "name": "transferOwnership",
      "outputs": [],
      "payable": false,
      "stateMutability": "nonpayable",
      "type": "function"
    },
    {
      "constant": true,
      "inputs": [
        {
          "internalType": "bytes32",
          "name": "_billId",
          "type": "bytes32"
        }
      ],
      "name": "billExists",
      "outputs": [
        {
          "internalType": "bool",
          "name": "",
          "type": "bool"
        }
      ],
      "payable": false,
      "stateMutability": "view",
      "type": "function"
    },
    {
      "constant": false,
      "inputs": [
        {
          "internalType": "string",
          "name": "_amendsBill",
          "type": "string"
        },
        {
          "internalType": "string",
          "name": "_sponsor",
          "type": "string"
        },
        {
          "internalType": "uint256",
          "name": "_dateOfIntroduction",
          "type": "uint256"
        },
        {
          "internalType": "string",
          "name": "_committees",
          "type": "string"
        },
        {
          "internalType": "string",
          "name": "_latestAction",
          "type": "string"
        },
        {
          "internalType": "uint256",
          "name": "_latestActionDate",
          "type": "uint256"
        },
        {
          "internalType": "string",
          "name": "_title",
          "type": "string"
        },
        {
          "internalType": "string",
          "name": "_legislationNumber",
          "type": "string"
        }
      ],
      "name": "addBill",
      "outputs": [
        {
          "internalType": "bytes32",
          "name": "",
          "type": "bytes32"
        }
      ],
      "payable": false,
      "stateMutability": "nonpayable",
      "type": "function"
    },
    {
      "constant": false,
      "inputs": [
        {
          "internalType": "bytes32",
          "name": "_billId",
          "type": "bytes32"
        },
        {
          "internalType": "enum BillOracle.BillOutcome",
          "name": "_outcome",
          "type": "uint8"
        }
      ],
      "name": "declareOutcome",
      "outputs": [],
      "payable": false,
      "stateMutability": "nonpayable",
      "type": "function"
    },
    {
      "constant": true,
      "inputs": [],
      "name": "getPendingBills",
      "outputs": [
        {
          "internalType": "bytes32[]",
          "name": "",
          "type": "bytes32[]"
        }
      ],
      "payable": false,
      "stateMutability": "view",
      "type": "function"
    },
    {
      "constant": true,
      "inputs": [],
      "name": "getAllBills",
      "outputs": [
        {
          "internalType": "bytes32[]",
          "name": "",
          "type": "bytes32[]"
        }
      ],
      "payable": false,
      "stateMutability": "view",
      "type": "function"
    },
    {
      "constant": true,
      "inputs": [
        {
          "internalType": "bytes32",
          "name": "_billId",
          "type": "bytes32"
        }
      ],
      "name": "getBill",
      "outputs": [
        {
          "internalType": "bytes32",
          "name": "id",
          "type": "bytes32"
        },
        {
          "internalType": "string",
          "name": "sponsor",
          "type": "string"
        },
        {
          "internalType": "uint256",
          "name": "dateOfIntroduction",
          "type": "uint256"
        },
        {
          "internalType": "string",
          "name": "title",
          "type": "string"
        },
        {
          "internalType": "string",
          "name": "legislationNumber",
          "type": "string"
        },
        {
          "internalType": "enum BillOracle.BillOutcome",
          "name": "outcome",
          "type": "uint8"
        }
      ],
      "payable": false,
      "stateMutability": "view",
      "type": "function"
    },
    {
      "constant": true,
      "inputs": [
        {
          "internalType": "bytes32",
          "name": "_billId",
          "type": "bytes32"
        }
      ],
      "name": "getAdditionalBillInfo",
      "outputs": [
        {
          "internalType": "string",
          "name": "amendsBill",
          "type": "string"
        },
        {
          "internalType": "string",
          "name": "committees",
          "type": "string"
        },
        {
          "internalType": "string",
          "name": "latestAction",
          "type": "string"
        },
        {
          "internalType": "uint256",
          "name": "latestActionDate",
          "type": "uint256"
        }
      ],
      "payable": false,
      "stateMutability": "view",
      "type": "function"
    },
    {
      "constant": true,
      "inputs": [
        {
          "internalType": "bool",
          "name": "_pending",
          "type": "bool"
        }
      ],
      "name": "getMostRecentBill",
      "outputs": [
        {
          "internalType": "bytes32",
          "name": "id",
          "type": "bytes32"
        },
        {
          "internalType": "string",
          "name": "sponsor",
          "type": "string"
        },
        {
          "internalType": "uint256",
          "name": "dateOfIntroduction",
          "type": "uint256"
        },
        {
          "internalType": "string",
          "name": "title",
          "type": "string"
        },
        {
          "internalType": "string",
          "name": "legislationNumber",
          "type": "string"
        },
        {
          "internalType": "enum BillOracle.BillOutcome",
          "name": "outcome",
          "type": "uint8"
        }
      ],
      "payable": false,
      "stateMutability": "view",
      "type": "function"
    },
    {
      "constant": true,
      "inputs": [],
      "name": "testConnection",
      "outputs": [
        {
          "internalType": "bool",
          "name": "",
          "type": "bool"
        }
      ],
      "payable": false,
      "stateMutability": "pure",
      "type": "function"
    },
    {
      "constant": true,
      "inputs": [],
      "name": "getAddress",
      "outputs": [
        {
          "internalType": "address",
          "name": "",
          "type": "address"
        }
      ],
      "payable": false,
      "stateMutability": "view",
      "type": "function"
    },
    {
      "constant": false,
      "inputs": [],
      "name": "addTestData",
      "outputs": [],
      "payable": false,
      "stateMutability": "nonpayable",
      "type": "function"
    }
  ],
  "bytecode": "0x6080604052336000806101000a81548173ffffffffffffffffffffffffffffffffffffffff021916908373ffffffffffffffffffffffffffffffffffffffff16021790555061258e806100536000396000f3fe608060405234801561001057600080fd5b50600436106100cf5760003560e01c80638cd95c781161008c578063b6f0623f11610066578063b6f0623f146105b5578063e5df3ca614610759578063f2fde38b14610b30578063ffa378b114610b74576100cf565b80638cd95c78146105265780638da5cb5b14610561578063a212b454146105ab576100cf565b80633412a15c146100d4578063342c196c146100f657806338cc48311461029857806346ef96fc146102e257806352d173a414610468578063818e1f1a146104c7575b600080fd5b6100dc610bba565b604051808215151515815260200191505060405180910390f35b6101226004803603602081101561010c57600080fd5b8101908080359060200190929190505050610bc3565b6040518087815260200180602001868152602001806020018060200185600281111561014a57fe5b60ff168152602001848103845289818151815260200191508051906020019080838360005b8381101561018a57808201518184015260208101905061016f565b50505050905090810190601f1680156101b75780820380516001836020036101000a031916815260200191505b50848103835287818151815260200191508051906020019080838360005b838110156101f05780820151818401526020810190506101d5565b50505050905090810190601f16801561021d5780820380516001836020036101000a031916815260200191505b50848103825286818151815260200191508051906020019080838360005b8381101561025657808201518184015260208101905061023b565b50505050905090810190601f1680156102835780820380516001836020036101000a031916815260200191505b50995050505050505050505060405180910390f35b6102a0610e62565b604051808273ffffffffffffffffffffffffffffffffffffffff1673ffffffffffffffffffffffffffffffffffffffff16815260200191505060405180910390f35b61030e600480360360208110156102f857600080fd5b8101908080359060200190929190505050610e6a565b60405180806020018060200180602001858152602001848103845288818151815260200191508051906020019080838360005b8381101561035c578082015181840152602081019050610341565b50505050905090810190601f1680156103895780820380516001836020036101000a031916815260200191505b50848103835287818151815260200191508051906020019080838360005b838110156103c25780820151818401526020810190506103a7565b50505050905090810190601f1680156103ef5780820380516001836020036101000a031916815260200191505b50848103825286818151815260200191508051906020019080838360005b8381101561042857808201518184015260208101905061040d565b50505050905090810190601f1680156104555780820380516001836020036101000a031916815260200191505b5097505050505050505060405180910390f35b6104706110e1565b6040518080602001828103825283818151815260200191508051906020019060200280838360005b838110156104b3578082015181840152602081019050610498565b505050509050019250505060405180910390f35b6104cf611259565b6040518080602001828103825283818151815260200191508051906020019060200280838360005b838110156105125780820151818401526020810190506104f7565b505050509050019250505060405180910390f35b61055f6004803603604081101561053c57600080fd5b8101908080359060200190929190803560ff169060200190929190505050611314565b005b6105696113d6565b604051808273ffffffffffffffffffffffffffffffffffffffff1673ffffffffffffffffffffffffffffffffffffffff16815260200191505060405180910390f35b6105b36113fb565b005b6105e3600480360360208110156105cb57600080fd5b81019080803515159060200190929190505050611be5565b6040518087815260200180602001868152602001806020018060200185600281111561060b57fe5b60ff168152602001848103845289818151815260200191508051906020019080838360005b8381101561064b578082015181840152602081019050610630565b50505050905090810190601f1680156106785780820380516001836020036101000a031916815260200191505b50848103835287818151815260200191508051906020019080838360005b838110156106b1578082015181840152602081019050610696565b50505050905090810190601f1680156106de5780820380516001836020036101000a031916815260200191505b50848103825286818151815260200191508051906020019080838360005b838110156107175780820151818401526020810190506106fc565b50505050905090810190601f1680156107445780820380516001836020036101000a031916815260200191505b50995050505050505050505060405180910390f35b610b1a600480360361010081101561077057600080fd5b810190808035906020019064010000000081111561078d57600080fd5b82018360208201111561079f57600080fd5b803590602001918460018302840111640100000000831117156107c157600080fd5b91908080601f016020809104026020016040519081016040528093929190818152602001838380828437600081840152601f19601f8201169050808301925050505050505091929192908035906020019064010000000081111561082457600080fd5b82018360208201111561083657600080fd5b8035906020019184600183028401116401000000008311171561085857600080fd5b91908080601f016020809104026020016040519081016040528093929190818152602001838380828437600081840152601f19601f82011690508083019250505050505050919291929080359060200190929190803590602001906401000000008111156108c557600080fd5b8201836020820111156108d757600080fd5b803590602001918460018302840111640100000000831117156108f957600080fd5b91908080601f016020809104026020016040519081016040528093929190818152602001838380828437600081840152601f19601f8201169050808301925050505050505091929192908035906020019064010000000081111561095c57600080fd5b82018360208201111561096e57600080fd5b8035906020019184600183028401116401000000008311171561099057600080fd5b91908080601f016020809104026020016040519081016040528093929190818152602001838380828437600081840152601f19601f82011690508083019250505050505050919291929080359060200190929190803590602001906401000000008111156109fd57600080fd5b820183602082011115610a0f57600080fd5b80359060200191846001830284011164010000000083111715610a3157600080fd5b91908080601f016020809104026020016040519081016040528093929190818152602001838380828437600081840152601f19601f82011690508083019250505050505050919291929080359060200190640100000000811115610a9457600080fd5b820183602082011115610aa657600080fd5b80359060200191846001830284011164010000000083111715610ac857600080fd5b91908080601f016020809104026020016040519081016040528093929190818152602001838380828437600081840152601f19601f820116905080830192505050505050509192919290505050611c5b565b6040518082815260200191505060405180910390f35b610b7260048036036020811015610b4657600080fd5b81019080803573ffffffffffffffffffffffffffffffffffffffff169060200190929190505050611f98565b005b610ba060048036036020811015610b8a57600080fd5b81019080803590602001909291905050506120e9565b604051808215151515815260200191505060405180910390f35b60006001905090565b6000606060006060806000610bd7876120e9565b15610e115760006002610be989612137565b81548110610bf357fe5b90600052602060002090600a02019050806000015481600201826003015483600701846008018560090160009054906101000a900460ff16848054600181600116156101000203166002900480601f016020809104026020016040519081016040528092919081815260200182805460018160011615610100020316600290048015610cc05780601f10610c9557610100808354040283529160200191610cc0565b820191906000526020600020905b815481529060010190602001808311610ca357829003601f168201915b50505050509450828054600181600116156101000203166002900480601f016020809104026020016040519081016040528092919081815260200182805460018160011615610100020316600290048015610d5c5780601f10610d3157610100808354040283529160200191610d5c565b820191906000526020600020905b815481529060010190602001808311610d3f57829003601f168201915b50505050509250818054600181600116156101000203166002900480601f016020809104026020016040519081016040528092919081815260200182805460018160011615610100020316600290048015610df85780601f10610dcd57610100808354040283529160200191610df8565b820191906000526020600020905b815481529060010190602001808311610ddb57829003601f168201915b5050505050915096509650965096509650965050610e59565b86600080604051806020016040528060008152509190819150604051806020016040528060008152509060405180602001604052806000815250909550955095509550955095505b91939550919395565b600030905090565b60608060606000610e7a856120e9565b156110995760006002610e8c87612137565b81548110610e9657fe5b90600052602060002090600a020190508060010181600401826005018360060154838054600181600116156101000203166002900480601f016020809104026020016040519081016040528092919081815260200182805460018160011615610100020316600290048015610f4c5780601f10610f2157610100808354040283529160200191610f4c565b820191906000526020600020905b815481529060010190602001808311610f2f57829003601f168201915b50505050509350828054600181600116156101000203166002900480601f016020809104026020016040519081016040528092919081815260200182805460018160011615610100020316600290048015610fe85780601f10610fbd57610100808354040283529160200191610fe8565b820191906000526020600020905b815481529060010190602001808311610fcb57829003601f168201915b50505050509250818054600181600116156101000203166002900480601f0160208091040260200160405190810160405280929190818152602001828054600181600116156101000203166002900480156110845780601f1061105957610100808354040283529160200191611084565b820191906000526020600020905b81548152906001019060200180831161106757829003601f168201915b505050505091509450945094509450506110da565b600060405180602001604052806000815250906040518060200160405280600081525090604051806020016040528060008152509080905093509350935093505b9193509193565b6060600080905060008090505b60028054905081101561115b576000600281111561110857fe5b6002828154811061111557fe5b90600052602060002090600a020160090160009054906101000a900460ff16600281111561113f57fe5b141561114e5781806001019250505b80806001019150506110ee565b5060608160405190808252806020026020018201604052801561118d5781602001602082028038833980820191505090505b5090506000821115611251576000809050600060028054905090505b600081111561124e57600060028111156111bf57fe5b600260018303815481106111cf57fe5b90600052602060002090600a020160090160009054906101000a900460ff1660028111156111f957fe5b1415611240576002600182038154811061120f57fe5b90600052602060002090600a02016000015483838060010194508151811061123357fe5b6020026020010181815250505b8080600190039150506111a9565b50505b809250505090565b6060806002805490506040519080825280602002602001820160405280156112905781602001602082028038833980820191505090505b5090506000600280549050111561130d576000809050600060028054905090505b600081111561130a57600260018203815481106112ca57fe5b90600052602060002090600a0201600001548383815181106112e857fe5b60200260200101818152505081806001019250508080600190039150506112b1565b50505b8091505090565b6000809054906101000a900473ffffffffffffffffffffffffffffffffffffffff1673ffffffffffffffffffffffffffffffffffffffff163373ffffffffffffffffffffffffffffffffffffffff161461136d57600080fd5b611376826120e9565b61137f57600080fd5b600061138a83612137565b905060006002828154811061139b57fe5b90600052602060002090600a02019050828160090160006101000a81548160ff021916908360028111156113cb57fe5b021790555050505050565b6000809054906101000a900473ffffffffffffffffffffffffffffffffffffffff1681565b6000809054906101000a900473ffffffffffffffffffffffffffffffffffffffff1673ffffffffffffffffffffffffffffffffffffffff163373ffffffffffffffffffffffffffffffffffffffff161461145457600080fd5b611594604051806020016040528060008152506040518060400160405280600e81526020017f47656f72676520436c6f6f6e65790000000000000000000000000000000000008152506115016040518061010001604052806107e661ffff168152602001600160ff168152602001601460ff168152602001600060ff168152602001600060ff168152602001600060ff168152602001600060ff168152602001600060ff16815250612156565b604051806020016040528060008152506040518060200160405280600081525060006040518060400160405280601881526020017f50726f706f73616c20746f20646f20746865207468696e6700000000000000008152506040518060400160405280600a81526020017f6d32337434393330676a00000000000000000000000000000000000000000000815250611c5b565b506116d5604051806020016040528060008152506040518060400160405280600881526020017f42696c6c204e79650000000000000000000000000000000000000000000000008152506116426040518061010001604052806107e661ffff168152602001600560ff168152602001601460ff168152602001600060ff168152602001600060ff168152602001600060ff168152602001600060ff168152602001600060ff16815250612156565b604051806020016040528060008152506040518060200160405280600081525060006040518060400160405280601e81526020017f50726f706f73616c20746f20646f20746865206f74686572207468696e6700008152506040518060400160405280600981526020017f7233307432393467720000000000000000000000000000000000000000000000815250611c5b565b506117f9604051806020016040528060008152506040518060400160405280600b81526020017f4164616d204472697665720000000000000000000000000000000000000000008152506117836040518061010001604052806107e661ffff168152602001600160ff168152602001601360ff168152602001600060ff168152602001600060ff168152602001600060ff168152602001600060ff168152602001600060ff16815250612156565b60405180602001604052806000815250604051806020016040528060008152506000604051806060016040528060248152602001612536602491396040518060400160405280600b81526020017f693233307439346a677265000000000000000000000000000000000000000000815250611c5b565b506119606040518060400160405280600b81526020017f306d32337434393330676a0000000000000000000000000000000000000000008152506040518060400160405280600f81526020017f5365616e204c6976696e6773746f6e00000000000000000000000000000000008152506118cd6040518061010001604052806107e661ffff168152602001600560ff168152602001600a60ff168152602001600060ff168152602001600060ff168152602001600060ff168152602001600060ff168152602001600060ff16815250612156565b604051806020016040528060008152506040518060200160405280600081525060006040518060400160405280601f81526020017f50726f706f73616c20746f20726f6c6c206261636b20746865207468696e67008152506040518060400160405280600a81526020017f6d32337434393330676a00000000000000000000000000000000000000000000815250611c5b565b50611aa1604051806020016040528060008152506040518060400160405280600d81526020017f53616e6a69742042697377617300000000000000000000000000000000000000815250611a0e6040518061010001604052806107e561ffff168152602001600160ff168152602001601460ff168152602001600060ff168152602001600060ff168152602001600060ff168152602001600060ff168152602001600060ff16815250612156565b604051806020016040528060008152506040518060200160405280600081525060006040518060400160405280601681526020017f50726f706f73616c20746f206d616b65206d6f6e6579000000000000000000008152506040518060400160405280600881526020017f3432746739306a67000000000000000000000000000000000000000000000000815250611c5b565b50611be2604051806020016040528060008152506040518060400160405280600b81526020017f4a6f686e204269636b6574000000000000000000000000000000000000000000815250611b4f6040518061010001604052806107e561ffff168152602001600260ff168152602001601460ff168152602001600060ff168152602001600060ff168152602001600060ff168152602001600060ff168152602001600060ff16815250612156565b604051806020016040528060008152506040518060200160405280600081525060006040518060400160405280601481526020017f50726f706f73616c20746f206275696c642069740000000000000000000000008152506040518060400160405280600a81526020017f676a656f74773539393000000000000000000000000000000000000000000000815250611c5b565b50565b6000606060006060806000806000801b905060608815611c0e57611c076110e1565b9050611c19565b611c16611259565b90505b600081511115611c3b5780600081518110611c3057fe5b602002602001015191505b611c4482610bc3565b975097509750975097509750505091939550919395565b60008060009054906101000a900473ffffffffffffffffffffffffffffffffffffffff1673ffffffffffffffffffffffffffffffffffffffff163373ffffffffffffffffffffffffffffffffffffffff1614611cb657600080fd5b6000888885856040516020018085805190602001908083835b60208310611cf25780518252602082019150602081019050602083039250611ccf565b6001836020036101000a03801982511681845116808217855250505050505090500184815260200183805190602001908083835b60208310611d495780518252602082019150602081019050602083039250611d26565b6001836020036101000a03801982511681845116808217855250505050505090500182805190602001908083835b60208310611d9a5780518252602082019150602081019050602083039250611d77565b6001836020036101000a038019825116818451168082178552505050505050905001945050505050604051602081830303815290604052805190602001209050611de3816120e9565b15611ded57600080fd5b6000600160026040518061014001604052808581526020018e81526020018d81526020018c81526020018b81526020018a815260200189815260200188815260200187815260200160006002811115611e4257fe5b8152509080600181540180825580915050906001820390600052602060002090600a020160009091929091909150600082015181600001556020820151816001019080519060200190611e9692919061246d565b506040820151816002019080519060200190611eb392919061246d565b50606082015181600301556080820151816004019080519060200190611eda92919061246d565b5060a0820151816005019080519060200190611ef792919061246d565b5060c0820151816006015560e0820151816007019080519060200190611f1e92919061246d565b50610100820151816008019080519060200190611f3c92919061246d565b506101208201518160090160006101000a81548160ff02191690836002811115611f6257fe5b02179055505050039050600181016001600084815260200190815260200160002081905550819250505098975050505050505050565b6000809054906101000a900473ffffffffffffffffffffffffffffffffffffffff1673ffffffffffffffffffffffffffffffffffffffff163373ffffffffffffffffffffffffffffffffffffffff1614611ff157600080fd5b600073ffffffffffffffffffffffffffffffffffffffff168173ffffffffffffffffffffffffffffffffffffffff16141561202b57600080fd5b8073ffffffffffffffffffffffffffffffffffffffff166000809054906101000a900473ffffffffffffffffffffffffffffffffffffffff1673ffffffffffffffffffffffffffffffffffffffff167f8be0079c531659141344cd1fd0a4f28419497f9722a3daafe3b4186f6b6457e060405160405180910390a3806000806101000a81548173ffffffffffffffffffffffffffffffffffffffff021916908373ffffffffffffffffffffffffffffffffffffffff16021790555050565b60008060028054905014156121015760009050612132565b600060016000848152602001908152602001600020549050600081111561212c576001915050612132565b60009150505b919050565b6000600180600084815260200190815260200160002054039050919050565b6000806107b290505b826000015161ffff168161ffff1610156121a65761217c816123f8565b1561218f576301e2850082019150612199565b6301e13380820191505b808060010191505061215f565b6121ae6124ed565b601f816000600c81106121bd57fe5b602002019060ff16908160ff16815250506121db84600001516123f8565b1561220557601d816001600c81106121ef57fe5b602002019060ff16908160ff1681525050612226565b601c816001600c811061221457fe5b602002019060ff16908160ff16815250505b601f816002600c811061223557fe5b602002019060ff16908160ff1681525050601e816003600c811061225557fe5b602002019060ff16908160ff1681525050601f816004600c811061227557fe5b602002019060ff16908160ff1681525050601e816005600c811061229557fe5b602002019060ff16908160ff1681525050601f816006600c81106122b557fe5b602002019060ff16908160ff1681525050601f816007600c81106122d557fe5b602002019060ff16908160ff1681525050601e816008600c81106122f557fe5b602002019060ff16908160ff1681525050601f816009600c811061231557fe5b602002019060ff16908160ff1681525050601e81600a600c811061233557fe5b602002019060ff16908160ff1681525050601f81600b600c811061235557fe5b602002019060ff16908160ff1681525050600191505b836020015160ff168261ffff1610156123af57806001830361ffff16600c811061239157fe5b602002015160ff16620151800283019250818060010192505061236b565b600184604001510360ff16620151800283019250836060015160ff16610e100283019250836080015160ff16603c02830192508360a0015160ff16830192508292505050919050565b60008060048361ffff168161240957fe5b0661ffff161461241c5760009050612468565b600060648361ffff168161242c57fe5b0661ffff161461243f5760019050612468565b60006101908361ffff168161245057fe5b0661ffff16146124635760009050612468565b600190505b919050565b828054600181600116156101000203166002900490600052602060002090601f016020900481019282601f106124ae57805160ff19168380011785556124dc565b828001600101855582156124dc579182015b828111156124db5782518255916020019190600101906124c0565b5b5090506124e99190612510565b5090565b604051806101800160405280600c90602082028038833980820191505090505090565b61253291905b8082111561252e576000816000905550600101612516565b5090565b9056fe50726f706f73616c20746f20646f20746865206f74686572206f74686572207468696e67a265627a7a72315820e90b22be3c3424aed74841edcd566a6b9bd6ded81c646cf5058448407fa3d90764736f6c63430005100032",
  "source": "pragma solidity >=0.4.22 <0.9.0;\n\nimport \"./Ownable.sol\";\nimport \"./DateLib.sol\";\n\n/*\nTEST:\n- testConnection\n- getAddress\n- billExists(0)\n- billExists(1)\n- declareOutcome(0, 2)\n- getPendingBills()\n- getAllBills()\n- getBill(0)\n- getMostRecentBill(true)\n- addTestData()\n- billExists(0)\n- billExists(1)\n- declareOutcome(0, 2)\n- getPendingBills()\n- getAllBills()\n- getBill(0)\n- getMostRecentBill(true)\n- getMostRecentBill(false)\n- getBill(0x...)\n- declareOutcome(0x..., 2)\n- getMostRecentBill(true)\n- getMostRecentBill(false)\n- getBill(0x...)\n- add duplicate bill\n*/\n\n/// @title BillOracle\n/// @author Oliver\n/// @notice Collects and provides information on bills and their status\ncontract BillOracle is Ownable {\n    mapping(bytes32 => uint) billIdToIndex;\n    Bill[] bills;\n\n    using DateLib for DateLib.DateTime;\n\n    // defines a bill along with its outcome\n    struct Bill {\n        bytes32 id;\n        string amendsBill;\n        string sponsor;\n        uint dateOfIntroduction;\n        string committees;\n        string latestAction;\n        uint latestActionDate;\n        string title;\n        string legislationNumber;\n        BillOutcome outcome;\n    }\n\n    enum BillOutcome {\n        Pending,\n        BecameLaw,\n        TimedOut\n    }\n\n    /// @notice returns the array index of the bill with the given id\n    /// @dev if the bill id is invalid, then the return value will be incorrect and may cause error; you must call billExists(_billId) first!\n    /// @param _billId the bill id to get\n    /// @return an array index\n    function _getBillIndex(bytes32 _billId) private view returns (uint) {\n        return billIdToIndex[_billId]-1;\n    }\n\n\n    /// @notice determines whether a bill exists with the given id\n    /// @param _billId the bill id to test\n    /// @return true if bill exists and id is valid\n    function billExists(bytes32 _billId) public view returns (bool) {\n        if (bills.length == 0)\n            return false;\n        uint index = billIdToIndex[_billId];\n        if (index > 0) {\n          return true;\n        } else {\n          return false;\n        }\n    }\n\n    /// @notice puts a new bill into the blockchain\n    /// @return the unique id of the newly created bill\n    function addBill(\n        string memory _amendsBill,\n        string memory _sponsor,\n        uint _dateOfIntroduction,\n        string memory _committees,\n        string memory _latestAction,\n        uint _latestActionDate,\n        string memory _title,\n        string memory _legislationNumber) onlyOwner public returns (bytes32) {\n\n        // hash the crucial info to get a unique id\n        bytes32 id = keccak256(abi.encodePacked(_sponsor, _dateOfIntroduction, _title, _legislationNumber));\n\n        // require that the bill be unique (not already added)\n        require(!billExists(id));\n\n        // add the bill\n        uint newIndex = bills.push(Bill(id, _amendsBill, _sponsor, _dateOfIntroduction, _committees, _latestAction, _latestActionDate, _title, _legislationNumber, BillOutcome.Pending)) - 1;\n        billIdToIndex[id] = newIndex + 1;\n\n        // return the unique id of the new bill\n        return id;\n    }\n\n    /// @notice sets the outcome of a predefined bill, permanently on the blockchain\n    /// @param _billId unique id of the bill to modify\n    /// @param _outcome outcome of the bill\n    function declareOutcome(bytes32 _billId, BillOutcome _outcome) onlyOwner external {\n\n        // require that it exists\n        require(billExists(_billId));\n\n        // get the bill\n        uint index = _getBillIndex(_billId);\n        Bill storage theBill = bills[index];\n\n        // set the outcome\n        theBill.outcome = _outcome;\n    }\n\n    /// @notice gets the unique ids of all pending bills, in reverse chronological order\n    /// @return an array of unique bill ids\n    function getPendingBills() public view returns (bytes32[] memory) {\n        uint count = 0;\n\n        // get count of pending bills\n        for (uint i = 0; i < bills.length; i++) {\n            if (bills[i].outcome == BillOutcome.Pending)\n                count++;\n        }\n\n        //collect up all the pending bills\n        bytes32[] memory output = new bytes32[](count);\n\n        if (count > 0) {\n            uint index = 0;\n            for (uint n = bills.length; n > 0; n--) {\n                if (bills[n-1].outcome == BillOutcome.Pending)\n                    output[index++] = bills[n-1].id;\n            }\n        }\n\n        return output;\n    }\n\n    /// @notice gets the unique ids of bills, pending and decided, in reverse chronological order\n    /// @return an array of unique bill ids\n    function getAllBills() public view returns (bytes32[] memory) {\n        bytes32[] memory output = new bytes32[](bills.length);\n\n        //get all ids\n        if (bills.length > 0) {\n            uint index = 0;\n            for (uint n = bills.length; n > 0; n--) {\n                output[index] = bills[n-1].id;\n                index++;\n            }\n        }\n\n        return output;\n    }\n\n    /// @notice gets the specified bill\n    /// @param _billId the unique id of the desired bill\n    function getBill(bytes32 _billId) public view returns (\n        bytes32 id,\n        string memory sponsor,\n        uint dateOfIntroduction,\n        string memory title,\n        string memory legislationNumber,\n        BillOutcome outcome) {\n\n        // get the bill\n        if (billExists(_billId)) {\n            Bill storage theBill = bills[_getBillIndex(_billId)];\n            return (theBill.id, theBill.sponsor, theBill.dateOfIntroduction, theBill.title, theBill.legislationNumber, theBill.outcome);\n        }\n        else {\n            return (_billId, \"\", 0, \"\", \"\", BillOutcome.Pending);\n        }\n    }\n\n    function getAdditionalBillInfo(bytes32 _billId) public view returns (\n        string memory amendsBill,\n        string memory committees,\n        string memory latestAction,\n        uint latestActionDate) {\n\n        // get the bill\n        if (billExists(_billId)) {\n            Bill storage theBill = bills[_getBillIndex(_billId)];\n            return (theBill.amendsBill, theBill.committees, theBill.latestAction, theBill.latestActionDate);\n        }\n        else {\n            return (\"\", \"\", \"\", 0);\n        }\n    }\n\n    /// @notice gets the most recent bill or pending bill\n    /// @param _pending if true, will return only the most recent pending bill; otherwise, returns the most recent bill either pending or completed\n    function getMostRecentBill(bool _pending) public view returns (\n        bytes32 id,\n        string memory sponsor,\n        uint dateOfIntroduction,\n        string memory title,\n        string memory legislationNumber,\n        BillOutcome outcome) {\n\n        bytes32 billId = 0;\n        bytes32[] memory ids;\n\n        if (_pending) {\n            ids = getPendingBills();\n        } else {\n            ids = getAllBills();\n        }\n        if (ids.length > 0) {\n            billId = ids[0];\n        }\n\n        //by default, return a null bill\n        return getBill(billId);\n    }\n\n    /// @notice can be used by a client contract to ensure that they've connected to this contract interface successfully\n    /// @return true, unconditionally\n    function testConnection() public pure returns (bool) {\n        return true;\n    }\n\n    /// @notice gets the address of this contract\n    /// @return address\n    function getAddress() public view returns (address) {\n        return address(this);\n    }\n\n    /// @notice for testing\n    function addTestData() external onlyOwner {\n        addBill(\"\", \"George Clooney\", DateLib.DateTime(2022, 1, 20, 0, 0, 0, 0, 0).toUnixTimestamp(), \"\", \"\", 0, \"Proposal to do the thing\", \"m23t4930gj\");\n        addBill(\"\", \"Bill Nye\", DateLib.DateTime(2022, 5, 20, 0, 0, 0, 0, 0).toUnixTimestamp(), \"\", \"\", 0, \"Proposal to do the other thing\", \"r30t294gr\");\n        addBill(\"\", \"Adam Driver\", DateLib.DateTime(2022, 1, 19, 0, 0, 0, 0, 0).toUnixTimestamp(), \"\", \"\", 0, \"Proposal to do the other other thing\", \"i230t94jgre\");\n        addBill(\"0m23t4930gj\", \"Sean Livingston\", DateLib.DateTime(2022, 5, 10, 0, 0, 0, 0, 0).toUnixTimestamp(), \"\", \"\", 0, \"Proposal to roll back the thing\", \"m23t4930gj\");\n        addBill(\"\", \"Sanjit Biswas\", DateLib.DateTime(2021, 1, 20, 0, 0, 0, 0, 0).toUnixTimestamp(), \"\", \"\", 0, \"Proposal to make money\", \"42tg90jg\");\n        addBill(\"\", \"John Bicket\", DateLib.DateTime(2021, 2, 20, 0, 0, 0, 0, 0).toUnixTimestamp(), \"\", \"\", 0, \"Proposal to build it\", \"gjeotw5990\");\n    }\n}\n",
  "sourcePath": "/Users/oliversong/Development/open-lobby/oracle/contracts/BillOracle.sol",
  "compiler": {
    "name": "solc",
    "version": "0.5.16+commit.9c3226ce.Emscripten.clang"
  },
  "schemaVersion": "3.4.7",
  "updatedAt": "2022-06-13T22:45:18.504Z",
  "networkType": "ethereum",
  "devdoc": {
    "author": "Oliver",
    "methods": {
      "addBill(string,string,uint256,string,string,uint256,string,string)": {
        "return": "the unique id of the newly created bill"
      },
      "billExists(bytes32)": {
        "params": {
          "_billId": "the bill id to test"
        },
        "return": "true if bill exists and id is valid"
      },
      "declareOutcome(bytes32,uint8)": {
        "params": {
          "_billId": "unique id of the bill to modify",
          "_outcome": "outcome of the bill"
        }
      },
      "getAddress()": {
        "return": "address"
      },
      "getAllBills()": {
        "return": "an array of unique bill ids"
      },
      "getBill(bytes32)": {
        "params": {
          "_billId": "the unique id of the desired bill"
        }
      },
      "getMostRecentBill(bool)": {
        "params": {
          "_pending": "if true, will return only the most recent pending bill; otherwise, returns the most recent bill either pending or completed"
        }
      },
      "getPendingBills()": {
        "return": "an array of unique bill ids"
      },
      "testConnection()": {
        "return": "true, unconditionally"
      },
      "transferOwnership(address)": {
        "details": "Allows the current owner to transfer control of the contract to a newOwner.",
        "params": {
          "newOwner": "The address to transfer ownership to."
        }
      }
    },
    "title": "BillOracle"
  },
  "userdoc": {
    "methods": {
      "addBill(string,string,uint256,string,string,uint256,string,string)": {
        "notice": "puts a new bill into the blockchain"
      },
      "addTestData()": {
        "notice": "for testing"
      },
      "billExists(bytes32)": {
        "notice": "determines whether a bill exists with the given id"
      },
      "declareOutcome(bytes32,uint8)": {
        "notice": "sets the outcome of a predefined bill, permanently on the blockchain"
      },
      "getAddress()": {
        "notice": "gets the address of this contract"
      },
      "getAllBills()": {
        "notice": "gets the unique ids of bills, pending and decided, in reverse chronological order"
      },
      "getBill(bytes32)": {
        "notice": "gets the specified bill"
      },
      "getMostRecentBill(bool)": {
        "notice": "gets the most recent bill or pending bill"
      },
      "getPendingBills()": {
        "notice": "gets the unique ids of all pending bills, in reverse chronological order"
      },
      "testConnection()": {
        "notice": "can be used by a client contract to ensure that they've connected to this contract interface successfully"
      }
    },
    "notice": "Collects and provides information on bills and their status"
  }
}