{
  "contractName": "BillOracle",
  "abi": [
    {
      "anonymous": false,
      "inputs": [
        {
          "indexed": true,
          "internalType": "address",
          "name": "previousOwner",
          "type": "address"
        },
        {
          "indexed": true,
          "internalType": "address",
          "name": "newOwner",
          "type": "address"
        }
      ],
      "name": "OwnershipTransferred",
      "type": "event"
    },
    {
      "constant": true,
      "inputs": [],
      "name": "owner",
      "outputs": [
        {
          "internalType": "address",
          "name": "",
          "type": "address"
        }
      ],
      "payable": false,
      "stateMutability": "view",
      "type": "function"
    },
    {
      "constant": false,
      "inputs": [
        {
          "internalType": "address",
          "name": "newOwner",
          "type": "address"
        }
      ],
      "name": "transferOwnership",
      "outputs": [],
      "payable": false,
      "stateMutability": "nonpayable",
      "type": "function"
    },
    {
      "constant": true,
      "inputs": [
        {
          "internalType": "bytes32",
          "name": "_billId",
          "type": "bytes32"
        }
      ],
      "name": "billExists",
      "outputs": [
        {
          "internalType": "bool",
          "name": "",
          "type": "bool"
        }
      ],
      "payable": false,
      "stateMutability": "view",
      "type": "function"
    },
    {
      "constant": false,
      "inputs": [
        {
          "internalType": "string",
          "name": "_amendsBill",
          "type": "string"
        },
        {
          "internalType": "string",
          "name": "_sponsor",
          "type": "string"
        },
        {
          "internalType": "uint256",
          "name": "_dateOfIntroduction",
          "type": "uint256"
        },
        {
          "internalType": "string",
          "name": "_committees",
          "type": "string"
        },
        {
          "internalType": "string",
          "name": "_latestAction",
          "type": "string"
        },
        {
          "internalType": "uint256",
          "name": "_latestActionDate",
          "type": "uint256"
        },
        {
          "internalType": "string",
          "name": "_title",
          "type": "string"
        },
        {
          "internalType": "string",
          "name": "_legislationNumber",
          "type": "string"
        }
      ],
      "name": "addBill",
      "outputs": [
        {
          "internalType": "bytes32",
          "name": "",
          "type": "bytes32"
        }
      ],
      "payable": false,
      "stateMutability": "nonpayable",
      "type": "function"
    },
    {
      "constant": false,
      "inputs": [
        {
          "internalType": "bytes32",
          "name": "_billId",
          "type": "bytes32"
        },
        {
          "internalType": "enum BillOracle.BillOutcome",
          "name": "_outcome",
          "type": "uint8"
        }
      ],
      "name": "declareOutcome",
      "outputs": [],
      "payable": false,
      "stateMutability": "nonpayable",
      "type": "function"
    },
    {
      "constant": true,
      "inputs": [],
      "name": "getPendingBills",
      "outputs": [
        {
          "internalType": "bytes32[]",
          "name": "",
          "type": "bytes32[]"
        }
      ],
      "payable": false,
      "stateMutability": "view",
      "type": "function"
    },
    {
      "constant": true,
      "inputs": [],
      "name": "getAllBills",
      "outputs": [
        {
          "internalType": "bytes32[]",
          "name": "",
          "type": "bytes32[]"
        }
      ],
      "payable": false,
      "stateMutability": "view",
      "type": "function"
    },
    {
      "constant": true,
      "inputs": [
        {
          "internalType": "bytes32",
          "name": "_billId",
          "type": "bytes32"
        }
      ],
      "name": "getBill",
      "outputs": [
        {
          "components": [
            {
              "internalType": "bytes32",
              "name": "id",
              "type": "bytes32"
            },
            {
              "internalType": "string",
              "name": "amendsBill",
              "type": "string"
            },
            {
              "internalType": "string",
              "name": "sponsor",
              "type": "string"
            },
            {
              "internalType": "uint256",
              "name": "dateOfIntroduction",
              "type": "uint256"
            },
            {
              "internalType": "string",
              "name": "committees",
              "type": "string"
            },
            {
              "internalType": "string",
              "name": "latestAction",
              "type": "string"
            },
            {
              "internalType": "uint256",
              "name": "latestActionDate",
              "type": "uint256"
            },
            {
              "internalType": "string",
              "name": "title",
              "type": "string"
            },
            {
              "internalType": "string",
              "name": "legislationNumber",
              "type": "string"
            },
            {
              "internalType": "enum BillOracle.BillOutcome",
              "name": "outcome",
              "type": "uint8"
            }
          ],
          "internalType": "struct BillOracle.Bill",
          "name": "",
          "type": "tuple"
        }
      ],
      "payable": false,
      "stateMutability": "view",
      "type": "function"
    },
    {
      "constant": true,
      "inputs": [
        {
          "internalType": "bool",
          "name": "_pending",
          "type": "bool"
        }
      ],
      "name": "getMostRecentBill",
      "outputs": [
        {
          "components": [
            {
              "internalType": "bytes32",
              "name": "id",
              "type": "bytes32"
            },
            {
              "internalType": "string",
              "name": "amendsBill",
              "type": "string"
            },
            {
              "internalType": "string",
              "name": "sponsor",
              "type": "string"
            },
            {
              "internalType": "uint256",
              "name": "dateOfIntroduction",
              "type": "uint256"
            },
            {
              "internalType": "string",
              "name": "committees",
              "type": "string"
            },
            {
              "internalType": "string",
              "name": "latestAction",
              "type": "string"
            },
            {
              "internalType": "uint256",
              "name": "latestActionDate",
              "type": "uint256"
            },
            {
              "internalType": "string",
              "name": "title",
              "type": "string"
            },
            {
              "internalType": "string",
              "name": "legislationNumber",
              "type": "string"
            },
            {
              "internalType": "enum BillOracle.BillOutcome",
              "name": "outcome",
              "type": "uint8"
            }
          ],
          "internalType": "struct BillOracle.Bill",
          "name": "",
          "type": "tuple"
        }
      ],
      "payable": false,
      "stateMutability": "view",
      "type": "function"
    },
    {
      "constant": true,
      "inputs": [],
      "name": "testConnection",
      "outputs": [
        {
          "internalType": "bool",
          "name": "",
          "type": "bool"
        }
      ],
      "payable": false,
      "stateMutability": "pure",
      "type": "function"
    },
    {
      "constant": true,
      "inputs": [],
      "name": "getAddress",
      "outputs": [
        {
          "internalType": "address",
          "name": "",
          "type": "address"
        }
      ],
      "payable": false,
      "stateMutability": "view",
      "type": "function"
    },
    {
      "constant": false,
      "inputs": [],
      "name": "addTestData",
      "outputs": [],
      "payable": false,
      "stateMutability": "nonpayable",
      "type": "function"
    }
  ],
  "bytecode": "0x6080604052336000806101000a81548173ffffffffffffffffffffffffffffffffffffffff021916908373ffffffffffffffffffffffffffffffffffffffff160217905550612375806100536000396000f3fe608060405234801561001057600080fd5b50600436106100b45760003560e01c80638da5cb5b116100715780638da5cb5b1461017d578063a212b4541461019b578063b6f0623f146101a5578063e5df3ca6146101d5578063f2fde38b14610205578063ffa378b114610221576100b4565b80633412a15c146100b9578063342c196c146100d757806338cc48311461010757806352d173a414610125578063818e1f1a146101435780638cd95c7814610161575b600080fd5b6100c1610251565b6040516100ce9190612074565b60405180910390f35b6100f160048036036100ec9190810190611bc0565b61025a565b6040516100fe91906120ca565b60405180910390f35b61010f6106f7565b60405161011c9190612037565b60405180910390f35b61012d6106ff565b60405161013a9190612052565b60405180910390f35b61014b610877565b6040516101589190612052565b60405180910390f35b61017b60048036036101769190810190611be9565b610932565b005b6101856109f4565b6040516101929190612037565b60405180910390f35b6101a3610a19565b005b6101bf60048036036101ba9190810190611b97565b611203565b6040516101cc91906120ca565b60405180910390f35b6101ef60048036036101ea9190810190611c25565b611269565b6040516101fc919061208f565b60405180910390f35b61021f600480360361021a9190810190611b6e565b6114b3565b005b61023b60048036036102369190810190611bc0565b611604565b6040516102489190612074565b60405180910390f35b60006001905090565b610262611988565b61026b82611604565b6102aa576040517f08c379a00000000000000000000000000000000000000000000000000000000081526004016102a1906120aa565b60405180910390fd5b60026102b583611652565b815481106102bf57fe5b90600052602060002090600a02016040518061014001604052908160008201548152602001600182018054600181600116156101000203166002900480601f01602080910402602001604051908101604052809291908181526020018280546001816001161561010002031660029004801561037c5780601f106103515761010080835404028352916020019161037c565b820191906000526020600020905b81548152906001019060200180831161035f57829003601f168201915b50505050508152602001600282018054600181600116156101000203166002900480601f01602080910402602001604051908101604052809291908181526020018280546001816001161561010002031660029004801561041e5780601f106103f35761010080835404028352916020019161041e565b820191906000526020600020905b81548152906001019060200180831161040157829003601f168201915b5050505050815260200160038201548152602001600482018054600181600116156101000203166002900480601f0160208091040260200160405190810160405280929190818152602001828054600181600116156101000203166002900480156104ca5780601f1061049f576101008083540402835291602001916104ca565b820191906000526020600020905b8154815290600101906020018083116104ad57829003601f168201915b50505050508152602001600582018054600181600116156101000203166002900480601f01602080910402602001604051908101604052809291908181526020018280546001816001161561010002031660029004801561056c5780601f106105415761010080835404028352916020019161056c565b820191906000526020600020905b81548152906001019060200180831161054f57829003601f168201915b5050505050815260200160068201548152602001600782018054600181600116156101000203166002900480601f0160208091040260200160405190810160405280929190818152602001828054600181600116156101000203166002900480156106185780601f106105ed57610100808354040283529160200191610618565b820191906000526020600020905b8154815290600101906020018083116105fb57829003601f168201915b50505050508152602001600882018054600181600116156101000203166002900480601f0160208091040260200160405190810160405280929190818152602001828054600181600116156101000203166002900480156106ba5780601f1061068f576101008083540402835291602001916106ba565b820191906000526020600020905b81548152906001019060200180831161069d57829003601f168201915b505050505081526020016009820160009054906101000a900460ff1660028111156106e157fe5b60028111156106ec57fe5b815250509050919050565b600030905090565b6060600080905060008090505b600280549050811015610779576000600281111561072657fe5b6002828154811061073357fe5b90600052602060002090600a020160090160009054906101000a900460ff16600281111561075d57fe5b141561076c5781806001019250505b808060010191505061070c565b506060816040519080825280602002602001820160405280156107ab5781602001602082028038833980820191505090505b509050600082111561086f576000809050600060028054905090505b600081111561086c57600060028111156107dd57fe5b600260018303815481106107ed57fe5b90600052602060002090600a020160090160009054906101000a900460ff16600281111561081757fe5b141561085e576002600182038154811061082d57fe5b90600052602060002090600a02016000015483838060010194508151811061085157fe5b6020026020010181815250505b8080600190039150506107c7565b50505b809250505090565b6060806002805490506040519080825280602002602001820160405280156108ae5781602001602082028038833980820191505090505b5090506000600280549050111561092b576000809050600060028054905090505b600081111561092857600260018203815481106108e857fe5b90600052602060002090600a02016000015483838151811061090657fe5b60200260200101818152505081806001019250508080600190039150506108cf565b50505b8091505090565b6000809054906101000a900473ffffffffffffffffffffffffffffffffffffffff1673ffffffffffffffffffffffffffffffffffffffff163373ffffffffffffffffffffffffffffffffffffffff161461098b57600080fd5b61099482611604565b61099d57600080fd5b60006109a883611652565b90506000600282815481106109b957fe5b90600052602060002090600a02019050828160090160006101000a81548160ff021916908360028111156109e957fe5b021790555050505050565b6000809054906101000a900473ffffffffffffffffffffffffffffffffffffffff1681565b6000809054906101000a900473ffffffffffffffffffffffffffffffffffffffff1673ffffffffffffffffffffffffffffffffffffffff163373ffffffffffffffffffffffffffffffffffffffff1614610a7257600080fd5b610bb2604051806020016040528060008152506040518060400160405280600e81526020017f47656f72676520436c6f6f6e6579000000000000000000000000000000000000815250610b1f6040518061010001604052806107e661ffff168152602001600160ff168152602001601460ff168152602001600060ff168152602001600060ff168152602001600060ff168152602001600060ff168152602001600060ff16815250611671565b604051806020016040528060008152506040518060200160405280600081525060006040518060400160405280601881526020017f50726f706f73616c20746f20646f20746865207468696e6700000000000000008152506040518060400160405280600a81526020017f6d32337434393330676a00000000000000000000000000000000000000000000815250611269565b50610cf3604051806020016040528060008152506040518060400160405280600881526020017f42696c6c204e7965000000000000000000000000000000000000000000000000815250610c606040518061010001604052806107e661ffff168152602001600560ff168152602001601460ff168152602001600060ff168152602001600060ff168152602001600060ff168152602001600060ff168152602001600060ff16815250611671565b604051806020016040528060008152506040518060200160405280600081525060006040518060400160405280601e81526020017f50726f706f73616c20746f20646f20746865206f74686572207468696e6700008152506040518060400160405280600981526020017f7233307432393467720000000000000000000000000000000000000000000000815250611269565b50610e17604051806020016040528060008152506040518060400160405280600b81526020017f4164616d20447269766572000000000000000000000000000000000000000000815250610da16040518061010001604052806107e661ffff168152602001600160ff168152602001601360ff168152602001600060ff168152602001600060ff168152602001600060ff168152602001600060ff168152602001600060ff16815250611671565b6040518060200160405280600081525060405180602001604052806000815250600060405180606001604052806024815260200161230f602491396040518060400160405280600b81526020017f693233307439346a677265000000000000000000000000000000000000000000815250611269565b50610f7e6040518060400160405280600b81526020017f306d32337434393330676a0000000000000000000000000000000000000000008152506040518060400160405280600f81526020017f5365616e204c6976696e6773746f6e0000000000000000000000000000000000815250610eeb6040518061010001604052806107e661ffff168152602001600560ff168152602001600a60ff168152602001600060ff168152602001600060ff168152602001600060ff168152602001600060ff168152602001600060ff16815250611671565b604051806020016040528060008152506040518060200160405280600081525060006040518060400160405280601f81526020017f50726f706f73616c20746f20726f6c6c206261636b20746865207468696e67008152506040518060400160405280600a81526020017f6d32337434393330676a00000000000000000000000000000000000000000000815250611269565b506110bf604051806020016040528060008152506040518060400160405280600d81526020017f53616e6a6974204269737761730000000000000000000000000000000000000081525061102c6040518061010001604052806107e561ffff168152602001600160ff168152602001601460ff168152602001600060ff168152602001600060ff168152602001600060ff168152602001600060ff168152602001600060ff16815250611671565b604051806020016040528060008152506040518060200160405280600081525060006040518060400160405280601681526020017f50726f706f73616c20746f206d616b65206d6f6e6579000000000000000000008152506040518060400160405280600881526020017f3432746739306a67000000000000000000000000000000000000000000000000815250611269565b50611200604051806020016040528060008152506040518060400160405280600b81526020017f4a6f686e204269636b657400000000000000000000000000000000000000000081525061116d6040518061010001604052806107e561ffff168152602001600260ff168152602001601460ff168152602001600060ff168152602001600060ff168152602001600060ff168152602001600060ff168152602001600060ff16815250611671565b604051806020016040528060008152506040518060200160405280600081525060006040518060400160405280601481526020017f50726f706f73616c20746f206275696c642069740000000000000000000000008152506040518060400160405280600a81526020017f676a656f74773539393000000000000000000000000000000000000000000000815250611269565b50565b61120b611988565b60008060001b90506060831561122a576112236106ff565b9050611235565b611232610877565b90505b600081511115611257578060008151811061124c57fe5b602002602001015191505b6112608261025a565b92505050919050565b60008060009054906101000a900473ffffffffffffffffffffffffffffffffffffffff1673ffffffffffffffffffffffffffffffffffffffff163373ffffffffffffffffffffffffffffffffffffffff16146112c457600080fd5b6000888885856040516020016112dd9493929190611ff5565b6040516020818303038152906040528051906020012090506112fe81611604565b1561130857600080fd5b6000600160026040518061014001604052808581526020018e81526020018d81526020018c81526020018b81526020018a81526020018981526020018881526020018781526020016000600281111561135d57fe5b8152509080600181540180825580915050906001820390600052602060002090600a0201600090919290919091506000820151816000015560208201518160010190805190602001906113b19291906119e9565b5060408201518160020190805190602001906113ce9291906119e9565b506060820151816003015560808201518160040190805190602001906113f59291906119e9565b5060a08201518160050190805190602001906114129291906119e9565b5060c0820151816006015560e08201518160070190805190602001906114399291906119e9565b506101008201518160080190805190602001906114579291906119e9565b506101208201518160090160006101000a81548160ff0219169083600281111561147d57fe5b02179055505050039050600181016001600084815260200190815260200160002081905550819250505098975050505050505050565b6000809054906101000a900473ffffffffffffffffffffffffffffffffffffffff1673ffffffffffffffffffffffffffffffffffffffff163373ffffffffffffffffffffffffffffffffffffffff161461150c57600080fd5b600073ffffffffffffffffffffffffffffffffffffffff168173ffffffffffffffffffffffffffffffffffffffff16141561154657600080fd5b8073ffffffffffffffffffffffffffffffffffffffff166000809054906101000a900473ffffffffffffffffffffffffffffffffffffffff1673ffffffffffffffffffffffffffffffffffffffff167f8be0079c531659141344cd1fd0a4f28419497f9722a3daafe3b4186f6b6457e060405160405180910390a3806000806101000a81548173ffffffffffffffffffffffffffffffffffffffff021916908373ffffffffffffffffffffffffffffffffffffffff16021790555050565b600080600280549050141561161c576000905061164d565b600060016000848152602001908152602001600020549050600081111561164757600191505061164d565b60009150505b919050565b6000600180600084815260200190815260200160002054039050919050565b6000806107b290505b826000015161ffff168161ffff1610156116c15761169781611913565b156116aa576301e28500820191506116b4565b6301e13380820191505b808060010191505061167a565b6116c9611a69565b601f816000600c81106116d857fe5b602002019060ff16908160ff16815250506116f68460000151611913565b1561172057601d816001600c811061170a57fe5b602002019060ff16908160ff1681525050611741565b601c816001600c811061172f57fe5b602002019060ff16908160ff16815250505b601f816002600c811061175057fe5b602002019060ff16908160ff1681525050601e816003600c811061177057fe5b602002019060ff16908160ff1681525050601f816004600c811061179057fe5b602002019060ff16908160ff1681525050601e816005600c81106117b057fe5b602002019060ff16908160ff1681525050601f816006600c81106117d057fe5b602002019060ff16908160ff1681525050601f816007600c81106117f057fe5b602002019060ff16908160ff1681525050601e816008600c811061181057fe5b602002019060ff16908160ff1681525050601f816009600c811061183057fe5b602002019060ff16908160ff1681525050601e81600a600c811061185057fe5b602002019060ff16908160ff1681525050601f81600b600c811061187057fe5b602002019060ff16908160ff1681525050600191505b836020015160ff168261ffff1610156118ca57806001830361ffff16600c81106118ac57fe5b602002015160ff166201518002830192508180600101925050611886565b600184604001510360ff16620151800283019250836060015160ff16610e100283019250836080015160ff16603c02830192508360a0015160ff16830192508292505050919050565b60008060048361ffff168161192457fe5b0661ffff16146119375760009050611983565b600060648361ffff168161194757fe5b0661ffff161461195a5760019050611983565b60006101908361ffff168161196b57fe5b0661ffff161461197e5760009050611983565b600190505b919050565b604051806101400160405280600080191681526020016060815260200160608152602001600081526020016060815260200160608152602001600081526020016060815260200160608152602001600060028111156119e357fe5b81525090565b828054600181600116156101000203166002900490600052602060002090601f016020900481019282601f10611a2a57805160ff1916838001178555611a58565b82800160010185558215611a58579182015b82811115611a57578251825591602001919060010190611a3c565b5b509050611a659190611a8c565b5090565b604051806101800160405280600c90602082028038833980820191505090505090565b611aae91905b80821115611aaa576000816000905550600101611a92565b5090565b90565b600081359050611ac0816122a2565b92915050565b600081359050611ad5816122b9565b92915050565b600081359050611aea816122d0565b92915050565b600081359050611aff816122e7565b92915050565b600082601f830112611b1657600080fd5b8135611b29611b2482612119565b6120ec565b91508082526020830160208301858383011115611b4557600080fd5b611b50838284612238565b50505092915050565b600081359050611b68816122f7565b92915050565b600060208284031215611b8057600080fd5b6000611b8e84828501611ab1565b91505092915050565b600060208284031215611ba957600080fd5b6000611bb784828501611ac6565b91505092915050565b600060208284031215611bd257600080fd5b6000611be084828501611adb565b91505092915050565b60008060408385031215611bfc57600080fd5b6000611c0a85828601611adb565b9250506020611c1b85828601611af0565b9150509250929050565b600080600080600080600080610100898b031215611c4257600080fd5b600089013567ffffffffffffffff811115611c5c57600080fd5b611c688b828c01611b05565b985050602089013567ffffffffffffffff811115611c8557600080fd5b611c918b828c01611b05565b9750506040611ca28b828c01611b59565b965050606089013567ffffffffffffffff811115611cbf57600080fd5b611ccb8b828c01611b05565b955050608089013567ffffffffffffffff811115611ce857600080fd5b611cf48b828c01611b05565b94505060a0611d058b828c01611b59565b93505060c089013567ffffffffffffffff811115611d2257600080fd5b611d2e8b828c01611b05565b92505060e089013567ffffffffffffffff811115611d4b57600080fd5b611d578b828c01611b05565b9150509295985092959890939650565b6000611d738383611dfb565b60208301905092915050565b611d88816121c1565b82525050565b6000611d9982612155565b611da38185612183565b9350611dae83612145565b8060005b83811015611ddf578151611dc68882611d67565b9750611dd183612176565b925050600181019050611db2565b5085935050505092915050565b611df5816121d3565b82525050565b611e04816121df565b82525050565b611e13816121df565b82525050565b611e2281612226565b82525050565b6000611e338261216b565b611e3d81856121b6565b9350611e4d818560208601612247565b80840191505092915050565b6000611e6482612160565b611e6e8185612194565b9350611e7e818560208601612247565b611e8781612284565b840191505092915050565b6000611e9f6013836121a5565b91507f42696c6c20646f6573206e6f74206578697374000000000000000000000000006000830152602082019050919050565b600061014083016000830151611eeb6000860182611dfb565b5060208301518482036020860152611f038282611e59565b91505060408301518482036040860152611f1d8282611e59565b9150506060830151611f326060860182611fcf565b5060808301518482036080860152611f4a8282611e59565b91505060a083015184820360a0860152611f648282611e59565b91505060c0830151611f7960c0860182611fcf565b5060e083015184820360e0860152611f918282611e59565b915050610100830151848203610100860152611fad8282611e59565b915050610120830151611fc4610120860182611e19565b508091505092915050565b611fd88161221c565b82525050565b611fef611fea8261221c565b61227a565b82525050565b60006120018287611e28565b915061200d8286611fde565b60208201915061201d8285611e28565b91506120298284611e28565b915081905095945050505050565b600060208201905061204c6000830184611d7f565b92915050565b6000602082019050818103600083015261206c8184611d8e565b905092915050565b60006020820190506120896000830184611dec565b92915050565b60006020820190506120a46000830184611e0a565b92915050565b600060208201905081810360008301526120c381611e92565b9050919050565b600060208201905081810360008301526120e48184611ed2565b905092915050565b6000604051905081810181811067ffffffffffffffff8211171561210f57600080fd5b8060405250919050565b600067ffffffffffffffff82111561213057600080fd5b601f19601f8301169050602081019050919050565b6000819050602082019050919050565b600081519050919050565b600081519050919050565b600081519050919050565b6000602082019050919050565b600082825260208201905092915050565b600082825260208201905092915050565b600082825260208201905092915050565b600081905092915050565b60006121cc826121fc565b9050919050565b60008115159050919050565b6000819050919050565b60008190506121f782612295565b919050565b600073ffffffffffffffffffffffffffffffffffffffff82169050919050565b6000819050919050565b6000612231826121e9565b9050919050565b82818337600083830152505050565b60005b8381101561226557808201518184015260208101905061224a565b83811115612274576000848401525b50505050565b6000819050919050565b6000601f19601f8301169050919050565b6003811061229f57fe5b50565b6122ab816121c1565b81146122b657600080fd5b50565b6122c2816121d3565b81146122cd57600080fd5b50565b6122d9816121df565b81146122e457600080fd5b50565b600381106122f457600080fd5b50565b6123008161221c565b811461230b57600080fd5b5056fe50726f706f73616c20746f20646f20746865206f74686572206f74686572207468696e67a365627a7a72315820f59d87c1a2ff36496c48a1fc1b51771e9476ed96a705b53b9dccf5aa9ce96b4d6c6578706572696d656e74616cf564736f6c63430005100040",
  "source": "pragma solidity >=0.4.22 <0.9.0;\npragma experimental ABIEncoderV2;\n\nimport \"./Ownable.sol\";\nimport \"./DateLib.sol\";\n\n/*\nTEST:\n- testConnection\n- getAddress\n- billExists(0)\n- billExists(1)\n- declareOutcome(0, 2)\n- getPendingBills()\n- getAllBills()\n- getBill(0)\n- getMostRecentBill(true)\n- addTestData()\n- billExists(0)\n- billExists(1)\n- declareOutcome(0, 2)\n- getPendingBills()\n- getAllBills()\n- getBill(0)\n- getMostRecentBill(true)\n- getMostRecentBill(false)\n- getBill(0x...)\n- declareOutcome(0x..., 2)\n- getMostRecentBill(true)\n- getMostRecentBill(false)\n- getBill(0x...)\n- add duplicate bill\n*/\n\n/// @title BillOracle\n/// @author Oliver\n/// @notice Collects and provides information on bills and their status\ncontract BillOracle is Ownable {\n    mapping(bytes32 => uint) billIdToIndex;\n    Bill[] bills;\n\n    using DateLib for DateLib.DateTime;\n\n    // defines a bill along with its outcome\n    struct Bill {\n        bytes32 id;\n        string amendsBill;\n        string sponsor;\n        uint dateOfIntroduction;\n        string committees;\n        string latestAction;\n        uint latestActionDate;\n        string title;\n        string legislationNumber;\n        BillOutcome outcome;\n    }\n\n    enum BillOutcome {\n        Pending,\n        BecameLaw,\n        TimedOut\n    }\n\n    /// @notice returns the array index of the bill with the given id\n    /// @dev if the bill id is invalid, then the return value will be incorrect and may cause error; you must call billExists(_billId) first!\n    /// @param _billId the bill id to get\n    /// @return an array index\n    function _getBillIndex(bytes32 _billId) private view returns (uint) {\n        return billIdToIndex[_billId]-1;\n    }\n\n\n    /// @notice determines whether a bill exists with the given id\n    /// @param _billId the bill id to test\n    /// @return true if bill exists and id is valid\n    function billExists(bytes32 _billId) public view returns (bool) {\n        if (bills.length == 0)\n            return false;\n        uint index = billIdToIndex[_billId];\n        if (index > 0) {\n          return true;\n        } else {\n          return false;\n        }\n    }\n\n    /// @notice puts a new bill into the blockchain\n    /// @return the unique id of the newly created bill\n    function addBill(\n        string memory _amendsBill,\n        string memory _sponsor,\n        uint _dateOfIntroduction,\n        string memory _committees,\n        string memory _latestAction,\n        uint _latestActionDate,\n        string memory _title,\n        string memory _legislationNumber) onlyOwner public returns (bytes32) {\n\n        // hash the crucial info to get a unique id\n        bytes32 id = keccak256(abi.encodePacked(_sponsor, _dateOfIntroduction, _title, _legislationNumber));\n\n        // require that the bill be unique (not already added)\n        require(!billExists(id));\n\n        // add the bill\n        uint newIndex = bills.push(Bill(id, _amendsBill, _sponsor, _dateOfIntroduction, _committees, _latestAction, _latestActionDate, _title, _legislationNumber, BillOutcome.Pending)) - 1;\n        billIdToIndex[id] = newIndex + 1;\n\n        // return the unique id of the new bill\n        return id;\n    }\n\n    /// @notice sets the outcome of a predefined bill, permanently on the blockchain\n    /// @param _billId unique id of the bill to modify\n    /// @param _outcome outcome of the bill\n    function declareOutcome(bytes32 _billId, BillOutcome _outcome) onlyOwner external {\n\n        // require that it exists\n        require(billExists(_billId));\n\n        // get the bill\n        uint index = _getBillIndex(_billId);\n        Bill storage theBill = bills[index];\n\n        // set the outcome\n        theBill.outcome = _outcome;\n    }\n\n    /// @notice gets the unique ids of all pending bills, in reverse chronological order\n    /// @return an array of unique bill ids\n    function getPendingBills() public view returns (bytes32[] memory) {\n        uint count = 0;\n\n        // get count of pending bills\n        for (uint i = 0; i < bills.length; i++) {\n            if (bills[i].outcome == BillOutcome.Pending)\n                count++;\n        }\n\n        //collect up all the pending bills\n        bytes32[] memory output = new bytes32[](count);\n\n        if (count > 0) {\n            uint index = 0;\n            for (uint n = bills.length; n > 0; n--) {\n                if (bills[n-1].outcome == BillOutcome.Pending)\n                    output[index++] = bills[n-1].id;\n            }\n        }\n\n        return output;\n    }\n\n    /// @notice gets the unique ids of bills, pending and decided, in reverse chronological order\n    /// @return an array of unique bill ids\n    function getAllBills() public view returns (bytes32[] memory) {\n        bytes32[] memory output = new bytes32[](bills.length);\n\n        //get all ids\n        if (bills.length > 0) {\n            uint index = 0;\n            for (uint n = bills.length; n > 0; n--) {\n                output[index] = bills[n-1].id;\n                index++;\n            }\n        }\n\n        return output;\n    }\n\n    /// @notice gets the specified bill\n    /// @param _billId the unique id of the desired bill\n    function getBill(bytes32 _billId) public view returns (Bill memory) {\n        require(billExists(_billId), \"Bill does not exist\");\n        return bills[_getBillIndex(_billId)];\n    }\n\n    /// @notice gets the most recent bill or pending bill\n    /// @param _pending if true, will return only the most recent pending bill; otherwise, returns the most recent bill either pending or completed\n    function getMostRecentBill(bool _pending) public view returns (Bill memory) {\n\n        bytes32 billId = 0;\n        bytes32[] memory ids;\n\n        if (_pending) {\n            ids = getPendingBills();\n        } else {\n            ids = getAllBills();\n        }\n        if (ids.length > 0) {\n            billId = ids[0];\n        }\n\n        //by default, return a null bill\n        return getBill(billId);\n    }\n\n    /// @notice can be used by a client contract to ensure that they've connected to this contract interface successfully\n    /// @return true, unconditionally\n    function testConnection() public pure returns (bool) {\n        return true;\n    }\n\n    /// @notice gets the address of this contract\n    /// @return address\n    function getAddress() public view returns (address) {\n        return address(this);\n    }\n\n    /// @notice for testing\n    function addTestData() external onlyOwner {\n        addBill(\"\", \"George Clooney\", DateLib.DateTime(2022, 1, 20, 0, 0, 0, 0, 0).toUnixTimestamp(), \"\", \"\", 0, \"Proposal to do the thing\", \"m23t4930gj\");\n        addBill(\"\", \"Bill Nye\", DateLib.DateTime(2022, 5, 20, 0, 0, 0, 0, 0).toUnixTimestamp(), \"\", \"\", 0, \"Proposal to do the other thing\", \"r30t294gr\");\n        addBill(\"\", \"Adam Driver\", DateLib.DateTime(2022, 1, 19, 0, 0, 0, 0, 0).toUnixTimestamp(), \"\", \"\", 0, \"Proposal to do the other other thing\", \"i230t94jgre\");\n        addBill(\"0m23t4930gj\", \"Sean Livingston\", DateLib.DateTime(2022, 5, 10, 0, 0, 0, 0, 0).toUnixTimestamp(), \"\", \"\", 0, \"Proposal to roll back the thing\", \"m23t4930gj\");\n        addBill(\"\", \"Sanjit Biswas\", DateLib.DateTime(2021, 1, 20, 0, 0, 0, 0, 0).toUnixTimestamp(), \"\", \"\", 0, \"Proposal to make money\", \"42tg90jg\");\n        addBill(\"\", \"John Bicket\", DateLib.DateTime(2021, 2, 20, 0, 0, 0, 0, 0).toUnixTimestamp(), \"\", \"\", 0, \"Proposal to build it\", \"gjeotw5990\");\n    }\n}\n",
  "sourcePath": "/Users/oliversong/Development/open-lobby/oracle/contracts/BillOracle.sol",
  "compiler": {
    "name": "solc",
    "version": "0.5.16+commit.9c3226ce.Emscripten.clang"
  },
  "schemaVersion": "3.4.7",
  "updatedAt": "2022-06-14T00:38:09.849Z",
  "devdoc": {
    "author": "Oliver",
    "methods": {
      "addBill(string,string,uint256,string,string,uint256,string,string)": {
        "return": "the unique id of the newly created bill"
      },
      "billExists(bytes32)": {
        "params": {
          "_billId": "the bill id to test"
        },
        "return": "true if bill exists and id is valid"
      },
      "declareOutcome(bytes32,uint8)": {
        "params": {
          "_billId": "unique id of the bill to modify",
          "_outcome": "outcome of the bill"
        }
      },
      "getAddress()": {
        "return": "address"
      },
      "getAllBills()": {
        "return": "an array of unique bill ids"
      },
      "getBill(bytes32)": {
        "params": {
          "_billId": "the unique id of the desired bill"
        }
      },
      "getMostRecentBill(bool)": {
        "params": {
          "_pending": "if true, will return only the most recent pending bill; otherwise, returns the most recent bill either pending or completed"
        }
      },
      "getPendingBills()": {
        "return": "an array of unique bill ids"
      },
      "testConnection()": {
        "return": "true, unconditionally"
      },
      "transferOwnership(address)": {
        "details": "Allows the current owner to transfer control of the contract to a newOwner.",
        "params": {
          "newOwner": "The address to transfer ownership to."
        }
      }
    },
    "title": "BillOracle"
  },
  "userdoc": {
    "methods": {
      "addBill(string,string,uint256,string,string,uint256,string,string)": {
        "notice": "puts a new bill into the blockchain"
      },
      "addTestData()": {
        "notice": "for testing"
      },
      "billExists(bytes32)": {
        "notice": "determines whether a bill exists with the given id"
      },
      "declareOutcome(bytes32,uint8)": {
        "notice": "sets the outcome of a predefined bill, permanently on the blockchain"
      },
      "getAddress()": {
        "notice": "gets the address of this contract"
      },
      "getAllBills()": {
        "notice": "gets the unique ids of bills, pending and decided, in reverse chronological order"
      },
      "getBill(bytes32)": {
        "notice": "gets the specified bill"
      },
      "getMostRecentBill(bool)": {
        "notice": "gets the most recent bill or pending bill"
      },
      "getPendingBills()": {
        "notice": "gets the unique ids of all pending bills, in reverse chronological order"
      },
      "testConnection()": {
        "notice": "can be used by a client contract to ensure that they've connected to this contract interface successfully"
      }
    },
    "notice": "Collects and provides information on bills and their status"
  }
}