{
  "contractName": "BillOracle",
  "abi": [
    {
      "anonymous": false,
      "inputs": [
        {
          "indexed": true,
          "internalType": "address",
          "name": "previousOwner",
          "type": "address"
        },
        {
          "indexed": true,
          "internalType": "address",
          "name": "newOwner",
          "type": "address"
        }
      ],
      "name": "OwnershipTransferred",
      "type": "event"
    },
    {
      "constant": true,
      "inputs": [],
      "name": "owner",
      "outputs": [
        {
          "internalType": "address",
          "name": "",
          "type": "address"
        }
      ],
      "payable": false,
      "stateMutability": "view",
      "type": "function"
    },
    {
      "constant": false,
      "inputs": [
        {
          "internalType": "address",
          "name": "newOwner",
          "type": "address"
        }
      ],
      "name": "transferOwnership",
      "outputs": [],
      "payable": false,
      "stateMutability": "nonpayable",
      "type": "function"
    },
    {
      "constant": true,
      "inputs": [
        {
          "internalType": "bytes32",
          "name": "_billId",
          "type": "bytes32"
        }
      ],
      "name": "billExists",
      "outputs": [
        {
          "internalType": "bool",
          "name": "",
          "type": "bool"
        }
      ],
      "payable": false,
      "stateMutability": "view",
      "type": "function"
    },
    {
      "constant": true,
      "inputs": [
        {
          "internalType": "bytes32",
          "name": "_billId",
          "type": "bytes32"
        }
      ],
      "name": "billIsPending",
      "outputs": [
        {
          "internalType": "bool",
          "name": "",
          "type": "bool"
        }
      ],
      "payable": false,
      "stateMutability": "view",
      "type": "function"
    },
    {
      "constant": false,
      "inputs": [
        {
          "internalType": "string",
          "name": "_amendsBill",
          "type": "string"
        },
        {
          "internalType": "string",
          "name": "_sponsor",
          "type": "string"
        },
        {
          "internalType": "address",
          "name": "_sponsorAddress",
          "type": "address"
        },
        {
          "internalType": "uint256",
          "name": "_dateOfIntroduction",
          "type": "uint256"
        },
        {
          "internalType": "string",
          "name": "_committees",
          "type": "string"
        },
        {
          "internalType": "string",
          "name": "_latestAction",
          "type": "string"
        },
        {
          "internalType": "uint256",
          "name": "_latestActionDate",
          "type": "uint256"
        },
        {
          "internalType": "string",
          "name": "_title",
          "type": "string"
        },
        {
          "internalType": "string",
          "name": "_legislationNumber",
          "type": "string"
        }
      ],
      "name": "addBill",
      "outputs": [
        {
          "internalType": "bytes32",
          "name": "",
          "type": "bytes32"
        }
      ],
      "payable": false,
      "stateMutability": "nonpayable",
      "type": "function"
    },
    {
      "constant": false,
      "inputs": [
        {
          "internalType": "bytes32",
          "name": "_billId",
          "type": "bytes32"
        },
        {
          "internalType": "enum BillOracle.BillOutcome",
          "name": "_outcome",
          "type": "uint8"
        }
      ],
      "name": "declareOutcome",
      "outputs": [],
      "payable": false,
      "stateMutability": "nonpayable",
      "type": "function"
    },
    {
      "constant": true,
      "inputs": [],
      "name": "getPendingBills",
      "outputs": [
        {
          "internalType": "bytes32[]",
          "name": "",
          "type": "bytes32[]"
        }
      ],
      "payable": false,
      "stateMutability": "view",
      "type": "function"
    },
    {
      "constant": true,
      "inputs": [],
      "name": "getAllBills",
      "outputs": [
        {
          "internalType": "bytes32[]",
          "name": "",
          "type": "bytes32[]"
        }
      ],
      "payable": false,
      "stateMutability": "view",
      "type": "function"
    },
    {
      "constant": true,
      "inputs": [
        {
          "internalType": "bytes32",
          "name": "_billId",
          "type": "bytes32"
        }
      ],
      "name": "getBill",
      "outputs": [
        {
          "components": [
            {
              "internalType": "bytes32",
              "name": "id",
              "type": "bytes32"
            },
            {
              "internalType": "string",
              "name": "amendsBill",
              "type": "string"
            },
            {
              "internalType": "string",
              "name": "sponsor",
              "type": "string"
            },
            {
              "internalType": "address",
              "name": "sponsorAddress",
              "type": "address"
            },
            {
              "internalType": "uint256",
              "name": "dateOfIntroduction",
              "type": "uint256"
            },
            {
              "internalType": "string",
              "name": "committees",
              "type": "string"
            },
            {
              "internalType": "string",
              "name": "latestAction",
              "type": "string"
            },
            {
              "internalType": "uint256",
              "name": "latestActionDate",
              "type": "uint256"
            },
            {
              "internalType": "string",
              "name": "title",
              "type": "string"
            },
            {
              "internalType": "string",
              "name": "legislationNumber",
              "type": "string"
            },
            {
              "internalType": "enum BillOracle.BillOutcome",
              "name": "outcome",
              "type": "uint8"
            }
          ],
          "internalType": "struct BillOracle.Bill",
          "name": "",
          "type": "tuple"
        }
      ],
      "payable": false,
      "stateMutability": "view",
      "type": "function"
    },
    {
      "constant": true,
      "inputs": [
        {
          "internalType": "bool",
          "name": "_pending",
          "type": "bool"
        }
      ],
      "name": "getMostRecentBill",
      "outputs": [
        {
          "components": [
            {
              "internalType": "bytes32",
              "name": "id",
              "type": "bytes32"
            },
            {
              "internalType": "string",
              "name": "amendsBill",
              "type": "string"
            },
            {
              "internalType": "string",
              "name": "sponsor",
              "type": "string"
            },
            {
              "internalType": "address",
              "name": "sponsorAddress",
              "type": "address"
            },
            {
              "internalType": "uint256",
              "name": "dateOfIntroduction",
              "type": "uint256"
            },
            {
              "internalType": "string",
              "name": "committees",
              "type": "string"
            },
            {
              "internalType": "string",
              "name": "latestAction",
              "type": "string"
            },
            {
              "internalType": "uint256",
              "name": "latestActionDate",
              "type": "uint256"
            },
            {
              "internalType": "string",
              "name": "title",
              "type": "string"
            },
            {
              "internalType": "string",
              "name": "legislationNumber",
              "type": "string"
            },
            {
              "internalType": "enum BillOracle.BillOutcome",
              "name": "outcome",
              "type": "uint8"
            }
          ],
          "internalType": "struct BillOracle.Bill",
          "name": "",
          "type": "tuple"
        }
      ],
      "payable": false,
      "stateMutability": "view",
      "type": "function"
    },
    {
      "constant": true,
      "inputs": [],
      "name": "testConnection",
      "outputs": [
        {
          "internalType": "bool",
          "name": "",
          "type": "bool"
        }
      ],
      "payable": false,
      "stateMutability": "pure",
      "type": "function"
    },
    {
      "constant": true,
      "inputs": [],
      "name": "getAddress",
      "outputs": [
        {
          "internalType": "address",
          "name": "",
          "type": "address"
        }
      ],
      "payable": false,
      "stateMutability": "view",
      "type": "function"
    },
    {
      "constant": false,
      "inputs": [],
      "name": "addTestData",
      "outputs": [],
      "payable": false,
      "stateMutability": "nonpayable",
      "type": "function"
    }
  ],
  "bytecode": "0x6080604052336000806101000a81548173ffffffffffffffffffffffffffffffffffffffff021916908373ffffffffffffffffffffffffffffffffffffffff160217905550612a3b806100536000396000f3fe608060405234801561001057600080fd5b50600436106100cf5760003560e01c80638cd95c781161008c578063a212b45411610066578063a212b45414610216578063b6f0623f14610220578063f2fde38b14610250578063ffa378b11461026c576100cf565b80638cd95c78146101ac5780638da5cb5b146101c8578063923fc010146101e6576100cf565b80633412a15c146100d4578063342c196c146100f257806338cc48311461012257806352d173a4146101405780636c69a68c1461015e578063818e1f1a1461018e575b600080fd5b6100dc61029c565b6040516100e9919061273a565b60405180910390f35b61010c60048036036101079190810190612233565b6102a5565b6040516101199190612790565b60405180910390f35b61012a610798565b60405161013791906126fd565b60405180910390f35b6101486107a0565b6040516101559190612718565b60405180910390f35b61017860048036036101739190810190612233565b610918565b604051610185919061273a565b60405180910390f35b610196610e33565b6040516101a39190612718565b60405180910390f35b6101c660048036036101c1919081019061225c565b610eee565b005b6101d0610fb0565b6040516101dd91906126fd565b60405180910390f35b61020060048036036101fb9190810190612298565b610fd5565b60405161020d9190612755565b60405180910390f35b61021e611284565b005b61023a6004803603610235919081019061220a565b611aa3565b6040516102479190612790565b60405180910390f35b61026a600480360361026591908101906121e1565b611b09565b005b61028660048036036102819190810190612233565b611c5a565b604051610293919061273a565b60405180910390f35b60006001905090565b6102ad611fde565b6102b682611c5a565b6102f5576040517f08c379a00000000000000000000000000000000000000000000000000000000081526004016102ec90612770565b60405180910390fd5b600261030083611ca8565b8154811061030a57fe5b90600052602060002090600b02016040518061016001604052908160008201548152602001600182018054600181600116156101000203166002900480601f0160208091040260200160405190810160405280929190818152602001828054600181600116156101000203166002900480156103c75780601f1061039c576101008083540402835291602001916103c7565b820191906000526020600020905b8154815290600101906020018083116103aa57829003601f168201915b50505050508152602001600282018054600181600116156101000203166002900480601f0160208091040260200160405190810160405280929190818152602001828054600181600116156101000203166002900480156104695780601f1061043e57610100808354040283529160200191610469565b820191906000526020600020905b81548152906001019060200180831161044c57829003601f168201915b505050505081526020016003820160009054906101000a900473ffffffffffffffffffffffffffffffffffffffff1673ffffffffffffffffffffffffffffffffffffffff1673ffffffffffffffffffffffffffffffffffffffff16815260200160048201548152602001600582018054600181600116156101000203166002900480601f01602080910402602001604051908101604052809291908181526020018280546001816001161561010002031660029004801561056b5780601f106105405761010080835404028352916020019161056b565b820191906000526020600020905b81548152906001019060200180831161054e57829003601f168201915b50505050508152602001600682018054600181600116156101000203166002900480601f01602080910402602001604051908101604052809291908181526020018280546001816001161561010002031660029004801561060d5780601f106105e25761010080835404028352916020019161060d565b820191906000526020600020905b8154815290600101906020018083116105f057829003601f168201915b5050505050815260200160078201548152602001600882018054600181600116156101000203166002900480601f0160208091040260200160405190810160405280929190818152602001828054600181600116156101000203166002900480156106b95780601f1061068e576101008083540402835291602001916106b9565b820191906000526020600020905b81548152906001019060200180831161069c57829003601f168201915b50505050508152602001600982018054600181600116156101000203166002900480601f01602080910402602001604051908101604052809291908181526020018280546001816001161561010002031660029004801561075b5780601f106107305761010080835404028352916020019161075b565b820191906000526020600020905b81548152906001019060200180831161073e57829003601f168201915b50505050508152602001600a820160009054906101000a900460ff16600281111561078257fe5b600281111561078d57fe5b815250509050919050565b600030905090565b6060600080905060008090505b60028054905081101561081a57600060028111156107c757fe5b600282815481106107d457fe5b90600052602060002090600b0201600a0160009054906101000a900460ff1660028111156107fe57fe5b141561080d5781806001019250505b80806001019150506107ad565b5060608160405190808252806020026020018201604052801561084c5781602001602082028038833980820191505090505b5090506000821115610910576000809050600060028054905090505b600081111561090d576000600281111561087e57fe5b6002600183038154811061088e57fe5b90600052602060002090600b0201600a0160009054906101000a900460ff1660028111156108b857fe5b14156108ff57600260018203815481106108ce57fe5b90600052602060002090600b0201600001548383806001019450815181106108f257fe5b6020026020010181815250505b808060019003915050610868565b50505b809250505090565b60008060028054905014156109305760009050610e2e565b6000600160008481526020019081526020016000205490506000811161095a576000915050610e2e565b610962611fde565b6002828154811061096f57fe5b90600052602060002090600b02016040518061016001604052908160008201548152602001600182018054600181600116156101000203166002900480601f016020809104026020016040519081016040528092919081815260200182805460018160011615610100020316600290048015610a2c5780601f10610a0157610100808354040283529160200191610a2c565b820191906000526020600020905b815481529060010190602001808311610a0f57829003601f168201915b50505050508152602001600282018054600181600116156101000203166002900480601f016020809104026020016040519081016040528092919081815260200182805460018160011615610100020316600290048015610ace5780601f10610aa357610100808354040283529160200191610ace565b820191906000526020600020905b815481529060010190602001808311610ab157829003601f168201915b505050505081526020016003820160009054906101000a900473ffffffffffffffffffffffffffffffffffffffff1673ffffffffffffffffffffffffffffffffffffffff1673ffffffffffffffffffffffffffffffffffffffff16815260200160048201548152602001600582018054600181600116156101000203166002900480601f016020809104026020016040519081016040528092919081815260200182805460018160011615610100020316600290048015610bd05780601f10610ba557610100808354040283529160200191610bd0565b820191906000526020600020905b815481529060010190602001808311610bb357829003601f168201915b50505050508152602001600682018054600181600116156101000203166002900480601f016020809104026020016040519081016040528092919081815260200182805460018160011615610100020316600290048015610c725780601f10610c4757610100808354040283529160200191610c72565b820191906000526020600020905b815481529060010190602001808311610c5557829003601f168201915b5050505050815260200160078201548152602001600882018054600181600116156101000203166002900480601f016020809104026020016040519081016040528092919081815260200182805460018160011615610100020316600290048015610d1e5780601f10610cf357610100808354040283529160200191610d1e565b820191906000526020600020905b815481529060010190602001808311610d0157829003601f168201915b50505050508152602001600982018054600181600116156101000203166002900480601f016020809104026020016040519081016040528092919081815260200182805460018160011615610100020316600290048015610dc05780601f10610d9557610100808354040283529160200191610dc0565b820191906000526020600020905b815481529060010190602001808311610da357829003601f168201915b50505050508152602001600a820160009054906101000a900460ff166002811115610de757fe5b6002811115610df257fe5b81525050905060006002811115610e0557fe5b8161014001516002811115610e1657fe5b1415610e2757600192505050610e2e565b6000925050505b919050565b606080600280549050604051908082528060200260200182016040528015610e6a5781602001602082028038833980820191505090505b50905060006002805490501115610ee7576000809050600060028054905090505b6000811115610ee45760026001820381548110610ea457fe5b90600052602060002090600b020160000154838381518110610ec257fe5b6020026020010181815250508180600101925050808060019003915050610e8b565b50505b8091505090565b6000809054906101000a900473ffffffffffffffffffffffffffffffffffffffff1673ffffffffffffffffffffffffffffffffffffffff163373ffffffffffffffffffffffffffffffffffffffff1614610f4757600080fd5b610f5082611c5a565b610f5957600080fd5b6000610f6483611ca8565b9050600060028281548110610f7557fe5b90600052602060002090600b020190508281600a0160006101000a81548160ff02191690836002811115610fa557fe5b021790555050505050565b6000809054906101000a900473ffffffffffffffffffffffffffffffffffffffff1681565b60008060009054906101000a900473ffffffffffffffffffffffffffffffffffffffff1673ffffffffffffffffffffffffffffffffffffffff163373ffffffffffffffffffffffffffffffffffffffff161461103057600080fd5b60008988858560405160200161104994939291906126a0565b60405160208183030381529060405280519060200120905061106a81611c5a565b1561107457600080fd5b6000600160026040518061016001604052808581526020018f81526020018e81526020018d73ffffffffffffffffffffffffffffffffffffffff1681526020018c81526020018b81526020018a8152602001898152602001888152602001878152602001600060028111156110e557fe5b8152509080600181540180825580915050906001820390600052602060002090600b02016000909192909190915060008201518160000155602082015181600101908051906020019061113992919061205c565b50604082015181600201908051906020019061115692919061205c565b5060608201518160030160006101000a81548173ffffffffffffffffffffffffffffffffffffffff021916908373ffffffffffffffffffffffffffffffffffffffff1602179055506080820151816004015560a08201518160050190805190602001906111c492919061205c565b5060c08201518160060190805190602001906111e192919061205c565b5060e0820151816007015561010082015181600801908051906020019061120992919061205c565b5061012082015181600901908051906020019061122792919061205c565b5061014082015181600a0160006101000a81548160ff0219169083600281111561124d57fe5b0217905550505003905060018101600160008481526020019081526020016000208190555081925050509998505050505050505050565b6000809054906101000a900473ffffffffffffffffffffffffffffffffffffffff1673ffffffffffffffffffffffffffffffffffffffff163373ffffffffffffffffffffffffffffffffffffffff16146112dd57600080fd5b6000426040516020016112f091906126e2565b6040516020818303038152906040528051906020012060001c905061144c604051806020016040528060008152506040518060400160405280600e81526020017f47656f72676520436c6f6f6e6579000000000000000000000000000000000000815250836113b96040518061010001604052806107e661ffff168152602001600160ff168152602001601460ff168152602001600060ff168152602001600060ff168152602001600060ff168152602001600060ff168152602001600060ff16815250611cc7565b604051806020016040528060008152506040518060200160405280600081525060006040518060400160405280601881526020017f50726f706f73616c20746f20646f20746865207468696e6700000000000000008152506040518060400160405280600a81526020017f6d32337434393330676a00000000000000000000000000000000000000000000815250610fd5565b5061158e604051806020016040528060008152506040518060400160405280600881526020017f42696c6c204e7965000000000000000000000000000000000000000000000000815250836114fb6040518061010001604052806107e661ffff168152602001600560ff168152602001601460ff168152602001600060ff168152602001600060ff168152602001600060ff168152602001600060ff168152602001600060ff16815250611cc7565b604051806020016040528060008152506040518060200160405280600081525060006040518060400160405280601e81526020017f50726f706f73616c20746f20646f20746865206f74686572207468696e6700008152506040518060400160405280600981526020017f7233307432393467720000000000000000000000000000000000000000000000815250610fd5565b506116b3604051806020016040528060008152506040518060400160405280600b81526020017f4164616d204472697665720000000000000000000000000000000000000000008152508361163d6040518061010001604052806107e661ffff168152602001600160ff168152602001601360ff168152602001600060ff168152602001600060ff168152602001600060ff168152602001600060ff168152602001600060ff16815250611cc7565b604051806020016040528060008152506040518060200160405280600081525060006040518060600160405280602481526020016129d5602491396040518060400160405280600b81526020017f693233307439346a677265000000000000000000000000000000000000000000815250610fd5565b5061181b6040518060400160405280600b81526020017f306d32337434393330676a0000000000000000000000000000000000000000008152506040518060400160405280600f81526020017f5365616e204c6976696e6773746f6e0000000000000000000000000000000000815250836117886040518061010001604052806107e661ffff168152602001600560ff168152602001600a60ff168152602001600060ff168152602001600060ff168152602001600060ff168152602001600060ff168152602001600060ff16815250611cc7565b604051806020016040528060008152506040518060200160405280600081525060006040518060400160405280601f81526020017f50726f706f73616c20746f20726f6c6c206261636b20746865207468696e67008152506040518060400160405280600a81526020017f6d32337434393330676a00000000000000000000000000000000000000000000815250610fd5565b5061195d604051806020016040528060008152506040518060400160405280600d81526020017f53616e6a69742042697377617300000000000000000000000000000000000000815250836118ca6040518061010001604052806107e561ffff168152602001600160ff168152602001601460ff168152602001600060ff168152602001600060ff168152602001600060ff168152602001600060ff168152602001600060ff16815250611cc7565b604051806020016040528060008152506040518060200160405280600081525060006040518060400160405280601681526020017f50726f706f73616c20746f206d616b65206d6f6e6579000000000000000000008152506040518060400160405280600881526020017f3432746739306a67000000000000000000000000000000000000000000000000815250610fd5565b50611a9f604051806020016040528060008152506040518060400160405280600b81526020017f4a6f686e204269636b657400000000000000000000000000000000000000000081525083611a0c6040518061010001604052806107e561ffff168152602001600260ff168152602001601460ff168152602001600060ff168152602001600060ff168152602001600060ff168152602001600060ff168152602001600060ff16815250611cc7565b604051806020016040528060008152506040518060200160405280600081525060006040518060400160405280601481526020017f50726f706f73616c20746f206275696c642069740000000000000000000000008152506040518060400160405280600a81526020017f676a656f74773539393000000000000000000000000000000000000000000000815250610fd5565b5050565b611aab611fde565b60008060001b905060608315611aca57611ac36107a0565b9050611ad5565b611ad2610e33565b90505b600081511115611af75780600081518110611aec57fe5b602002602001015191505b611b00826102a5565b92505050919050565b6000809054906101000a900473ffffffffffffffffffffffffffffffffffffffff1673ffffffffffffffffffffffffffffffffffffffff163373ffffffffffffffffffffffffffffffffffffffff1614611b6257600080fd5b600073ffffffffffffffffffffffffffffffffffffffff168173ffffffffffffffffffffffffffffffffffffffff161415611b9c57600080fd5b8073ffffffffffffffffffffffffffffffffffffffff166000809054906101000a900473ffffffffffffffffffffffffffffffffffffffff1673ffffffffffffffffffffffffffffffffffffffff167f8be0079c531659141344cd1fd0a4f28419497f9722a3daafe3b4186f6b6457e060405160405180910390a3806000806101000a81548173ffffffffffffffffffffffffffffffffffffffff021916908373ffffffffffffffffffffffffffffffffffffffff16021790555050565b6000806002805490501415611c725760009050611ca3565b6000600160008481526020019081526020016000205490506000811115611c9d576001915050611ca3565b60009150505b919050565b6000600180600084815260200190815260200160002054039050919050565b6000806107b290505b826000015161ffff168161ffff161015611d1757611ced81611f69565b15611d00576301e2850082019150611d0a565b6301e13380820191505b8080600101915050611cd0565b611d1f6120dc565b601f816000600c8110611d2e57fe5b602002019060ff16908160ff1681525050611d4c8460000151611f69565b15611d7657601d816001600c8110611d6057fe5b602002019060ff16908160ff1681525050611d97565b601c816001600c8110611d8557fe5b602002019060ff16908160ff16815250505b601f816002600c8110611da657fe5b602002019060ff16908160ff1681525050601e816003600c8110611dc657fe5b602002019060ff16908160ff1681525050601f816004600c8110611de657fe5b602002019060ff16908160ff1681525050601e816005600c8110611e0657fe5b602002019060ff16908160ff1681525050601f816006600c8110611e2657fe5b602002019060ff16908160ff1681525050601f816007600c8110611e4657fe5b602002019060ff16908160ff1681525050601e816008600c8110611e6657fe5b602002019060ff16908160ff1681525050601f816009600c8110611e8657fe5b602002019060ff16908160ff1681525050601e81600a600c8110611ea657fe5b602002019060ff16908160ff1681525050601f81600b600c8110611ec657fe5b602002019060ff16908160ff1681525050600191505b836020015160ff168261ffff161015611f2057806001830361ffff16600c8110611f0257fe5b602002015160ff166201518002830192508180600101925050611edc565b600184604001510360ff16620151800283019250836060015160ff16610e100283019250836080015160ff16603c02830192508360a0015160ff16830192508292505050919050565b60008060048361ffff1681611f7a57fe5b0661ffff1614611f8d5760009050611fd9565b600060648361ffff1681611f9d57fe5b0661ffff1614611fb05760019050611fd9565b60006101908361ffff1681611fc157fe5b0661ffff1614611fd45760009050611fd9565b600190505b919050565b604051806101600160405280600080191681526020016060815260200160608152602001600073ffffffffffffffffffffffffffffffffffffffff1681526020016000815260200160608152602001606081526020016000815260200160608152602001606081526020016000600281111561205657fe5b81525090565b828054600181600116156101000203166002900490600052602060002090601f016020900481019282601f1061209d57805160ff19168380011785556120cb565b828001600101855582156120cb579182015b828111156120ca5782518255916020019190600101906120af565b5b5090506120d891906120ff565b5090565b604051806101800160405280600c90602082028038833980820191505090505090565b61212191905b8082111561211d576000816000905550600101612105565b5090565b90565b60008135905061213381612968565b92915050565b6000813590506121488161297f565b92915050565b60008135905061215d81612996565b92915050565b600081359050612172816129ad565b92915050565b600082601f83011261218957600080fd5b813561219c612197826127df565b6127b2565b915080825260208301602083018583830111156121b857600080fd5b6121c38382846128fe565b50505092915050565b6000813590506121db816129bd565b92915050565b6000602082840312156121f357600080fd5b600061220184828501612124565b91505092915050565b60006020828403121561221c57600080fd5b600061222a84828501612139565b91505092915050565b60006020828403121561224557600080fd5b60006122538482850161214e565b91505092915050565b6000806040838503121561226f57600080fd5b600061227d8582860161214e565b925050602061228e85828601612163565b9150509250929050565b60008060008060008060008060006101208a8c0312156122b757600080fd5b60008a013567ffffffffffffffff8111156122d157600080fd5b6122dd8c828d01612178565b99505060208a013567ffffffffffffffff8111156122fa57600080fd5b6123068c828d01612178565b98505060406123178c828d01612124565b97505060606123288c828d016121cc565b96505060808a013567ffffffffffffffff81111561234557600080fd5b6123518c828d01612178565b95505060a08a013567ffffffffffffffff81111561236e57600080fd5b61237a8c828d01612178565b94505060c061238b8c828d016121cc565b93505060e08a013567ffffffffffffffff8111156123a857600080fd5b6123b48c828d01612178565b9250506101008a013567ffffffffffffffff8111156123d257600080fd5b6123de8c828d01612178565b9150509295985092959850929598565b60006123fa8383612491565b60208301905092915050565b61240f81612887565b82525050565b61241e81612887565b82525050565b600061242f8261281b565b6124398185612849565b93506124448361280b565b8060005b8381101561247557815161245c88826123ee565b97506124678361283c565b925050600181019050612448565b5085935050505092915050565b61248b81612899565b82525050565b61249a816128a5565b82525050565b6124a9816128a5565b82525050565b6124b8816128ec565b82525050565b60006124c982612831565b6124d3818561287c565b93506124e381856020860161290d565b80840191505092915050565b60006124fa82612826565b612504818561285a565b935061251481856020860161290d565b61251d8161294a565b840191505092915050565b600061253560138361286b565b91507f42696c6c20646f6573206e6f74206578697374000000000000000000000000006000830152602082019050919050565b6000610160830160008301516125816000860182612491565b506020830151848203602086015261259982826124ef565b915050604083015184820360408601526125b382826124ef565b91505060608301516125c86060860182612406565b5060808301516125db608086018261267a565b5060a083015184820360a08601526125f382826124ef565b91505060c083015184820360c086015261260d82826124ef565b91505060e083015161262260e086018261267a565b5061010083015184820361010086015261263c82826124ef565b91505061012083015184820361012086015261265882826124ef565b91505061014083015161266f6101408601826124af565b508091505092915050565b612683816128e2565b82525050565b61269a612695826128e2565b612940565b82525050565b60006126ac82876124be565b91506126b88286612689565b6020820191506126c882856124be565b91506126d482846124be565b915081905095945050505050565b60006126ee8284612689565b60208201915081905092915050565b60006020820190506127126000830184612415565b92915050565b600060208201905081810360008301526127328184612424565b905092915050565b600060208201905061274f6000830184612482565b92915050565b600060208201905061276a60008301846124a0565b92915050565b6000602082019050818103600083015261278981612528565b9050919050565b600060208201905081810360008301526127aa8184612568565b905092915050565b6000604051905081810181811067ffffffffffffffff821117156127d557600080fd5b8060405250919050565b600067ffffffffffffffff8211156127f657600080fd5b601f19601f8301169050602081019050919050565b6000819050602082019050919050565b600081519050919050565b600081519050919050565b600081519050919050565b6000602082019050919050565b600082825260208201905092915050565b600082825260208201905092915050565b600082825260208201905092915050565b600081905092915050565b6000612892826128c2565b9050919050565b60008115159050919050565b6000819050919050565b60008190506128bd8261295b565b919050565b600073ffffffffffffffffffffffffffffffffffffffff82169050919050565b6000819050919050565b60006128f7826128af565b9050919050565b82818337600083830152505050565b60005b8381101561292b578082015181840152602081019050612910565b8381111561293a576000848401525b50505050565b6000819050919050565b6000601f19601f8301169050919050565b6003811061296557fe5b50565b61297181612887565b811461297c57600080fd5b50565b61298881612899565b811461299357600080fd5b50565b61299f816128a5565b81146129aa57600080fd5b50565b600381106129ba57600080fd5b50565b6129c6816128e2565b81146129d157600080fd5b5056fe50726f706f73616c20746f20646f20746865206f74686572206f74686572207468696e67a365627a7a72315820a13518deb662422b7763d2bc2de69514266f0737a3f86bebc51ec66dce4148bc6c6578706572696d656e74616cf564736f6c63430005100040",
  "source": "pragma solidity >=0.4.22 <0.9.0;\npragma experimental ABIEncoderV2;\n\nimport \"./Ownable.sol\";\nimport \"./DateLib.sol\";\n\n/*\nTEST:\n- testConnection\n- getAddress\n- billExists(0)\n- billExists(1)\n- declareOutcome(0, 2)\n- getPendingBills()\n- getAllBills()\n- getBill(0)\n- getMostRecentBill(true)\n- addTestData()\n- billExists(0)\n- billExists(1)\n- declareOutcome(0, 2)\n- getPendingBills()\n- getAllBills()\n- getBill(0)\n- getMostRecentBill(true)\n- getMostRecentBill(false)\n- getBill(0x...)\n- declareOutcome(0x..., 2)\n- getMostRecentBill(true)\n- getMostRecentBill(false)\n- getBill(0x...)\n- add duplicate bill\n*/\n\n/// @title BillOracle\n/// @author Oliver\n/// @notice Collects and provides information on bills and their status\ncontract BillOracle is Ownable {\n    mapping(bytes32 => uint) billIdToIndex;\n    Bill[] bills;\n\n    using DateLib for DateLib.DateTime;\n\n    // defines a bill along with its outcome\n    struct Bill {\n        bytes32 id;\n        string amendsBill;\n        string sponsor;\n        address sponsorAddress;\n        uint dateOfIntroduction;\n        string committees;\n        string latestAction;\n        uint latestActionDate;\n        string title;\n        string legislationNumber;\n        BillOutcome outcome;\n    }\n\n    enum BillOutcome {\n        Pending,\n        BecameLaw,\n        TimedOut\n    }\n\n    /// @notice returns the array index of the bill with the given id\n    /// @dev if the bill id is invalid, then the return value will be incorrect and may cause error; you must call billExists(_billId) first!\n    /// @param _billId the bill id to get\n    /// @return an array index\n    function _getBillIndex(bytes32 _billId) private view returns (uint) {\n        return billIdToIndex[_billId]-1;\n    }\n\n\n    /// @notice determines whether a bill exists with the given id\n    /// @param _billId the bill id to test\n    /// @return true if bill exists and id is valid\n    function billExists(bytes32 _billId) public view returns (bool) {\n        if (bills.length == 0)\n            return false;\n        uint index = billIdToIndex[_billId];\n        if (index > 0) {\n            return true;\n        } else {\n            return false;\n        }\n    }\n\n    function billIsPending(bytes32 _billId) public view returns (bool) {\n        if (bills.length == 0) {\n          return false;\n        }\n        uint index = billIdToIndex[_billId];\n        if (index <= 0) {\n            return false;\n        }\n        Bill memory b = bills[index];\n        if (b.outcome == BillOutcome.Pending) {\n          return true;\n        }\n\n        return false;\n    }\n\n    /// @notice puts a new bill into the blockchain\n    /// @return the unique id of the newly created bill\n    function addBill(\n        string memory _amendsBill,\n        string memory _sponsor,\n        address _sponsorAddress,\n        uint _dateOfIntroduction,\n        string memory _committees,\n        string memory _latestAction,\n        uint _latestActionDate,\n        string memory _title,\n        string memory _legislationNumber) onlyOwner public returns (bytes32) {\n\n        // hash the crucial info to get a unique id\n        bytes32 id = keccak256(abi.encodePacked(_sponsor, _dateOfIntroduction, _title, _legislationNumber));\n\n        // require that the bill be unique (not already added)\n        require(!billExists(id));\n\n        // add the bill\n        uint newIndex = bills.push(Bill(id, _amendsBill, _sponsor, _sponsorAddress, _dateOfIntroduction, _committees, _latestAction, _latestActionDate, _title, _legislationNumber, BillOutcome.Pending)) - 1;\n        billIdToIndex[id] = newIndex + 1;\n\n        // return the unique id of the new bill\n        return id;\n    }\n\n    /// @notice sets the outcome of a predefined bill, permanently on the blockchain\n    /// @param _billId unique id of the bill to modify\n    /// @param _outcome outcome of the bill\n    function declareOutcome(bytes32 _billId, BillOutcome _outcome) onlyOwner external {\n\n        // require that it exists\n        require(billExists(_billId));\n\n        // get the bill\n        uint index = _getBillIndex(_billId);\n        Bill storage theBill = bills[index];\n\n        // set the outcome\n        theBill.outcome = _outcome;\n\n        // TODO: trigger checkOutcome on commitments side? how?\n    }\n\n    /// @notice gets the unique ids of all pending bills, in reverse chronological order\n    /// @return an array of unique bill ids\n    function getPendingBills() public view returns (bytes32[] memory) {\n        uint count = 0;\n\n        // get count of pending bills\n        for (uint i = 0; i < bills.length; i++) {\n            if (bills[i].outcome == BillOutcome.Pending)\n                count++;\n        }\n\n        //collect up all the pending bills\n        bytes32[] memory output = new bytes32[](count);\n\n        if (count > 0) {\n            uint index = 0;\n            for (uint n = bills.length; n > 0; n--) {\n                if (bills[n-1].outcome == BillOutcome.Pending)\n                    output[index++] = bills[n-1].id;\n            }\n        }\n\n        return output;\n    }\n\n    /// @notice gets the unique ids of bills, pending and decided, in reverse chronological order\n    /// @return an array of unique bill ids\n    function getAllBills() public view returns (bytes32[] memory) {\n        bytes32[] memory output = new bytes32[](bills.length);\n\n        //get all ids\n        if (bills.length > 0) {\n            uint index = 0;\n            for (uint n = bills.length; n > 0; n--) {\n                output[index] = bills[n-1].id;\n                index++;\n            }\n        }\n\n        return output;\n    }\n\n    /// @notice gets the specified bill\n    /// @param _billId the unique id of the desired bill\n    function getBill(bytes32 _billId) public view returns (Bill memory) {\n        require(billExists(_billId), \"Bill does not exist\");\n        return bills[_getBillIndex(_billId)];\n    }\n\n    /// @notice gets the most recent bill or pending bill\n    /// @param _pending if true, will return only the most recent pending bill; otherwise, returns the most recent bill either pending or completed\n    function getMostRecentBill(bool _pending) public view returns (Bill memory) {\n\n        bytes32 billId = 0;\n        bytes32[] memory ids;\n\n        if (_pending) {\n            ids = getPendingBills();\n        } else {\n            ids = getAllBills();\n        }\n        if (ids.length > 0) {\n            billId = ids[0];\n        }\n\n        //by default, return a null bill\n        return getBill(billId);\n    }\n\n    /// @notice can be used by a client contract to ensure that they've connected to this contract interface successfully\n    /// @return true, unconditionally\n    function testConnection() public pure returns (bool) {\n        return true;\n    }\n\n    /// @notice gets the address of this contract\n    /// @return address\n    function getAddress() public view returns (address) {\n        return address(this);\n    }\n\n    /// @notice for testing\n    function addTestData() external onlyOwner {\n        address testAddress = address(uint256(keccak256(abi.encodePacked(now))));\n        addBill(\"\", \"George Clooney\", testAddress, DateLib.DateTime(2022, 1, 20, 0, 0, 0, 0, 0).toUnixTimestamp(), \"\", \"\", 0, \"Proposal to do the thing\", \"m23t4930gj\");\n        addBill(\"\", \"Bill Nye\", testAddress, DateLib.DateTime(2022, 5, 20, 0, 0, 0, 0, 0).toUnixTimestamp(), \"\", \"\", 0, \"Proposal to do the other thing\", \"r30t294gr\");\n        addBill(\"\", \"Adam Driver\", testAddress, DateLib.DateTime(2022, 1, 19, 0, 0, 0, 0, 0).toUnixTimestamp(), \"\", \"\", 0, \"Proposal to do the other other thing\", \"i230t94jgre\");\n        addBill(\"0m23t4930gj\", \"Sean Livingston\", testAddress, DateLib.DateTime(2022, 5, 10, 0, 0, 0, 0, 0).toUnixTimestamp(), \"\", \"\", 0, \"Proposal to roll back the thing\", \"m23t4930gj\");\n        addBill(\"\", \"Sanjit Biswas\", testAddress, DateLib.DateTime(2021, 1, 20, 0, 0, 0, 0, 0).toUnixTimestamp(), \"\", \"\", 0, \"Proposal to make money\", \"42tg90jg\");\n        addBill(\"\", \"John Bicket\", testAddress, DateLib.DateTime(2021, 2, 20, 0, 0, 0, 0, 0).toUnixTimestamp(), \"\", \"\", 0, \"Proposal to build it\", \"gjeotw5990\");\n    }\n}\n",
  "sourcePath": "/Users/oliversong/Development/open-lobby/oracle/contracts/BillOracle.sol",
  "compiler": {
    "name": "solc",
    "version": "0.5.16+commit.9c3226ce.Emscripten.clang"
  },
  "schemaVersion": "3.4.7",
  "updatedAt": "2022-07-07T00:36:41.961Z",
  "devdoc": {
    "author": "Oliver",
    "methods": {
      "addBill(string,string,address,uint256,string,string,uint256,string,string)": {
        "return": "the unique id of the newly created bill"
      },
      "billExists(bytes32)": {
        "params": {
          "_billId": "the bill id to test"
        },
        "return": "true if bill exists and id is valid"
      },
      "declareOutcome(bytes32,uint8)": {
        "params": {
          "_billId": "unique id of the bill to modify",
          "_outcome": "outcome of the bill"
        }
      },
      "getAddress()": {
        "return": "address"
      },
      "getAllBills()": {
        "return": "an array of unique bill ids"
      },
      "getBill(bytes32)": {
        "params": {
          "_billId": "the unique id of the desired bill"
        }
      },
      "getMostRecentBill(bool)": {
        "params": {
          "_pending": "if true, will return only the most recent pending bill; otherwise, returns the most recent bill either pending or completed"
        }
      },
      "getPendingBills()": {
        "return": "an array of unique bill ids"
      },
      "testConnection()": {
        "return": "true, unconditionally"
      },
      "transferOwnership(address)": {
        "details": "Allows the current owner to transfer control of the contract to a newOwner.",
        "params": {
          "newOwner": "The address to transfer ownership to."
        }
      }
    },
    "title": "BillOracle"
  },
  "userdoc": {
    "methods": {
      "addBill(string,string,address,uint256,string,string,uint256,string,string)": {
        "notice": "puts a new bill into the blockchain"
      },
      "addTestData()": {
        "notice": "for testing"
      },
      "billExists(bytes32)": {
        "notice": "determines whether a bill exists with the given id"
      },
      "declareOutcome(bytes32,uint8)": {
        "notice": "sets the outcome of a predefined bill, permanently on the blockchain"
      },
      "getAddress()": {
        "notice": "gets the address of this contract"
      },
      "getAllBills()": {
        "notice": "gets the unique ids of bills, pending and decided, in reverse chronological order"
      },
      "getBill(bytes32)": {
        "notice": "gets the specified bill"
      },
      "getMostRecentBill(bool)": {
        "notice": "gets the most recent bill or pending bill"
      },
      "getPendingBills()": {
        "notice": "gets the unique ids of all pending bills, in reverse chronological order"
      },
      "testConnection()": {
        "notice": "can be used by a client contract to ensure that they've connected to this contract interface successfully"
      }
    },
    "notice": "Collects and provides information on bills and their status"
  }
}