{
  "contractName": "BillOracle",
  "abi": [
    {
      "anonymous": false,
      "inputs": [
        {
          "indexed": true,
          "internalType": "address",
          "name": "previousOwner",
          "type": "address"
        },
        {
          "indexed": true,
          "internalType": "address",
          "name": "newOwner",
          "type": "address"
        }
      ],
      "name": "OwnershipTransferred",
      "type": "event"
    },
    {
      "constant": true,
      "inputs": [],
      "name": "owner",
      "outputs": [
        {
          "internalType": "address",
          "name": "",
          "type": "address"
        }
      ],
      "payable": false,
      "stateMutability": "view",
      "type": "function"
    },
    {
      "constant": false,
      "inputs": [
        {
          "internalType": "address",
          "name": "newOwner",
          "type": "address"
        }
      ],
      "name": "transferOwnership",
      "outputs": [],
      "payable": false,
      "stateMutability": "nonpayable",
      "type": "function"
    },
    {
      "constant": true,
      "inputs": [
        {
          "internalType": "bytes32",
          "name": "_billId",
          "type": "bytes32"
        }
      ],
      "name": "billExists",
      "outputs": [
        {
          "internalType": "bool",
          "name": "",
          "type": "bool"
        }
      ],
      "payable": false,
      "stateMutability": "view",
      "type": "function"
    },
    {
      "constant": true,
      "inputs": [
        {
          "internalType": "bytes32",
          "name": "_billId",
          "type": "bytes32"
        }
      ],
      "name": "billIsPending",
      "outputs": [
        {
          "internalType": "bool",
          "name": "",
          "type": "bool"
        }
      ],
      "payable": false,
      "stateMutability": "view",
      "type": "function"
    },
    {
      "constant": false,
      "inputs": [
        {
          "internalType": "string",
          "name": "_amendsBill",
          "type": "string"
        },
        {
          "internalType": "string",
          "name": "_sponsor",
          "type": "string"
        },
        {
          "internalType": "address",
          "name": "_sponsorAddress",
          "type": "address"
        },
        {
          "internalType": "uint256",
          "name": "_dateOfIntroduction",
          "type": "uint256"
        },
        {
          "internalType": "string",
          "name": "_committees",
          "type": "string"
        },
        {
          "internalType": "string",
          "name": "_latestAction",
          "type": "string"
        },
        {
          "internalType": "uint256",
          "name": "_latestActionDate",
          "type": "uint256"
        },
        {
          "internalType": "string",
          "name": "_title",
          "type": "string"
        },
        {
          "internalType": "string",
          "name": "_legislationNumber",
          "type": "string"
        }
      ],
      "name": "addBill",
      "outputs": [
        {
          "internalType": "bytes32",
          "name": "",
          "type": "bytes32"
        }
      ],
      "payable": false,
      "stateMutability": "nonpayable",
      "type": "function"
    },
    {
      "constant": false,
      "inputs": [
        {
          "internalType": "bytes32",
          "name": "_billId",
          "type": "bytes32"
        },
        {
          "internalType": "enum BillOracle.BillOutcome",
          "name": "_outcome",
          "type": "uint8"
        }
      ],
      "name": "declareOutcome",
      "outputs": [],
      "payable": false,
      "stateMutability": "nonpayable",
      "type": "function"
    },
    {
      "constant": true,
      "inputs": [],
      "name": "getPendingBills",
      "outputs": [
        {
          "internalType": "bytes32[]",
          "name": "",
          "type": "bytes32[]"
        }
      ],
      "payable": false,
      "stateMutability": "view",
      "type": "function"
    },
    {
      "constant": true,
      "inputs": [],
      "name": "getAllBills",
      "outputs": [
        {
          "internalType": "bytes32[]",
          "name": "",
          "type": "bytes32[]"
        }
      ],
      "payable": false,
      "stateMutability": "view",
      "type": "function"
    },
    {
      "constant": true,
      "inputs": [
        {
          "internalType": "bytes32",
          "name": "_billId",
          "type": "bytes32"
        }
      ],
      "name": "getBill",
      "outputs": [
        {
          "components": [
            {
              "internalType": "bytes32",
              "name": "id",
              "type": "bytes32"
            },
            {
              "internalType": "string",
              "name": "amendsBill",
              "type": "string"
            },
            {
              "internalType": "string",
              "name": "sponsor",
              "type": "string"
            },
            {
              "internalType": "address",
              "name": "sponsorAddress",
              "type": "address"
            },
            {
              "internalType": "uint256",
              "name": "dateOfIntroduction",
              "type": "uint256"
            },
            {
              "internalType": "string",
              "name": "committees",
              "type": "string"
            },
            {
              "internalType": "string",
              "name": "latestAction",
              "type": "string"
            },
            {
              "internalType": "uint256",
              "name": "latestActionDate",
              "type": "uint256"
            },
            {
              "internalType": "string",
              "name": "title",
              "type": "string"
            },
            {
              "internalType": "string",
              "name": "legislationNumber",
              "type": "string"
            },
            {
              "internalType": "enum BillOracle.BillOutcome",
              "name": "outcome",
              "type": "uint8"
            }
          ],
          "internalType": "struct BillOracle.Bill",
          "name": "",
          "type": "tuple"
        }
      ],
      "payable": false,
      "stateMutability": "view",
      "type": "function"
    },
    {
      "constant": true,
      "inputs": [
        {
          "internalType": "bool",
          "name": "_pending",
          "type": "bool"
        }
      ],
      "name": "getMostRecentBill",
      "outputs": [
        {
          "components": [
            {
              "internalType": "bytes32",
              "name": "id",
              "type": "bytes32"
            },
            {
              "internalType": "string",
              "name": "amendsBill",
              "type": "string"
            },
            {
              "internalType": "string",
              "name": "sponsor",
              "type": "string"
            },
            {
              "internalType": "address",
              "name": "sponsorAddress",
              "type": "address"
            },
            {
              "internalType": "uint256",
              "name": "dateOfIntroduction",
              "type": "uint256"
            },
            {
              "internalType": "string",
              "name": "committees",
              "type": "string"
            },
            {
              "internalType": "string",
              "name": "latestAction",
              "type": "string"
            },
            {
              "internalType": "uint256",
              "name": "latestActionDate",
              "type": "uint256"
            },
            {
              "internalType": "string",
              "name": "title",
              "type": "string"
            },
            {
              "internalType": "string",
              "name": "legislationNumber",
              "type": "string"
            },
            {
              "internalType": "enum BillOracle.BillOutcome",
              "name": "outcome",
              "type": "uint8"
            }
          ],
          "internalType": "struct BillOracle.Bill",
          "name": "",
          "type": "tuple"
        }
      ],
      "payable": false,
      "stateMutability": "view",
      "type": "function"
    },
    {
      "constant": true,
      "inputs": [
        {
          "internalType": "bytes32",
          "name": "_billId",
          "type": "bytes32"
        }
      ],
      "name": "getBillSponsorAddress",
      "outputs": [
        {
          "internalType": "address",
          "name": "",
          "type": "address"
        }
      ],
      "payable": false,
      "stateMutability": "view",
      "type": "function"
    },
    {
      "constant": true,
      "inputs": [],
      "name": "testConnection",
      "outputs": [
        {
          "internalType": "bool",
          "name": "",
          "type": "bool"
        }
      ],
      "payable": false,
      "stateMutability": "pure",
      "type": "function"
    },
    {
      "constant": true,
      "inputs": [],
      "name": "getAddress",
      "outputs": [
        {
          "internalType": "address",
          "name": "",
          "type": "address"
        }
      ],
      "payable": false,
      "stateMutability": "view",
      "type": "function"
    },
    {
      "constant": false,
      "inputs": [],
      "name": "addTestData",
      "outputs": [],
      "payable": false,
      "stateMutability": "nonpayable",
      "type": "function"
    }
  ],
  "bytecode": "0x6080604052336000806101000a81548173ffffffffffffffffffffffffffffffffffffffff021916908373ffffffffffffffffffffffffffffffffffffffff160217905550612acd806100536000396000f3fe608060405234801561001057600080fd5b50600436106100ea5760003560e01c80638cd95c781161008c578063a212b45411610066578063a212b45414610261578063b6f0623f1461026b578063f2fde38b1461029b578063ffa378b1146102b7576100ea565b80638cd95c78146101f75780638da5cb5b14610213578063923fc01014610231576100ea565b80634f2e6cd9116100c85780634f2e6cd91461015b57806352d173a41461018b5780636c69a68c146101a9578063818e1f1a146101d9576100ea565b80633412a15c146100ef578063342c196c1461010d57806338cc48311461013d575b600080fd5b6100f76102e7565b60405161010491906127cc565b60405180910390f35b610127600480360361012291908101906122e0565b6102f0565b6040516101349190612822565b60405180910390f35b6101456107e3565b604051610152919061278f565b60405180910390f35b610175600480360361017091908101906122e0565b6107eb565b604051610182919061278f565b60405180910390f35b610193610883565b6040516101a091906127aa565b60405180910390f35b6101c360048036036101be91908101906122e0565b6109fb565b6040516101d091906127cc565b60405180910390f35b6101e1610ef5565b6040516101ee91906127aa565b60405180910390f35b610211600480360361020c9190810190612309565b610fb0565b005b61021b611072565b604051610228919061278f565b60405180910390f35b61024b60048036036102469190810190612345565b611097565b60405161025891906127e7565b60405180910390f35b610269611346565b005b610285600480360361028091908101906122b7565b611b50565b6040516102929190612822565b60405180910390f35b6102b560048036036102b0919081019061228e565b611bb6565b005b6102d160048036036102cc91908101906122e0565b611d07565b6040516102de91906127cc565b60405180910390f35b60006001905090565b6102f861208b565b61030182611d07565b610340576040517f08c379a000000000000000000000000000000000000000000000000000000000815260040161033790612802565b60405180910390fd5b600261034b83611d55565b8154811061035557fe5b90600052602060002090600b02016040518061016001604052908160008201548152602001600182018054600181600116156101000203166002900480601f0160208091040260200160405190810160405280929190818152602001828054600181600116156101000203166002900480156104125780601f106103e757610100808354040283529160200191610412565b820191906000526020600020905b8154815290600101906020018083116103f557829003601f168201915b50505050508152602001600282018054600181600116156101000203166002900480601f0160208091040260200160405190810160405280929190818152602001828054600181600116156101000203166002900480156104b45780601f10610489576101008083540402835291602001916104b4565b820191906000526020600020905b81548152906001019060200180831161049757829003601f168201915b505050505081526020016003820160009054906101000a900473ffffffffffffffffffffffffffffffffffffffff1673ffffffffffffffffffffffffffffffffffffffff1673ffffffffffffffffffffffffffffffffffffffff16815260200160048201548152602001600582018054600181600116156101000203166002900480601f0160208091040260200160405190810160405280929190818152602001828054600181600116156101000203166002900480156105b65780601f1061058b576101008083540402835291602001916105b6565b820191906000526020600020905b81548152906001019060200180831161059957829003601f168201915b50505050508152602001600682018054600181600116156101000203166002900480601f0160208091040260200160405190810160405280929190818152602001828054600181600116156101000203166002900480156106585780601f1061062d57610100808354040283529160200191610658565b820191906000526020600020905b81548152906001019060200180831161063b57829003601f168201915b5050505050815260200160078201548152602001600882018054600181600116156101000203166002900480601f0160208091040260200160405190810160405280929190818152602001828054600181600116156101000203166002900480156107045780601f106106d957610100808354040283529160200191610704565b820191906000526020600020905b8154815290600101906020018083116106e757829003601f168201915b50505050508152602001600982018054600181600116156101000203166002900480601f0160208091040260200160405190810160405280929190818152602001828054600181600116156101000203166002900480156107a65780601f1061077b576101008083540402835291602001916107a6565b820191906000526020600020905b81548152906001019060200180831161078957829003601f168201915b50505050508152602001600a820160009054906101000a900460ff1660028111156107cd57fe5b60028111156107d857fe5b815250509050919050565b600030905090565b60006107f682611d07565b610835576040517f08c379a000000000000000000000000000000000000000000000000000000000815260040161082c90612802565b60405180910390fd5b600261084083611d55565b8154811061084a57fe5b90600052602060002090600b020160030160009054906101000a900473ffffffffffffffffffffffffffffffffffffffff169050919050565b6060600080905060008090505b6002805490508110156108fd57600060028111156108aa57fe5b600282815481106108b757fe5b90600052602060002090600b0201600a0160009054906101000a900460ff1660028111156108e157fe5b14156108f05781806001019250505b8080600101915050610890565b5060608160405190808252806020026020018201604052801561092f5781602001602082028038833980820191505090505b50905060008211156109f3576000809050600060028054905090505b60008111156109f0576000600281111561096157fe5b6002600183038154811061097157fe5b90600052602060002090600b0201600a0160009054906101000a900460ff16600281111561099b57fe5b14156109e257600260018203815481106109b157fe5b90600052602060002090600b0201600001548383806001019450815181106109d557fe5b6020026020010181815250505b80806001900391505061094b565b50505b809250505090565b6000610a0682611d07565b610a0f57600080fd5b6000610a1a83611d55565b9050610a2461208b565b60028281548110610a3157fe5b90600052602060002090600b02016040518061016001604052908160008201548152602001600182018054600181600116156101000203166002900480601f016020809104026020016040519081016040528092919081815260200182805460018160011615610100020316600290048015610aee5780601f10610ac357610100808354040283529160200191610aee565b820191906000526020600020905b815481529060010190602001808311610ad157829003601f168201915b50505050508152602001600282018054600181600116156101000203166002900480601f016020809104026020016040519081016040528092919081815260200182805460018160011615610100020316600290048015610b905780601f10610b6557610100808354040283529160200191610b90565b820191906000526020600020905b815481529060010190602001808311610b7357829003601f168201915b505050505081526020016003820160009054906101000a900473ffffffffffffffffffffffffffffffffffffffff1673ffffffffffffffffffffffffffffffffffffffff1673ffffffffffffffffffffffffffffffffffffffff16815260200160048201548152602001600582018054600181600116156101000203166002900480601f016020809104026020016040519081016040528092919081815260200182805460018160011615610100020316600290048015610c925780601f10610c6757610100808354040283529160200191610c92565b820191906000526020600020905b815481529060010190602001808311610c7557829003601f168201915b50505050508152602001600682018054600181600116156101000203166002900480601f016020809104026020016040519081016040528092919081815260200182805460018160011615610100020316600290048015610d345780601f10610d0957610100808354040283529160200191610d34565b820191906000526020600020905b815481529060010190602001808311610d1757829003601f168201915b5050505050815260200160078201548152602001600882018054600181600116156101000203166002900480601f016020809104026020016040519081016040528092919081815260200182805460018160011615610100020316600290048015610de05780601f10610db557610100808354040283529160200191610de0565b820191906000526020600020905b815481529060010190602001808311610dc357829003601f168201915b50505050508152602001600982018054600181600116156101000203166002900480601f016020809104026020016040519081016040528092919081815260200182805460018160011615610100020316600290048015610e825780601f10610e5757610100808354040283529160200191610e82565b820191906000526020600020905b815481529060010190602001808311610e6557829003601f168201915b50505050508152602001600a820160009054906101000a900460ff166002811115610ea957fe5b6002811115610eb457fe5b81525050905060006002811115610ec757fe5b8161014001516002811115610ed857fe5b1415610ee957600192505050610ef0565b6000925050505b919050565b606080600280549050604051908082528060200260200182016040528015610f2c5781602001602082028038833980820191505090505b50905060006002805490501115610fa9576000809050600060028054905090505b6000811115610fa65760026001820381548110610f6657fe5b90600052602060002090600b020160000154838381518110610f8457fe5b6020026020010181815250508180600101925050808060019003915050610f4d565b50505b8091505090565b6000809054906101000a900473ffffffffffffffffffffffffffffffffffffffff1673ffffffffffffffffffffffffffffffffffffffff163373ffffffffffffffffffffffffffffffffffffffff161461100957600080fd5b61101282611d07565b61101b57600080fd5b600061102683611d55565b905060006002828154811061103757fe5b90600052602060002090600b020190508281600a0160006101000a81548160ff0219169083600281111561106757fe5b021790555050505050565b6000809054906101000a900473ffffffffffffffffffffffffffffffffffffffff1681565b60008060009054906101000a900473ffffffffffffffffffffffffffffffffffffffff1673ffffffffffffffffffffffffffffffffffffffff163373ffffffffffffffffffffffffffffffffffffffff16146110f257600080fd5b60008988858560405160200161110b949392919061274d565b60405160208183030381529060405280519060200120905061112c81611d07565b1561113657600080fd5b6000600160026040518061016001604052808581526020018f81526020018e81526020018d73ffffffffffffffffffffffffffffffffffffffff1681526020018c81526020018b81526020018a8152602001898152602001888152602001878152602001600060028111156111a757fe5b8152509080600181540180825580915050906001820390600052602060002090600b0201600090919290919091506000820151816000015560208201518160010190805190602001906111fb929190612109565b506040820151816002019080519060200190611218929190612109565b5060608201518160030160006101000a81548173ffffffffffffffffffffffffffffffffffffffff021916908373ffffffffffffffffffffffffffffffffffffffff1602179055506080820151816004015560a0820151816005019080519060200190611286929190612109565b5060c08201518160060190805190602001906112a3929190612109565b5060e082015181600701556101008201518160080190805190602001906112cb929190612109565b506101208201518160090190805190602001906112e9929190612109565b5061014082015181600a0160006101000a81548160ff0219169083600281111561130f57fe5b0217905550505003905060018101600160008481526020019081526020016000208190555081925050509998505050505050505050565b6000809054906101000a900473ffffffffffffffffffffffffffffffffffffffff1673ffffffffffffffffffffffffffffffffffffffff163373ffffffffffffffffffffffffffffffffffffffff161461139f57600080fd5b6000736ceb680a1bf3cbaf2c480ca7061ca8207e5d1e8390506114f9604051806020016040528060008152506040518060400160405280600e81526020017f47656f72676520436c6f6f6e6579000000000000000000000000000000000000815250836114666040518061010001604052806107e661ffff168152602001600160ff168152602001601460ff168152602001600060ff168152602001600060ff168152602001600060ff168152602001600060ff168152602001600060ff16815250611d74565b604051806020016040528060008152506040518060200160405280600081525060006040518060400160405280601881526020017f50726f706f73616c20746f20646f20746865207468696e6700000000000000008152506040518060400160405280600a81526020017f6d32337434393330676a00000000000000000000000000000000000000000000815250611097565b5061163b604051806020016040528060008152506040518060400160405280600881526020017f42696c6c204e7965000000000000000000000000000000000000000000000000815250836115a86040518061010001604052806107e661ffff168152602001600560ff168152602001601460ff168152602001600060ff168152602001600060ff168152602001600060ff168152602001600060ff168152602001600060ff16815250611d74565b604051806020016040528060008152506040518060200160405280600081525060006040518060400160405280601e81526020017f50726f706f73616c20746f20646f20746865206f74686572207468696e6700008152506040518060400160405280600981526020017f7233307432393467720000000000000000000000000000000000000000000000815250611097565b50611760604051806020016040528060008152506040518060400160405280600b81526020017f4164616d20447269766572000000000000000000000000000000000000000000815250836116ea6040518061010001604052806107e661ffff168152602001600160ff168152602001601360ff168152602001600060ff168152602001600060ff168152602001600060ff168152602001600060ff168152602001600060ff16815250611d74565b60405180602001604052806000815250604051806020016040528060008152506000604051806060016040528060248152602001612a67602491396040518060400160405280600b81526020017f693233307439346a677265000000000000000000000000000000000000000000815250611097565b506118c86040518060400160405280600b81526020017f306d32337434393330676a0000000000000000000000000000000000000000008152506040518060400160405280600f81526020017f5365616e204c6976696e6773746f6e0000000000000000000000000000000000815250836118356040518061010001604052806107e661ffff168152602001600560ff168152602001600a60ff168152602001600060ff168152602001600060ff168152602001600060ff168152602001600060ff168152602001600060ff16815250611d74565b604051806020016040528060008152506040518060200160405280600081525060006040518060400160405280601f81526020017f50726f706f73616c20746f20726f6c6c206261636b20746865207468696e67008152506040518060400160405280600a81526020017f6d32337434393330676a00000000000000000000000000000000000000000000815250611097565b50611a0a604051806020016040528060008152506040518060400160405280600d81526020017f53616e6a69742042697377617300000000000000000000000000000000000000815250836119776040518061010001604052806107e561ffff168152602001600160ff168152602001601460ff168152602001600060ff168152602001600060ff168152602001600060ff168152602001600060ff168152602001600060ff16815250611d74565b604051806020016040528060008152506040518060200160405280600081525060006040518060400160405280601681526020017f50726f706f73616c20746f206d616b65206d6f6e6579000000000000000000008152506040518060400160405280600881526020017f3432746739306a67000000000000000000000000000000000000000000000000815250611097565b50611b4c604051806020016040528060008152506040518060400160405280600b81526020017f4a6f686e204269636b657400000000000000000000000000000000000000000081525083611ab96040518061010001604052806107e561ffff168152602001600260ff168152602001601460ff168152602001600060ff168152602001600060ff168152602001600060ff168152602001600060ff168152602001600060ff16815250611d74565b604051806020016040528060008152506040518060200160405280600081525060006040518060400160405280601481526020017f50726f706f73616c20746f206275696c642069740000000000000000000000008152506040518060400160405280600a81526020017f676a656f74773539393000000000000000000000000000000000000000000000815250611097565b5050565b611b5861208b565b60008060001b905060608315611b7757611b70610883565b9050611b82565b611b7f610ef5565b90505b600081511115611ba45780600081518110611b9957fe5b602002602001015191505b611bad826102f0565b92505050919050565b6000809054906101000a900473ffffffffffffffffffffffffffffffffffffffff1673ffffffffffffffffffffffffffffffffffffffff163373ffffffffffffffffffffffffffffffffffffffff1614611c0f57600080fd5b600073ffffffffffffffffffffffffffffffffffffffff168173ffffffffffffffffffffffffffffffffffffffff161415611c4957600080fd5b8073ffffffffffffffffffffffffffffffffffffffff166000809054906101000a900473ffffffffffffffffffffffffffffffffffffffff1673ffffffffffffffffffffffffffffffffffffffff167f8be0079c531659141344cd1fd0a4f28419497f9722a3daafe3b4186f6b6457e060405160405180910390a3806000806101000a81548173ffffffffffffffffffffffffffffffffffffffff021916908373ffffffffffffffffffffffffffffffffffffffff16021790555050565b6000806002805490501415611d1f5760009050611d50565b6000600160008481526020019081526020016000205490506000811115611d4a576001915050611d50565b60009150505b919050565b6000600180600084815260200190815260200160002054039050919050565b6000806107b290505b826000015161ffff168161ffff161015611dc457611d9a81612016565b15611dad576301e2850082019150611db7565b6301e13380820191505b8080600101915050611d7d565b611dcc612189565b601f816000600c8110611ddb57fe5b602002019060ff16908160ff1681525050611df98460000151612016565b15611e2357601d816001600c8110611e0d57fe5b602002019060ff16908160ff1681525050611e44565b601c816001600c8110611e3257fe5b602002019060ff16908160ff16815250505b601f816002600c8110611e5357fe5b602002019060ff16908160ff1681525050601e816003600c8110611e7357fe5b602002019060ff16908160ff1681525050601f816004600c8110611e9357fe5b602002019060ff16908160ff1681525050601e816005600c8110611eb357fe5b602002019060ff16908160ff1681525050601f816006600c8110611ed357fe5b602002019060ff16908160ff1681525050601f816007600c8110611ef357fe5b602002019060ff16908160ff1681525050601e816008600c8110611f1357fe5b602002019060ff16908160ff1681525050601f816009600c8110611f3357fe5b602002019060ff16908160ff1681525050601e81600a600c8110611f5357fe5b602002019060ff16908160ff1681525050601f81600b600c8110611f7357fe5b602002019060ff16908160ff1681525050600191505b836020015160ff168261ffff161015611fcd57806001830361ffff16600c8110611faf57fe5b602002015160ff166201518002830192508180600101925050611f89565b600184604001510360ff16620151800283019250836060015160ff16610e100283019250836080015160ff16603c02830192508360a0015160ff16830192508292505050919050565b60008060048361ffff168161202757fe5b0661ffff161461203a5760009050612086565b600060648361ffff168161204a57fe5b0661ffff161461205d5760019050612086565b60006101908361ffff168161206e57fe5b0661ffff16146120815760009050612086565b600190505b919050565b604051806101600160405280600080191681526020016060815260200160608152602001600073ffffffffffffffffffffffffffffffffffffffff1681526020016000815260200160608152602001606081526020016000815260200160608152602001606081526020016000600281111561210357fe5b81525090565b828054600181600116156101000203166002900490600052602060002090601f016020900481019282601f1061214a57805160ff1916838001178555612178565b82800160010185558215612178579182015b8281111561217757825182559160200191906001019061215c565b5b50905061218591906121ac565b5090565b604051806101800160405280600c90602082028038833980820191505090505090565b6121ce91905b808211156121ca5760008160009055506001016121b2565b5090565b90565b6000813590506121e0816129fa565b92915050565b6000813590506121f581612a11565b92915050565b60008135905061220a81612a28565b92915050565b60008135905061221f81612a3f565b92915050565b600082601f83011261223657600080fd5b813561224961224482612871565b612844565b9150808252602083016020830185838301111561226557600080fd5b612270838284612990565b50505092915050565b60008135905061228881612a4f565b92915050565b6000602082840312156122a057600080fd5b60006122ae848285016121d1565b91505092915050565b6000602082840312156122c957600080fd5b60006122d7848285016121e6565b91505092915050565b6000602082840312156122f257600080fd5b6000612300848285016121fb565b91505092915050565b6000806040838503121561231c57600080fd5b600061232a858286016121fb565b925050602061233b85828601612210565b9150509250929050565b60008060008060008060008060006101208a8c03121561236457600080fd5b60008a013567ffffffffffffffff81111561237e57600080fd5b61238a8c828d01612225565b99505060208a013567ffffffffffffffff8111156123a757600080fd5b6123b38c828d01612225565b98505060406123c48c828d016121d1565b97505060606123d58c828d01612279565b96505060808a013567ffffffffffffffff8111156123f257600080fd5b6123fe8c828d01612225565b95505060a08a013567ffffffffffffffff81111561241b57600080fd5b6124278c828d01612225565b94505060c06124388c828d01612279565b93505060e08a013567ffffffffffffffff81111561245557600080fd5b6124618c828d01612225565b9250506101008a013567ffffffffffffffff81111561247f57600080fd5b61248b8c828d01612225565b9150509295985092959850929598565b60006124a7838361253e565b60208301905092915050565b6124bc81612919565b82525050565b6124cb81612919565b82525050565b60006124dc826128ad565b6124e681856128db565b93506124f18361289d565b8060005b83811015612522578151612509888261249b565b9750612514836128ce565b9250506001810190506124f5565b5085935050505092915050565b6125388161292b565b82525050565b61254781612937565b82525050565b61255681612937565b82525050565b6125658161297e565b82525050565b6000612576826128c3565b612580818561290e565b935061259081856020860161299f565b80840191505092915050565b60006125a7826128b8565b6125b181856128ec565b93506125c181856020860161299f565b6125ca816129dc565b840191505092915050565b60006125e26013836128fd565b91507f42696c6c20646f6573206e6f74206578697374000000000000000000000000006000830152602082019050919050565b60006101608301600083015161262e600086018261253e565b5060208301518482036020860152612646828261259c565b91505060408301518482036040860152612660828261259c565b915050606083015161267560608601826124b3565b5060808301516126886080860182612727565b5060a083015184820360a08601526126a0828261259c565b91505060c083015184820360c08601526126ba828261259c565b91505060e08301516126cf60e0860182612727565b506101008301518482036101008601526126e9828261259c565b915050610120830151848203610120860152612705828261259c565b91505061014083015161271c61014086018261255c565b508091505092915050565b61273081612974565b82525050565b61274761274282612974565b6129d2565b82525050565b6000612759828761256b565b91506127658286612736565b602082019150612775828561256b565b9150612781828461256b565b915081905095945050505050565b60006020820190506127a460008301846124c2565b92915050565b600060208201905081810360008301526127c481846124d1565b905092915050565b60006020820190506127e1600083018461252f565b92915050565b60006020820190506127fc600083018461254d565b92915050565b6000602082019050818103600083015261281b816125d5565b9050919050565b6000602082019050818103600083015261283c8184612615565b905092915050565b6000604051905081810181811067ffffffffffffffff8211171561286757600080fd5b8060405250919050565b600067ffffffffffffffff82111561288857600080fd5b601f19601f8301169050602081019050919050565b6000819050602082019050919050565b600081519050919050565b600081519050919050565b600081519050919050565b6000602082019050919050565b600082825260208201905092915050565b600082825260208201905092915050565b600082825260208201905092915050565b600081905092915050565b600061292482612954565b9050919050565b60008115159050919050565b6000819050919050565b600081905061294f826129ed565b919050565b600073ffffffffffffffffffffffffffffffffffffffff82169050919050565b6000819050919050565b600061298982612941565b9050919050565b82818337600083830152505050565b60005b838110156129bd5780820151818401526020810190506129a2565b838111156129cc576000848401525b50505050565b6000819050919050565b6000601f19601f8301169050919050565b600381106129f757fe5b50565b612a0381612919565b8114612a0e57600080fd5b50565b612a1a8161292b565b8114612a2557600080fd5b50565b612a3181612937565b8114612a3c57600080fd5b50565b60038110612a4c57600080fd5b50565b612a5881612974565b8114612a6357600080fd5b5056fe50726f706f73616c20746f20646f20746865206f74686572206f74686572207468696e67a365627a7a7231582080df5b5fef8371c26e552b3c4ec516436801cad448ba6967142ff330f80e5cea6c6578706572696d656e74616cf564736f6c63430005100040",
  "source": "pragma solidity >=0.4.22 <0.9.0;\npragma experimental ABIEncoderV2;\n\nimport \"./Ownable.sol\";\nimport \"./DateLib.sol\";\n\n/*\nTEST:\n- testConnection\n- getAddress\n- billExists(0)\n- billExists(1)\n- declareOutcome(0, 2)\n- getPendingBills()\n- getAllBills()\n- getBill(0)\n- getMostRecentBill(true)\n- addTestData()\n- billExists(0)\n- billExists(1)\n- declareOutcome(0, 2)\n- getPendingBills()\n- getAllBills()\n- getBill(0)\n- getMostRecentBill(true)\n- getMostRecentBill(false)\n- getBill(0x...)\n- declareOutcome(0x..., 2)\n- getMostRecentBill(true)\n- getMostRecentBill(false)\n- getBill(0x...)\n- add duplicate bill\n*/\n\n/// @title BillOracle\n/// @author Oliver\n/// @notice Collects and provides information on bills and their status\ncontract BillOracle is Ownable {\n    mapping(bytes32 => uint) billIdToIndex;\n    Bill[] bills;\n\n    using DateLib for DateLib.DateTime;\n\n    // defines a bill along with its outcome\n    struct Bill {\n        bytes32 id;\n        string amendsBill;\n        string sponsor;\n        address sponsorAddress;\n        uint dateOfIntroduction;\n        string committees;\n        string latestAction;\n        uint latestActionDate;\n        string title;\n        string legislationNumber;\n        BillOutcome outcome;\n    }\n\n    enum BillOutcome {\n        Pending,\n        BecameLaw,\n        TimedOut\n    }\n\n    /// @notice returns the array index of the bill with the given id\n    /// @dev if the bill id is invalid, then the return value will be incorrect and may cause error; you must call billExists(_billId) first!\n    /// @param _billId the bill id to get\n    /// @return an array index\n    function _getBillIndex(bytes32 _billId) private view returns (uint) {\n        return billIdToIndex[_billId]-1;\n    }\n\n\n    /// @notice determines whether a bill exists with the given id\n    /// @param _billId the bill id to test\n    /// @return true if bill exists and id is valid\n    function billExists(bytes32 _billId) public view returns (bool) {\n        if (bills.length == 0)\n            return false;\n        uint index = billIdToIndex[_billId];\n        if (index > 0) {\n            return true;\n        } else {\n            return false;\n        }\n    }\n\n    function billIsPending(bytes32 _billId) public view returns (bool) {\n        require(billExists(_billId));\n        uint index = _getBillIndex(_billId);\n        Bill memory b = bills[index];\n        if (b.outcome == BillOutcome.Pending) {\n          return true;\n        }\n\n        return false;\n    }\n\n    /// @notice puts a new bill into the blockchain\n    /// @return the unique id of the newly created bill\n    function addBill(\n        string memory _amendsBill,\n        string memory _sponsor,\n        address _sponsorAddress,\n        uint _dateOfIntroduction,\n        string memory _committees,\n        string memory _latestAction,\n        uint _latestActionDate,\n        string memory _title,\n        string memory _legislationNumber) onlyOwner public returns (bytes32) {\n\n        // hash the crucial info to get a unique id\n        bytes32 id = keccak256(abi.encodePacked(_sponsor, _dateOfIntroduction, _title, _legislationNumber));\n\n        // require that the bill be unique (not already added)\n        require(!billExists(id));\n\n        // add the bill\n        uint newIndex = bills.push(Bill(id, _amendsBill, _sponsor, _sponsorAddress, _dateOfIntroduction, _committees, _latestAction, _latestActionDate, _title, _legislationNumber, BillOutcome.Pending)) - 1;\n        billIdToIndex[id] = newIndex + 1;\n\n        // return the unique id of the new bill\n        return id;\n    }\n\n    /// @notice sets the outcome of a predefined bill, permanently on the blockchain\n    /// @param _billId unique id of the bill to modify\n    /// @param _outcome outcome of the bill\n    function declareOutcome(bytes32 _billId, BillOutcome _outcome) onlyOwner external {\n\n        // require that it exists\n        require(billExists(_billId));\n\n        // get the bill\n        uint index = _getBillIndex(_billId);\n        Bill storage theBill = bills[index];\n\n        // set the outcome\n        theBill.outcome = _outcome;\n\n        // TODO: trigger checkOutcome on commitments side? how?\n    }\n\n    /// @notice gets the unique ids of all pending bills, in reverse chronological order\n    /// @return an array of unique bill ids\n    function getPendingBills() public view returns (bytes32[] memory) {\n        uint count = 0;\n\n        // get count of pending bills\n        for (uint i = 0; i < bills.length; i++) {\n            if (bills[i].outcome == BillOutcome.Pending)\n                count++;\n        }\n\n        //collect up all the pending bills\n        bytes32[] memory output = new bytes32[](count);\n\n        if (count > 0) {\n            uint index = 0;\n            for (uint n = bills.length; n > 0; n--) {\n                if (bills[n-1].outcome == BillOutcome.Pending)\n                    output[index++] = bills[n-1].id;\n            }\n        }\n\n        return output;\n    }\n\n    /// @notice gets the unique ids of bills, pending and decided, in reverse chronological order\n    /// @return an array of unique bill ids\n    function getAllBills() public view returns (bytes32[] memory) {\n        bytes32[] memory output = new bytes32[](bills.length);\n\n        //get all ids\n        if (bills.length > 0) {\n            uint index = 0;\n            for (uint n = bills.length; n > 0; n--) {\n                output[index] = bills[n-1].id;\n                index++;\n            }\n        }\n\n        return output;\n    }\n\n    /// @notice gets the specified bill\n    /// @param _billId the unique id of the desired bill\n    function getBill(bytes32 _billId) public view returns (Bill memory) {\n        require(billExists(_billId), \"Bill does not exist\");\n        return bills[_getBillIndex(_billId)];\n    }\n\n    /// @notice gets the most recent bill or pending bill\n    /// @param _pending if true, will return only the most recent pending bill; otherwise, returns the most recent bill either pending or completed\n    function getMostRecentBill(bool _pending) public view returns (Bill memory) {\n\n        bytes32 billId = 0;\n        bytes32[] memory ids;\n\n        if (_pending) {\n            ids = getPendingBills();\n        } else {\n            ids = getAllBills();\n        }\n        if (ids.length > 0) {\n            billId = ids[0];\n        }\n\n        //by default, return a null bill\n        return getBill(billId);\n    }\n\n    function getBillSponsorAddress(bytes32 _billId) public view returns (address) {\n        require(billExists(_billId), \"Bill does not exist\");\n        return bills[_getBillIndex(_billId)].sponsorAddress;\n    }\n\n    /// @notice can be used by a client contract to ensure that they've connected to this contract interface successfully\n    /// @return true, unconditionally\n    function testConnection() public pure returns (bool) {\n        return true;\n    }\n\n    /// @notice gets the address of this contract\n    /// @return address\n    function getAddress() public view returns (address) {\n        return address(this);\n    }\n\n    function makeTestAddress() private view onlyOwner returns (address) {\n        return address(uint256(keccak256(abi.encodePacked(now))));\n    }\n\n    /// @notice for testing\n    function addTestData() external onlyOwner {\n        address testLegislator = 0x6CeB680a1bF3CBaf2C480ca7061Ca8207e5d1e83;\n        // address testLegislator = 0x4DCd6ddFDBFF54CB7855C5eF1E039A3D8C8d7D01;\n        addBill(\"\", \"George Clooney\", testLegislator, DateLib.DateTime(2022, 1, 20, 0, 0, 0, 0, 0).toUnixTimestamp(), \"\", \"\", 0, \"Proposal to do the thing\", \"m23t4930gj\");\n        addBill(\"\", \"Bill Nye\", testLegislator, DateLib.DateTime(2022, 5, 20, 0, 0, 0, 0, 0).toUnixTimestamp(), \"\", \"\", 0, \"Proposal to do the other thing\", \"r30t294gr\");\n        addBill(\"\", \"Adam Driver\", testLegislator, DateLib.DateTime(2022, 1, 19, 0, 0, 0, 0, 0).toUnixTimestamp(), \"\", \"\", 0, \"Proposal to do the other other thing\", \"i230t94jgre\");\n        addBill(\"0m23t4930gj\", \"Sean Livingston\", testLegislator, DateLib.DateTime(2022, 5, 10, 0, 0, 0, 0, 0).toUnixTimestamp(), \"\", \"\", 0, \"Proposal to roll back the thing\", \"m23t4930gj\");\n        addBill(\"\", \"Sanjit Biswas\", testLegislator, DateLib.DateTime(2021, 1, 20, 0, 0, 0, 0, 0).toUnixTimestamp(), \"\", \"\", 0, \"Proposal to make money\", \"42tg90jg\");\n        addBill(\"\", \"John Bicket\", testLegislator, DateLib.DateTime(2021, 2, 20, 0, 0, 0, 0, 0).toUnixTimestamp(), \"\", \"\", 0, \"Proposal to build it\", \"gjeotw5990\");\n    }\n}\n",
  "sourcePath": "/Users/oliversong/Development/open-lobby/oracle/contracts/BillOracle.sol",
  "compiler": {
    "name": "solc",
    "version": "0.5.16+commit.9c3226ce.Emscripten.clang"
  },
  "schemaVersion": "3.4.7",
  "updatedAt": "2022-07-17T23:29:08.867Z",
  "networkType": "ethereum",
  "devdoc": {
    "author": "Oliver",
    "methods": {
      "addBill(string,string,address,uint256,string,string,uint256,string,string)": {
        "return": "the unique id of the newly created bill"
      },
      "billExists(bytes32)": {
        "params": {
          "_billId": "the bill id to test"
        },
        "return": "true if bill exists and id is valid"
      },
      "declareOutcome(bytes32,uint8)": {
        "params": {
          "_billId": "unique id of the bill to modify",
          "_outcome": "outcome of the bill"
        }
      },
      "getAddress()": {
        "return": "address"
      },
      "getAllBills()": {
        "return": "an array of unique bill ids"
      },
      "getBill(bytes32)": {
        "params": {
          "_billId": "the unique id of the desired bill"
        }
      },
      "getMostRecentBill(bool)": {
        "params": {
          "_pending": "if true, will return only the most recent pending bill; otherwise, returns the most recent bill either pending or completed"
        }
      },
      "getPendingBills()": {
        "return": "an array of unique bill ids"
      },
      "testConnection()": {
        "return": "true, unconditionally"
      },
      "transferOwnership(address)": {
        "details": "Allows the current owner to transfer control of the contract to a newOwner.",
        "params": {
          "newOwner": "The address to transfer ownership to."
        }
      }
    },
    "title": "BillOracle"
  },
  "userdoc": {
    "methods": {
      "addBill(string,string,address,uint256,string,string,uint256,string,string)": {
        "notice": "puts a new bill into the blockchain"
      },
      "addTestData()": {
        "notice": "for testing"
      },
      "billExists(bytes32)": {
        "notice": "determines whether a bill exists with the given id"
      },
      "declareOutcome(bytes32,uint8)": {
        "notice": "sets the outcome of a predefined bill, permanently on the blockchain"
      },
      "getAddress()": {
        "notice": "gets the address of this contract"
      },
      "getAllBills()": {
        "notice": "gets the unique ids of bills, pending and decided, in reverse chronological order"
      },
      "getBill(bytes32)": {
        "notice": "gets the specified bill"
      },
      "getMostRecentBill(bool)": {
        "notice": "gets the most recent bill or pending bill"
      },
      "getPendingBills()": {
        "notice": "gets the unique ids of all pending bills, in reverse chronological order"
      },
      "testConnection()": {
        "notice": "can be used by a client contract to ensure that they've connected to this contract interface successfully"
      }
    },
    "notice": "Collects and provides information on bills and their status"
  }
}